{
  "_format": "hh-sol-artifact-1",
  "contractName": "Nestad",
  "sourceName": "contracts/Nestad.sol",
  "abi": [
    {
      "inputs": [
        {
          "internalType": "string",
          "name": "_name",
          "type": "string"
        },
        {
          "internalType": "string",
          "name": "_symbol",
          "type": "string"
        },
        {
          "internalType": "string",
          "name": "_baseUri",
          "type": "string"
        },
        {
          "components": [
            {
              "internalType": "uint256",
              "name": "maxTokens",
              "type": "uint256"
            },
            {
              "internalType": "uint256",
              "name": "mintPrice",
              "type": "uint256"
            },
            {
              "internalType": "uint256",
              "name": "whitelistPrice",
              "type": "uint256"
            },
            {
              "internalType": "uint256",
              "name": "maxMintPerTx",
              "type": "uint256"
            },
            {
              "internalType": "uint256",
              "name": "maxMintPerWallet",
              "type": "uint256"
            }
          ],
          "internalType": "struct Nestad.CollectionConfig",
          "name": "_collectionConfig",
          "type": "tuple"
        },
        {
          "components": [
            {
              "internalType": "bool",
              "name": "hasWhitelist",
              "type": "bool"
            },
            {
              "internalType": "uint256",
              "name": "whitelistStart",
              "type": "uint256"
            },
            {
              "internalType": "uint256",
              "name": "whitelistEnd",
              "type": "uint256"
            },
            {
              "internalType": "uint256",
              "name": "publicSaleStart",
              "type": "uint256"
            },
            {
              "internalType": "uint256",
              "name": "publicSaleEnd",
              "type": "uint256"
            }
          ],
          "internalType": "struct Nestad.SaleConfig",
          "name": "_saleConfig",
          "type": "tuple"
        },
        {
          "internalType": "uint256",
          "name": "_royaltyFee",
          "type": "uint256"
        }
      ],
      "stateMutability": "nonpayable",
      "type": "constructor"
    },
    {
      "anonymous": false,
      "inputs": [
        {
          "indexed": true,
          "internalType": "address",
          "name": "owner",
          "type": "address"
        },
        {
          "indexed": true,
          "internalType": "address",
          "name": "approved",
          "type": "address"
        },
        {
          "indexed": true,
          "internalType": "uint256",
          "name": "tokenId",
          "type": "uint256"
        }
      ],
      "name": "Approval",
      "type": "event"
    },
    {
      "anonymous": false,
      "inputs": [
        {
          "indexed": true,
          "internalType": "address",
          "name": "owner",
          "type": "address"
        },
        {
          "indexed": true,
          "internalType": "address",
          "name": "operator",
          "type": "address"
        },
        {
          "indexed": false,
          "internalType": "bool",
          "name": "approved",
          "type": "bool"
        }
      ],
      "name": "ApprovalForAll",
      "type": "event"
    },
    {
      "anonymous": false,
      "inputs": [
        {
          "indexed": false,
          "internalType": "string",
          "name": "newBaseURI",
          "type": "string"
        }
      ],
      "name": "BaseURISet",
      "type": "event"
    },
    {
      "anonymous": false,
      "inputs": [
        {
          "indexed": true,
          "internalType": "address",
          "name": "owner",
          "type": "address"
        },
        {
          "indexed": false,
          "internalType": "uint256",
          "name": "amount",
          "type": "uint256"
        }
      ],
      "name": "FundsWithdrawn",
      "type": "event"
    },
    {
      "anonymous": false,
      "inputs": [
        {
          "indexed": false,
          "internalType": "uint256",
          "name": "newMaxMintPerTx",
          "type": "uint256"
        },
        {
          "indexed": false,
          "internalType": "uint256",
          "name": "newMaxMintPerWallet",
          "type": "uint256"
        }
      ],
      "name": "MaxMintUpdated",
      "type": "event"
    },
    {
      "anonymous": false,
      "inputs": [
        {
          "indexed": true,
          "internalType": "address",
          "name": "previousOwner",
          "type": "address"
        },
        {
          "indexed": true,
          "internalType": "address",
          "name": "newOwner",
          "type": "address"
        }
      ],
      "name": "OwnershipTransferred",
      "type": "event"
    },
    {
      "anonymous": false,
      "inputs": [
        {
          "indexed": false,
          "internalType": "uint256",
          "name": "newPrice",
          "type": "uint256"
        }
      ],
      "name": "PriceUpdated",
      "type": "event"
    },
    {
      "anonymous": false,
      "inputs": [
        {
          "indexed": false,
          "internalType": "bytes32",
          "name": "newRoot",
          "type": "bytes32"
        }
      ],
      "name": "RootUpdated",
      "type": "event"
    },
    {
      "anonymous": false,
      "inputs": [
        {
          "indexed": false,
          "internalType": "uint256",
          "name": "newRoyaltyFee",
          "type": "uint256"
        }
      ],
      "name": "RoyaltyUpdated",
      "type": "event"
    },
    {
      "anonymous": false,
      "inputs": [
        {
          "indexed": false,
          "internalType": "bool",
          "name": "isPublicSaleActive",
          "type": "bool"
        },
        {
          "indexed": false,
          "internalType": "bool",
          "name": "isWhitelistActive",
          "type": "bool"
        }
      ],
      "name": "SaleStateUpdated",
      "type": "event"
    },
    {
      "anonymous": false,
      "inputs": [
        {
          "indexed": false,
          "internalType": "uint256",
          "name": "whitelistStart",
          "type": "uint256"
        },
        {
          "indexed": false,
          "internalType": "uint256",
          "name": "whitelistEnd",
          "type": "uint256"
        },
        {
          "indexed": false,
          "internalType": "uint256",
          "name": "publicSaleStart",
          "type": "uint256"
        },
        {
          "indexed": false,
          "internalType": "uint256",
          "name": "publicSaleEnd",
          "type": "uint256"
        }
      ],
      "name": "SaleTimesUpdated",
      "type": "event"
    },
    {
      "anonymous": false,
      "inputs": [
        {
          "indexed": true,
          "internalType": "address",
          "name": "minter",
          "type": "address"
        },
        {
          "indexed": false,
          "internalType": "uint256",
          "name": "amount",
          "type": "uint256"
        }
      ],
      "name": "TokensMinted",
      "type": "event"
    },
    {
      "anonymous": false,
      "inputs": [
        {
          "indexed": true,
          "internalType": "address",
          "name": "from",
          "type": "address"
        },
        {
          "indexed": true,
          "internalType": "address",
          "name": "to",
          "type": "address"
        },
        {
          "indexed": true,
          "internalType": "uint256",
          "name": "tokenId",
          "type": "uint256"
        }
      ],
      "name": "Transfer",
      "type": "event"
    },
    {
      "inputs": [],
      "name": "PLATFORM_ADDRESS",
      "outputs": [
        {
          "internalType": "address",
          "name": "",
          "type": "address"
        }
      ],
      "stateMutability": "view",
      "type": "function"
    },
    {
      "inputs": [],
      "name": "PLATFORM_ROYALTY",
      "outputs": [
        {
          "internalType": "uint256",
          "name": "",
          "type": "uint256"
        }
      ],
      "stateMutability": "view",
      "type": "function"
    },
    {
      "inputs": [
        {
          "internalType": "address",
          "name": "to",
          "type": "address"
        },
        {
          "internalType": "uint256",
          "name": "tokenId",
          "type": "uint256"
        }
      ],
      "name": "approve",
      "outputs": [],
      "stateMutability": "nonpayable",
      "type": "function"
    },
    {
      "inputs": [
        {
          "internalType": "address",
          "name": "owner",
          "type": "address"
        }
      ],
      "name": "balanceOf",
      "outputs": [
        {
          "internalType": "uint256",
          "name": "",
          "type": "uint256"
        }
      ],
      "stateMutability": "view",
      "type": "function"
    },
    {
      "inputs": [],
      "name": "baseUri",
      "outputs": [
        {
          "internalType": "string",
          "name": "",
          "type": "string"
        }
      ],
      "stateMutability": "view",
      "type": "function"
    },
    {
      "inputs": [],
      "name": "collectionConfig",
      "outputs": [
        {
          "internalType": "uint256",
          "name": "maxTokens",
          "type": "uint256"
        },
        {
          "internalType": "uint256",
          "name": "mintPrice",
          "type": "uint256"
        },
        {
          "internalType": "uint256",
          "name": "whitelistPrice",
          "type": "uint256"
        },
        {
          "internalType": "uint256",
          "name": "maxMintPerTx",
          "type": "uint256"
        },
        {
          "internalType": "uint256",
          "name": "maxMintPerWallet",
          "type": "uint256"
        }
      ],
      "stateMutability": "view",
      "type": "function"
    },
    {
      "inputs": [
        {
          "internalType": "uint256",
          "name": "tokenId",
          "type": "uint256"
        }
      ],
      "name": "getApproved",
      "outputs": [
        {
          "internalType": "address",
          "name": "",
          "type": "address"
        }
      ],
      "stateMutability": "view",
      "type": "function"
    },
    {
      "inputs": [
        {
          "internalType": "address",
          "name": "owner",
          "type": "address"
        },
        {
          "internalType": "address",
          "name": "operator",
          "type": "address"
        }
      ],
      "name": "isApprovedForAll",
      "outputs": [
        {
          "internalType": "bool",
          "name": "",
          "type": "bool"
        }
      ],
      "stateMutability": "view",
      "type": "function"
    },
    {
      "inputs": [],
      "name": "isPublicSaleActive",
      "outputs": [
        {
          "internalType": "bool",
          "name": "",
          "type": "bool"
        }
      ],
      "stateMutability": "view",
      "type": "function"
    },
    {
      "inputs": [
        {
          "internalType": "bytes32[]",
          "name": "proof",
          "type": "bytes32[]"
        },
        {
          "internalType": "bytes32",
          "name": "leaf",
          "type": "bytes32"
        }
      ],
      "name": "isValid",
      "outputs": [
        {
          "internalType": "bool",
          "name": "",
          "type": "bool"
        }
      ],
      "stateMutability": "view",
      "type": "function"
    },
    {
      "inputs": [],
      "name": "isWhitelistActive",
      "outputs": [
        {
          "internalType": "bool",
          "name": "",
          "type": "bool"
        }
      ],
      "stateMutability": "view",
      "type": "function"
    },
    {
      "inputs": [],
      "name": "name",
      "outputs": [
        {
          "internalType": "string",
          "name": "",
          "type": "string"
        }
      ],
      "stateMutability": "view",
      "type": "function"
    },
    {
      "inputs": [],
      "name": "owner",
      "outputs": [
        {
          "internalType": "address",
          "name": "",
          "type": "address"
        }
      ],
      "stateMutability": "view",
      "type": "function"
    },
    {
      "inputs": [
        {
          "internalType": "uint256",
          "name": "tokenId",
          "type": "uint256"
        }
      ],
      "name": "ownerOf",
      "outputs": [
        {
          "internalType": "address",
          "name": "",
          "type": "address"
        }
      ],
      "stateMutability": "view",
      "type": "function"
    },
    {
      "inputs": [
        {
          "internalType": "uint256",
          "name": "_amount",
          "type": "uint256"
        }
      ],
      "name": "publicMint",
      "outputs": [],
      "stateMutability": "payable",
      "type": "function"
    },
    {
      "inputs": [],
      "name": "renounceOwnership",
      "outputs": [],
      "stateMutability": "nonpayable",
      "type": "function"
    },
    {
      "inputs": [],
      "name": "royaltyFee",
      "outputs": [
        {
          "internalType": "uint256",
          "name": "",
          "type": "uint256"
        }
      ],
      "stateMutability": "view",
      "type": "function"
    },
    {
      "inputs": [
        {
          "internalType": "uint256",
          "name": "",
          "type": "uint256"
        },
        {
          "internalType": "uint256",
          "name": "_salePrice",
          "type": "uint256"
        }
      ],
      "name": "royaltyInfo",
      "outputs": [
        {
          "internalType": "address",
          "name": "receiver",
          "type": "address"
        },
        {
          "internalType": "uint256",
          "name": "royaltyAmount",
          "type": "uint256"
        }
      ],
      "stateMutability": "view",
      "type": "function"
    },
    {
      "inputs": [
        {
          "internalType": "address",
          "name": "from",
          "type": "address"
        },
        {
          "internalType": "address",
          "name": "to",
          "type": "address"
        },
        {
          "internalType": "uint256",
          "name": "tokenId",
          "type": "uint256"
        }
      ],
      "name": "safeTransferFrom",
      "outputs": [],
      "stateMutability": "nonpayable",
      "type": "function"
    },
    {
      "inputs": [
        {
          "internalType": "address",
          "name": "from",
          "type": "address"
        },
        {
          "internalType": "address",
          "name": "to",
          "type": "address"
        },
        {
          "internalType": "uint256",
          "name": "tokenId",
          "type": "uint256"
        },
        {
          "internalType": "bytes",
          "name": "_data",
          "type": "bytes"
        }
      ],
      "name": "safeTransferFrom",
      "outputs": [],
      "stateMutability": "nonpayable",
      "type": "function"
    },
    {
      "inputs": [],
      "name": "saleConfig",
      "outputs": [
        {
          "internalType": "bool",
          "name": "hasWhitelist",
          "type": "bool"
        },
        {
          "internalType": "uint256",
          "name": "whitelistStart",
          "type": "uint256"
        },
        {
          "internalType": "uint256",
          "name": "whitelistEnd",
          "type": "uint256"
        },
        {
          "internalType": "uint256",
          "name": "publicSaleStart",
          "type": "uint256"
        },
        {
          "internalType": "uint256",
          "name": "publicSaleEnd",
          "type": "uint256"
        }
      ],
      "stateMutability": "view",
      "type": "function"
    },
    {
      "inputs": [
        {
          "internalType": "address",
          "name": "operator",
          "type": "address"
        },
        {
          "internalType": "bool",
          "name": "approved",
          "type": "bool"
        }
      ],
      "name": "setApprovalForAll",
      "outputs": [],
      "stateMutability": "nonpayable",
      "type": "function"
    },
    {
      "inputs": [
        {
          "internalType": "string",
          "name": "_baseUri",
          "type": "string"
        }
      ],
      "name": "setBaseURI",
      "outputs": [],
      "stateMutability": "nonpayable",
      "type": "function"
    },
    {
      "inputs": [
        {
          "internalType": "uint256",
          "name": "_maxMintPerTx",
          "type": "uint256"
        },
        {
          "internalType": "uint256",
          "name": "_maxMintPerWallet",
          "type": "uint256"
        }
      ],
      "name": "setMaxMintLimits",
      "outputs": [],
      "stateMutability": "nonpayable",
      "type": "function"
    },
    {
      "inputs": [
        {
          "internalType": "uint256",
          "name": "_price",
          "type": "uint256"
        }
      ],
      "name": "setPrice",
      "outputs": [],
      "stateMutability": "nonpayable",
      "type": "function"
    },
    {
      "inputs": [
        {
          "internalType": "bytes32",
          "name": "_root",
          "type": "bytes32"
        }
      ],
      "name": "setRoot",
      "outputs": [],
      "stateMutability": "nonpayable",
      "type": "function"
    },
    {
      "inputs": [
        {
          "internalType": "uint256",
          "name": "_royaltyFee",
          "type": "uint256"
        }
      ],
      "name": "setRoyalty",
      "outputs": [],
      "stateMutability": "nonpayable",
      "type": "function"
    },
    {
      "inputs": [
        {
          "internalType": "uint256",
          "name": "_whitelistStart",
          "type": "uint256"
        },
        {
          "internalType": "uint256",
          "name": "_whitelistEnd",
          "type": "uint256"
        },
        {
          "internalType": "uint256",
          "name": "_publicSaleStart",
          "type": "uint256"
        },
        {
          "internalType": "uint256",
          "name": "_publicSaleEnd",
          "type": "uint256"
        }
      ],
      "name": "setSaleTimes",
      "outputs": [],
      "stateMutability": "nonpayable",
      "type": "function"
    },
    {
      "inputs": [
        {
          "internalType": "uint256",
          "name": "_whitelistPrice",
          "type": "uint256"
        }
      ],
      "name": "setWhitelistPrice",
      "outputs": [],
      "stateMutability": "nonpayable",
      "type": "function"
    },
    {
      "inputs": [
        {
          "internalType": "bytes4",
          "name": "interfaceId",
          "type": "bytes4"
        }
      ],
      "name": "supportsInterface",
      "outputs": [
        {
          "internalType": "bool",
          "name": "",
          "type": "bool"
        }
      ],
      "stateMutability": "view",
      "type": "function"
    },
    {
      "inputs": [],
      "name": "symbol",
      "outputs": [
        {
          "internalType": "string",
          "name": "",
          "type": "string"
        }
      ],
      "stateMutability": "view",
      "type": "function"
    },
    {
      "inputs": [],
      "name": "togglePublicSale",
      "outputs": [],
      "stateMutability": "nonpayable",
      "type": "function"
    },
    {
      "inputs": [],
      "name": "toggleWhitelistSale",
      "outputs": [],
      "stateMutability": "nonpayable",
      "type": "function"
    },
    {
      "inputs": [
        {
          "internalType": "uint256",
          "name": "tokenId",
          "type": "uint256"
        }
      ],
      "name": "tokenURI",
      "outputs": [
        {
          "internalType": "string",
          "name": "",
          "type": "string"
        }
      ],
      "stateMutability": "view",
      "type": "function"
    },
    {
      "inputs": [],
      "name": "totalSupply",
      "outputs": [
        {
          "internalType": "uint256",
          "name": "",
          "type": "uint256"
        }
      ],
      "stateMutability": "view",
      "type": "function"
    },
    {
      "inputs": [
        {
          "internalType": "address",
          "name": "from",
          "type": "address"
        },
        {
          "internalType": "address",
          "name": "to",
          "type": "address"
        },
        {
          "internalType": "uint256",
          "name": "tokenId",
          "type": "uint256"
        }
      ],
      "name": "transferFrom",
      "outputs": [],
      "stateMutability": "nonpayable",
      "type": "function"
    },
    {
      "inputs": [
        {
          "internalType": "address",
          "name": "newOwner",
          "type": "address"
        }
      ],
      "name": "transferOwnership",
      "outputs": [],
      "stateMutability": "nonpayable",
      "type": "function"
    },
    {
      "inputs": [
        {
          "internalType": "bytes32[]",
          "name": "proof",
          "type": "bytes32[]"
        },
        {
          "internalType": "uint256",
          "name": "_amount",
          "type": "uint256"
        }
      ],
      "name": "whitelistMint",
      "outputs": [],
      "stateMutability": "payable",
      "type": "function"
    },
    {
      "inputs": [],
      "name": "withdrawAll",
      "outputs": [],
      "stateMutability": "nonpayable",
      "type": "function"
    }
  ],
  "bytecode": "0x60806040526001601660006101000a81548160ff02191690831515021790555034801561002b57600080fd5b50604051615aef380380615aef833981810160405281019061004d919061060d565b8585816000908161005e9190610908565b50806001908161006e9190610908565b50505061008d61008261023f60201b60201c565b61024760201b60201c565b600160078190555082600c600082015181600001556020820151816001015560408201518160020155606082015181600301556080820151816004015590505081601160008201518160000160006101000a81548160ff0219169083151502179055506020820151816001015560408201518160020155606082015181600301556080820151816004015590505083600b908161012a9190610908565b508160000151601660016101000a81548160ff0219169083151502179055506103e86064826101599190610a09565b111561019a576040517f08c379a000000000000000000000000000000000000000000000000000000000815260040161019190610a9a565b60405180910390fd5b806017819055508260400151600c6002018190555081602001516011600101819055508160400151601160020181905550816060015160116003018190555081608001516011600401819055507fdf31a79be646f25cf79f5f1fe56d5972e8af0f25de752b9021b909727a0b8ec4826020015183604001518460600151856080015160405161022c9493929190610ac9565b60405180910390a1505050505050610b0e565b600033905090565b6000600660009054906101000a900473ffffffffffffffffffffffffffffffffffffffff16905081600660006101000a81548173ffffffffffffffffffffffffffffffffffffffff021916908373ffffffffffffffffffffffffffffffffffffffff1602179055508173ffffffffffffffffffffffffffffffffffffffff168173ffffffffffffffffffffffffffffffffffffffff167f8be0079c531659141344cd1fd0a4f28419497f9722a3daafe3b4186f6b6457e060405160405180910390a35050565b6000604051905090565b600080fd5b600080fd5b600080fd5b600080fd5b6000601f19601f8301169050919050565b7f4e487b7100000000000000000000000000000000000000000000000000000000600052604160045260246000fd5b6103748261032b565b810181811067ffffffffffffffff821117156103935761039261033c565b5b80604052505050565b60006103a661030d565b90506103b2828261036b565b919050565b600067ffffffffffffffff8211156103d2576103d161033c565b5b6103db8261032b565b9050602081019050919050565b60005b838110156104065780820151818401526020810190506103eb565b60008484015250505050565b6000610425610420846103b7565b61039c565b90508281526020810184848401111561044157610440610326565b5b61044c8482856103e8565b509392505050565b600082601f83011261046957610468610321565b5b8151610479848260208601610412565b91505092915050565b600080fd5b6000819050919050565b61049a81610487565b81146104a557600080fd5b50565b6000815190506104b781610491565b92915050565b600060a082840312156104d3576104d2610482565b5b6104dd60a061039c565b905060006104ed848285016104a8565b6000830152506020610501848285016104a8565b6020830152506040610515848285016104a8565b6040830152506060610529848285016104a8565b606083015250608061053d848285016104a8565b60808301525092915050565b60008115159050919050565b61055e81610549565b811461056957600080fd5b50565b60008151905061057b81610555565b92915050565b600060a0828403121561059757610596610482565b5b6105a160a061039c565b905060006105b18482850161056c565b60008301525060206105c5848285016104a8565b60208301525060406105d9848285016104a8565b60408301525060606105ed848285016104a8565b6060830152506080610601848285016104a8565b60808301525092915050565b6000806000806000806101c0878903121561062b5761062a610317565b5b600087015167ffffffffffffffff8111156106495761064861031c565b5b61065589828a01610454565b965050602087015167ffffffffffffffff8111156106765761067561031c565b5b61068289828a01610454565b955050604087015167ffffffffffffffff8111156106a3576106a261031c565b5b6106af89828a01610454565b94505060606106c089828a016104bd565b9350506101006106d289828a01610581565b9250506101a06106e489828a016104a8565b9150509295509295509295565b600081519050919050565b7f4e487b7100000000000000000000000000000000000000000000000000000000600052602260045260246000fd5b6000600282049050600182168061074357607f821691505b602082108103610756576107556106fc565b5b50919050565b60008190508160005260206000209050919050565b60006020601f8301049050919050565b600082821b905092915050565b6000600883026107be7fffffffffffffffffffffffffffffffffffffffffffffffffffffffffffffffff82610781565b6107c88683610781565b95508019841693508086168417925050509392505050565b6000819050919050565b60006108056108006107fb84610487565b6107e0565b610487565b9050919050565b6000819050919050565b61081f836107ea565b61083361082b8261080c565b84845461078e565b825550505050565b600090565b61084861083b565b610853818484610816565b505050565b5b818110156108775761086c600082610840565b600181019050610859565b5050565b601f8211156108bc5761088d8161075c565b61089684610771565b810160208510156108a5578190505b6108b96108b185610771565b830182610858565b50505b505050565b600082821c905092915050565b60006108df600019846008026108c1565b1980831691505092915050565b60006108f883836108ce565b9150826002028217905092915050565b610911826106f1565b67ffffffffffffffff81111561092a5761092961033c565b5b610934825461072b565b61093f82828561087b565b600060209050601f8311600181146109725760008415610960578287015190505b61096a85826108ec565b8655506109d2565b601f1984166109808661075c565b60005b828110156109a857848901518255600182019150602085019450602081019050610983565b868310156109c557848901516109c1601f8916826108ce565b8355505b6001600288020188555050505b505050505050565b7f4e487b7100000000000000000000000000000000000000000000000000000000600052601160045260246000fd5b6000610a1482610487565b9150610a1f83610487565b9250828201905080821115610a3757610a366109da565b5b92915050565b600082825260208201905092915050565b7f546f74616c20726f79616c74792063616e6e6f74206578636565642031302500600082015250565b6000610a84601f83610a3d565b9150610a8f82610a4e565b602082019050919050565b60006020820190508181036000830152610ab381610a77565b9050919050565b610ac381610487565b82525050565b6000608082019050610ade6000830187610aba565b610aeb6020830186610aba565b610af86040830185610aba565b610b056060830184610aba565b95945050505050565b614fd280610b1d6000396000f3fe6080604052600436106102305760003560e01c8063717d57d31161012e578063b88d4fde116100ab578063d6b8a82e1161006f578063d6b8a82e14610802578063dab5f3401461082d578063e222c7f914610856578063e985e9c51461086d578063f2fde38b146108aa57610230565b8063b88d4fde14610709578063b8997a9714610732578063b8a20ed01461075d578063bbc284891461079a578063c87b56dd146107c557610230565b806390aa0b0f116100f257806390aa0b0f1461063257806391b7f5ed1461066157806395d89b411461068a5780639abc8320146106b5578063a22cb465146106e057610230565b8063717d57d3146105755780637bc102941461059e5780637f31d96a146105c7578063853828b6146105f05780638da5cb5b1461060757610230565b80632db11544116101bc57806359eda1b51161018057806359eda1b51461049e5780636352211e146104b55780636b34d725146104f257806370a0823114610521578063715018a61461055e57610230565b80632db11544146103dc5780634209a2e1146103f857806342842e0e14610421578063524513d61461044a57806355f804b31461047557610230565b806318160ddd1161020357806318160ddd146103035780631e84c4131461032e57806323b872dd146103595780632904e6d9146103825780632a55205a1461039e57610230565b806301ffc9a71461023557806306fdde0314610272578063081812fc1461029d578063095ea7b3146102da575b600080fd5b34801561024157600080fd5b5061025c60048036038101906102579190613038565b6108d3565b6040516102699190613080565b60405180910390f35b34801561027e57600080fd5b506102876109b5565b604051610294919061312b565b60405180910390f35b3480156102a957600080fd5b506102c460048036038101906102bf9190613183565b610a47565b6040516102d191906131f1565b60405180910390f35b3480156102e657600080fd5b5061030160048036038101906102fc9190613238565b610acc565b005b34801561030f57600080fd5b50610318610be3565b6040516103259190613287565b60405180910390f35b34801561033a57600080fd5b50610343610be9565b6040516103509190613080565b60405180910390f35b34801561036557600080fd5b50610380600480360381019061037b91906132a2565b610bfc565b005b61039c60048036038101906103979190613473565b610c5c565b005b3480156103aa57600080fd5b506103c560048036038101906103c091906134cf565b610d7c565b6040516103d392919061350f565b60405180910390f35b6103f660048036038101906103f19190613183565b610ddd565b005b34801561040457600080fd5b5061041f600480360381019061041a9190613183565b610ef0565b005b34801561042d57600080fd5b50610448600480360381019061044391906132a2565b610ffe565b005b34801561045657600080fd5b5061045f61101e565b60405161046c9190613080565b60405180910390f35b34801561048157600080fd5b5061049c600480360381019061049791906135ed565b611031565b005b3480156104aa57600080fd5b506104b36110f7565b005b3480156104c157600080fd5b506104dc60048036038101906104d79190613183565b6111f6565b6040516104e991906131f1565b60405180910390f35b3480156104fe57600080fd5b506105076112a7565b604051610518959493929190613636565b60405180910390f35b34801561052d57600080fd5b5061054860048036038101906105439190613689565b6112cb565b6040516105559190613287565b60405180910390f35b34801561056a57600080fd5b50610573611382565b005b34801561058157600080fd5b5061059c60048036038101906105979190613183565b61140a565b005b3480156105aa57600080fd5b506105c560048036038101906105c091906136b6565b6114ca565b005b3480156105d357600080fd5b506105ee60048036038101906105e991906134cf565b6115b1565b005b3480156105fc57600080fd5b5061060561167e565b005b34801561061357600080fd5b5061061c6118c8565b60405161062991906131f1565b60405180910390f35b34801561063e57600080fd5b506106476118f2565b60405161065895949392919061371d565b60405180910390f35b34801561066d57600080fd5b5061068860048036038101906106839190613183565b611923565b005b34801561069657600080fd5b5061069f6119e3565b6040516106ac919061312b565b60405180910390f35b3480156106c157600080fd5b506106ca611a75565b6040516106d7919061312b565b60405180910390f35b3480156106ec57600080fd5b506107076004803603810190610702919061379c565b611b03565b005b34801561071557600080fd5b50610730600480360381019061072b919061387d565b611b19565b005b34801561073e57600080fd5b50610747611b7b565b6040516107549190613287565b60405180910390f35b34801561076957600080fd5b50610784600480360381019061077f9190613900565b611b81565b6040516107919190613080565b60405180910390f35b3480156107a657600080fd5b506107af611b98565b6040516107bc91906131f1565b60405180910390f35b3480156107d157600080fd5b506107ec60048036038101906107e79190613183565b611bb0565b6040516107f9919061312b565b60405180910390f35b34801561080e57600080fd5b50610817611c58565b6040516108249190613287565b60405180910390f35b34801561083957600080fd5b50610854600480360381019061084f919061395c565b611c5d565b005b34801561086257600080fd5b5061086b611d1a565b005b34801561087957600080fd5b50610894600480360381019061088f9190613989565b611e19565b6040516108a19190613080565b60405180910390f35b3480156108b657600080fd5b506108d160048036038101906108cc9190613689565b611ead565b005b60007f80ac58cd000000000000000000000000000000000000000000000000000000007bffffffffffffffffffffffffffffffffffffffffffffffffffffffff1916827bffffffffffffffffffffffffffffffffffffffffffffffffffffffff1916148061099e57507f5b5e139f000000000000000000000000000000000000000000000000000000007bffffffffffffffffffffffffffffffffffffffffffffffffffffffff1916827bffffffffffffffffffffffffffffffffffffffffffffffffffffffff1916145b806109ae57506109ad82611fa4565b5b9050919050565b6060600080546109c4906139f8565b80601f01602080910402602001604051908101604052809291908181526020018280546109f0906139f8565b8015610a3d5780601f10610a1257610100808354040283529160200191610a3d565b820191906000526020600020905b815481529060010190602001808311610a2057829003601f168201915b5050505050905090565b6000610a528261200e565b610a91576040517f08c379a0000000000000000000000000000000000000000000000000000000008152600401610a8890613a9b565b60405180910390fd5b6004600083815260200190815260200160002060009054906101000a900473ffffffffffffffffffffffffffffffffffffffff169050919050565b6000610ad7826111f6565b90508073ffffffffffffffffffffffffffffffffffffffff168373ffffffffffffffffffffffffffffffffffffffff1603610b47576040517f08c379a0000000000000000000000000000000000000000000000000000000008152600401610b3e90613b2d565b60405180910390fd5b8073ffffffffffffffffffffffffffffffffffffffff16610b6661207a565b73ffffffffffffffffffffffffffffffffffffffff161480610b955750610b9481610b8f61207a565b611e19565b5b610bd4576040517f08c379a0000000000000000000000000000000000000000000000000000000008152600401610bcb90613bbf565b60405180910390fd5b610bde8383612082565b505050565b60095481565b601660009054906101000a900460ff1681565b610c0d610c0761207a565b8261213b565b610c4c576040517f08c379a0000000000000000000000000000000000000000000000000000000008152600401610c4390613c51565b60405180910390fd5b610c57838383612219565b505050565b601660019054906101000a900460ff16610cab576040517f08c379a0000000000000000000000000000000000000000000000000000000008152600401610ca290613cbd565b60405180910390fd5b610cbf60116001015460116002015461247f565b610cfe576040517f08c379a0000000000000000000000000000000000000000000000000000000008152600401610cf590613d29565b60405180910390fd5b610d2e8233604051602001610d139190613d91565b60405160208183030381529060405280519060200120611b81565b610d6d576040517f08c379a0000000000000000000000000000000000000000000000000000000008152600401610d6490613df8565b60405180910390fd5b610d788160016124ae565b5050565b6000806000612710606485610d919190613e47565b610d9b9190613eb8565b9050600061271060175486610db09190613e47565b610dba9190613eb8565b9050610dc46118c8565b8282610dd09190613ee9565b9350935050509250929050565b601160000160009054906101000a900460ff161580610e0157506011600201544210155b610e40576040517f08c379a0000000000000000000000000000000000000000000000000000000008152600401610e3790613f8f565b60405180910390fd5b601660009054906101000a900460ff16610e8f576040517f08c379a0000000000000000000000000000000000000000000000000000000008152600401610e8690613ffb565b60405180910390fd5b610ea360116003015460116004015461247f565b610ee2576040517f08c379a0000000000000000000000000000000000000000000000000000000008152600401610ed990614067565b60405180910390fd5b610eed8160006124ae565b50565b610ef861207a565b73ffffffffffffffffffffffffffffffffffffffff16610f166118c8565b73ffffffffffffffffffffffffffffffffffffffff1614610f6c576040517f08c379a0000000000000000000000000000000000000000000000000000000008152600401610f63906140d3565b60405180910390fd5b6103e8606482610f7c91906140f3565b1115610fbd576040517f08c379a0000000000000000000000000000000000000000000000000000000008152600401610fb490614173565b60405180910390fd5b806017819055507f244ea8d7627f5a08f4299862bd5a45752842c183aee5b0fb0d1e4887bfa605b381604051610ff39190613287565b60405180910390a150565b61101983838360405180602001604052806000815250611b19565b505050565b601660019054906101000a900460ff1681565b61103961207a565b73ffffffffffffffffffffffffffffffffffffffff166110576118c8565b73ffffffffffffffffffffffffffffffffffffffff16146110ad576040517f08c379a00000000000000000000000000000000000000000000000000000000081526004016110a4906140d3565b60405180910390fd5b80600b90816110bc919061433f565b507ff9c7803e94e0d3c02900d8a90893a6d5e90dd04d32a4cfe825520f82bf9f32f6816040516110ec919061312b565b60405180910390a150565b6110ff61207a565b73ffffffffffffffffffffffffffffffffffffffff1661111d6118c8565b73ffffffffffffffffffffffffffffffffffffffff1614611173576040517f08c379a000000000000000000000000000000000000000000000000000000000815260040161116a906140d3565b60405180910390fd5b601660019054906101000a900460ff1615601660016101000a81548160ff0219169083151502179055507f0f3ceb1b1df7afa89a10afbea0bc86b42296cfdfa410cdd70a7c2a97f9f9a373601660009054906101000a900460ff16601660019054906101000a900460ff166040516111ec929190614411565b60405180910390a1565b6000806002600084815260200190815260200160002060009054906101000a900473ffffffffffffffffffffffffffffffffffffffff169050600073ffffffffffffffffffffffffffffffffffffffff168173ffffffffffffffffffffffffffffffffffffffff160361129e576040517f08c379a0000000000000000000000000000000000000000000000000000000008152600401611295906144ac565b60405180910390fd5b80915050919050565b600c8060000154908060010154908060020154908060030154908060040154905085565b60008073ffffffffffffffffffffffffffffffffffffffff168273ffffffffffffffffffffffffffffffffffffffff160361133b576040517f08c379a00000000000000000000000000000000000000000000000000000000081526004016113329061453e565b60405180910390fd5b600360008373ffffffffffffffffffffffffffffffffffffffff1673ffffffffffffffffffffffffffffffffffffffff168152602001908152602001600020549050919050565b61138a61207a565b73ffffffffffffffffffffffffffffffffffffffff166113a86118c8565b73ffffffffffffffffffffffffffffffffffffffff16146113fe576040517f08c379a00000000000000000000000000000000000000000000000000000000081526004016113f5906140d3565b60405180910390fd5b611408600061273b565b565b61141261207a565b73ffffffffffffffffffffffffffffffffffffffff166114306118c8565b73ffffffffffffffffffffffffffffffffffffffff1614611486576040517f08c379a000000000000000000000000000000000000000000000000000000000815260040161147d906140d3565b60405180910390fd5b80600c600201819055507f66cbca4f3c64fecf1dcb9ce094abcf7f68c3450a1d4e3a8e917dd621edb4ebe0816040516114bf9190613287565b60405180910390a150565b6114d261207a565b73ffffffffffffffffffffffffffffffffffffffff166114f06118c8565b73ffffffffffffffffffffffffffffffffffffffff1614611546576040517f08c379a000000000000000000000000000000000000000000000000000000000815260040161153d906140d3565b60405180910390fd5b836011600101819055508260116002018190555081601160030181905550806011600401819055507fdf31a79be646f25cf79f5f1fe56d5972e8af0f25de752b9021b909727a0b8ec4848484846040516115a3949392919061455e565b60405180910390a150505050565b6115b961207a565b73ffffffffffffffffffffffffffffffffffffffff166115d76118c8565b73ffffffffffffffffffffffffffffffffffffffff161461162d576040517f08c379a0000000000000000000000000000000000000000000000000000000008152600401611624906140d3565b60405180910390fd5b81600c6003018190555080600c600401819055507fc37cc9c3c37fdcacbe05156c2f68f96e3d3ecec5a381a8929651bf7a317f0d1c82826040516116729291906145a3565b60405180910390a15050565b6002600754036116c3576040517f08c379a00000000000000000000000000000000000000000000000000000000081526004016116ba90614618565b60405180910390fd5b60026007819055506116d361207a565b73ffffffffffffffffffffffffffffffffffffffff166116f16118c8565b73ffffffffffffffffffffffffffffffffffffffff1614611747576040517f08c379a000000000000000000000000000000000000000000000000000000000815260040161173e906140d3565b60405180910390fd5b60004790506000811161178f576040517f08c379a000000000000000000000000000000000000000000000000000000000815260040161178690614684565b60405180910390fd5b60006127106064836117a19190613e47565b6117ab9190613eb8565b9050600081836117bb9190613ee9565b905073f26eab233b0a2b499fc21f4452fac0326303076573ffffffffffffffffffffffffffffffffffffffff166108fc839081150290604051600060405180830381858888f19350505050158015611817573d6000803e3d6000fd5b506118206118c8565b73ffffffffffffffffffffffffffffffffffffffff166108fc829081150290604051600060405180830381858888f19350505050158015611865573d6000803e3d6000fd5b5061186e6118c8565b73ffffffffffffffffffffffffffffffffffffffff167feaff4b37086828766ad3268786972c0cd24259d4c87a80f9d3963a3c3d999b0d826040516118b39190613287565b60405180910390a25050506001600781905550565b6000600660009054906101000a900473ffffffffffffffffffffffffffffffffffffffff16905090565b60118060000160009054906101000a900460ff16908060010154908060020154908060030154908060040154905085565b61192b61207a565b73ffffffffffffffffffffffffffffffffffffffff166119496118c8565b73ffffffffffffffffffffffffffffffffffffffff161461199f576040517f08c379a0000000000000000000000000000000000000000000000000000000008152600401611996906140d3565b60405180910390fd5b80600c600101819055507f66cbca4f3c64fecf1dcb9ce094abcf7f68c3450a1d4e3a8e917dd621edb4ebe0816040516119d89190613287565b60405180910390a150565b6060600180546119f2906139f8565b80601f0160208091040260200160405190810160405280929190818152602001828054611a1e906139f8565b8015611a6b5780601f10611a4057610100808354040283529160200191611a6b565b820191906000526020600020905b815481529060010190602001808311611a4e57829003601f168201915b5050505050905090565b600b8054611a82906139f8565b80601f0160208091040260200160405190810160405280929190818152602001828054611aae906139f8565b8015611afb5780601f10611ad057610100808354040283529160200191611afb565b820191906000526020600020905b815481529060010190602001808311611ade57829003601f168201915b505050505081565b611b15611b0e61207a565b8383612801565b5050565b611b2a611b2461207a565b8361213b565b611b69576040517f08c379a0000000000000000000000000000000000000000000000000000000008152600401611b6090613c51565b60405180910390fd5b611b758484848461296d565b50505050565b60175481565b6000611b9083600854846129c9565b905092915050565b73f26eab233b0a2b499fc21f4452fac0326303076581565b6060611bbb8261200e565b611bfa576040517f08c379a0000000000000000000000000000000000000000000000000000000008152600401611bf190614716565b60405180910390fd5b6000600b8054611c09906139f8565b905011611c255760405180602001604052806000815250611c51565b600b611c30836129e0565b604051602001611c419291906147f5565b6040516020818303038152906040525b9050919050565b606481565b611c6561207a565b73ffffffffffffffffffffffffffffffffffffffff16611c836118c8565b73ffffffffffffffffffffffffffffffffffffffff1614611cd9576040517f08c379a0000000000000000000000000000000000000000000000000000000008152600401611cd0906140d3565b60405180910390fd5b806008819055507f2cbc14f49c068133583f7cb530018af451c87c1cf1327cf2a4ff4698c4730aa481604051611d0f9190614828565b60405180910390a150565b611d2261207a565b73ffffffffffffffffffffffffffffffffffffffff16611d406118c8565b73ffffffffffffffffffffffffffffffffffffffff1614611d96576040517f08c379a0000000000000000000000000000000000000000000000000000000008152600401611d8d906140d3565b60405180910390fd5b601660009054906101000a900460ff1615601660006101000a81548160ff0219169083151502179055507f0f3ceb1b1df7afa89a10afbea0bc86b42296cfdfa410cdd70a7c2a97f9f9a373601660009054906101000a900460ff16601660019054906101000a900460ff16604051611e0f929190614411565b60405180910390a1565b6000600560008473ffffffffffffffffffffffffffffffffffffffff1673ffffffffffffffffffffffffffffffffffffffff16815260200190815260200160002060008373ffffffffffffffffffffffffffffffffffffffff1673ffffffffffffffffffffffffffffffffffffffff16815260200190815260200160002060009054906101000a900460ff16905092915050565b611eb561207a565b73ffffffffffffffffffffffffffffffffffffffff16611ed36118c8565b73ffffffffffffffffffffffffffffffffffffffff1614611f29576040517f08c379a0000000000000000000000000000000000000000000000000000000008152600401611f20906140d3565b60405180910390fd5b600073ffffffffffffffffffffffffffffffffffffffff168173ffffffffffffffffffffffffffffffffffffffff1603611f98576040517f08c379a0000000000000000000000000000000000000000000000000000000008152600401611f8f906148b5565b60405180910390fd5b611fa18161273b565b50565b60007f01ffc9a7000000000000000000000000000000000000000000000000000000007bffffffffffffffffffffffffffffffffffffffffffffffffffffffff1916827bffffffffffffffffffffffffffffffffffffffffffffffffffffffff1916149050919050565b60008073ffffffffffffffffffffffffffffffffffffffff166002600084815260200190815260200160002060009054906101000a900473ffffffffffffffffffffffffffffffffffffffff1673ffffffffffffffffffffffffffffffffffffffff1614159050919050565b600033905090565b816004600083815260200190815260200160002060006101000a81548173ffffffffffffffffffffffffffffffffffffffff021916908373ffffffffffffffffffffffffffffffffffffffff160217905550808273ffffffffffffffffffffffffffffffffffffffff166120f5836111f6565b73ffffffffffffffffffffffffffffffffffffffff167f8c5be1e5ebec7d5bd14f71427d1e84f3dd0314c0f7b2291e5b200ac8c7c3b92560405160405180910390a45050565b60006121468261200e565b612185576040517f08c379a000000000000000000000000000000000000000000000000000000000815260040161217c90614947565b60405180910390fd5b6000612190836111f6565b90508073ffffffffffffffffffffffffffffffffffffffff168473ffffffffffffffffffffffffffffffffffffffff1614806121ff57508373ffffffffffffffffffffffffffffffffffffffff166121e784610a47565b73ffffffffffffffffffffffffffffffffffffffff16145b80612210575061220f8185611e19565b5b91505092915050565b8273ffffffffffffffffffffffffffffffffffffffff16612239826111f6565b73ffffffffffffffffffffffffffffffffffffffff161461228f576040517f08c379a0000000000000000000000000000000000000000000000000000000008152600401612286906149d9565b60405180910390fd5b600073ffffffffffffffffffffffffffffffffffffffff168273ffffffffffffffffffffffffffffffffffffffff16036122fe576040517f08c379a00000000000000000000000000000000000000000000000000000000081526004016122f590614a6b565b60405180910390fd5b612309838383612b40565b612314600082612082565b6001600360008573ffffffffffffffffffffffffffffffffffffffff1673ffffffffffffffffffffffffffffffffffffffff16815260200190815260200160002060008282546123649190613ee9565b925050819055506001600360008473ffffffffffffffffffffffffffffffffffffffff1673ffffffffffffffffffffffffffffffffffffffff16815260200190815260200160002060008282546123bb91906140f3565b92505081905550816002600083815260200190815260200160002060006101000a81548173ffffffffffffffffffffffffffffffffffffffff021916908373ffffffffffffffffffffffffffffffffffffffff160217905550808273ffffffffffffffffffffffffffffffffffffffff168473ffffffffffffffffffffffffffffffffffffffff167fddf252ad1be2c89b69c2b068fc378daa952ba7f163c4a11628f55a4df523b3ef60405160405180910390a461247a838383612b45565b505050565b60008083148061248f5750824210155b80156124a6575060008214806124a55750814211155b5b905092915050565b600c600301548211156124f6576040517f08c379a00000000000000000000000000000000000000000000000000000000081526004016124ed90614ad7565b60405180910390fd5b600c6004015482600a60003373ffffffffffffffffffffffffffffffffffffffff1673ffffffffffffffffffffffffffffffffffffffff1681526020019081526020016000205461254791906140f3565b1115612588576040517f08c379a000000000000000000000000000000000000000000000000000000000815260040161257f90614b43565b60405180910390fd5b600c600001548260095461259c91906140f3565b11156125dd576040517f08c379a00000000000000000000000000000000000000000000000000000000081526004016125d490614baf565b60405180910390fd5b6000816125ef57600c600101546125f6565b600c600201545b90503481846126059190613e47565b1115612646576040517f08c379a000000000000000000000000000000000000000000000000000000000815260040161263d90614c1b565b60405180910390fd5b6000600190505b8381116126785761266b338260095461266691906140f3565b612b4a565b808060010191505061264d565b5082600a60003373ffffffffffffffffffffffffffffffffffffffff1673ffffffffffffffffffffffffffffffffffffffff16815260200190815260200160002060008282546126c891906140f3565b9250508190555082600960008282546126e191906140f3565b925050819055503373ffffffffffffffffffffffffffffffffffffffff167f3f2c9d57c068687834f0de942a9babb9e5acab57d516d3480a3c16ee165a42738460405161272e9190613287565b60405180910390a2505050565b6000600660009054906101000a900473ffffffffffffffffffffffffffffffffffffffff16905081600660006101000a81548173ffffffffffffffffffffffffffffffffffffffff021916908373ffffffffffffffffffffffffffffffffffffffff1602179055508173ffffffffffffffffffffffffffffffffffffffff168173ffffffffffffffffffffffffffffffffffffffff167f8be0079c531659141344cd1fd0a4f28419497f9722a3daafe3b4186f6b6457e060405160405180910390a35050565b8173ffffffffffffffffffffffffffffffffffffffff168373ffffffffffffffffffffffffffffffffffffffff160361286f576040517f08c379a000000000000000000000000000000000000000000000000000000000815260040161286690614c87565b60405180910390fd5b80600560008573ffffffffffffffffffffffffffffffffffffffff1673ffffffffffffffffffffffffffffffffffffffff16815260200190815260200160002060008473ffffffffffffffffffffffffffffffffffffffff1673ffffffffffffffffffffffffffffffffffffffff16815260200190815260200160002060006101000a81548160ff0219169083151502179055508173ffffffffffffffffffffffffffffffffffffffff168373ffffffffffffffffffffffffffffffffffffffff167f17307eab39ab6107e8899845ad3d59bd9653f200f220920489ca2b5937696c31836040516129609190613080565b60405180910390a3505050565b612978848484612219565b61298484848484612b68565b6129c3576040517f08c379a00000000000000000000000000000000000000000000000000000000081526004016129ba90614d19565b60405180910390fd5b50505050565b6000826129d68584612cef565b1490509392505050565b606060008203612a27576040518060400160405280600181526020017f30000000000000000000000000000000000000000000000000000000000000008152509050612b3b565b600082905060005b60008214612a59578080612a4290614d39565b915050600a82612a529190613eb8565b9150612a2f565b60008167ffffffffffffffff811115612a7557612a746132fa565b5b6040519080825280601f01601f191660200182016040528015612aa75781602001600182028036833780820191505090505b5090505b60008514612b3457600182612ac09190613ee9565b9150600a85612acf9190614d81565b6030612adb91906140f3565b60f81b818381518110612af157612af0614db2565b5b60200101907effffffffffffffffffffffffffffffffffffffffffffffffffffffffffffff1916908160001a905350600a85612b2d9190613eb8565b9450612aab565b8093505050505b919050565b505050565b505050565b612b64828260405180602001604052806000815250612d5e565b5050565b6000612b898473ffffffffffffffffffffffffffffffffffffffff16612db9565b15612ce2578373ffffffffffffffffffffffffffffffffffffffff1663150b7a02612bb261207a565b8786866040518563ffffffff1660e01b8152600401612bd49493929190614e36565b6020604051808303816000875af1925050508015612c1057506040513d601f19601f82011682018060405250810190612c0d9190614e97565b60015b612c92573d8060008114612c40576040519150601f19603f3d011682016040523d82523d6000602084013e612c45565b606091505b506000815103612c8a576040517f08c379a0000000000000000000000000000000000000000000000000000000008152600401612c8190614d19565b60405180910390fd5b805181602001fd5b63150b7a0260e01b7bffffffffffffffffffffffffffffffffffffffffffffffffffffffff1916817bffffffffffffffffffffffffffffffffffffffffffffffffffffffff191614915050612ce7565b600190505b949350505050565b60008082905060005b8451811015612d53576000858281518110612d1657612d15614db2565b5b60200260200101519050808311612d3857612d318382612ddc565b9250612d45565b612d428184612ddc565b92505b508080600101915050612cf8565b508091505092915050565b612d688383612df3565b612d756000848484612b68565b612db4576040517f08c379a0000000000000000000000000000000000000000000000000000000008152600401612dab90614d19565b60405180910390fd5b505050565b6000808273ffffffffffffffffffffffffffffffffffffffff163b119050919050565b600082600052816020526040600020905092915050565b600073ffffffffffffffffffffffffffffffffffffffff168273ffffffffffffffffffffffffffffffffffffffff1603612e62576040517f08c379a0000000000000000000000000000000000000000000000000000000008152600401612e5990614f10565b60405180910390fd5b612e6b8161200e565b15612eab576040517f08c379a0000000000000000000000000000000000000000000000000000000008152600401612ea290614f7c565b60405180910390fd5b612eb760008383612b40565b6001600360008473ffffffffffffffffffffffffffffffffffffffff1673ffffffffffffffffffffffffffffffffffffffff1681526020019081526020016000206000828254612f0791906140f3565b92505081905550816002600083815260200190815260200160002060006101000a81548173ffffffffffffffffffffffffffffffffffffffff021916908373ffffffffffffffffffffffffffffffffffffffff160217905550808273ffffffffffffffffffffffffffffffffffffffff16600073ffffffffffffffffffffffffffffffffffffffff167fddf252ad1be2c89b69c2b068fc378daa952ba7f163c4a11628f55a4df523b3ef60405160405180910390a4612fc860008383612b45565b5050565b6000604051905090565b600080fd5b600080fd5b60007fffffffff0000000000000000000000000000000000000000000000000000000082169050919050565b61301581612fe0565b811461302057600080fd5b50565b6000813590506130328161300c565b92915050565b60006020828403121561304e5761304d612fd6565b5b600061305c84828501613023565b91505092915050565b60008115159050919050565b61307a81613065565b82525050565b60006020820190506130956000830184613071565b92915050565b600081519050919050565b600082825260208201905092915050565b60005b838110156130d55780820151818401526020810190506130ba565b60008484015250505050565b6000601f19601f8301169050919050565b60006130fd8261309b565b61310781856130a6565b93506131178185602086016130b7565b613120816130e1565b840191505092915050565b6000602082019050818103600083015261314581846130f2565b905092915050565b6000819050919050565b6131608161314d565b811461316b57600080fd5b50565b60008135905061317d81613157565b92915050565b60006020828403121561319957613198612fd6565b5b60006131a78482850161316e565b91505092915050565b600073ffffffffffffffffffffffffffffffffffffffff82169050919050565b60006131db826131b0565b9050919050565b6131eb816131d0565b82525050565b600060208201905061320660008301846131e2565b92915050565b613215816131d0565b811461322057600080fd5b50565b6000813590506132328161320c565b92915050565b6000806040838503121561324f5761324e612fd6565b5b600061325d85828601613223565b925050602061326e8582860161316e565b9150509250929050565b6132818161314d565b82525050565b600060208201905061329c6000830184613278565b92915050565b6000806000606084860312156132bb576132ba612fd6565b5b60006132c986828701613223565b93505060206132da86828701613223565b92505060406132eb8682870161316e565b9150509250925092565b600080fd5b7f4e487b7100000000000000000000000000000000000000000000000000000000600052604160045260246000fd5b613332826130e1565b810181811067ffffffffffffffff82111715613351576133506132fa565b5b80604052505050565b6000613364612fcc565b90506133708282613329565b919050565b600067ffffffffffffffff8211156133905761338f6132fa565b5b602082029050602081019050919050565b600080fd5b6000819050919050565b6133b9816133a6565b81146133c457600080fd5b50565b6000813590506133d6816133b0565b92915050565b60006133ef6133ea84613375565b61335a565b90508083825260208201905060208402830185811115613412576134116133a1565b5b835b8181101561343b578061342788826133c7565b845260208401935050602081019050613414565b5050509392505050565b600082601f83011261345a576134596132f5565b5b813561346a8482602086016133dc565b91505092915050565b6000806040838503121561348a57613489612fd6565b5b600083013567ffffffffffffffff8111156134a8576134a7612fdb565b5b6134b485828601613445565b92505060206134c58582860161316e565b9150509250929050565b600080604083850312156134e6576134e5612fd6565b5b60006134f48582860161316e565b92505060206135058582860161316e565b9150509250929050565b600060408201905061352460008301856131e2565b6135316020830184613278565b9392505050565b600080fd5b600067ffffffffffffffff821115613558576135576132fa565b5b613561826130e1565b9050602081019050919050565b82818337600083830152505050565b600061359061358b8461353d565b61335a565b9050828152602081018484840111156135ac576135ab613538565b5b6135b784828561356e565b509392505050565b600082601f8301126135d4576135d36132f5565b5b81356135e484826020860161357d565b91505092915050565b60006020828403121561360357613602612fd6565b5b600082013567ffffffffffffffff81111561362157613620612fdb565b5b61362d848285016135bf565b91505092915050565b600060a08201905061364b6000830188613278565b6136586020830187613278565b6136656040830186613278565b6136726060830185613278565b61367f6080830184613278565b9695505050505050565b60006020828403121561369f5761369e612fd6565b5b60006136ad84828501613223565b91505092915050565b600080600080608085870312156136d0576136cf612fd6565b5b60006136de8782880161316e565b94505060206136ef8782880161316e565b93505060406137008782880161316e565b92505060606137118782880161316e565b91505092959194509250565b600060a0820190506137326000830188613071565b61373f6020830187613278565b61374c6040830186613278565b6137596060830185613278565b6137666080830184613278565b9695505050505050565b61377981613065565b811461378457600080fd5b50565b60008135905061379681613770565b92915050565b600080604083850312156137b3576137b2612fd6565b5b60006137c185828601613223565b92505060206137d285828601613787565b9150509250929050565b600067ffffffffffffffff8211156137f7576137f66132fa565b5b613800826130e1565b9050602081019050919050565b600061382061381b846137dc565b61335a565b90508281526020810184848401111561383c5761383b613538565b5b61384784828561356e565b509392505050565b600082601f830112613864576138636132f5565b5b813561387484826020860161380d565b91505092915050565b6000806000806080858703121561389757613896612fd6565b5b60006138a587828801613223565b94505060206138b687828801613223565b93505060406138c78782880161316e565b925050606085013567ffffffffffffffff8111156138e8576138e7612fdb565b5b6138f48782880161384f565b91505092959194509250565b6000806040838503121561391757613916612fd6565b5b600083013567ffffffffffffffff81111561393557613934612fdb565b5b61394185828601613445565b9250506020613952858286016133c7565b9150509250929050565b60006020828403121561397257613971612fd6565b5b6000613980848285016133c7565b91505092915050565b600080604083850312156139a05761399f612fd6565b5b60006139ae85828601613223565b92505060206139bf85828601613223565b9150509250929050565b7f4e487b7100000000000000000000000000000000000000000000000000000000600052602260045260246000fd5b60006002820490506001821680613a1057607f821691505b602082108103613a2357613a226139c9565b5b50919050565b7f4552433732313a20617070726f76656420717565727920666f72206e6f6e657860008201527f697374656e7420746f6b656e0000000000000000000000000000000000000000602082015250565b6000613a85602c836130a6565b9150613a9082613a29565b604082019050919050565b60006020820190508181036000830152613ab481613a78565b9050919050565b7f4552433732313a20617070726f76616c20746f2063757272656e74206f776e6560008201527f7200000000000000000000000000000000000000000000000000000000000000602082015250565b6000613b176021836130a6565b9150613b2282613abb565b604082019050919050565b60006020820190508181036000830152613b4681613b0a565b9050919050565b7f4552433732313a20617070726f76652063616c6c6572206973206e6f74206f7760008201527f6e6572206e6f7220617070726f76656420666f7220616c6c0000000000000000602082015250565b6000613ba96038836130a6565b9150613bb482613b4d565b604082019050919050565b60006020820190508181036000830152613bd881613b9c565b9050919050565b7f4552433732313a207472616e736665722063616c6c6572206973206e6f74206f60008201527f776e6572206e6f7220617070726f766564000000000000000000000000000000602082015250565b6000613c3b6031836130a6565b9150613c4682613bdf565b604082019050919050565b60006020820190508181036000830152613c6a81613c2e565b9050919050565b7f57686974656c6973742073616c652069732064697361626c6564000000000000600082015250565b6000613ca7601a836130a6565b9150613cb282613c71565b602082019050919050565b60006020820190508181036000830152613cd681613c9a565b9050919050565b7f57686974656c6973742073616c65206e6f742061637469766500000000000000600082015250565b6000613d136019836130a6565b9150613d1e82613cdd565b602082019050919050565b60006020820190508181036000830152613d4281613d06565b9050919050565b60008160601b9050919050565b6000613d6182613d49565b9050919050565b6000613d7382613d56565b9050919050565b613d8b613d86826131d0565b613d68565b82525050565b6000613d9d8284613d7a565b60148201915081905092915050565b7f4e6f742077686974656c69737465640000000000000000000000000000000000600082015250565b6000613de2600f836130a6565b9150613ded82613dac565b602082019050919050565b60006020820190508181036000830152613e1181613dd5565b9050919050565b7f4e487b7100000000000000000000000000000000000000000000000000000000600052601160045260246000fd5b6000613e528261314d565b9150613e5d8361314d565b9250828202613e6b8161314d565b91508282048414831517613e8257613e81613e18565b5b5092915050565b7f4e487b7100000000000000000000000000000000000000000000000000000000600052601260045260246000fd5b6000613ec38261314d565b9150613ece8361314d565b925082613ede57613edd613e89565b5b828204905092915050565b6000613ef48261314d565b9150613eff8361314d565b9250828203905081811115613f1757613f16613e18565b5b92915050565b7f5075626c6963206d696e74696e67206973206e6f7420616c6c6f77656420626560008201527f666f72652077686974656c69737420656e647300000000000000000000000000602082015250565b6000613f796033836130a6565b9150613f8482613f1d565b604082019050919050565b60006020820190508181036000830152613fa881613f6c565b9050919050565b7f5075626c69632073616c652069732064697361626c6564000000000000000000600082015250565b6000613fe56017836130a6565b9150613ff082613faf565b602082019050919050565b6000602082019050818103600083015261401481613fd8565b9050919050565b7f5075626c69632073616c65206e6f742061637469766500000000000000000000600082015250565b60006140516016836130a6565b915061405c8261401b565b602082019050919050565b6000602082019050818103600083015261408081614044565b9050919050565b7f4f776e61626c653a2063616c6c6572206973206e6f7420746865206f776e6572600082015250565b60006140bd6020836130a6565b91506140c882614087565b602082019050919050565b600060208201905081810360008301526140ec816140b0565b9050919050565b60006140fe8261314d565b91506141098361314d565b925082820190508082111561412157614120613e18565b5b92915050565b7f546f74616c20726f79616c74792063616e6e6f74206578636565642031302500600082015250565b600061415d601f836130a6565b915061416882614127565b602082019050919050565b6000602082019050818103600083015261418c81614150565b9050919050565b60008190508160005260206000209050919050565b60006020601f8301049050919050565b600082821b905092915050565b6000600883026141f57fffffffffffffffffffffffffffffffffffffffffffffffffffffffffffffffff826141b8565b6141ff86836141b8565b95508019841693508086168417925050509392505050565b6000819050919050565b600061423c6142376142328461314d565b614217565b61314d565b9050919050565b6000819050919050565b61425683614221565b61426a61426282614243565b8484546141c5565b825550505050565b600090565b61427f614272565b61428a81848461424d565b505050565b5b818110156142ae576142a3600082614277565b600181019050614290565b5050565b601f8211156142f3576142c481614193565b6142cd846141a8565b810160208510156142dc578190505b6142f06142e8856141a8565b83018261428f565b50505b505050565b600082821c905092915050565b6000614316600019846008026142f8565b1980831691505092915050565b600061432f8383614305565b9150826002028217905092915050565b6143488261309b565b67ffffffffffffffff811115614361576143606132fa565b5b61436b82546139f8565b6143768282856142b2565b600060209050601f8311600181146143a95760008415614397578287015190505b6143a18582614323565b865550614409565b601f1984166143b786614193565b60005b828110156143df578489015182556001820191506020850194506020810190506143ba565b868310156143fc57848901516143f8601f891682614305565b8355505b6001600288020188555050505b505050505050565b60006040820190506144266000830185613071565b6144336020830184613071565b9392505050565b7f4552433732313a206f776e657220717565727920666f72206e6f6e657869737460008201527f656e7420746f6b656e0000000000000000000000000000000000000000000000602082015250565b60006144966029836130a6565b91506144a18261443a565b604082019050919050565b600060208201905081810360008301526144c581614489565b9050919050565b7f4552433732313a2062616c616e636520717565727920666f7220746865207a6560008201527f726f206164647265737300000000000000000000000000000000000000000000602082015250565b6000614528602a836130a6565b9150614533826144cc565b604082019050919050565b600060208201905081810360008301526145578161451b565b9050919050565b60006080820190506145736000830187613278565b6145806020830186613278565b61458d6040830185613278565b61459a6060830184613278565b95945050505050565b60006040820190506145b86000830185613278565b6145c56020830184613278565b9392505050565b7f5265656e7472616e637947756172643a207265656e7472616e742063616c6c00600082015250565b6000614602601f836130a6565b915061460d826145cc565b602082019050919050565b60006020820190508181036000830152614631816145f5565b9050919050565b7f4e6f2066756e647320617661696c61626c650000000000000000000000000000600082015250565b600061466e6012836130a6565b915061467982614638565b602082019050919050565b6000602082019050818103600083015261469d81614661565b9050919050565b7f4552433732314d657461646174613a2055524920717565727920666f72206e6f60008201527f6e6578697374656e7420746f6b656e0000000000000000000000000000000000602082015250565b6000614700602f836130a6565b915061470b826146a4565b604082019050919050565b6000602082019050818103600083015261472f816146f3565b9050919050565b600081905092915050565b6000815461474e816139f8565b6147588186614736565b945060018216600081146147735760018114614788576147bb565b60ff19831686528115158202860193506147bb565b61479185614193565b60005b838110156147b357815481890152600182019150602081019050614794565b838801955050505b50505092915050565b60006147cf8261309b565b6147d98185614736565b93506147e98185602086016130b7565b80840191505092915050565b60006148018285614741565b915061480d82846147c4565b91508190509392505050565b614822816133a6565b82525050565b600060208201905061483d6000830184614819565b92915050565b7f4f776e61626c653a206e6577206f776e657220697320746865207a65726f206160008201527f6464726573730000000000000000000000000000000000000000000000000000602082015250565b600061489f6026836130a6565b91506148aa82614843565b604082019050919050565b600060208201905081810360008301526148ce81614892565b9050919050565b7f4552433732313a206f70657261746f7220717565727920666f72206e6f6e657860008201527f697374656e7420746f6b656e0000000000000000000000000000000000000000602082015250565b6000614931602c836130a6565b915061493c826148d5565b604082019050919050565b6000602082019050818103600083015261496081614924565b9050919050565b7f4552433732313a207472616e736665722066726f6d20696e636f72726563742060008201527f6f776e6572000000000000000000000000000000000000000000000000000000602082015250565b60006149c36025836130a6565b91506149ce82614967565b604082019050919050565b600060208201905081810360008301526149f2816149b6565b9050919050565b7f4552433732313a207472616e7366657220746f20746865207a65726f2061646460008201527f7265737300000000000000000000000000000000000000000000000000000000602082015250565b6000614a556024836130a6565b9150614a60826149f9565b604082019050919050565b60006020820190508181036000830152614a8481614a48565b9050919050565b7f45786365656473206d6178206d696e7420706572207472616e73616374696f6e600082015250565b6000614ac16020836130a6565b9150614acc82614a8b565b602082019050919050565b60006020820190508181036000830152614af081614ab4565b9050919050565b7f457863656564732077616c6c6574206d696e74206c696d697400000000000000600082015250565b6000614b2d6019836130a6565b9150614b3882614af7565b602082019050919050565b60006020820190508181036000830152614b5c81614b20565b9050919050565b7f45786365656473206d617820737570706c790000000000000000000000000000600082015250565b6000614b996012836130a6565b9150614ba482614b63565b602082019050919050565b60006020820190508181036000830152614bc881614b8c565b9050919050565b7f496e636f7272656374204d4f4e2076616c756500000000000000000000000000600082015250565b6000614c056013836130a6565b9150614c1082614bcf565b602082019050919050565b60006020820190508181036000830152614c3481614bf8565b9050919050565b7f4552433732313a20617070726f766520746f2063616c6c657200000000000000600082015250565b6000614c716019836130a6565b9150614c7c82614c3b565b602082019050919050565b60006020820190508181036000830152614ca081614c64565b9050919050565b7f4552433732313a207472616e7366657220746f206e6f6e20455243373231526560008201527f63656976657220696d706c656d656e7465720000000000000000000000000000602082015250565b6000614d036032836130a6565b9150614d0e82614ca7565b604082019050919050565b60006020820190508181036000830152614d3281614cf6565b9050919050565b6000614d448261314d565b91507fffffffffffffffffffffffffffffffffffffffffffffffffffffffffffffffff8203614d7657614d75613e18565b5b600182019050919050565b6000614d8c8261314d565b9150614d978361314d565b925082614da757614da6613e89565b5b828206905092915050565b7f4e487b7100000000000000000000000000000000000000000000000000000000600052603260045260246000fd5b600081519050919050565b600082825260208201905092915050565b6000614e0882614de1565b614e128185614dec565b9350614e228185602086016130b7565b614e2b816130e1565b840191505092915050565b6000608082019050614e4b60008301876131e2565b614e5860208301866131e2565b614e656040830185613278565b8181036060830152614e778184614dfd565b905095945050505050565b600081519050614e918161300c565b92915050565b600060208284031215614ead57614eac612fd6565b5b6000614ebb84828501614e82565b91505092915050565b7f4552433732313a206d696e7420746f20746865207a65726f2061646472657373600082015250565b6000614efa6020836130a6565b9150614f0582614ec4565b602082019050919050565b60006020820190508181036000830152614f2981614eed565b9050919050565b7f4552433732313a20746f6b656e20616c7265616479206d696e74656400000000600082015250565b6000614f66601c836130a6565b9150614f7182614f30565b602082019050919050565b60006020820190508181036000830152614f9581614f59565b905091905056fea26469706673582212200c3c150e37513e2187e3bc6d5134851e9aa3c27b99bc212395e7680da2355c4164736f6c634300081a0033",
  "linkReferences": {},
  "deployedLinkReferences": {}
}