{
  "_format": "hh-sol-artifact-1",
  "contractName": "Nestad",
  "sourceName": "contracts/Nestad.sol",
  "abi": [
    {
      "inputs": [
        {
          "internalType": "string",
          "name": "_name",
          "type": "string"
        },
        {
          "internalType": "string",
          "name": "_symbol",
          "type": "string"
        },
        {
          "internalType": "string",
          "name": "_baseUri",
          "type": "string"
        },
        {
          "components": [
            {
              "internalType": "uint256",
              "name": "maxTokens",
              "type": "uint256"
            },
            {
              "internalType": "uint256",
              "name": "mintPrice",
              "type": "uint256"
            },
            {
              "internalType": "uint256",
              "name": "whitelistPrice",
              "type": "uint256"
            },
            {
              "internalType": "uint256",
              "name": "maxMintPerTx",
              "type": "uint256"
            },
            {
              "internalType": "uint256",
              "name": "maxMintPerWallet",
              "type": "uint256"
            }
          ],
          "internalType": "struct Nestad.CollectionConfig",
          "name": "_collectionConfig",
          "type": "tuple"
        },
        {
          "components": [
            {
              "internalType": "bool",
              "name": "hasWhitelist",
              "type": "bool"
            },
            {
              "internalType": "uint256",
              "name": "whitelistStart",
              "type": "uint256"
            },
            {
              "internalType": "uint256",
              "name": "whitelistEnd",
              "type": "uint256"
            },
            {
              "internalType": "uint256",
              "name": "publicSaleStart",
              "type": "uint256"
            },
            {
              "internalType": "uint256",
              "name": "publicSaleEnd",
              "type": "uint256"
            }
          ],
          "internalType": "struct Nestad.SaleConfig",
          "name": "_saleConfig",
          "type": "tuple"
        },
        {
          "internalType": "uint256",
          "name": "_royaltyFee",
          "type": "uint256"
        },
        {
          "internalType": "bytes32",
          "name": "_root",
          "type": "bytes32"
        }
      ],
      "stateMutability": "nonpayable",
      "type": "constructor"
    },
    {
      "anonymous": false,
      "inputs": [
        {
          "indexed": true,
          "internalType": "address",
          "name": "owner",
          "type": "address"
        },
        {
          "indexed": true,
          "internalType": "address",
          "name": "approved",
          "type": "address"
        },
        {
          "indexed": true,
          "internalType": "uint256",
          "name": "tokenId",
          "type": "uint256"
        }
      ],
      "name": "Approval",
      "type": "event"
    },
    {
      "anonymous": false,
      "inputs": [
        {
          "indexed": true,
          "internalType": "address",
          "name": "owner",
          "type": "address"
        },
        {
          "indexed": true,
          "internalType": "address",
          "name": "operator",
          "type": "address"
        },
        {
          "indexed": false,
          "internalType": "bool",
          "name": "approved",
          "type": "bool"
        }
      ],
      "name": "ApprovalForAll",
      "type": "event"
    },
    {
      "anonymous": false,
      "inputs": [
        {
          "indexed": false,
          "internalType": "string",
          "name": "newBaseURI",
          "type": "string"
        }
      ],
      "name": "BaseURISet",
      "type": "event"
    },
    {
      "anonymous": false,
      "inputs": [
        {
          "indexed": true,
          "internalType": "address",
          "name": "owner",
          "type": "address"
        },
        {
          "indexed": false,
          "internalType": "uint256",
          "name": "amount",
          "type": "uint256"
        }
      ],
      "name": "FundsWithdrawn",
      "type": "event"
    },
    {
      "anonymous": false,
      "inputs": [
        {
          "indexed": false,
          "internalType": "uint256",
          "name": "newMaxMintPerTx",
          "type": "uint256"
        },
        {
          "indexed": false,
          "internalType": "uint256",
          "name": "newMaxMintPerWallet",
          "type": "uint256"
        }
      ],
      "name": "MaxMintUpdated",
      "type": "event"
    },
    {
      "anonymous": false,
      "inputs": [
        {
          "indexed": true,
          "internalType": "address",
          "name": "previousOwner",
          "type": "address"
        },
        {
          "indexed": true,
          "internalType": "address",
          "name": "newOwner",
          "type": "address"
        }
      ],
      "name": "OwnershipTransferred",
      "type": "event"
    },
    {
      "anonymous": false,
      "inputs": [
        {
          "indexed": false,
          "internalType": "uint256",
          "name": "newPrice",
          "type": "uint256"
        }
      ],
      "name": "PriceUpdated",
      "type": "event"
    },
    {
      "anonymous": false,
      "inputs": [
        {
          "indexed": false,
          "internalType": "bytes32",
          "name": "newRoot",
          "type": "bytes32"
        }
      ],
      "name": "RootUpdated",
      "type": "event"
    },
    {
      "anonymous": false,
      "inputs": [
        {
          "indexed": false,
          "internalType": "uint256",
          "name": "newRoyaltyFee",
          "type": "uint256"
        }
      ],
      "name": "RoyaltyUpdated",
      "type": "event"
    },
    {
      "anonymous": false,
      "inputs": [
        {
          "indexed": false,
          "internalType": "bool",
          "name": "isPublicSaleActive",
          "type": "bool"
        },
        {
          "indexed": false,
          "internalType": "bool",
          "name": "isWhitelistActive",
          "type": "bool"
        }
      ],
      "name": "SaleStateUpdated",
      "type": "event"
    },
    {
      "anonymous": false,
      "inputs": [
        {
          "indexed": false,
          "internalType": "uint256",
          "name": "whitelistStart",
          "type": "uint256"
        },
        {
          "indexed": false,
          "internalType": "uint256",
          "name": "whitelistEnd",
          "type": "uint256"
        },
        {
          "indexed": false,
          "internalType": "uint256",
          "name": "publicSaleStart",
          "type": "uint256"
        },
        {
          "indexed": false,
          "internalType": "uint256",
          "name": "publicSaleEnd",
          "type": "uint256"
        }
      ],
      "name": "SaleTimesUpdated",
      "type": "event"
    },
    {
      "anonymous": false,
      "inputs": [
        {
          "indexed": true,
          "internalType": "address",
          "name": "minter",
          "type": "address"
        },
        {
          "indexed": false,
          "internalType": "uint256",
          "name": "amount",
          "type": "uint256"
        }
      ],
      "name": "TokensMinted",
      "type": "event"
    },
    {
      "anonymous": false,
      "inputs": [
        {
          "indexed": true,
          "internalType": "address",
          "name": "from",
          "type": "address"
        },
        {
          "indexed": true,
          "internalType": "address",
          "name": "to",
          "type": "address"
        },
        {
          "indexed": true,
          "internalType": "uint256",
          "name": "tokenId",
          "type": "uint256"
        }
      ],
      "name": "Transfer",
      "type": "event"
    },
    {
      "inputs": [],
      "name": "PLATFORM_ADDRESS",
      "outputs": [
        {
          "internalType": "address",
          "name": "",
          "type": "address"
        }
      ],
      "stateMutability": "view",
      "type": "function"
    },
    {
      "inputs": [],
      "name": "PLATFORM_ROYALTY",
      "outputs": [
        {
          "internalType": "uint256",
          "name": "",
          "type": "uint256"
        }
      ],
      "stateMutability": "view",
      "type": "function"
    },
    {
      "inputs": [
        {
          "internalType": "address",
          "name": "to",
          "type": "address"
        },
        {
          "internalType": "uint256",
          "name": "tokenId",
          "type": "uint256"
        }
      ],
      "name": "approve",
      "outputs": [],
      "stateMutability": "nonpayable",
      "type": "function"
    },
    {
      "inputs": [
        {
          "internalType": "address",
          "name": "owner",
          "type": "address"
        }
      ],
      "name": "balanceOf",
      "outputs": [
        {
          "internalType": "uint256",
          "name": "",
          "type": "uint256"
        }
      ],
      "stateMutability": "view",
      "type": "function"
    },
    {
      "inputs": [],
      "name": "baseUri",
      "outputs": [
        {
          "internalType": "string",
          "name": "",
          "type": "string"
        }
      ],
      "stateMutability": "view",
      "type": "function"
    },
    {
      "inputs": [],
      "name": "collectionConfig",
      "outputs": [
        {
          "internalType": "uint256",
          "name": "maxTokens",
          "type": "uint256"
        },
        {
          "internalType": "uint256",
          "name": "mintPrice",
          "type": "uint256"
        },
        {
          "internalType": "uint256",
          "name": "whitelistPrice",
          "type": "uint256"
        },
        {
          "internalType": "uint256",
          "name": "maxMintPerTx",
          "type": "uint256"
        },
        {
          "internalType": "uint256",
          "name": "maxMintPerWallet",
          "type": "uint256"
        }
      ],
      "stateMutability": "view",
      "type": "function"
    },
    {
      "inputs": [
        {
          "internalType": "uint256",
          "name": "tokenId",
          "type": "uint256"
        }
      ],
      "name": "getApproved",
      "outputs": [
        {
          "internalType": "address",
          "name": "",
          "type": "address"
        }
      ],
      "stateMutability": "view",
      "type": "function"
    },
    {
      "inputs": [
        {
          "internalType": "address",
          "name": "owner",
          "type": "address"
        },
        {
          "internalType": "address",
          "name": "operator",
          "type": "address"
        }
      ],
      "name": "isApprovedForAll",
      "outputs": [
        {
          "internalType": "bool",
          "name": "",
          "type": "bool"
        }
      ],
      "stateMutability": "view",
      "type": "function"
    },
    {
      "inputs": [],
      "name": "isPublicSaleActive",
      "outputs": [
        {
          "internalType": "bool",
          "name": "",
          "type": "bool"
        }
      ],
      "stateMutability": "view",
      "type": "function"
    },
    {
      "inputs": [
        {
          "internalType": "bytes32[]",
          "name": "proof",
          "type": "bytes32[]"
        },
        {
          "internalType": "bytes32",
          "name": "leaf",
          "type": "bytes32"
        }
      ],
      "name": "isValid",
      "outputs": [
        {
          "internalType": "bool",
          "name": "",
          "type": "bool"
        }
      ],
      "stateMutability": "view",
      "type": "function"
    },
    {
      "inputs": [],
      "name": "isWhitelistActive",
      "outputs": [
        {
          "internalType": "bool",
          "name": "",
          "type": "bool"
        }
      ],
      "stateMutability": "view",
      "type": "function"
    },
    {
      "inputs": [],
      "name": "name",
      "outputs": [
        {
          "internalType": "string",
          "name": "",
          "type": "string"
        }
      ],
      "stateMutability": "view",
      "type": "function"
    },
    {
      "inputs": [],
      "name": "owner",
      "outputs": [
        {
          "internalType": "address",
          "name": "",
          "type": "address"
        }
      ],
      "stateMutability": "view",
      "type": "function"
    },
    {
      "inputs": [
        {
          "internalType": "uint256",
          "name": "tokenId",
          "type": "uint256"
        }
      ],
      "name": "ownerOf",
      "outputs": [
        {
          "internalType": "address",
          "name": "",
          "type": "address"
        }
      ],
      "stateMutability": "view",
      "type": "function"
    },
    {
      "inputs": [
        {
          "internalType": "uint256",
          "name": "_amount",
          "type": "uint256"
        }
      ],
      "name": "publicMint",
      "outputs": [],
      "stateMutability": "payable",
      "type": "function"
    },
    {
      "inputs": [],
      "name": "renounceOwnership",
      "outputs": [],
      "stateMutability": "nonpayable",
      "type": "function"
    },
    {
      "inputs": [],
      "name": "royaltyFee",
      "outputs": [
        {
          "internalType": "uint256",
          "name": "",
          "type": "uint256"
        }
      ],
      "stateMutability": "view",
      "type": "function"
    },
    {
      "inputs": [
        {
          "internalType": "uint256",
          "name": "",
          "type": "uint256"
        },
        {
          "internalType": "uint256",
          "name": "_salePrice",
          "type": "uint256"
        }
      ],
      "name": "royaltyInfo",
      "outputs": [
        {
          "internalType": "address",
          "name": "receiver",
          "type": "address"
        },
        {
          "internalType": "uint256",
          "name": "royaltyAmount",
          "type": "uint256"
        }
      ],
      "stateMutability": "view",
      "type": "function"
    },
    {
      "inputs": [
        {
          "internalType": "address",
          "name": "from",
          "type": "address"
        },
        {
          "internalType": "address",
          "name": "to",
          "type": "address"
        },
        {
          "internalType": "uint256",
          "name": "tokenId",
          "type": "uint256"
        }
      ],
      "name": "safeTransferFrom",
      "outputs": [],
      "stateMutability": "nonpayable",
      "type": "function"
    },
    {
      "inputs": [
        {
          "internalType": "address",
          "name": "from",
          "type": "address"
        },
        {
          "internalType": "address",
          "name": "to",
          "type": "address"
        },
        {
          "internalType": "uint256",
          "name": "tokenId",
          "type": "uint256"
        },
        {
          "internalType": "bytes",
          "name": "_data",
          "type": "bytes"
        }
      ],
      "name": "safeTransferFrom",
      "outputs": [],
      "stateMutability": "nonpayable",
      "type": "function"
    },
    {
      "inputs": [],
      "name": "saleConfig",
      "outputs": [
        {
          "internalType": "bool",
          "name": "hasWhitelist",
          "type": "bool"
        },
        {
          "internalType": "uint256",
          "name": "whitelistStart",
          "type": "uint256"
        },
        {
          "internalType": "uint256",
          "name": "whitelistEnd",
          "type": "uint256"
        },
        {
          "internalType": "uint256",
          "name": "publicSaleStart",
          "type": "uint256"
        },
        {
          "internalType": "uint256",
          "name": "publicSaleEnd",
          "type": "uint256"
        }
      ],
      "stateMutability": "view",
      "type": "function"
    },
    {
      "inputs": [
        {
          "internalType": "address",
          "name": "operator",
          "type": "address"
        },
        {
          "internalType": "bool",
          "name": "approved",
          "type": "bool"
        }
      ],
      "name": "setApprovalForAll",
      "outputs": [],
      "stateMutability": "nonpayable",
      "type": "function"
    },
    {
      "inputs": [
        {
          "internalType": "string",
          "name": "_baseUri",
          "type": "string"
        }
      ],
      "name": "setBaseURI",
      "outputs": [],
      "stateMutability": "nonpayable",
      "type": "function"
    },
    {
      "inputs": [
        {
          "internalType": "uint256",
          "name": "_maxMintPerTx",
          "type": "uint256"
        },
        {
          "internalType": "uint256",
          "name": "_maxMintPerWallet",
          "type": "uint256"
        }
      ],
      "name": "setMaxMintLimits",
      "outputs": [],
      "stateMutability": "nonpayable",
      "type": "function"
    },
    {
      "inputs": [
        {
          "internalType": "uint256",
          "name": "_price",
          "type": "uint256"
        }
      ],
      "name": "setPrice",
      "outputs": [],
      "stateMutability": "nonpayable",
      "type": "function"
    },
    {
      "inputs": [
        {
          "internalType": "bytes32",
          "name": "_root",
          "type": "bytes32"
        }
      ],
      "name": "setRoot",
      "outputs": [],
      "stateMutability": "nonpayable",
      "type": "function"
    },
    {
      "inputs": [
        {
          "internalType": "uint256",
          "name": "_royaltyFee",
          "type": "uint256"
        }
      ],
      "name": "setRoyalty",
      "outputs": [],
      "stateMutability": "nonpayable",
      "type": "function"
    },
    {
      "inputs": [
        {
          "internalType": "uint256",
          "name": "_whitelistStart",
          "type": "uint256"
        },
        {
          "internalType": "uint256",
          "name": "_whitelistEnd",
          "type": "uint256"
        },
        {
          "internalType": "uint256",
          "name": "_publicSaleStart",
          "type": "uint256"
        },
        {
          "internalType": "uint256",
          "name": "_publicSaleEnd",
          "type": "uint256"
        }
      ],
      "name": "setSaleTimes",
      "outputs": [],
      "stateMutability": "nonpayable",
      "type": "function"
    },
    {
      "inputs": [
        {
          "internalType": "uint256",
          "name": "_whitelistPrice",
          "type": "uint256"
        }
      ],
      "name": "setWhitelistPrice",
      "outputs": [],
      "stateMutability": "nonpayable",
      "type": "function"
    },
    {
      "inputs": [
        {
          "internalType": "bytes4",
          "name": "interfaceId",
          "type": "bytes4"
        }
      ],
      "name": "supportsInterface",
      "outputs": [
        {
          "internalType": "bool",
          "name": "",
          "type": "bool"
        }
      ],
      "stateMutability": "view",
      "type": "function"
    },
    {
      "inputs": [],
      "name": "symbol",
      "outputs": [
        {
          "internalType": "string",
          "name": "",
          "type": "string"
        }
      ],
      "stateMutability": "view",
      "type": "function"
    },
    {
      "inputs": [],
      "name": "togglePublicSale",
      "outputs": [],
      "stateMutability": "nonpayable",
      "type": "function"
    },
    {
      "inputs": [],
      "name": "toggleWhitelistSale",
      "outputs": [],
      "stateMutability": "nonpayable",
      "type": "function"
    },
    {
      "inputs": [
        {
          "internalType": "uint256",
          "name": "tokenId",
          "type": "uint256"
        }
      ],
      "name": "tokenURI",
      "outputs": [
        {
          "internalType": "string",
          "name": "",
          "type": "string"
        }
      ],
      "stateMutability": "view",
      "type": "function"
    },
    {
      "inputs": [],
      "name": "totalSupply",
      "outputs": [
        {
          "internalType": "uint256",
          "name": "",
          "type": "uint256"
        }
      ],
      "stateMutability": "view",
      "type": "function"
    },
    {
      "inputs": [
        {
          "internalType": "address",
          "name": "from",
          "type": "address"
        },
        {
          "internalType": "address",
          "name": "to",
          "type": "address"
        },
        {
          "internalType": "uint256",
          "name": "tokenId",
          "type": "uint256"
        }
      ],
      "name": "transferFrom",
      "outputs": [],
      "stateMutability": "nonpayable",
      "type": "function"
    },
    {
      "inputs": [
        {
          "internalType": "address",
          "name": "newOwner",
          "type": "address"
        }
      ],
      "name": "transferOwnership",
      "outputs": [],
      "stateMutability": "nonpayable",
      "type": "function"
    },
    {
      "inputs": [
        {
          "internalType": "bytes32[]",
          "name": "proof",
          "type": "bytes32[]"
        },
        {
          "internalType": "uint256",
          "name": "_amount",
          "type": "uint256"
        }
      ],
      "name": "whitelistMint",
      "outputs": [],
      "stateMutability": "payable",
      "type": "function"
    },
    {
      "inputs": [],
      "name": "withdrawAll",
      "outputs": [],
      "stateMutability": "nonpayable",
      "type": "function"
    }
  ],
  "bytecode": "0x60806040526001601660006101000a81548160ff02191690831515021790555034801561002b57600080fd5b50604051615b1e380380615b1e833981810160405281019061004d919061064b565b8686816000908161005e919061095c565b50806001908161006e919061095c565b50505061008d61008261024760201b60201c565b61024f60201b60201c565b60016007819055508060088190555083600c600082015181600001556020820151816001015560408201518160020155606082015181600301556080820151816004015590505082601160008201518160000160006101000a81548160ff0219169083151502179055506020820151816001015560408201518160020155606082015181600301556080820151816004015590505084600b9081610131919061095c565b508260000151601660016101000a81548160ff0219169083151502179055506103e86064836101609190610a5d565b11156101a1576040517f08c379a000000000000000000000000000000000000000000000000000000000815260040161019890610aee565b60405180910390fd5b816017819055508360400151600c6002018190555082602001516011600101819055508260400151601160020181905550826060015160116003018190555082608001516011600401819055507fdf31a79be646f25cf79f5f1fe56d5972e8af0f25de752b9021b909727a0b8ec483602001518460400151856060015186608001516040516102339493929190610b1d565b60405180910390a150505050505050610b62565b600033905090565b6000600660009054906101000a900473ffffffffffffffffffffffffffffffffffffffff16905081600660006101000a81548173ffffffffffffffffffffffffffffffffffffffff021916908373ffffffffffffffffffffffffffffffffffffffff1602179055508173ffffffffffffffffffffffffffffffffffffffff168173ffffffffffffffffffffffffffffffffffffffff167f8be0079c531659141344cd1fd0a4f28419497f9722a3daafe3b4186f6b6457e060405160405180910390a35050565b6000604051905090565b600080fd5b600080fd5b600080fd5b600080fd5b6000601f19601f8301169050919050565b7f4e487b7100000000000000000000000000000000000000000000000000000000600052604160045260246000fd5b61037c82610333565b810181811067ffffffffffffffff8211171561039b5761039a610344565b5b80604052505050565b60006103ae610315565b90506103ba8282610373565b919050565b600067ffffffffffffffff8211156103da576103d9610344565b5b6103e382610333565b9050602081019050919050565b60005b8381101561040e5780820151818401526020810190506103f3565b60008484015250505050565b600061042d610428846103bf565b6103a4565b9050828152602081018484840111156104495761044861032e565b5b6104548482856103f0565b509392505050565b600082601f83011261047157610470610329565b5b815161048184826020860161041a565b91505092915050565b600080fd5b6000819050919050565b6104a28161048f565b81146104ad57600080fd5b50565b6000815190506104bf81610499565b92915050565b600060a082840312156104db576104da61048a565b5b6104e560a06103a4565b905060006104f5848285016104b0565b6000830152506020610509848285016104b0565b602083015250604061051d848285016104b0565b6040830152506060610531848285016104b0565b6060830152506080610545848285016104b0565b60808301525092915050565b60008115159050919050565b61056681610551565b811461057157600080fd5b50565b6000815190506105838161055d565b92915050565b600060a0828403121561059f5761059e61048a565b5b6105a960a06103a4565b905060006105b984828501610574565b60008301525060206105cd848285016104b0565b60208301525060406105e1848285016104b0565b60408301525060606105f5848285016104b0565b6060830152506080610609848285016104b0565b60808301525092915050565b6000819050919050565b61062881610615565b811461063357600080fd5b50565b6000815190506106458161061f565b92915050565b60008060008060008060006101e0888a03121561066b5761066a61031f565b5b600088015167ffffffffffffffff81111561068957610688610324565b5b6106958a828b0161045c565b975050602088015167ffffffffffffffff8111156106b6576106b5610324565b5b6106c28a828b0161045c565b965050604088015167ffffffffffffffff8111156106e3576106e2610324565b5b6106ef8a828b0161045c565b95505060606107008a828b016104c5565b9450506101006107128a828b01610589565b9350506101a06107248a828b016104b0565b9250506101c06107368a828b01610636565b91505092959891949750929550565b600081519050919050565b7f4e487b7100000000000000000000000000000000000000000000000000000000600052602260045260246000fd5b6000600282049050600182168061079757607f821691505b6020821081036107aa576107a9610750565b5b50919050565b60008190508160005260206000209050919050565b60006020601f8301049050919050565b600082821b905092915050565b6000600883026108127fffffffffffffffffffffffffffffffffffffffffffffffffffffffffffffffff826107d5565b61081c86836107d5565b95508019841693508086168417925050509392505050565b6000819050919050565b600061085961085461084f8461048f565b610834565b61048f565b9050919050565b6000819050919050565b6108738361083e565b61088761087f82610860565b8484546107e2565b825550505050565b600090565b61089c61088f565b6108a781848461086a565b505050565b5b818110156108cb576108c0600082610894565b6001810190506108ad565b5050565b601f821115610910576108e1816107b0565b6108ea846107c5565b810160208510156108f9578190505b61090d610905856107c5565b8301826108ac565b50505b505050565b600082821c905092915050565b600061093360001984600802610915565b1980831691505092915050565b600061094c8383610922565b9150826002028217905092915050565b61096582610745565b67ffffffffffffffff81111561097e5761097d610344565b5b610988825461077f565b6109938282856108cf565b600060209050601f8311600181146109c657600084156109b4578287015190505b6109be8582610940565b865550610a26565b601f1984166109d4866107b0565b60005b828110156109fc578489015182556001820191506020850194506020810190506109d7565b86831015610a195784890151610a15601f891682610922565b8355505b6001600288020188555050505b505050505050565b7f4e487b7100000000000000000000000000000000000000000000000000000000600052601160045260246000fd5b6000610a688261048f565b9150610a738361048f565b9250828201905080821115610a8b57610a8a610a2e565b5b92915050565b600082825260208201905092915050565b7f546f74616c20726f79616c74792063616e6e6f74206578636565642031302500600082015250565b6000610ad8601f83610a91565b9150610ae382610aa2565b602082019050919050565b60006020820190508181036000830152610b0781610acb565b9050919050565b610b178161048f565b82525050565b6000608082019050610b326000830187610b0e565b610b3f6020830186610b0e565b610b4c6040830185610b0e565b610b596060830184610b0e565b95945050505050565b614fad80610b716000396000f3fe6080604052600436106102305760003560e01c8063717d57d31161012e578063b88d4fde116100ab578063d6b8a82e1161006f578063d6b8a82e14610802578063dab5f3401461082d578063e222c7f914610856578063e985e9c51461086d578063f2fde38b146108aa57610230565b8063b88d4fde14610709578063b8997a9714610732578063b8a20ed01461075d578063bbc284891461079a578063c87b56dd146107c557610230565b806390aa0b0f116100f257806390aa0b0f1461063257806391b7f5ed1461066157806395d89b411461068a5780639abc8320146106b5578063a22cb465146106e057610230565b8063717d57d3146105755780637bc102941461059e5780637f31d96a146105c7578063853828b6146105f05780638da5cb5b1461060757610230565b80632db11544116101bc57806359eda1b51161018057806359eda1b51461049e5780636352211e146104b55780636b34d725146104f257806370a0823114610521578063715018a61461055e57610230565b80632db11544146103dc5780634209a2e1146103f857806342842e0e14610421578063524513d61461044a57806355f804b31461047557610230565b806318160ddd1161020357806318160ddd146103035780631e84c4131461032e57806323b872dd146103595780632904e6d9146103825780632a55205a1461039e57610230565b806301ffc9a71461023557806306fdde0314610272578063081812fc1461029d578063095ea7b3146102da575b600080fd5b34801561024157600080fd5b5061025c60048036038101906102579190613013565b6108d3565b604051610269919061305b565b60405180910390f35b34801561027e57600080fd5b506102876109b5565b6040516102949190613106565b60405180910390f35b3480156102a957600080fd5b506102c460048036038101906102bf919061315e565b610a47565b6040516102d191906131cc565b60405180910390f35b3480156102e657600080fd5b5061030160048036038101906102fc9190613213565b610acc565b005b34801561030f57600080fd5b50610318610be3565b6040516103259190613262565b60405180910390f35b34801561033a57600080fd5b50610343610be9565b604051610350919061305b565b60405180910390f35b34801561036557600080fd5b50610380600480360381019061037b919061327d565b610bfc565b005b61039c6004803603810190610397919061344e565b610c5c565b005b3480156103aa57600080fd5b506103c560048036038101906103c091906134aa565b610d7c565b6040516103d39291906134ea565b60405180910390f35b6103f660048036038101906103f1919061315e565b610db8565b005b34801561040457600080fd5b5061041f600480360381019061041a919061315e565b610ecb565b005b34801561042d57600080fd5b506104486004803603810190610443919061327d565b610fd9565b005b34801561045657600080fd5b5061045f610ff9565b60405161046c919061305b565b60405180910390f35b34801561048157600080fd5b5061049c600480360381019061049791906135c8565b61100c565b005b3480156104aa57600080fd5b506104b36110d2565b005b3480156104c157600080fd5b506104dc60048036038101906104d7919061315e565b6111d1565b6040516104e991906131cc565b60405180910390f35b3480156104fe57600080fd5b50610507611282565b604051610518959493929190613611565b60405180910390f35b34801561052d57600080fd5b5061054860048036038101906105439190613664565b6112a6565b6040516105559190613262565b60405180910390f35b34801561056a57600080fd5b5061057361135d565b005b34801561058157600080fd5b5061059c6004803603810190610597919061315e565b6113e5565b005b3480156105aa57600080fd5b506105c560048036038101906105c09190613691565b6114a5565b005b3480156105d357600080fd5b506105ee60048036038101906105e991906134aa565b61158c565b005b3480156105fc57600080fd5b50610605611659565b005b34801561061357600080fd5b5061061c6118a3565b60405161062991906131cc565b60405180910390f35b34801561063e57600080fd5b506106476118cd565b6040516106589594939291906136f8565b60405180910390f35b34801561066d57600080fd5b506106886004803603810190610683919061315e565b6118fe565b005b34801561069657600080fd5b5061069f6119be565b6040516106ac9190613106565b60405180910390f35b3480156106c157600080fd5b506106ca611a50565b6040516106d79190613106565b60405180910390f35b3480156106ec57600080fd5b5061070760048036038101906107029190613777565b611ade565b005b34801561071557600080fd5b50610730600480360381019061072b9190613858565b611af4565b005b34801561073e57600080fd5b50610747611b56565b6040516107549190613262565b60405180910390f35b34801561076957600080fd5b50610784600480360381019061077f91906138db565b611b5c565b604051610791919061305b565b60405180910390f35b3480156107a657600080fd5b506107af611b73565b6040516107bc91906131cc565b60405180910390f35b3480156107d157600080fd5b506107ec60048036038101906107e7919061315e565b611b8b565b6040516107f99190613106565b60405180910390f35b34801561080e57600080fd5b50610817611c33565b6040516108249190613262565b60405180910390f35b34801561083957600080fd5b50610854600480360381019061084f9190613937565b611c38565b005b34801561086257600080fd5b5061086b611cf5565b005b34801561087957600080fd5b50610894600480360381019061088f9190613964565b611df4565b6040516108a1919061305b565b60405180910390f35b3480156108b657600080fd5b506108d160048036038101906108cc9190613664565b611e88565b005b60007f80ac58cd000000000000000000000000000000000000000000000000000000007bffffffffffffffffffffffffffffffffffffffffffffffffffffffff1916827bffffffffffffffffffffffffffffffffffffffffffffffffffffffff1916148061099e57507f5b5e139f000000000000000000000000000000000000000000000000000000007bffffffffffffffffffffffffffffffffffffffffffffffffffffffff1916827bffffffffffffffffffffffffffffffffffffffffffffffffffffffff1916145b806109ae57506109ad82611f7f565b5b9050919050565b6060600080546109c4906139d3565b80601f01602080910402602001604051908101604052809291908181526020018280546109f0906139d3565b8015610a3d5780601f10610a1257610100808354040283529160200191610a3d565b820191906000526020600020905b815481529060010190602001808311610a2057829003601f168201915b5050505050905090565b6000610a5282611fe9565b610a91576040517f08c379a0000000000000000000000000000000000000000000000000000000008152600401610a8890613a76565b60405180910390fd5b6004600083815260200190815260200160002060009054906101000a900473ffffffffffffffffffffffffffffffffffffffff169050919050565b6000610ad7826111d1565b90508073ffffffffffffffffffffffffffffffffffffffff168373ffffffffffffffffffffffffffffffffffffffff1603610b47576040517f08c379a0000000000000000000000000000000000000000000000000000000008152600401610b3e90613b08565b60405180910390fd5b8073ffffffffffffffffffffffffffffffffffffffff16610b66612055565b73ffffffffffffffffffffffffffffffffffffffff161480610b955750610b9481610b8f612055565b611df4565b5b610bd4576040517f08c379a0000000000000000000000000000000000000000000000000000000008152600401610bcb90613b9a565b60405180910390fd5b610bde838361205d565b505050565b60095481565b601660009054906101000a900460ff1681565b610c0d610c07612055565b82612116565b610c4c576040517f08c379a0000000000000000000000000000000000000000000000000000000008152600401610c4390613c2c565b60405180910390fd5b610c578383836121f4565b505050565b601660019054906101000a900460ff16610cab576040517f08c379a0000000000000000000000000000000000000000000000000000000008152600401610ca290613c98565b60405180910390fd5b610cbf60116001015460116002015461245a565b610cfe576040517f08c379a0000000000000000000000000000000000000000000000000000000008152600401610cf590613d04565b60405180910390fd5b610d2e8233604051602001610d139190613d6c565b60405160208183030381529060405280519060200120611b5c565b610d6d576040517f08c379a0000000000000000000000000000000000000000000000000000000008152600401610d6490613dd3565b60405180910390fd5b610d78816001612489565b5050565b60008060006127106064601754610d939190613e22565b85610d9e9190613e56565b610da89190613ec7565b9050308192509250509250929050565b601160000160009054906101000a900460ff161580610ddc57506011600201544210155b610e1b576040517f08c379a0000000000000000000000000000000000000000000000000000000008152600401610e1290613f6a565b60405180910390fd5b601660009054906101000a900460ff16610e6a576040517f08c379a0000000000000000000000000000000000000000000000000000000008152600401610e6190613fd6565b60405180910390fd5b610e7e60116003015460116004015461245a565b610ebd576040517f08c379a0000000000000000000000000000000000000000000000000000000008152600401610eb490614042565b60405180910390fd5b610ec8816000612489565b50565b610ed3612055565b73ffffffffffffffffffffffffffffffffffffffff16610ef16118a3565b73ffffffffffffffffffffffffffffffffffffffff1614610f47576040517f08c379a0000000000000000000000000000000000000000000000000000000008152600401610f3e906140ae565b60405180910390fd5b6103e8606482610f579190613e22565b1115610f98576040517f08c379a0000000000000000000000000000000000000000000000000000000008152600401610f8f9061411a565b60405180910390fd5b806017819055507f244ea8d7627f5a08f4299862bd5a45752842c183aee5b0fb0d1e4887bfa605b381604051610fce9190613262565b60405180910390a150565b610ff483838360405180602001604052806000815250611af4565b505050565b601660019054906101000a900460ff1681565b611014612055565b73ffffffffffffffffffffffffffffffffffffffff166110326118a3565b73ffffffffffffffffffffffffffffffffffffffff1614611088576040517f08c379a000000000000000000000000000000000000000000000000000000000815260040161107f906140ae565b60405180910390fd5b80600b908161109791906142e6565b507ff9c7803e94e0d3c02900d8a90893a6d5e90dd04d32a4cfe825520f82bf9f32f6816040516110c79190613106565b60405180910390a150565b6110da612055565b73ffffffffffffffffffffffffffffffffffffffff166110f86118a3565b73ffffffffffffffffffffffffffffffffffffffff161461114e576040517f08c379a0000000000000000000000000000000000000000000000000000000008152600401611145906140ae565b60405180910390fd5b601660019054906101000a900460ff1615601660016101000a81548160ff0219169083151502179055507f0f3ceb1b1df7afa89a10afbea0bc86b42296cfdfa410cdd70a7c2a97f9f9a373601660009054906101000a900460ff16601660019054906101000a900460ff166040516111c79291906143b8565b60405180910390a1565b6000806002600084815260200190815260200160002060009054906101000a900473ffffffffffffffffffffffffffffffffffffffff169050600073ffffffffffffffffffffffffffffffffffffffff168173ffffffffffffffffffffffffffffffffffffffff1603611279576040517f08c379a000000000000000000000000000000000000000000000000000000000815260040161127090614453565b60405180910390fd5b80915050919050565b600c8060000154908060010154908060020154908060030154908060040154905085565b60008073ffffffffffffffffffffffffffffffffffffffff168273ffffffffffffffffffffffffffffffffffffffff1603611316576040517f08c379a000000000000000000000000000000000000000000000000000000000815260040161130d906144e5565b60405180910390fd5b600360008373ffffffffffffffffffffffffffffffffffffffff1673ffffffffffffffffffffffffffffffffffffffff168152602001908152602001600020549050919050565b611365612055565b73ffffffffffffffffffffffffffffffffffffffff166113836118a3565b73ffffffffffffffffffffffffffffffffffffffff16146113d9576040517f08c379a00000000000000000000000000000000000000000000000000000000081526004016113d0906140ae565b60405180910390fd5b6113e36000612716565b565b6113ed612055565b73ffffffffffffffffffffffffffffffffffffffff1661140b6118a3565b73ffffffffffffffffffffffffffffffffffffffff1614611461576040517f08c379a0000000000000000000000000000000000000000000000000000000008152600401611458906140ae565b60405180910390fd5b80600c600201819055507f66cbca4f3c64fecf1dcb9ce094abcf7f68c3450a1d4e3a8e917dd621edb4ebe08160405161149a9190613262565b60405180910390a150565b6114ad612055565b73ffffffffffffffffffffffffffffffffffffffff166114cb6118a3565b73ffffffffffffffffffffffffffffffffffffffff1614611521576040517f08c379a0000000000000000000000000000000000000000000000000000000008152600401611518906140ae565b60405180910390fd5b836011600101819055508260116002018190555081601160030181905550806011600401819055507fdf31a79be646f25cf79f5f1fe56d5972e8af0f25de752b9021b909727a0b8ec48484848460405161157e9493929190614505565b60405180910390a150505050565b611594612055565b73ffffffffffffffffffffffffffffffffffffffff166115b26118a3565b73ffffffffffffffffffffffffffffffffffffffff1614611608576040517f08c379a00000000000000000000000000000000000000000000000000000000081526004016115ff906140ae565b60405180910390fd5b81600c6003018190555080600c600401819055507fc37cc9c3c37fdcacbe05156c2f68f96e3d3ecec5a381a8929651bf7a317f0d1c828260405161164d92919061454a565b60405180910390a15050565b60026007540361169e576040517f08c379a0000000000000000000000000000000000000000000000000000000008152600401611695906145bf565b60405180910390fd5b60026007819055506116ae612055565b73ffffffffffffffffffffffffffffffffffffffff166116cc6118a3565b73ffffffffffffffffffffffffffffffffffffffff1614611722576040517f08c379a0000000000000000000000000000000000000000000000000000000008152600401611719906140ae565b60405180910390fd5b60004790506000811161176a576040517f08c379a00000000000000000000000000000000000000000000000000000000081526004016117619061462b565b60405180910390fd5b600061271060648361177c9190613e56565b6117869190613ec7565b905060008183611796919061464b565b905073f26eab233b0a2b499fc21f4452fac0326303076573ffffffffffffffffffffffffffffffffffffffff166108fc839081150290604051600060405180830381858888f193505050501580156117f2573d6000803e3d6000fd5b506117fb6118a3565b73ffffffffffffffffffffffffffffffffffffffff166108fc829081150290604051600060405180830381858888f19350505050158015611840573d6000803e3d6000fd5b506118496118a3565b73ffffffffffffffffffffffffffffffffffffffff167feaff4b37086828766ad3268786972c0cd24259d4c87a80f9d3963a3c3d999b0d8260405161188e9190613262565b60405180910390a25050506001600781905550565b6000600660009054906101000a900473ffffffffffffffffffffffffffffffffffffffff16905090565b60118060000160009054906101000a900460ff16908060010154908060020154908060030154908060040154905085565b611906612055565b73ffffffffffffffffffffffffffffffffffffffff166119246118a3565b73ffffffffffffffffffffffffffffffffffffffff161461197a576040517f08c379a0000000000000000000000000000000000000000000000000000000008152600401611971906140ae565b60405180910390fd5b80600c600101819055507f66cbca4f3c64fecf1dcb9ce094abcf7f68c3450a1d4e3a8e917dd621edb4ebe0816040516119b39190613262565b60405180910390a150565b6060600180546119cd906139d3565b80601f01602080910402602001604051908101604052809291908181526020018280546119f9906139d3565b8015611a465780601f10611a1b57610100808354040283529160200191611a46565b820191906000526020600020905b815481529060010190602001808311611a2957829003601f168201915b5050505050905090565b600b8054611a5d906139d3565b80601f0160208091040260200160405190810160405280929190818152602001828054611a89906139d3565b8015611ad65780601f10611aab57610100808354040283529160200191611ad6565b820191906000526020600020905b815481529060010190602001808311611ab957829003601f168201915b505050505081565b611af0611ae9612055565b83836127dc565b5050565b611b05611aff612055565b83612116565b611b44576040517f08c379a0000000000000000000000000000000000000000000000000000000008152600401611b3b90613c2c565b60405180910390fd5b611b5084848484612948565b50505050565b60175481565b6000611b6b83600854846129a4565b905092915050565b73f26eab233b0a2b499fc21f4452fac0326303076581565b6060611b9682611fe9565b611bd5576040517f08c379a0000000000000000000000000000000000000000000000000000000008152600401611bcc906146f1565b60405180910390fd5b6000600b8054611be4906139d3565b905011611c005760405180602001604052806000815250611c2c565b600b611c0b836129bb565b604051602001611c1c9291906147d0565b6040516020818303038152906040525b9050919050565b606481565b611c40612055565b73ffffffffffffffffffffffffffffffffffffffff16611c5e6118a3565b73ffffffffffffffffffffffffffffffffffffffff1614611cb4576040517f08c379a0000000000000000000000000000000000000000000000000000000008152600401611cab906140ae565b60405180910390fd5b806008819055507f2cbc14f49c068133583f7cb530018af451c87c1cf1327cf2a4ff4698c4730aa481604051611cea9190614803565b60405180910390a150565b611cfd612055565b73ffffffffffffffffffffffffffffffffffffffff16611d1b6118a3565b73ffffffffffffffffffffffffffffffffffffffff1614611d71576040517f08c379a0000000000000000000000000000000000000000000000000000000008152600401611d68906140ae565b60405180910390fd5b601660009054906101000a900460ff1615601660006101000a81548160ff0219169083151502179055507f0f3ceb1b1df7afa89a10afbea0bc86b42296cfdfa410cdd70a7c2a97f9f9a373601660009054906101000a900460ff16601660019054906101000a900460ff16604051611dea9291906143b8565b60405180910390a1565b6000600560008473ffffffffffffffffffffffffffffffffffffffff1673ffffffffffffffffffffffffffffffffffffffff16815260200190815260200160002060008373ffffffffffffffffffffffffffffffffffffffff1673ffffffffffffffffffffffffffffffffffffffff16815260200190815260200160002060009054906101000a900460ff16905092915050565b611e90612055565b73ffffffffffffffffffffffffffffffffffffffff16611eae6118a3565b73ffffffffffffffffffffffffffffffffffffffff1614611f04576040517f08c379a0000000000000000000000000000000000000000000000000000000008152600401611efb906140ae565b60405180910390fd5b600073ffffffffffffffffffffffffffffffffffffffff168173ffffffffffffffffffffffffffffffffffffffff1603611f73576040517f08c379a0000000000000000000000000000000000000000000000000000000008152600401611f6a90614890565b60405180910390fd5b611f7c81612716565b50565b60007f01ffc9a7000000000000000000000000000000000000000000000000000000007bffffffffffffffffffffffffffffffffffffffffffffffffffffffff1916827bffffffffffffffffffffffffffffffffffffffffffffffffffffffff1916149050919050565b60008073ffffffffffffffffffffffffffffffffffffffff166002600084815260200190815260200160002060009054906101000a900473ffffffffffffffffffffffffffffffffffffffff1673ffffffffffffffffffffffffffffffffffffffff1614159050919050565b600033905090565b816004600083815260200190815260200160002060006101000a81548173ffffffffffffffffffffffffffffffffffffffff021916908373ffffffffffffffffffffffffffffffffffffffff160217905550808273ffffffffffffffffffffffffffffffffffffffff166120d0836111d1565b73ffffffffffffffffffffffffffffffffffffffff167f8c5be1e5ebec7d5bd14f71427d1e84f3dd0314c0f7b2291e5b200ac8c7c3b92560405160405180910390a45050565b600061212182611fe9565b612160576040517f08c379a000000000000000000000000000000000000000000000000000000000815260040161215790614922565b60405180910390fd5b600061216b836111d1565b90508073ffffffffffffffffffffffffffffffffffffffff168473ffffffffffffffffffffffffffffffffffffffff1614806121da57508373ffffffffffffffffffffffffffffffffffffffff166121c284610a47565b73ffffffffffffffffffffffffffffffffffffffff16145b806121eb57506121ea8185611df4565b5b91505092915050565b8273ffffffffffffffffffffffffffffffffffffffff16612214826111d1565b73ffffffffffffffffffffffffffffffffffffffff161461226a576040517f08c379a0000000000000000000000000000000000000000000000000000000008152600401612261906149b4565b60405180910390fd5b600073ffffffffffffffffffffffffffffffffffffffff168273ffffffffffffffffffffffffffffffffffffffff16036122d9576040517f08c379a00000000000000000000000000000000000000000000000000000000081526004016122d090614a46565b60405180910390fd5b6122e4838383612b1b565b6122ef60008261205d565b6001600360008573ffffffffffffffffffffffffffffffffffffffff1673ffffffffffffffffffffffffffffffffffffffff168152602001908152602001600020600082825461233f919061464b565b925050819055506001600360008473ffffffffffffffffffffffffffffffffffffffff1673ffffffffffffffffffffffffffffffffffffffff16815260200190815260200160002060008282546123969190613e22565b92505081905550816002600083815260200190815260200160002060006101000a81548173ffffffffffffffffffffffffffffffffffffffff021916908373ffffffffffffffffffffffffffffffffffffffff160217905550808273ffffffffffffffffffffffffffffffffffffffff168473ffffffffffffffffffffffffffffffffffffffff167fddf252ad1be2c89b69c2b068fc378daa952ba7f163c4a11628f55a4df523b3ef60405160405180910390a4612455838383612b20565b505050565b60008083148061246a5750824210155b8015612481575060008214806124805750814211155b5b905092915050565b600c600301548211156124d1576040517f08c379a00000000000000000000000000000000000000000000000000000000081526004016124c890614ab2565b60405180910390fd5b600c6004015482600a60003373ffffffffffffffffffffffffffffffffffffffff1673ffffffffffffffffffffffffffffffffffffffff168152602001908152602001600020546125229190613e22565b1115612563576040517f08c379a000000000000000000000000000000000000000000000000000000000815260040161255a90614b1e565b60405180910390fd5b600c60000154826009546125779190613e22565b11156125b8576040517f08c379a00000000000000000000000000000000000000000000000000000000081526004016125af90614b8a565b60405180910390fd5b6000816125ca57600c600101546125d1565b600c600201545b90503481846125e09190613e56565b1115612621576040517f08c379a000000000000000000000000000000000000000000000000000000000815260040161261890614bf6565b60405180910390fd5b6000600190505b8381116126535761264633826009546126419190613e22565b612b25565b8080600101915050612628565b5082600a60003373ffffffffffffffffffffffffffffffffffffffff1673ffffffffffffffffffffffffffffffffffffffff16815260200190815260200160002060008282546126a39190613e22565b9250508190555082600960008282546126bc9190613e22565b925050819055503373ffffffffffffffffffffffffffffffffffffffff167f3f2c9d57c068687834f0de942a9babb9e5acab57d516d3480a3c16ee165a4273846040516127099190613262565b60405180910390a2505050565b6000600660009054906101000a900473ffffffffffffffffffffffffffffffffffffffff16905081600660006101000a81548173ffffffffffffffffffffffffffffffffffffffff021916908373ffffffffffffffffffffffffffffffffffffffff1602179055508173ffffffffffffffffffffffffffffffffffffffff168173ffffffffffffffffffffffffffffffffffffffff167f8be0079c531659141344cd1fd0a4f28419497f9722a3daafe3b4186f6b6457e060405160405180910390a35050565b8173ffffffffffffffffffffffffffffffffffffffff168373ffffffffffffffffffffffffffffffffffffffff160361284a576040517f08c379a000000000000000000000000000000000000000000000000000000000815260040161284190614c62565b60405180910390fd5b80600560008573ffffffffffffffffffffffffffffffffffffffff1673ffffffffffffffffffffffffffffffffffffffff16815260200190815260200160002060008473ffffffffffffffffffffffffffffffffffffffff1673ffffffffffffffffffffffffffffffffffffffff16815260200190815260200160002060006101000a81548160ff0219169083151502179055508173ffffffffffffffffffffffffffffffffffffffff168373ffffffffffffffffffffffffffffffffffffffff167f17307eab39ab6107e8899845ad3d59bd9653f200f220920489ca2b5937696c318360405161293b919061305b565b60405180910390a3505050565b6129538484846121f4565b61295f84848484612b43565b61299e576040517f08c379a000000000000000000000000000000000000000000000000000000000815260040161299590614cf4565b60405180910390fd5b50505050565b6000826129b18584612cca565b1490509392505050565b606060008203612a02576040518060400160405280600181526020017f30000000000000000000000000000000000000000000000000000000000000008152509050612b16565b600082905060005b60008214612a34578080612a1d90614d14565b915050600a82612a2d9190613ec7565b9150612a0a565b60008167ffffffffffffffff811115612a5057612a4f6132d5565b5b6040519080825280601f01601f191660200182016040528015612a825781602001600182028036833780820191505090505b5090505b60008514612b0f57600182612a9b919061464b565b9150600a85612aaa9190614d5c565b6030612ab69190613e22565b60f81b818381518110612acc57612acb614d8d565b5b60200101907effffffffffffffffffffffffffffffffffffffffffffffffffffffffffffff1916908160001a905350600a85612b089190613ec7565b9450612a86565b8093505050505b919050565b505050565b505050565b612b3f828260405180602001604052806000815250612d39565b5050565b6000612b648473ffffffffffffffffffffffffffffffffffffffff16612d94565b15612cbd578373ffffffffffffffffffffffffffffffffffffffff1663150b7a02612b8d612055565b8786866040518563ffffffff1660e01b8152600401612baf9493929190614e11565b6020604051808303816000875af1925050508015612beb57506040513d601f19601f82011682018060405250810190612be89190614e72565b60015b612c6d573d8060008114612c1b576040519150601f19603f3d011682016040523d82523d6000602084013e612c20565b606091505b506000815103612c65576040517f08c379a0000000000000000000000000000000000000000000000000000000008152600401612c5c90614cf4565b60405180910390fd5b805181602001fd5b63150b7a0260e01b7bffffffffffffffffffffffffffffffffffffffffffffffffffffffff1916817bffffffffffffffffffffffffffffffffffffffffffffffffffffffff191614915050612cc2565b600190505b949350505050565b60008082905060005b8451811015612d2e576000858281518110612cf157612cf0614d8d565b5b60200260200101519050808311612d1357612d0c8382612db7565b9250612d20565b612d1d8184612db7565b92505b508080600101915050612cd3565b508091505092915050565b612d438383612dce565b612d506000848484612b43565b612d8f576040517f08c379a0000000000000000000000000000000000000000000000000000000008152600401612d8690614cf4565b60405180910390fd5b505050565b6000808273ffffffffffffffffffffffffffffffffffffffff163b119050919050565b600082600052816020526040600020905092915050565b600073ffffffffffffffffffffffffffffffffffffffff168273ffffffffffffffffffffffffffffffffffffffff1603612e3d576040517f08c379a0000000000000000000000000000000000000000000000000000000008152600401612e3490614eeb565b60405180910390fd5b612e4681611fe9565b15612e86576040517f08c379a0000000000000000000000000000000000000000000000000000000008152600401612e7d90614f57565b60405180910390fd5b612e9260008383612b1b565b6001600360008473ffffffffffffffffffffffffffffffffffffffff1673ffffffffffffffffffffffffffffffffffffffff1681526020019081526020016000206000828254612ee29190613e22565b92505081905550816002600083815260200190815260200160002060006101000a81548173ffffffffffffffffffffffffffffffffffffffff021916908373ffffffffffffffffffffffffffffffffffffffff160217905550808273ffffffffffffffffffffffffffffffffffffffff16600073ffffffffffffffffffffffffffffffffffffffff167fddf252ad1be2c89b69c2b068fc378daa952ba7f163c4a11628f55a4df523b3ef60405160405180910390a4612fa360008383612b20565b5050565b6000604051905090565b600080fd5b600080fd5b60007fffffffff0000000000000000000000000000000000000000000000000000000082169050919050565b612ff081612fbb565b8114612ffb57600080fd5b50565b60008135905061300d81612fe7565b92915050565b60006020828403121561302957613028612fb1565b5b600061303784828501612ffe565b91505092915050565b60008115159050919050565b61305581613040565b82525050565b6000602082019050613070600083018461304c565b92915050565b600081519050919050565b600082825260208201905092915050565b60005b838110156130b0578082015181840152602081019050613095565b60008484015250505050565b6000601f19601f8301169050919050565b60006130d882613076565b6130e28185613081565b93506130f2818560208601613092565b6130fb816130bc565b840191505092915050565b6000602082019050818103600083015261312081846130cd565b905092915050565b6000819050919050565b61313b81613128565b811461314657600080fd5b50565b60008135905061315881613132565b92915050565b60006020828403121561317457613173612fb1565b5b600061318284828501613149565b91505092915050565b600073ffffffffffffffffffffffffffffffffffffffff82169050919050565b60006131b68261318b565b9050919050565b6131c6816131ab565b82525050565b60006020820190506131e160008301846131bd565b92915050565b6131f0816131ab565b81146131fb57600080fd5b50565b60008135905061320d816131e7565b92915050565b6000806040838503121561322a57613229612fb1565b5b6000613238858286016131fe565b925050602061324985828601613149565b9150509250929050565b61325c81613128565b82525050565b60006020820190506132776000830184613253565b92915050565b60008060006060848603121561329657613295612fb1565b5b60006132a4868287016131fe565b93505060206132b5868287016131fe565b92505060406132c686828701613149565b9150509250925092565b600080fd5b7f4e487b7100000000000000000000000000000000000000000000000000000000600052604160045260246000fd5b61330d826130bc565b810181811067ffffffffffffffff8211171561332c5761332b6132d5565b5b80604052505050565b600061333f612fa7565b905061334b8282613304565b919050565b600067ffffffffffffffff82111561336b5761336a6132d5565b5b602082029050602081019050919050565b600080fd5b6000819050919050565b61339481613381565b811461339f57600080fd5b50565b6000813590506133b18161338b565b92915050565b60006133ca6133c584613350565b613335565b905080838252602082019050602084028301858111156133ed576133ec61337c565b5b835b81811015613416578061340288826133a2565b8452602084019350506020810190506133ef565b5050509392505050565b600082601f830112613435576134346132d0565b5b81356134458482602086016133b7565b91505092915050565b6000806040838503121561346557613464612fb1565b5b600083013567ffffffffffffffff81111561348357613482612fb6565b5b61348f85828601613420565b92505060206134a085828601613149565b9150509250929050565b600080604083850312156134c1576134c0612fb1565b5b60006134cf85828601613149565b92505060206134e085828601613149565b9150509250929050565b60006040820190506134ff60008301856131bd565b61350c6020830184613253565b9392505050565b600080fd5b600067ffffffffffffffff821115613533576135326132d5565b5b61353c826130bc565b9050602081019050919050565b82818337600083830152505050565b600061356b61356684613518565b613335565b90508281526020810184848401111561358757613586613513565b5b613592848285613549565b509392505050565b600082601f8301126135af576135ae6132d0565b5b81356135bf848260208601613558565b91505092915050565b6000602082840312156135de576135dd612fb1565b5b600082013567ffffffffffffffff8111156135fc576135fb612fb6565b5b6136088482850161359a565b91505092915050565b600060a0820190506136266000830188613253565b6136336020830187613253565b6136406040830186613253565b61364d6060830185613253565b61365a6080830184613253565b9695505050505050565b60006020828403121561367a57613679612fb1565b5b6000613688848285016131fe565b91505092915050565b600080600080608085870312156136ab576136aa612fb1565b5b60006136b987828801613149565b94505060206136ca87828801613149565b93505060406136db87828801613149565b92505060606136ec87828801613149565b91505092959194509250565b600060a08201905061370d600083018861304c565b61371a6020830187613253565b6137276040830186613253565b6137346060830185613253565b6137416080830184613253565b9695505050505050565b61375481613040565b811461375f57600080fd5b50565b6000813590506137718161374b565b92915050565b6000806040838503121561378e5761378d612fb1565b5b600061379c858286016131fe565b92505060206137ad85828601613762565b9150509250929050565b600067ffffffffffffffff8211156137d2576137d16132d5565b5b6137db826130bc565b9050602081019050919050565b60006137fb6137f6846137b7565b613335565b90508281526020810184848401111561381757613816613513565b5b613822848285613549565b509392505050565b600082601f83011261383f5761383e6132d0565b5b813561384f8482602086016137e8565b91505092915050565b6000806000806080858703121561387257613871612fb1565b5b6000613880878288016131fe565b9450506020613891878288016131fe565b93505060406138a287828801613149565b925050606085013567ffffffffffffffff8111156138c3576138c2612fb6565b5b6138cf8782880161382a565b91505092959194509250565b600080604083850312156138f2576138f1612fb1565b5b600083013567ffffffffffffffff8111156139105761390f612fb6565b5b61391c85828601613420565b925050602061392d858286016133a2565b9150509250929050565b60006020828403121561394d5761394c612fb1565b5b600061395b848285016133a2565b91505092915050565b6000806040838503121561397b5761397a612fb1565b5b6000613989858286016131fe565b925050602061399a858286016131fe565b9150509250929050565b7f4e487b7100000000000000000000000000000000000000000000000000000000600052602260045260246000fd5b600060028204905060018216806139eb57607f821691505b6020821081036139fe576139fd6139a4565b5b50919050565b7f4552433732313a20617070726f76656420717565727920666f72206e6f6e657860008201527f697374656e7420746f6b656e0000000000000000000000000000000000000000602082015250565b6000613a60602c83613081565b9150613a6b82613a04565b604082019050919050565b60006020820190508181036000830152613a8f81613a53565b9050919050565b7f4552433732313a20617070726f76616c20746f2063757272656e74206f776e6560008201527f7200000000000000000000000000000000000000000000000000000000000000602082015250565b6000613af2602183613081565b9150613afd82613a96565b604082019050919050565b60006020820190508181036000830152613b2181613ae5565b9050919050565b7f4552433732313a20617070726f76652063616c6c6572206973206e6f74206f7760008201527f6e6572206e6f7220617070726f76656420666f7220616c6c0000000000000000602082015250565b6000613b84603883613081565b9150613b8f82613b28565b604082019050919050565b60006020820190508181036000830152613bb381613b77565b9050919050565b7f4552433732313a207472616e736665722063616c6c6572206973206e6f74206f60008201527f776e6572206e6f7220617070726f766564000000000000000000000000000000602082015250565b6000613c16603183613081565b9150613c2182613bba565b604082019050919050565b60006020820190508181036000830152613c4581613c09565b9050919050565b7f57686974656c6973742073616c652069732064697361626c6564000000000000600082015250565b6000613c82601a83613081565b9150613c8d82613c4c565b602082019050919050565b60006020820190508181036000830152613cb181613c75565b9050919050565b7f57686974656c6973742073616c65206e6f742061637469766500000000000000600082015250565b6000613cee601983613081565b9150613cf982613cb8565b602082019050919050565b60006020820190508181036000830152613d1d81613ce1565b9050919050565b60008160601b9050919050565b6000613d3c82613d24565b9050919050565b6000613d4e82613d31565b9050919050565b613d66613d61826131ab565b613d43565b82525050565b6000613d788284613d55565b60148201915081905092915050565b7f4e6f742077686974656c69737465640000000000000000000000000000000000600082015250565b6000613dbd600f83613081565b9150613dc882613d87565b602082019050919050565b60006020820190508181036000830152613dec81613db0565b9050919050565b7f4e487b7100000000000000000000000000000000000000000000000000000000600052601160045260246000fd5b6000613e2d82613128565b9150613e3883613128565b9250828201905080821115613e5057613e4f613df3565b5b92915050565b6000613e6182613128565b9150613e6c83613128565b9250828202613e7a81613128565b91508282048414831517613e9157613e90613df3565b5b5092915050565b7f4e487b7100000000000000000000000000000000000000000000000000000000600052601260045260246000fd5b6000613ed282613128565b9150613edd83613128565b925082613eed57613eec613e98565b5b828204905092915050565b7f5075626c6963206d696e74696e67206973206e6f7420616c6c6f77656420626560008201527f666f72652077686974656c69737420656e647300000000000000000000000000602082015250565b6000613f54603383613081565b9150613f5f82613ef8565b604082019050919050565b60006020820190508181036000830152613f8381613f47565b9050919050565b7f5075626c69632073616c652069732064697361626c6564000000000000000000600082015250565b6000613fc0601783613081565b9150613fcb82613f8a565b602082019050919050565b60006020820190508181036000830152613fef81613fb3565b9050919050565b7f5075626c69632073616c65206e6f742061637469766500000000000000000000600082015250565b600061402c601683613081565b915061403782613ff6565b602082019050919050565b6000602082019050818103600083015261405b8161401f565b9050919050565b7f4f776e61626c653a2063616c6c6572206973206e6f7420746865206f776e6572600082015250565b6000614098602083613081565b91506140a382614062565b602082019050919050565b600060208201905081810360008301526140c78161408b565b9050919050565b7f546f74616c20726f79616c74792063616e6e6f74206578636565642031302500600082015250565b6000614104601f83613081565b915061410f826140ce565b602082019050919050565b60006020820190508181036000830152614133816140f7565b9050919050565b60008190508160005260206000209050919050565b60006020601f8301049050919050565b600082821b905092915050565b60006008830261419c7fffffffffffffffffffffffffffffffffffffffffffffffffffffffffffffffff8261415f565b6141a6868361415f565b95508019841693508086168417925050509392505050565b6000819050919050565b60006141e36141de6141d984613128565b6141be565b613128565b9050919050565b6000819050919050565b6141fd836141c8565b614211614209826141ea565b84845461416c565b825550505050565b600090565b614226614219565b6142318184846141f4565b505050565b5b818110156142555761424a60008261421e565b600181019050614237565b5050565b601f82111561429a5761426b8161413a565b6142748461414f565b81016020851015614283578190505b61429761428f8561414f565b830182614236565b50505b505050565b600082821c905092915050565b60006142bd6000198460080261429f565b1980831691505092915050565b60006142d683836142ac565b9150826002028217905092915050565b6142ef82613076565b67ffffffffffffffff811115614308576143076132d5565b5b61431282546139d3565b61431d828285614259565b600060209050601f831160018114614350576000841561433e578287015190505b61434885826142ca565b8655506143b0565b601f19841661435e8661413a565b60005b8281101561438657848901518255600182019150602085019450602081019050614361565b868310156143a3578489015161439f601f8916826142ac565b8355505b6001600288020188555050505b505050505050565b60006040820190506143cd600083018561304c565b6143da602083018461304c565b9392505050565b7f4552433732313a206f776e657220717565727920666f72206e6f6e657869737460008201527f656e7420746f6b656e0000000000000000000000000000000000000000000000602082015250565b600061443d602983613081565b9150614448826143e1565b604082019050919050565b6000602082019050818103600083015261446c81614430565b9050919050565b7f4552433732313a2062616c616e636520717565727920666f7220746865207a6560008201527f726f206164647265737300000000000000000000000000000000000000000000602082015250565b60006144cf602a83613081565b91506144da82614473565b604082019050919050565b600060208201905081810360008301526144fe816144c2565b9050919050565b600060808201905061451a6000830187613253565b6145276020830186613253565b6145346040830185613253565b6145416060830184613253565b95945050505050565b600060408201905061455f6000830185613253565b61456c6020830184613253565b9392505050565b7f5265656e7472616e637947756172643a207265656e7472616e742063616c6c00600082015250565b60006145a9601f83613081565b91506145b482614573565b602082019050919050565b600060208201905081810360008301526145d88161459c565b9050919050565b7f4e6f2066756e647320617661696c61626c650000000000000000000000000000600082015250565b6000614615601283613081565b9150614620826145df565b602082019050919050565b6000602082019050818103600083015261464481614608565b9050919050565b600061465682613128565b915061466183613128565b925082820390508181111561467957614678613df3565b5b92915050565b7f4552433732314d657461646174613a2055524920717565727920666f72206e6f60008201527f6e6578697374656e7420746f6b656e0000000000000000000000000000000000602082015250565b60006146db602f83613081565b91506146e68261467f565b604082019050919050565b6000602082019050818103600083015261470a816146ce565b9050919050565b600081905092915050565b60008154614729816139d3565b6147338186614711565b9450600182166000811461474e576001811461476357614796565b60ff1983168652811515820286019350614796565b61476c8561413a565b60005b8381101561478e5781548189015260018201915060208101905061476f565b838801955050505b50505092915050565b60006147aa82613076565b6147b48185614711565b93506147c4818560208601613092565b80840191505092915050565b60006147dc828561471c565b91506147e8828461479f565b91508190509392505050565b6147fd81613381565b82525050565b600060208201905061481860008301846147f4565b92915050565b7f4f776e61626c653a206e6577206f776e657220697320746865207a65726f206160008201527f6464726573730000000000000000000000000000000000000000000000000000602082015250565b600061487a602683613081565b91506148858261481e565b604082019050919050565b600060208201905081810360008301526148a98161486d565b9050919050565b7f4552433732313a206f70657261746f7220717565727920666f72206e6f6e657860008201527f697374656e7420746f6b656e0000000000000000000000000000000000000000602082015250565b600061490c602c83613081565b9150614917826148b0565b604082019050919050565b6000602082019050818103600083015261493b816148ff565b9050919050565b7f4552433732313a207472616e736665722066726f6d20696e636f72726563742060008201527f6f776e6572000000000000000000000000000000000000000000000000000000602082015250565b600061499e602583613081565b91506149a982614942565b604082019050919050565b600060208201905081810360008301526149cd81614991565b9050919050565b7f4552433732313a207472616e7366657220746f20746865207a65726f2061646460008201527f7265737300000000000000000000000000000000000000000000000000000000602082015250565b6000614a30602483613081565b9150614a3b826149d4565b604082019050919050565b60006020820190508181036000830152614a5f81614a23565b9050919050565b7f45786365656473206d6178206d696e7420706572207472616e73616374696f6e600082015250565b6000614a9c602083613081565b9150614aa782614a66565b602082019050919050565b60006020820190508181036000830152614acb81614a8f565b9050919050565b7f457863656564732077616c6c6574206d696e74206c696d697400000000000000600082015250565b6000614b08601983613081565b9150614b1382614ad2565b602082019050919050565b60006020820190508181036000830152614b3781614afb565b9050919050565b7f45786365656473206d617820737570706c790000000000000000000000000000600082015250565b6000614b74601283613081565b9150614b7f82614b3e565b602082019050919050565b60006020820190508181036000830152614ba381614b67565b9050919050565b7f496e636f7272656374204d4f4e2076616c756500000000000000000000000000600082015250565b6000614be0601383613081565b9150614beb82614baa565b602082019050919050565b60006020820190508181036000830152614c0f81614bd3565b9050919050565b7f4552433732313a20617070726f766520746f2063616c6c657200000000000000600082015250565b6000614c4c601983613081565b9150614c5782614c16565b602082019050919050565b60006020820190508181036000830152614c7b81614c3f565b9050919050565b7f4552433732313a207472616e7366657220746f206e6f6e20455243373231526560008201527f63656976657220696d706c656d656e7465720000000000000000000000000000602082015250565b6000614cde603283613081565b9150614ce982614c82565b604082019050919050565b60006020820190508181036000830152614d0d81614cd1565b9050919050565b6000614d1f82613128565b91507fffffffffffffffffffffffffffffffffffffffffffffffffffffffffffffffff8203614d5157614d50613df3565b5b600182019050919050565b6000614d6782613128565b9150614d7283613128565b925082614d8257614d81613e98565b5b828206905092915050565b7f4e487b7100000000000000000000000000000000000000000000000000000000600052603260045260246000fd5b600081519050919050565b600082825260208201905092915050565b6000614de382614dbc565b614ded8185614dc7565b9350614dfd818560208601613092565b614e06816130bc565b840191505092915050565b6000608082019050614e2660008301876131bd565b614e3360208301866131bd565b614e406040830185613253565b8181036060830152614e528184614dd8565b905095945050505050565b600081519050614e6c81612fe7565b92915050565b600060208284031215614e8857614e87612fb1565b5b6000614e9684828501614e5d565b91505092915050565b7f4552433732313a206d696e7420746f20746865207a65726f2061646472657373600082015250565b6000614ed5602083613081565b9150614ee082614e9f565b602082019050919050565b60006020820190508181036000830152614f0481614ec8565b9050919050565b7f4552433732313a20746f6b656e20616c7265616479206d696e74656400000000600082015250565b6000614f41601c83613081565b9150614f4c82614f0b565b602082019050919050565b60006020820190508181036000830152614f7081614f34565b905091905056fea26469706673582212202c1ebdb1681103fe90e81adb14d6a890df86bf362f4365286e4a7db8ef7c54fd64736f6c634300081a0033",
  "linkReferences": {},
  "deployedLinkReferences": {}
}