{
	"data": {
		"bytecode": {
			"linkReferences": {},
			"object": "6080604052600160155f6101000a81548160ff021916908315150217905550348015610029575f5ffd5b5060405161520d38038061520d833981810160405281019061004b919061050e565b8484815f908161005b91906107e1565b50806001908161006b91906107e1565b50505061008a61007f61018d60201b60201c565b61019460201b60201c565b600160078190555081600c5f820151815f01556020820151816001015560408201518160020155606082015181600301559050508060105f820151815f015f6101000a81548160ff0219169083151502179055506020820151816001015560408201518160020155606082015181600301556080820151816004015590505082600b908161011891906107e1565b50805f0151601560016101000a81548160ff0219169083151502179055507fdf31a79be646f25cf79f5f1fe56d5972e8af0f25de752b9021b909727a0b8ec4816020015182604001518360600151846080015160405161017b94939291906108bf565b60405180910390a15050505050610902565b5f33905090565b5f60065f9054906101000a900473ffffffffffffffffffffffffffffffffffffffff1690508160065f6101000a81548173ffffffffffffffffffffffffffffffffffffffff021916908373ffffffffffffffffffffffffffffffffffffffff1602179055508173ffffffffffffffffffffffffffffffffffffffff168173ffffffffffffffffffffffffffffffffffffffff167f8be0079c531659141344cd1fd0a4f28419497f9722a3daafe3b4186f6b6457e060405160405180910390a35050565b5f604051905090565b5f5ffd5b5f5ffd5b5f5ffd5b5f5ffd5b5f601f19601f8301169050919050565b7f4e487b71000000000000000000000000000000000000000000000000000000005f52604160045260245ffd5b6102b682610270565b810181811067ffffffffffffffff821117156102d5576102d4610280565b5b80604052505050565b5f6102e7610257565b90506102f382826102ad565b919050565b5f67ffffffffffffffff82111561031257610311610280565b5b61031b82610270565b9050602081019050919050565b8281835e5f83830152505050565b5f610348610343846102f8565b6102de565b9050828152602081018484840111156103645761036361026c565b5b61036f848285610328565b509392505050565b5f82601f83011261038b5761038a610268565b5b815161039b848260208601610336565b91505092915050565b5f5ffd5b5f819050919050565b6103ba816103a8565b81146103c4575f5ffd5b50565b5f815190506103d5816103b1565b92915050565b5f608082840312156103f0576103ef6103a4565b5b6103fa60806102de565b90505f610409848285016103c7565b5f83015250602061041c848285016103c7565b6020830152506040610430848285016103c7565b6040830152506060610444848285016103c7565b60608301525092915050565b5f8115159050919050565b61046481610450565b811461046e575f5ffd5b50565b5f8151905061047f8161045b565b92915050565b5f60a0828403121561049a576104996103a4565b5b6104a460a06102de565b90505f6104b384828501610471565b5f8301525060206104c6848285016103c7565b60208301525060406104da848285016103c7565b60408301525060606104ee848285016103c7565b6060830152506080610502848285016103c7565b60808301525092915050565b5f5f5f5f5f610180868803121561052857610527610260565b5b5f86015167ffffffffffffffff81111561054557610544610264565b5b61055188828901610377565b955050602086015167ffffffffffffffff81111561057257610571610264565b5b61057e88828901610377565b945050604086015167ffffffffffffffff81111561059f5761059e610264565b5b6105ab88828901610377565b93505060606105bc888289016103db565b92505060e06105cd88828901610485565b9150509295509295909350565b5f81519050919050565b7f4e487b71000000000000000000000000000000000000000000000000000000005f52602260045260245ffd5b5f600282049050600182168061062857607f821691505b60208210810361063b5761063a6105e4565b5b50919050565b5f819050815f5260205f209050919050565b5f6020601f8301049050919050565b5f82821b905092915050565b5f6008830261069d7fffffffffffffffffffffffffffffffffffffffffffffffffffffffffffffffff82610662565b6106a78683610662565b95508019841693508086168417925050509392505050565b5f819050919050565b5f6106e26106dd6106d8846103a8565b6106bf565b6103a8565b9050919050565b5f819050919050565b6106fb836106c8565b61070f610707826106e9565b84845461066e565b825550505050565b5f5f905090565b610726610717565b6107318184846106f2565b505050565b5b81811015610754576107495f8261071e565b600181019050610737565b5050565b601f8211156107995761076a81610641565b61077384610653565b81016020851015610782578190505b61079661078e85610653565b830182610736565b50505b505050565b5f82821c905092915050565b5f6107b95f198460080261079e565b1980831691505092915050565b5f6107d183836107aa565b9150826002028217905092915050565b6107ea826105da565b67ffffffffffffffff81111561080357610802610280565b5b61080d8254610611565b610818828285610758565b5f60209050601f831160018114610849575f8415610837578287015190505b61084185826107c6565b8655506108a8565b601f19841661085786610641565b5f5b8281101561087e57848901518255600182019150602085019450602081019050610859565b8683101561089b5784890151610897601f8916826107aa565b8355505b6001600288020188555050505b505050505050565b6108b9816103a8565b82525050565b5f6080820190506108d25f8301876108b0565b6108df60208301866108b0565b6108ec60408301856108b0565b6108f960608301846108b0565b95945050505050565b6148fe8061090f5f395ff3fe6080604052600436106101ed575f3560e01c8063715018a61161010c5780639abc83201161009f578063c87b56dd1161006e578063c87b56dd14610680578063dab5f340146106bc578063e222c7f9146106e4578063e985e9c5146106fa578063f2fde38b14610736576101ed565b80639abc8320146105ca578063a22cb465146105f4578063b88d4fde1461061c578063b8a20ed014610644576101ed565b80638da5cb5b116100db5780638da5cb5b1461052057806390aa0b0f1461054a57806391b7f5ed1461057857806395d89b41146105a0576101ed565b8063715018a6146104a45780637bc10294146104ba5780637f31d96a146104e2578063853828b61461050a576101ed565b80632db115441161018457806359eda1b51161015357806359eda1b5146103e95780636352211e146103ff5780636b34d7251461043b57806370a0823114610468576101ed565b80632db115441461035357806342842e0e1461036f578063524513d61461039757806355f804b3146103c1576101ed565b806318160ddd116101c057806318160ddd146102bb5780631e84c413146102e557806323b872dd1461030f5780632904e6d914610337576101ed565b806301ffc9a7146101f157806306fdde031461022d578063081812fc14610257578063095ea7b314610293575b5f5ffd5b3480156101fc575f5ffd5b5061021760048036038101906102129190612b5a565b61075e565b6040516102249190612b9f565b60405180910390f35b348015610238575f5ffd5b5061024161083f565b60405161024e9190612c28565b60405180910390f35b348015610262575f5ffd5b5061027d60048036038101906102789190612c7b565b6108ce565b60405161028a9190612ce5565b60405180910390f35b34801561029e575f5ffd5b506102b960048036038101906102b49190612d28565b61094f565b005b3480156102c6575f5ffd5b506102cf610a65565b6040516102dc9190612d75565b60405180910390f35b3480156102f0575f5ffd5b506102f9610a6b565b6040516103069190612b9f565b60405180910390f35b34801561031a575f5ffd5b5061033560048036038101906103309190612d8e565b610a7d565b005b610351600480360381019061034c9190612f51565b610add565b005b61036d60048036038101906103689190612c7b565b610bfb565b005b34801561037a575f5ffd5b5061039560048036038101906103909190612d8e565b610d09565b005b3480156103a2575f5ffd5b506103ab610d28565b6040516103b89190612b9f565b60405180910390f35b3480156103cc575f5ffd5b506103e760048036038101906103e2919061305b565b610d3b565b005b3480156103f4575f5ffd5b506103fd610e01565b005b34801561040a575f5ffd5b5061042560048036038101906104209190612c7b565b610eff565b6040516104329190612ce5565b60405180910390f35b348015610446575f5ffd5b5061044f610fab565b60405161045f94939291906130a2565b60405180910390f35b348015610473575f5ffd5b5061048e600480360381019061048991906130e5565b610fc8565b60405161049b9190612d75565b60405180910390f35b3480156104af575f5ffd5b506104b861107c565b005b3480156104c5575f5ffd5b506104e060048036038101906104db9190613110565b611103565b005b3480156104ed575f5ffd5b5061050860048036038101906105039190613174565b6111ea565b005b348015610515575f5ffd5b5061051e6112b7565b005b34801561052b575f5ffd5b5061053461142c565b6040516105419190612ce5565b60405180910390f35b348015610555575f5ffd5b5061055e611454565b60405161056f9594939291906131b2565b60405180910390f35b348015610583575f5ffd5b5061059e60048036038101906105999190612c7b565b611483565b005b3480156105ab575f5ffd5b506105b4611543565b6040516105c19190612c28565b60405180910390f35b3480156105d5575f5ffd5b506105de6115d3565b6040516105eb9190612c28565b60405180910390f35b3480156105ff575f5ffd5b5061061a6004803603810190610615919061322d565b61165f565b005b348015610627575f5ffd5b50610642600480360381019061063d9190613309565b611675565b005b34801561064f575f5ffd5b5061066a60048036038101906106659190613389565b6116d7565b6040516106779190612b9f565b60405180910390f35b34801561068b575f5ffd5b506106a660048036038101906106a19190612c7b565b6116ed565b6040516106b39190612c28565b60405180910390f35b3480156106c7575f5ffd5b506106e260048036038101906106dd91906133e3565b611793565b005b3480156106ef575f5ffd5b506106f8611850565b005b348015610705575f5ffd5b50610720600480360381019061071b919061340e565b61194c565b60405161072d9190612b9f565b60405180910390f35b348015610741575f5ffd5b5061075c600480360381019061075791906130e5565b6119da565b005b5f7f80ac58cd000000000000000000000000000000000000000000000000000000007bffffffffffffffffffffffffffffffffffffffffffffffffffffffff1916827bffffffffffffffffffffffffffffffffffffffffffffffffffffffff1916148061082857507f5b5e139f000000000000000000000000000000000000000000000000000000007bffffffffffffffffffffffffffffffffffffffffffffffffffffffff1916827bffffffffffffffffffffffffffffffffffffffffffffffffffffffff1916145b80610838575061083782611ad0565b5b9050919050565b60605f805461084d90613479565b80601f016020809104026020016040519081016040528092919081815260200182805461087990613479565b80156108c45780601f1061089b576101008083540402835291602001916108c4565b820191905f5260205f20905b8154815290600101906020018083116108a757829003601f168201915b5050505050905090565b5f6108d882611b39565b610917576040517f08c379a000000000000000000000000000000000000000000000000000000000815260040161090e90613519565b60405180910390fd5b60045f8381526020019081526020015f205f9054906101000a900473ffffffffffffffffffffffffffffffffffffffff169050919050565b5f61095982610eff565b90508073ffffffffffffffffffffffffffffffffffffffff168373ffffffffffffffffffffffffffffffffffffffff16036109c9576040517f08c379a00000000000000000000000000000000000000000000000000000000081526004016109c0906135a7565b60405180910390fd5b8073ffffffffffffffffffffffffffffffffffffffff166109e8611ba1565b73ffffffffffffffffffffffffffffffffffffffff161480610a175750610a1681610a11611ba1565b61194c565b5b610a56576040517f08c379a0000000000000000000000000000000000000000000000000000000008152600401610a4d90613635565b60405180910390fd5b610a608383611ba8565b505050565b60095481565b60155f9054906101000a900460ff1681565b610a8e610a88611ba1565b82611c5e565b610acd576040517f08c379a0000000000000000000000000000000000000000000000000000000008152600401610ac4906136c3565b60405180910390fd5b610ad8838383611d3a565b505050565b601560019054906101000a900460ff16610b2c576040517f08c379a0000000000000000000000000000000000000000000000000000000008152600401610b239061372b565b60405180910390fd5b610b40601060010154601060020154611f95565b610b7f576040517f08c379a0000000000000000000000000000000000000000000000000000000008152600401610b7690613793565b60405180910390fd5b610baf8233604051602001610b9491906137f6565b604051602081830303815290604052805190602001206116d7565b610bee576040517f08c379a0000000000000000000000000000000000000000000000000000000008152600401610be59061385a565b60405180910390fd5b610bf781611fc2565b5050565b60105f015f9054906101000a900460ff161580610c1d57506010600201544210155b610c5c576040517f08c379a0000000000000000000000000000000000000000000000000000000008152600401610c53906138e8565b60405180910390fd5b60155f9054906101000a900460ff16610caa576040517f08c379a0000000000000000000000000000000000000000000000000000000008152600401610ca190613950565b60405180910390fd5b610cbe601060030154601060040154611f95565b610cfd576040517f08c379a0000000000000000000000000000000000000000000000000000000008152600401610cf4906139b8565b60405180910390fd5b610d0681611fc2565b50565b610d2383838360405180602001604052805f815250611675565b505050565b601560019054906101000a900460ff1681565b610d43611ba1565b73ffffffffffffffffffffffffffffffffffffffff16610d6161142c565b73ffffffffffffffffffffffffffffffffffffffff1614610db7576040517f08c379a0000000000000000000000000000000000000000000000000000000008152600401610dae90613a20565b60405180910390fd5b80600b9081610dc69190613bde565b507ff9c7803e94e0d3c02900d8a90893a6d5e90dd04d32a4cfe825520f82bf9f32f681604051610df69190612c28565b60405180910390a150565b610e09611ba1565b73ffffffffffffffffffffffffffffffffffffffff16610e2761142c565b73ffffffffffffffffffffffffffffffffffffffff1614610e7d576040517f08c379a0000000000000000000000000000000000000000000000000000000008152600401610e7490613a20565b60405180910390fd5b601560019054906101000a900460ff1615601560016101000a81548160ff0219169083151502179055507f0f3ceb1b1df7afa89a10afbea0bc86b42296cfdfa410cdd70a7c2a97f9f9a37360155f9054906101000a900460ff16601560019054906101000a900460ff16604051610ef5929190613cad565b60405180910390a1565b5f5f60025f8481526020019081526020015f205f9054906101000a900473ffffffffffffffffffffffffffffffffffffffff1690505f73ffffffffffffffffffffffffffffffffffffffff168173ffffffffffffffffffffffffffffffffffffffff1603610fa2576040517f08c379a0000000000000000000000000000000000000000000000000000000008152600401610f9990613d44565b60405180910390fd5b80915050919050565b600c805f0154908060010154908060020154908060030154905084565b5f5f73ffffffffffffffffffffffffffffffffffffffff168273ffffffffffffffffffffffffffffffffffffffff1603611037576040517f08c379a000000000000000000000000000000000000000000000000000000000815260040161102e90613dd2565b60405180910390fd5b60035f8373ffffffffffffffffffffffffffffffffffffffff1673ffffffffffffffffffffffffffffffffffffffff1681526020019081526020015f20549050919050565b611084611ba1565b73ffffffffffffffffffffffffffffffffffffffff166110a261142c565b73ffffffffffffffffffffffffffffffffffffffff16146110f8576040517f08c379a00000000000000000000000000000000000000000000000000000000081526004016110ef90613a20565b60405180910390fd5b6111015f61222f565b565b61110b611ba1565b73ffffffffffffffffffffffffffffffffffffffff1661112961142c565b73ffffffffffffffffffffffffffffffffffffffff161461117f576040517f08c379a000000000000000000000000000000000000000000000000000000000815260040161117690613a20565b60405180910390fd5b836010600101819055508260106002018190555081601060030181905550806010600401819055507fdf31a79be646f25cf79f5f1fe56d5972e8af0f25de752b9021b909727a0b8ec4848484846040516111dc94939291906130a2565b60405180910390a150505050565b6111f2611ba1565b73ffffffffffffffffffffffffffffffffffffffff1661121061142c565b73ffffffffffffffffffffffffffffffffffffffff1614611266576040517f08c379a000000000000000000000000000000000000000000000000000000000815260040161125d90613a20565b60405180910390fd5b81600c6002018190555080600c600301819055507fc37cc9c3c37fdcacbe05156c2f68f96e3d3ecec5a381a8929651bf7a317f0d1c82826040516112ab929190613df0565b60405180910390a15050565b6112bf6122f2565b6112c7611ba1565b73ffffffffffffffffffffffffffffffffffffffff166112e561142c565b73ffffffffffffffffffffffffffffffffffffffff161461133b576040517f08c379a000000000000000000000000000000000000000000000000000000000815260040161133290613a20565b60405180910390fd5b5f4790505f8111611381576040517f08c379a000000000000000000000000000000000000000000000000000000000815260040161137890613e61565b60405180910390fd5b61138961142c565b73ffffffffffffffffffffffffffffffffffffffff166108fc8290811502906040515f60405180830381858888f193505050501580156113cb573d5f5f3e3d5ffd5b506113d461142c565b73ffffffffffffffffffffffffffffffffffffffff167feaff4b37086828766ad3268786972c0cd24259d4c87a80f9d3963a3c3d999b0d826040516114199190612d75565b60405180910390a25061142a612341565b565b5f60065f9054906101000a900473ffffffffffffffffffffffffffffffffffffffff16905090565b6010805f015f9054906101000a900460ff16908060010154908060020154908060030154908060040154905085565b61148b611ba1565b73ffffffffffffffffffffffffffffffffffffffff166114a961142c565b73ffffffffffffffffffffffffffffffffffffffff16146114ff576040517f08c379a00000000000000000000000000000000000000000000000000000000081526004016114f690613a20565b60405180910390fd5b80600c600101819055507f66cbca4f3c64fecf1dcb9ce094abcf7f68c3450a1d4e3a8e917dd621edb4ebe0816040516115389190612d75565b60405180910390a150565b60606001805461155290613479565b80601f016020809104026020016040519081016040528092919081815260200182805461157e90613479565b80156115c95780601f106115a0576101008083540402835291602001916115c9565b820191905f5260205f20905b8154815290600101906020018083116115ac57829003601f168201915b5050505050905090565b600b80546115e090613479565b80601f016020809104026020016040519081016040528092919081815260200182805461160c90613479565b80156116575780601f1061162e57610100808354040283529160200191611657565b820191905f5260205f20905b81548152906001019060200180831161163a57829003601f168201915b505050505081565b61167161166a611ba1565b838361234b565b5050565b611686611680611ba1565b83611c5e565b6116c5576040517f08c379a00000000000000000000000000000000000000000000000000000000081526004016116bc906136c3565b60405180910390fd5b6116d1848484846124b2565b50505050565b5f6116e5836008548461250e565b905092915050565b60606116f882611b39565b611737576040517f08c379a000000000000000000000000000000000000000000000000000000000815260040161172e90613eef565b60405180910390fd5b5f600b805461174590613479565b9050116117605760405180602001604052805f81525061178c565b600b61176b83612524565b60405160200161177c929190613fc7565b6040516020818303038152906040525b9050919050565b61179b611ba1565b73ffffffffffffffffffffffffffffffffffffffff166117b961142c565b73ffffffffffffffffffffffffffffffffffffffff161461180f576040517f08c379a000000000000000000000000000000000000000000000000000000000815260040161180690613a20565b60405180910390fd5b806008819055507f2cbc14f49c068133583f7cb530018af451c87c1cf1327cf2a4ff4698c4730aa4816040516118459190613ff9565b60405180910390a150565b611858611ba1565b73ffffffffffffffffffffffffffffffffffffffff1661187661142c565b73ffffffffffffffffffffffffffffffffffffffff16146118cc576040517f08c379a00000000000000000000000000000000000000000000000000000000081526004016118c390613a20565b60405180910390fd5b60155f9054906101000a900460ff161560155f6101000a81548160ff0219169083151502179055507f0f3ceb1b1df7afa89a10afbea0bc86b42296cfdfa410cdd70a7c2a97f9f9a37360155f9054906101000a900460ff16601560019054906101000a900460ff16604051611942929190613cad565b60405180910390a1565b5f60055f8473ffffffffffffffffffffffffffffffffffffffff1673ffffffffffffffffffffffffffffffffffffffff1681526020019081526020015f205f8373ffffffffffffffffffffffffffffffffffffffff1673ffffffffffffffffffffffffffffffffffffffff1681526020019081526020015f205f9054906101000a900460ff16905092915050565b6119e2611ba1565b73ffffffffffffffffffffffffffffffffffffffff16611a0061142c565b73ffffffffffffffffffffffffffffffffffffffff1614611a56576040517f08c379a0000000000000000000000000000000000000000000000000000000008152600401611a4d90613a20565b60405180910390fd5b5f73ffffffffffffffffffffffffffffffffffffffff168173ffffffffffffffffffffffffffffffffffffffff1603611ac4576040517f08c379a0000000000000000000000000000000000000000000000000000000008152600401611abb90614082565b60405180910390fd5b611acd8161222f565b50565b5f7f01ffc9a7000000000000000000000000000000000000000000000000000000007bffffffffffffffffffffffffffffffffffffffffffffffffffffffff1916827bffffffffffffffffffffffffffffffffffffffffffffffffffffffff1916149050919050565b5f5f73ffffffffffffffffffffffffffffffffffffffff1660025f8481526020019081526020015f205f9054906101000a900473ffffffffffffffffffffffffffffffffffffffff1673ffffffffffffffffffffffffffffffffffffffff1614159050919050565b5f33905090565b8160045f8381526020019081526020015f205f6101000a81548173ffffffffffffffffffffffffffffffffffffffff021916908373ffffffffffffffffffffffffffffffffffffffff160217905550808273ffffffffffffffffffffffffffffffffffffffff16611c1883610eff565b73ffffffffffffffffffffffffffffffffffffffff167f8c5be1e5ebec7d5bd14f71427d1e84f3dd0314c0f7b2291e5b200ac8c7c3b92560405160405180910390a45050565b5f611c6882611b39565b611ca7576040517f08c379a0000000000000000000000000000000000000000000000000000000008152600401611c9e90614110565b60405180910390fd5b5f611cb183610eff565b90508073ffffffffffffffffffffffffffffffffffffffff168473ffffffffffffffffffffffffffffffffffffffff161480611d2057508373ffffffffffffffffffffffffffffffffffffffff16611d08846108ce565b73ffffffffffffffffffffffffffffffffffffffff16145b80611d315750611d30818561194c565b5b91505092915050565b8273ffffffffffffffffffffffffffffffffffffffff16611d5a82610eff565b73ffffffffffffffffffffffffffffffffffffffff1614611db0576040517f08c379a0000000000000000000000000000000000000000000000000000000008152600401611da79061419e565b60405180910390fd5b5f73ffffffffffffffffffffffffffffffffffffffff168273ffffffffffffffffffffffffffffffffffffffff1603611e1e576040517f08c379a0000000000000000000000000000000000000000000000000000000008152600401611e159061422c565b60405180910390fd5b611e2983838361267d565b611e335f82611ba8565b600160035f8573ffffffffffffffffffffffffffffffffffffffff1673ffffffffffffffffffffffffffffffffffffffff1681526020019081526020015f205f828254611e809190614277565b92505081905550600160035f8473ffffffffffffffffffffffffffffffffffffffff1673ffffffffffffffffffffffffffffffffffffffff1681526020019081526020015f205f828254611ed491906142aa565b925050819055508160025f8381526020019081526020015f205f6101000a81548173ffffffffffffffffffffffffffffffffffffffff021916908373ffffffffffffffffffffffffffffffffffffffff160217905550808273ffffffffffffffffffffffffffffffffffffffff168473ffffffffffffffffffffffffffffffffffffffff167fddf252ad1be2c89b69c2b068fc378daa952ba7f163c4a11628f55a4df523b3ef60405160405180910390a4611f90838383612682565b505050565b5f5f831480611fa45750824210155b8015611fba57505f821480611fb95750814211155b5b905092915050565b600c6002015481111561200a576040517f08c379a000000000000000000000000000000000000000000000000000000000815260040161200190614327565b60405180910390fd5b600c6003015481600a5f3373ffffffffffffffffffffffffffffffffffffffff1673ffffffffffffffffffffffffffffffffffffffff1681526020019081526020015f205461205991906142aa565b111561209a576040517f08c379a00000000000000000000000000000000000000000000000000000000081526004016120919061438f565b60405180910390fd5b600c5f0154816009546120ad91906142aa565b11156120ee576040517f08c379a00000000000000000000000000000000000000000000000000000000081526004016120e5906143f7565b60405180910390fd5b34600c60010154826121009190614415565b1115612141576040517f08c379a0000000000000000000000000000000000000000000000000000000008152600401612138906144a0565b60405180910390fd5b5f600190505b81811161217257612165338260095461216091906142aa565b612687565b8080600101915050612147565b5080600a5f3373ffffffffffffffffffffffffffffffffffffffff1673ffffffffffffffffffffffffffffffffffffffff1681526020019081526020015f205f8282546121bf91906142aa565b925050819055508060095f8282546121d791906142aa565b925050819055503373ffffffffffffffffffffffffffffffffffffffff167f3f2c9d57c068687834f0de942a9babb9e5acab57d516d3480a3c16ee165a4273826040516122249190612d75565b60405180910390a250565b5f60065f9054906101000a900473ffffffffffffffffffffffffffffffffffffffff1690508160065f6101000a81548173ffffffffffffffffffffffffffffffffffffffff021916908373ffffffffffffffffffffffffffffffffffffffff1602179055508173ffffffffffffffffffffffffffffffffffffffff168173ffffffffffffffffffffffffffffffffffffffff167f8be0079c531659141344cd1fd0a4f28419497f9722a3daafe3b4186f6b6457e060405160405180910390a35050565b600260075403612337576040517f08c379a000000000000000000000000000000000000000000000000000000000815260040161232e90614508565b60405180910390fd5b6002600781905550565b6001600781905550565b8173ffffffffffffffffffffffffffffffffffffffff168373ffffffffffffffffffffffffffffffffffffffff16036123b9576040517f08c379a00000000000000000000000000000000000000000000000000000000081526004016123b090614570565b60405180910390fd5b8060055f8573ffffffffffffffffffffffffffffffffffffffff1673ffffffffffffffffffffffffffffffffffffffff1681526020019081526020015f205f8473ffffffffffffffffffffffffffffffffffffffff1673ffffffffffffffffffffffffffffffffffffffff1681526020019081526020015f205f6101000a81548160ff0219169083151502179055508173ffffffffffffffffffffffffffffffffffffffff168373ffffffffffffffffffffffffffffffffffffffff167f17307eab39ab6107e8899845ad3d59bd9653f200f220920489ca2b5937696c31836040516124a59190612b9f565b60405180910390a3505050565b6124bd848484611d3a565b6124c9848484846126a4565b612508576040517f08c379a00000000000000000000000000000000000000000000000000000000081526004016124ff906145fe565b60405180910390fd5b50505050565b5f8261251a8584612826565b1490509392505050565b60605f820361256a576040518060400160405280600181526020017f30000000000000000000000000000000000000000000000000000000000000008152509050612678565b5f8290505f5b5f82146125995780806125829061461c565b915050600a826125929190614690565b9150612570565b5f8167ffffffffffffffff8111156125b4576125b3612de2565b5b6040519080825280601f01601f1916602001820160405280156125e65781602001600182028036833780820191505090505b5090505b5f8514612671576001826125fe9190614277565b9150600a8561260d91906146c0565b603061261991906142aa565b60f81b81838151811061262f5761262e6146f0565b5b60200101907effffffffffffffffffffffffffffffffffffffffffffffffffffffffffffff191690815f1a905350600a8561266a9190614690565b94506125ea565b8093505050505b919050565b505050565b505050565b6126a0828260405180602001604052805f815250612895565b5050565b5f6126c48473ffffffffffffffffffffffffffffffffffffffff166128ef565b15612819578373ffffffffffffffffffffffffffffffffffffffff1663150b7a026126ed611ba1565b8786866040518563ffffffff1660e01b815260040161270f949392919061476f565b6020604051808303815f875af192505050801561274a57506040513d601f19601f8201168201806040525081019061274791906147cd565b60015b6127c9573d805f8114612778576040519150601f19603f3d011682016040523d82523d5f602084013e61277d565b606091505b505f8151036127c1576040517f08c379a00000000000000000000000000000000000000000000000000000000081526004016127b8906145fe565b60405180910390fd5b805181602001fd5b63150b7a0260e01b7bffffffffffffffffffffffffffffffffffffffffffffffffffffffff1916817bffffffffffffffffffffffffffffffffffffffffffffffffffffffff19161491505061281e565b600190505b949350505050565b5f5f8290505f5f90505b845181101561288a575f85828151811061284d5761284c6146f0565b5b6020026020010151905080831161286f576128688382612911565b925061287c565b6128798184612911565b92505b508080600101915050612830565b508091505092915050565b61289f8383612925565b6128ab5f8484846126a4565b6128ea576040517f08c379a00000000000000000000000000000000000000000000000000000000081526004016128e1906145fe565b60405180910390fd5b505050565b5f5f8273ffffffffffffffffffffffffffffffffffffffff163b119050919050565b5f825f528160205260405f20905092915050565b5f73ffffffffffffffffffffffffffffffffffffffff168273ffffffffffffffffffffffffffffffffffffffff1603612993576040517f08c379a000000000000000000000000000000000000000000000000000000000815260040161298a90614842565b60405180910390fd5b61299c81611b39565b156129dc576040517f08c379a00000000000000000000000000000000000000000000000000000000081526004016129d3906148aa565b60405180910390fd5b6129e75f838361267d565b600160035f8473ffffffffffffffffffffffffffffffffffffffff1673ffffffffffffffffffffffffffffffffffffffff1681526020019081526020015f205f828254612a3491906142aa565b925050819055508160025f8381526020019081526020015f205f6101000a81548173ffffffffffffffffffffffffffffffffffffffff021916908373ffffffffffffffffffffffffffffffffffffffff160217905550808273ffffffffffffffffffffffffffffffffffffffff165f73ffffffffffffffffffffffffffffffffffffffff167fddf252ad1be2c89b69c2b068fc378daa952ba7f163c4a11628f55a4df523b3ef60405160405180910390a4612af05f8383612682565b5050565b5f604051905090565b5f5ffd5b5f5ffd5b5f7fffffffff0000000000000000000000000000000000000000000000000000000082169050919050565b612b3981612b05565b8114612b43575f5ffd5b50565b5f81359050612b5481612b30565b92915050565b5f60208284031215612b6f57612b6e612afd565b5b5f612b7c84828501612b46565b91505092915050565b5f8115159050919050565b612b9981612b85565b82525050565b5f602082019050612bb25f830184612b90565b92915050565b5f81519050919050565b5f82825260208201905092915050565b8281835e5f83830152505050565b5f601f19601f8301169050919050565b5f612bfa82612bb8565b612c048185612bc2565b9350612c14818560208601612bd2565b612c1d81612be0565b840191505092915050565b5f6020820190508181035f830152612c408184612bf0565b905092915050565b5f819050919050565b612c5a81612c48565b8114612c64575f5ffd5b50565b5f81359050612c7581612c51565b92915050565b5f60208284031215612c9057612c8f612afd565b5b5f612c9d84828501612c67565b91505092915050565b5f73ffffffffffffffffffffffffffffffffffffffff82169050919050565b5f612ccf82612ca6565b9050919050565b612cdf81612cc5565b82525050565b5f602082019050612cf85f830184612cd6565b92915050565b612d0781612cc5565b8114612d11575f5ffd5b50565b5f81359050612d2281612cfe565b92915050565b5f5f60408385031215612d3e57612d3d612afd565b5b5f612d4b85828601612d14565b9250506020612d5c85828601612c67565b9150509250929050565b612d6f81612c48565b82525050565b5f602082019050612d885f830184612d66565b92915050565b5f5f5f60608486031215612da557612da4612afd565b5b5f612db286828701612d14565b9350506020612dc386828701612d14565b9250506040612dd486828701612c67565b9150509250925092565b5f5ffd5b7f4e487b71000000000000000000000000000000000000000000000000000000005f52604160045260245ffd5b612e1882612be0565b810181811067ffffffffffffffff82111715612e3757612e36612de2565b5b80604052505050565b5f612e49612af4565b9050612e558282612e0f565b919050565b5f67ffffffffffffffff821115612e7457612e73612de2565b5b602082029050602081019050919050565b5f5ffd5b5f819050919050565b612e9b81612e89565b8114612ea5575f5ffd5b50565b5f81359050612eb681612e92565b92915050565b5f612ece612ec984612e5a565b612e40565b90508083825260208201905060208402830185811115612ef157612ef0612e85565b5b835b81811015612f1a5780612f068882612ea8565b845260208401935050602081019050612ef3565b5050509392505050565b5f82601f830112612f3857612f37612dde565b5b8135612f48848260208601612ebc565b91505092915050565b5f5f60408385031215612f6757612f66612afd565b5b5f83013567ffffffffffffffff811115612f8457612f83612b01565b5b612f9085828601612f24565b9250506020612fa185828601612c67565b9150509250929050565b5f5ffd5b5f67ffffffffffffffff821115612fc957612fc8612de2565b5b612fd282612be0565b9050602081019050919050565b828183375f83830152505050565b5f612fff612ffa84612faf565b612e40565b90508281526020810184848401111561301b5761301a612fab565b5b613026848285612fdf565b509392505050565b5f82601f83011261304257613041612dde565b5b8135613052848260208601612fed565b91505092915050565b5f602082840312156130705761306f612afd565b5b5f82013567ffffffffffffffff81111561308d5761308c612b01565b5b6130998482850161302e565b91505092915050565b5f6080820190506130b55f830187612d66565b6130c26020830186612d66565b6130cf6040830185612d66565b6130dc6060830184612d66565b95945050505050565b5f602082840312156130fa576130f9612afd565b5b5f61310784828501612d14565b91505092915050565b5f5f5f5f6080858703121561312857613127612afd565b5b5f61313587828801612c67565b945050602061314687828801612c67565b935050604061315787828801612c67565b925050606061316887828801612c67565b91505092959194509250565b5f5f6040838503121561318a57613189612afd565b5b5f61319785828601612c67565b92505060206131a885828601612c67565b9150509250929050565b5f60a0820190506131c55f830188612b90565b6131d26020830187612d66565b6131df6040830186612d66565b6131ec6060830185612d66565b6131f96080830184612d66565b9695505050505050565b61320c81612b85565b8114613216575f5ffd5b50565b5f8135905061322781613203565b92915050565b5f5f6040838503121561324357613242612afd565b5b5f61325085828601612d14565b925050602061326185828601613219565b9150509250929050565b5f67ffffffffffffffff82111561328557613284612de2565b5b61328e82612be0565b9050602081019050919050565b5f6132ad6132a88461326b565b612e40565b9050828152602081018484840111156132c9576132c8612fab565b5b6132d4848285612fdf565b509392505050565b5f82601f8301126132f0576132ef612dde565b5b813561330084826020860161329b565b91505092915050565b5f5f5f5f6080858703121561332157613320612afd565b5b5f61332e87828801612d14565b945050602061333f87828801612d14565b935050604061335087828801612c67565b925050606085013567ffffffffffffffff81111561337157613370612b01565b5b61337d878288016132dc565b91505092959194509250565b5f5f6040838503121561339f5761339e612afd565b5b5f83013567ffffffffffffffff8111156133bc576133bb612b01565b5b6133c885828601612f24565b92505060206133d985828601612ea8565b9150509250929050565b5f602082840312156133f8576133f7612afd565b5b5f61340584828501612ea8565b91505092915050565b5f5f6040838503121561342457613423612afd565b5b5f61343185828601612d14565b925050602061344285828601612d14565b9150509250929050565b7f4e487b71000000000000000000000000000000000000000000000000000000005f52602260045260245ffd5b5f600282049050600182168061349057607f821691505b6020821081036134a3576134a261344c565b5b50919050565b7f4552433732313a20617070726f76656420717565727920666f72206e6f6e65785f8201527f697374656e7420746f6b656e0000000000000000000000000000000000000000602082015250565b5f613503602c83612bc2565b915061350e826134a9565b604082019050919050565b5f6020820190508181035f830152613530816134f7565b9050919050565b7f4552433732313a20617070726f76616c20746f2063757272656e74206f776e655f8201527f7200000000000000000000000000000000000000000000000000000000000000602082015250565b5f613591602183612bc2565b915061359c82613537565b604082019050919050565b5f6020820190508181035f8301526135be81613585565b9050919050565b7f4552433732313a20617070726f76652063616c6c6572206973206e6f74206f775f8201527f6e6572206e6f7220617070726f76656420666f7220616c6c0000000000000000602082015250565b5f61361f603883612bc2565b915061362a826135c5565b604082019050919050565b5f6020820190508181035f83015261364c81613613565b9050919050565b7f4552433732313a207472616e736665722063616c6c6572206973206e6f74206f5f8201527f776e6572206e6f7220617070726f766564000000000000000000000000000000602082015250565b5f6136ad603183612bc2565b91506136b882613653565b604082019050919050565b5f6020820190508181035f8301526136da816136a1565b9050919050565b7f57686974656c6973742073616c652069732064697361626c65640000000000005f82015250565b5f613715601a83612bc2565b9150613720826136e1565b602082019050919050565b5f6020820190508181035f83015261374281613709565b9050919050565b7f57686974656c6973742073616c65206e6f7420616374697665000000000000005f82015250565b5f61377d601983612bc2565b915061378882613749565b602082019050919050565b5f6020820190508181035f8301526137aa81613771565b9050919050565b5f8160601b9050919050565b5f6137c7826137b1565b9050919050565b5f6137d8826137bd565b9050919050565b6137f06137eb82612cc5565b6137ce565b82525050565b5f61380182846137df565b60148201915081905092915050565b7f4e6f742077686974656c697374656400000000000000000000000000000000005f82015250565b5f613844600f83612bc2565b915061384f82613810565b602082019050919050565b5f6020820190508181035f83015261387181613838565b9050919050565b7f5075626c6963206d696e74696e67206973206e6f7420616c6c6f7765642062655f8201527f666f72652077686974656c69737420656e647300000000000000000000000000602082015250565b5f6138d2603383612bc2565b91506138dd82613878565b604082019050919050565b5f6020820190508181035f8301526138ff816138c6565b9050919050565b7f5075626c69632073616c652069732064697361626c65640000000000000000005f82015250565b5f61393a601783612bc2565b915061394582613906565b602082019050919050565b5f6020820190508181035f8301526139678161392e565b9050919050565b7f5075626c69632073616c65206e6f7420616374697665000000000000000000005f82015250565b5f6139a2601683612bc2565b91506139ad8261396e565b602082019050919050565b5f6020820190508181035f8301526139cf81613996565b9050919050565b7f4f776e61626c653a2063616c6c6572206973206e6f7420746865206f776e65725f82015250565b5f613a0a602083612bc2565b9150613a15826139d6565b602082019050919050565b5f6020820190508181035f830152613a37816139fe565b9050919050565b5f819050815f5260205f209050919050565b5f6020601f8301049050919050565b5f82821b905092915050565b5f60088302613a9a7fffffffffffffffffffffffffffffffffffffffffffffffffffffffffffffffff82613a5f565b613aa48683613a5f565b95508019841693508086168417925050509392505050565b5f819050919050565b5f613adf613ada613ad584612c48565b613abc565b612c48565b9050919050565b5f819050919050565b613af883613ac5565b613b0c613b0482613ae6565b848454613a6b565b825550505050565b5f5f905090565b613b23613b14565b613b2e818484613aef565b505050565b5b81811015613b5157613b465f82613b1b565b600181019050613b34565b5050565b601f821115613b9657613b6781613a3e565b613b7084613a50565b81016020851015613b7f578190505b613b93613b8b85613a50565b830182613b33565b50505b505050565b5f82821c905092915050565b5f613bb65f1984600802613b9b565b1980831691505092915050565b5f613bce8383613ba7565b9150826002028217905092915050565b613be782612bb8565b67ffffffffffffffff811115613c0057613bff612de2565b5b613c0a8254613479565b613c15828285613b55565b5f60209050601f831160018114613c46575f8415613c34578287015190505b613c3e8582613bc3565b865550613ca5565b601f198416613c5486613a3e565b5f5b82811015613c7b57848901518255600182019150602085019450602081019050613c56565b86831015613c985784890151613c94601f891682613ba7565b8355505b6001600288020188555050505b505050505050565b5f604082019050613cc05f830185612b90565b613ccd6020830184612b90565b9392505050565b7f4552433732313a206f776e657220717565727920666f72206e6f6e65786973745f8201527f656e7420746f6b656e0000000000000000000000000000000000000000000000602082015250565b5f613d2e602983612bc2565b9150613d3982613cd4565b604082019050919050565b5f6020820190508181035f830152613d5b81613d22565b9050919050565b7f4552433732313a2062616c616e636520717565727920666f7220746865207a655f8201527f726f206164647265737300000000000000000000000000000000000000000000602082015250565b5f613dbc602a83612bc2565b9150613dc782613d62565b604082019050919050565b5f6020820190508181035f830152613de981613db0565b9050919050565b5f604082019050613e035f830185612d66565b613e106020830184612d66565b9392505050565b7f4e6f2066756e647320617661696c61626c6500000000000000000000000000005f82015250565b5f613e4b601283612bc2565b9150613e5682613e17565b602082019050919050565b5f6020820190508181035f830152613e7881613e3f565b9050919050565b7f4552433732314d657461646174613a2055524920717565727920666f72206e6f5f8201527f6e6578697374656e7420746f6b656e0000000000000000000000000000000000602082015250565b5f613ed9602f83612bc2565b9150613ee482613e7f565b604082019050919050565b5f6020820190508181035f830152613f0681613ecd565b9050919050565b5f81905092915050565b5f8154613f2381613479565b613f2d8186613f0d565b9450600182165f8114613f475760018114613f5c57613f8e565b60ff1983168652811515820286019350613f8e565b613f6585613a3e565b5f5b83811015613f8657815481890152600182019150602081019050613f67565b838801955050505b50505092915050565b5f613fa182612bb8565b613fab8185613f0d565b9350613fbb818560208601612bd2565b80840191505092915050565b5f613fd28285613f17565b9150613fde8284613f97565b91508190509392505050565b613ff381612e89565b82525050565b5f60208201905061400c5f830184613fea565b92915050565b7f4f776e61626c653a206e6577206f776e657220697320746865207a65726f20615f8201527f6464726573730000000000000000000000000000000000000000000000000000602082015250565b5f61406c602683612bc2565b915061407782614012565b604082019050919050565b5f6020820190508181035f83015261409981614060565b9050919050565b7f4552433732313a206f70657261746f7220717565727920666f72206e6f6e65785f8201527f697374656e7420746f6b656e0000000000000000000000000000000000000000602082015250565b5f6140fa602c83612bc2565b9150614105826140a0565b604082019050919050565b5f6020820190508181035f830152614127816140ee565b9050919050565b7f4552433732313a207472616e736665722066726f6d20696e636f7272656374205f8201527f6f776e6572000000000000000000000000000000000000000000000000000000602082015250565b5f614188602583612bc2565b91506141938261412e565b604082019050919050565b5f6020820190508181035f8301526141b58161417c565b9050919050565b7f4552433732313a207472616e7366657220746f20746865207a65726f206164645f8201527f7265737300000000000000000000000000000000000000000000000000000000602082015250565b5f614216602483612bc2565b9150614221826141bc565b604082019050919050565b5f6020820190508181035f8301526142438161420a565b9050919050565b7f4e487b71000000000000000000000000000000000000000000000000000000005f52601160045260245ffd5b5f61428182612c48565b915061428c83612c48565b92508282039050818111156142a4576142a361424a565b5b92915050565b5f6142b482612c48565b91506142bf83612c48565b92508282019050808211156142d7576142d661424a565b5b92915050565b7f45786365656473206d6178206d696e7420706572207472616e73616374696f6e5f82015250565b5f614311602083612bc2565b915061431c826142dd565b602082019050919050565b5f6020820190508181035f83015261433e81614305565b9050919050565b7f457863656564732077616c6c6574206d696e74206c696d6974000000000000005f82015250565b5f614379601983612bc2565b915061438482614345565b602082019050919050565b5f6020820190508181035f8301526143a68161436d565b9050919050565b7f45786365656473206d617820737570706c7900000000000000000000000000005f82015250565b5f6143e1601283612bc2565b91506143ec826143ad565b602082019050919050565b5f6020820190508181035f83015261440e816143d5565b9050919050565b5f61441f82612c48565b915061442a83612c48565b925082820261443881612c48565b9150828204841483151761444f5761444e61424a565b5b5092915050565b7f496e636f7272656374204554482076616c7565000000000000000000000000005f82015250565b5f61448a601383612bc2565b915061449582614456565b602082019050919050565b5f6020820190508181035f8301526144b78161447e565b9050919050565b7f5265656e7472616e637947756172643a207265656e7472616e742063616c6c005f82015250565b5f6144f2601f83612bc2565b91506144fd826144be565b602082019050919050565b5f6020820190508181035f83015261451f816144e6565b9050919050565b7f4552433732313a20617070726f766520746f2063616c6c6572000000000000005f82015250565b5f61455a601983612bc2565b915061456582614526565b602082019050919050565b5f6020820190508181035f8301526145878161454e565b9050919050565b7f4552433732313a207472616e7366657220746f206e6f6e2045524337323152655f8201527f63656976657220696d706c656d656e7465720000000000000000000000000000602082015250565b5f6145e8603283612bc2565b91506145f38261458e565b604082019050919050565b5f6020820190508181035f830152614615816145dc565b9050919050565b5f61462682612c48565b91507fffffffffffffffffffffffffffffffffffffffffffffffffffffffffffffffff82036146585761465761424a565b5b600182019050919050565b7f4e487b71000000000000000000000000000000000000000000000000000000005f52601260045260245ffd5b5f61469a82612c48565b91506146a583612c48565b9250826146b5576146b4614663565b5b828204905092915050565b5f6146ca82612c48565b91506146d583612c48565b9250826146e5576146e4614663565b5b828206905092915050565b7f4e487b71000000000000000000000000000000000000000000000000000000005f52603260045260245ffd5b5f81519050919050565b5f82825260208201905092915050565b5f6147418261471d565b61474b8185614727565b935061475b818560208601612bd2565b61476481612be0565b840191505092915050565b5f6080820190506147825f830187612cd6565b61478f6020830186612cd6565b61479c6040830185612d66565b81810360608301526147ae8184614737565b905095945050505050565b5f815190506147c781612b30565b92915050565b5f602082840312156147e2576147e1612afd565b5b5f6147ef848285016147b9565b91505092915050565b7f4552433732313a206d696e7420746f20746865207a65726f20616464726573735f82015250565b5f61482c602083612bc2565b9150614837826147f8565b602082019050919050565b5f6020820190508181035f83015261485981614820565b9050919050565b7f4552433732313a20746f6b656e20616c7265616479206d696e746564000000005f82015250565b5f614894601c83612bc2565b915061489f82614860565b602082019050919050565b5f6020820190508181035f8301526148c181614888565b905091905056fea2646970667358221220dccbdf8154f98d975b98f892e7b97603c7884adabfa4e218c75f6efa28885e4e64736f6c634300081c0033",
			"opcodes": "PUSH1 0x80 PUSH1 0x40 MSTORE PUSH1 0x1 PUSH1 0x15 PUSH0 PUSH2 0x100 EXP DUP2 SLOAD DUP2 PUSH1 0xFF MUL NOT AND SWAP1 DUP4 ISZERO ISZERO MUL OR SWAP1 SSTORE POP CALLVALUE DUP1 ISZERO PUSH2 0x29 JUMPI PUSH0 PUSH0 REVERT JUMPDEST POP PUSH1 0x40 MLOAD PUSH2 0x520D CODESIZE SUB DUP1 PUSH2 0x520D DUP4 CODECOPY DUP2 DUP2 ADD PUSH1 0x40 MSTORE DUP2 ADD SWAP1 PUSH2 0x4B SWAP2 SWAP1 PUSH2 0x50E JUMP JUMPDEST DUP5 DUP5 DUP2 PUSH0 SWAP1 DUP2 PUSH2 0x5B SWAP2 SWAP1 PUSH2 0x7E1 JUMP JUMPDEST POP DUP1 PUSH1 0x1 SWAP1 DUP2 PUSH2 0x6B SWAP2 SWAP1 PUSH2 0x7E1 JUMP JUMPDEST POP POP POP PUSH2 0x8A PUSH2 0x7F PUSH2 0x18D PUSH1 0x20 SHL PUSH1 0x20 SHR JUMP JUMPDEST PUSH2 0x194 PUSH1 0x20 SHL PUSH1 0x20 SHR JUMP JUMPDEST PUSH1 0x1 PUSH1 0x7 DUP2 SWAP1 SSTORE POP DUP2 PUSH1 0xC PUSH0 DUP3 ADD MLOAD DUP2 PUSH0 ADD SSTORE PUSH1 0x20 DUP3 ADD MLOAD DUP2 PUSH1 0x1 ADD SSTORE PUSH1 0x40 DUP3 ADD MLOAD DUP2 PUSH1 0x2 ADD SSTORE PUSH1 0x60 DUP3 ADD MLOAD DUP2 PUSH1 0x3 ADD SSTORE SWAP1 POP POP DUP1 PUSH1 0x10 PUSH0 DUP3 ADD MLOAD DUP2 PUSH0 ADD PUSH0 PUSH2 0x100 EXP DUP2 SLOAD DUP2 PUSH1 0xFF MUL NOT AND SWAP1 DUP4 ISZERO ISZERO MUL OR SWAP1 SSTORE POP PUSH1 0x20 DUP3 ADD MLOAD DUP2 PUSH1 0x1 ADD SSTORE PUSH1 0x40 DUP3 ADD MLOAD DUP2 PUSH1 0x2 ADD SSTORE PUSH1 0x60 DUP3 ADD MLOAD DUP2 PUSH1 0x3 ADD SSTORE PUSH1 0x80 DUP3 ADD MLOAD DUP2 PUSH1 0x4 ADD SSTORE SWAP1 POP POP DUP3 PUSH1 0xB SWAP1 DUP2 PUSH2 0x118 SWAP2 SWAP1 PUSH2 0x7E1 JUMP JUMPDEST POP DUP1 PUSH0 ADD MLOAD PUSH1 0x15 PUSH1 0x1 PUSH2 0x100 EXP DUP2 SLOAD DUP2 PUSH1 0xFF MUL NOT AND SWAP1 DUP4 ISZERO ISZERO MUL OR SWAP1 SSTORE POP PUSH32 0xDF31A79BE646F25CF79F5F1FE56D5972E8AF0F25DE752B9021B909727A0B8EC4 DUP2 PUSH1 0x20 ADD MLOAD DUP3 PUSH1 0x40 ADD MLOAD DUP4 PUSH1 0x60 ADD MLOAD DUP5 PUSH1 0x80 ADD MLOAD PUSH1 0x40 MLOAD PUSH2 0x17B SWAP5 SWAP4 SWAP3 SWAP2 SWAP1 PUSH2 0x8BF JUMP JUMPDEST PUSH1 0x40 MLOAD DUP1 SWAP2 SUB SWAP1 LOG1 POP POP POP POP POP PUSH2 0x902 JUMP JUMPDEST PUSH0 CALLER SWAP1 POP SWAP1 JUMP JUMPDEST PUSH0 PUSH1 0x6 PUSH0 SWAP1 SLOAD SWAP1 PUSH2 0x100 EXP SWAP1 DIV PUSH20 0xFFFFFFFFFFFFFFFFFFFFFFFFFFFFFFFFFFFFFFFF AND SWAP1 POP DUP2 PUSH1 0x6 PUSH0 PUSH2 0x100 EXP DUP2 SLOAD DUP2 PUSH20 0xFFFFFFFFFFFFFFFFFFFFFFFFFFFFFFFFFFFFFFFF MUL NOT AND SWAP1 DUP4 PUSH20 0xFFFFFFFFFFFFFFFFFFFFFFFFFFFFFFFFFFFFFFFF AND MUL OR SWAP1 SSTORE POP DUP2 PUSH20 0xFFFFFFFFFFFFFFFFFFFFFFFFFFFFFFFFFFFFFFFF AND DUP2 PUSH20 0xFFFFFFFFFFFFFFFFFFFFFFFFFFFFFFFFFFFFFFFF AND PUSH32 0x8BE0079C531659141344CD1FD0A4F28419497F9722A3DAAFE3B4186F6B6457E0 PUSH1 0x40 MLOAD PUSH1 0x40 MLOAD DUP1 SWAP2 SUB SWAP1 LOG3 POP POP JUMP JUMPDEST PUSH0 PUSH1 0x40 MLOAD SWAP1 POP SWAP1 JUMP JUMPDEST PUSH0 PUSH0 REVERT JUMPDEST PUSH0 PUSH0 REVERT JUMPDEST PUSH0 PUSH0 REVERT JUMPDEST PUSH0 PUSH0 REVERT JUMPDEST PUSH0 PUSH1 0x1F NOT PUSH1 0x1F DUP4 ADD AND SWAP1 POP SWAP2 SWAP1 POP JUMP JUMPDEST PUSH32 0x4E487B7100000000000000000000000000000000000000000000000000000000 PUSH0 MSTORE PUSH1 0x41 PUSH1 0x4 MSTORE PUSH1 0x24 PUSH0 REVERT JUMPDEST PUSH2 0x2B6 DUP3 PUSH2 0x270 JUMP JUMPDEST DUP2 ADD DUP2 DUP2 LT PUSH8 0xFFFFFFFFFFFFFFFF DUP3 GT OR ISZERO PUSH2 0x2D5 JUMPI PUSH2 0x2D4 PUSH2 0x280 JUMP JUMPDEST JUMPDEST DUP1 PUSH1 0x40 MSTORE POP POP POP JUMP JUMPDEST PUSH0 PUSH2 0x2E7 PUSH2 0x257 JUMP JUMPDEST SWAP1 POP PUSH2 0x2F3 DUP3 DUP3 PUSH2 0x2AD JUMP JUMPDEST SWAP2 SWAP1 POP JUMP JUMPDEST PUSH0 PUSH8 0xFFFFFFFFFFFFFFFF DUP3 GT ISZERO PUSH2 0x312 JUMPI PUSH2 0x311 PUSH2 0x280 JUMP JUMPDEST JUMPDEST PUSH2 0x31B DUP3 PUSH2 0x270 JUMP JUMPDEST SWAP1 POP PUSH1 0x20 DUP2 ADD SWAP1 POP SWAP2 SWAP1 POP JUMP JUMPDEST DUP3 DUP2 DUP4 MCOPY PUSH0 DUP4 DUP4 ADD MSTORE POP POP POP JUMP JUMPDEST PUSH0 PUSH2 0x348 PUSH2 0x343 DUP5 PUSH2 0x2F8 JUMP JUMPDEST PUSH2 0x2DE JUMP JUMPDEST SWAP1 POP DUP3 DUP2 MSTORE PUSH1 0x20 DUP2 ADD DUP5 DUP5 DUP5 ADD GT ISZERO PUSH2 0x364 JUMPI PUSH2 0x363 PUSH2 0x26C JUMP JUMPDEST JUMPDEST PUSH2 0x36F DUP5 DUP3 DUP6 PUSH2 0x328 JUMP JUMPDEST POP SWAP4 SWAP3 POP POP POP JUMP JUMPDEST PUSH0 DUP3 PUSH1 0x1F DUP4 ADD SLT PUSH2 0x38B JUMPI PUSH2 0x38A PUSH2 0x268 JUMP JUMPDEST JUMPDEST DUP2 MLOAD PUSH2 0x39B DUP5 DUP3 PUSH1 0x20 DUP7 ADD PUSH2 0x336 JUMP JUMPDEST SWAP2 POP POP SWAP3 SWAP2 POP POP JUMP JUMPDEST PUSH0 PUSH0 REVERT JUMPDEST PUSH0 DUP2 SWAP1 POP SWAP2 SWAP1 POP JUMP JUMPDEST PUSH2 0x3BA DUP2 PUSH2 0x3A8 JUMP JUMPDEST DUP2 EQ PUSH2 0x3C4 JUMPI PUSH0 PUSH0 REVERT JUMPDEST POP JUMP JUMPDEST PUSH0 DUP2 MLOAD SWAP1 POP PUSH2 0x3D5 DUP2 PUSH2 0x3B1 JUMP JUMPDEST SWAP3 SWAP2 POP POP JUMP JUMPDEST PUSH0 PUSH1 0x80 DUP3 DUP5 SUB SLT ISZERO PUSH2 0x3F0 JUMPI PUSH2 0x3EF PUSH2 0x3A4 JUMP JUMPDEST JUMPDEST PUSH2 0x3FA PUSH1 0x80 PUSH2 0x2DE JUMP JUMPDEST SWAP1 POP PUSH0 PUSH2 0x409 DUP5 DUP3 DUP6 ADD PUSH2 0x3C7 JUMP JUMPDEST PUSH0 DUP4 ADD MSTORE POP PUSH1 0x20 PUSH2 0x41C DUP5 DUP3 DUP6 ADD PUSH2 0x3C7 JUMP JUMPDEST PUSH1 0x20 DUP4 ADD MSTORE POP PUSH1 0x40 PUSH2 0x430 DUP5 DUP3 DUP6 ADD PUSH2 0x3C7 JUMP JUMPDEST PUSH1 0x40 DUP4 ADD MSTORE POP PUSH1 0x60 PUSH2 0x444 DUP5 DUP3 DUP6 ADD PUSH2 0x3C7 JUMP JUMPDEST PUSH1 0x60 DUP4 ADD MSTORE POP SWAP3 SWAP2 POP POP JUMP JUMPDEST PUSH0 DUP2 ISZERO ISZERO SWAP1 POP SWAP2 SWAP1 POP JUMP JUMPDEST PUSH2 0x464 DUP2 PUSH2 0x450 JUMP JUMPDEST DUP2 EQ PUSH2 0x46E JUMPI PUSH0 PUSH0 REVERT JUMPDEST POP JUMP JUMPDEST PUSH0 DUP2 MLOAD SWAP1 POP PUSH2 0x47F DUP2 PUSH2 0x45B JUMP JUMPDEST SWAP3 SWAP2 POP POP JUMP JUMPDEST PUSH0 PUSH1 0xA0 DUP3 DUP5 SUB SLT ISZERO PUSH2 0x49A JUMPI PUSH2 0x499 PUSH2 0x3A4 JUMP JUMPDEST JUMPDEST PUSH2 0x4A4 PUSH1 0xA0 PUSH2 0x2DE JUMP JUMPDEST SWAP1 POP PUSH0 PUSH2 0x4B3 DUP5 DUP3 DUP6 ADD PUSH2 0x471 JUMP JUMPDEST PUSH0 DUP4 ADD MSTORE POP PUSH1 0x20 PUSH2 0x4C6 DUP5 DUP3 DUP6 ADD PUSH2 0x3C7 JUMP JUMPDEST PUSH1 0x20 DUP4 ADD MSTORE POP PUSH1 0x40 PUSH2 0x4DA DUP5 DUP3 DUP6 ADD PUSH2 0x3C7 JUMP JUMPDEST PUSH1 0x40 DUP4 ADD MSTORE POP PUSH1 0x60 PUSH2 0x4EE DUP5 DUP3 DUP6 ADD PUSH2 0x3C7 JUMP JUMPDEST PUSH1 0x60 DUP4 ADD MSTORE POP PUSH1 0x80 PUSH2 0x502 DUP5 DUP3 DUP6 ADD PUSH2 0x3C7 JUMP JUMPDEST PUSH1 0x80 DUP4 ADD MSTORE POP SWAP3 SWAP2 POP POP JUMP JUMPDEST PUSH0 PUSH0 PUSH0 PUSH0 PUSH0 PUSH2 0x180 DUP7 DUP9 SUB SLT ISZERO PUSH2 0x528 JUMPI PUSH2 0x527 PUSH2 0x260 JUMP JUMPDEST JUMPDEST PUSH0 DUP7 ADD MLOAD PUSH8 0xFFFFFFFFFFFFFFFF DUP2 GT ISZERO PUSH2 0x545 JUMPI PUSH2 0x544 PUSH2 0x264 JUMP JUMPDEST JUMPDEST PUSH2 0x551 DUP9 DUP3 DUP10 ADD PUSH2 0x377 JUMP JUMPDEST SWAP6 POP POP PUSH1 0x20 DUP7 ADD MLOAD PUSH8 0xFFFFFFFFFFFFFFFF DUP2 GT ISZERO PUSH2 0x572 JUMPI PUSH2 0x571 PUSH2 0x264 JUMP JUMPDEST JUMPDEST PUSH2 0x57E DUP9 DUP3 DUP10 ADD PUSH2 0x377 JUMP JUMPDEST SWAP5 POP POP PUSH1 0x40 DUP7 ADD MLOAD PUSH8 0xFFFFFFFFFFFFFFFF DUP2 GT ISZERO PUSH2 0x59F JUMPI PUSH2 0x59E PUSH2 0x264 JUMP JUMPDEST JUMPDEST PUSH2 0x5AB DUP9 DUP3 DUP10 ADD PUSH2 0x377 JUMP JUMPDEST SWAP4 POP POP PUSH1 0x60 PUSH2 0x5BC DUP9 DUP3 DUP10 ADD PUSH2 0x3DB JUMP JUMPDEST SWAP3 POP POP PUSH1 0xE0 PUSH2 0x5CD DUP9 DUP3 DUP10 ADD PUSH2 0x485 JUMP JUMPDEST SWAP2 POP POP SWAP3 SWAP6 POP SWAP3 SWAP6 SWAP1 SWAP4 POP JUMP JUMPDEST PUSH0 DUP2 MLOAD SWAP1 POP SWAP2 SWAP1 POP JUMP JUMPDEST PUSH32 0x4E487B7100000000000000000000000000000000000000000000000000000000 PUSH0 MSTORE PUSH1 0x22 PUSH1 0x4 MSTORE PUSH1 0x24 PUSH0 REVERT JUMPDEST PUSH0 PUSH1 0x2 DUP3 DIV SWAP1 POP PUSH1 0x1 DUP3 AND DUP1 PUSH2 0x628 JUMPI PUSH1 0x7F DUP3 AND SWAP2 POP JUMPDEST PUSH1 0x20 DUP3 LT DUP2 SUB PUSH2 0x63B JUMPI PUSH2 0x63A PUSH2 0x5E4 JUMP JUMPDEST JUMPDEST POP SWAP2 SWAP1 POP JUMP JUMPDEST PUSH0 DUP2 SWAP1 POP DUP2 PUSH0 MSTORE PUSH1 0x20 PUSH0 KECCAK256 SWAP1 POP SWAP2 SWAP1 POP JUMP JUMPDEST PUSH0 PUSH1 0x20 PUSH1 0x1F DUP4 ADD DIV SWAP1 POP SWAP2 SWAP1 POP JUMP JUMPDEST PUSH0 DUP3 DUP3 SHL SWAP1 POP SWAP3 SWAP2 POP POP JUMP JUMPDEST PUSH0 PUSH1 0x8 DUP4 MUL PUSH2 0x69D PUSH32 0xFFFFFFFFFFFFFFFFFFFFFFFFFFFFFFFFFFFFFFFFFFFFFFFFFFFFFFFFFFFFFFFF DUP3 PUSH2 0x662 JUMP JUMPDEST PUSH2 0x6A7 DUP7 DUP4 PUSH2 0x662 JUMP JUMPDEST SWAP6 POP DUP1 NOT DUP5 AND SWAP4 POP DUP1 DUP7 AND DUP5 OR SWAP3 POP POP POP SWAP4 SWAP3 POP POP POP JUMP JUMPDEST PUSH0 DUP2 SWAP1 POP SWAP2 SWAP1 POP JUMP JUMPDEST PUSH0 PUSH2 0x6E2 PUSH2 0x6DD PUSH2 0x6D8 DUP5 PUSH2 0x3A8 JUMP JUMPDEST PUSH2 0x6BF JUMP JUMPDEST PUSH2 0x3A8 JUMP JUMPDEST SWAP1 POP SWAP2 SWAP1 POP JUMP JUMPDEST PUSH0 DUP2 SWAP1 POP SWAP2 SWAP1 POP JUMP JUMPDEST PUSH2 0x6FB DUP4 PUSH2 0x6C8 JUMP JUMPDEST PUSH2 0x70F PUSH2 0x707 DUP3 PUSH2 0x6E9 JUMP JUMPDEST DUP5 DUP5 SLOAD PUSH2 0x66E JUMP JUMPDEST DUP3 SSTORE POP POP POP POP JUMP JUMPDEST PUSH0 PUSH0 SWAP1 POP SWAP1 JUMP JUMPDEST PUSH2 0x726 PUSH2 0x717 JUMP JUMPDEST PUSH2 0x731 DUP2 DUP5 DUP5 PUSH2 0x6F2 JUMP JUMPDEST POP POP POP JUMP JUMPDEST JUMPDEST DUP2 DUP2 LT ISZERO PUSH2 0x754 JUMPI PUSH2 0x749 PUSH0 DUP3 PUSH2 0x71E JUMP JUMPDEST PUSH1 0x1 DUP2 ADD SWAP1 POP PUSH2 0x737 JUMP JUMPDEST POP POP JUMP JUMPDEST PUSH1 0x1F DUP3 GT ISZERO PUSH2 0x799 JUMPI PUSH2 0x76A DUP2 PUSH2 0x641 JUMP JUMPDEST PUSH2 0x773 DUP5 PUSH2 0x653 JUMP JUMPDEST DUP2 ADD PUSH1 0x20 DUP6 LT ISZERO PUSH2 0x782 JUMPI DUP2 SWAP1 POP JUMPDEST PUSH2 0x796 PUSH2 0x78E DUP6 PUSH2 0x653 JUMP JUMPDEST DUP4 ADD DUP3 PUSH2 0x736 JUMP JUMPDEST POP POP JUMPDEST POP POP POP JUMP JUMPDEST PUSH0 DUP3 DUP3 SHR SWAP1 POP SWAP3 SWAP2 POP POP JUMP JUMPDEST PUSH0 PUSH2 0x7B9 PUSH0 NOT DUP5 PUSH1 0x8 MUL PUSH2 0x79E JUMP JUMPDEST NOT DUP1 DUP4 AND SWAP2 POP POP SWAP3 SWAP2 POP POP JUMP JUMPDEST PUSH0 PUSH2 0x7D1 DUP4 DUP4 PUSH2 0x7AA JUMP JUMPDEST SWAP2 POP DUP3 PUSH1 0x2 MUL DUP3 OR SWAP1 POP SWAP3 SWAP2 POP POP JUMP JUMPDEST PUSH2 0x7EA DUP3 PUSH2 0x5DA JUMP JUMPDEST PUSH8 0xFFFFFFFFFFFFFFFF DUP2 GT ISZERO PUSH2 0x803 JUMPI PUSH2 0x802 PUSH2 0x280 JUMP JUMPDEST JUMPDEST PUSH2 0x80D DUP3 SLOAD PUSH2 0x611 JUMP JUMPDEST PUSH2 0x818 DUP3 DUP3 DUP6 PUSH2 0x758 JUMP JUMPDEST PUSH0 PUSH1 0x20 SWAP1 POP PUSH1 0x1F DUP4 GT PUSH1 0x1 DUP2 EQ PUSH2 0x849 JUMPI PUSH0 DUP5 ISZERO PUSH2 0x837 JUMPI DUP3 DUP8 ADD MLOAD SWAP1 POP JUMPDEST PUSH2 0x841 DUP6 DUP3 PUSH2 0x7C6 JUMP JUMPDEST DUP7 SSTORE POP PUSH2 0x8A8 JUMP JUMPDEST PUSH1 0x1F NOT DUP5 AND PUSH2 0x857 DUP7 PUSH2 0x641 JUMP JUMPDEST PUSH0 JUMPDEST DUP3 DUP2 LT ISZERO PUSH2 0x87E JUMPI DUP5 DUP10 ADD MLOAD DUP3 SSTORE PUSH1 0x1 DUP3 ADD SWAP2 POP PUSH1 0x20 DUP6 ADD SWAP5 POP PUSH1 0x20 DUP2 ADD SWAP1 POP PUSH2 0x859 JUMP JUMPDEST DUP7 DUP4 LT ISZERO PUSH2 0x89B JUMPI DUP5 DUP10 ADD MLOAD PUSH2 0x897 PUSH1 0x1F DUP10 AND DUP3 PUSH2 0x7AA JUMP JUMPDEST DUP4 SSTORE POP JUMPDEST PUSH1 0x1 PUSH1 0x2 DUP9 MUL ADD DUP9 SSTORE POP POP POP JUMPDEST POP POP POP POP POP POP JUMP JUMPDEST PUSH2 0x8B9 DUP2 PUSH2 0x3A8 JUMP JUMPDEST DUP3 MSTORE POP POP JUMP JUMPDEST PUSH0 PUSH1 0x80 DUP3 ADD SWAP1 POP PUSH2 0x8D2 PUSH0 DUP4 ADD DUP8 PUSH2 0x8B0 JUMP JUMPDEST PUSH2 0x8DF PUSH1 0x20 DUP4 ADD DUP7 PUSH2 0x8B0 JUMP JUMPDEST PUSH2 0x8EC PUSH1 0x40 DUP4 ADD DUP6 PUSH2 0x8B0 JUMP JUMPDEST PUSH2 0x8F9 PUSH1 0x60 DUP4 ADD DUP5 PUSH2 0x8B0 JUMP JUMPDEST SWAP6 SWAP5 POP POP POP POP POP JUMP JUMPDEST PUSH2 0x48FE DUP1 PUSH2 0x90F PUSH0 CODECOPY PUSH0 RETURN INVALID PUSH1 0x80 PUSH1 0x40 MSTORE PUSH1 0x4 CALLDATASIZE LT PUSH2 0x1ED JUMPI PUSH0 CALLDATALOAD PUSH1 0xE0 SHR DUP1 PUSH4 0x715018A6 GT PUSH2 0x10C JUMPI DUP1 PUSH4 0x9ABC8320 GT PUSH2 0x9F JUMPI DUP1 PUSH4 0xC87B56DD GT PUSH2 0x6E JUMPI DUP1 PUSH4 0xC87B56DD EQ PUSH2 0x680 JUMPI DUP1 PUSH4 0xDAB5F340 EQ PUSH2 0x6BC JUMPI DUP1 PUSH4 0xE222C7F9 EQ PUSH2 0x6E4 JUMPI DUP1 PUSH4 0xE985E9C5 EQ PUSH2 0x6FA JUMPI DUP1 PUSH4 0xF2FDE38B EQ PUSH2 0x736 JUMPI PUSH2 0x1ED JUMP JUMPDEST DUP1 PUSH4 0x9ABC8320 EQ PUSH2 0x5CA JUMPI DUP1 PUSH4 0xA22CB465 EQ PUSH2 0x5F4 JUMPI DUP1 PUSH4 0xB88D4FDE EQ PUSH2 0x61C JUMPI DUP1 PUSH4 0xB8A20ED0 EQ PUSH2 0x644 JUMPI PUSH2 0x1ED JUMP JUMPDEST DUP1 PUSH4 0x8DA5CB5B GT PUSH2 0xDB JUMPI DUP1 PUSH4 0x8DA5CB5B EQ PUSH2 0x520 JUMPI DUP1 PUSH4 0x90AA0B0F EQ PUSH2 0x54A JUMPI DUP1 PUSH4 0x91B7F5ED EQ PUSH2 0x578 JUMPI DUP1 PUSH4 0x95D89B41 EQ PUSH2 0x5A0 JUMPI PUSH2 0x1ED JUMP JUMPDEST DUP1 PUSH4 0x715018A6 EQ PUSH2 0x4A4 JUMPI DUP1 PUSH4 0x7BC10294 EQ PUSH2 0x4BA JUMPI DUP1 PUSH4 0x7F31D96A EQ PUSH2 0x4E2 JUMPI DUP1 PUSH4 0x853828B6 EQ PUSH2 0x50A JUMPI PUSH2 0x1ED JUMP JUMPDEST DUP1 PUSH4 0x2DB11544 GT PUSH2 0x184 JUMPI DUP1 PUSH4 0x59EDA1B5 GT PUSH2 0x153 JUMPI DUP1 PUSH4 0x59EDA1B5 EQ PUSH2 0x3E9 JUMPI DUP1 PUSH4 0x6352211E EQ PUSH2 0x3FF JUMPI DUP1 PUSH4 0x6B34D725 EQ PUSH2 0x43B JUMPI DUP1 PUSH4 0x70A08231 EQ PUSH2 0x468 JUMPI PUSH2 0x1ED JUMP JUMPDEST DUP1 PUSH4 0x2DB11544 EQ PUSH2 0x353 JUMPI DUP1 PUSH4 0x42842E0E EQ PUSH2 0x36F JUMPI DUP1 PUSH4 0x524513D6 EQ PUSH2 0x397 JUMPI DUP1 PUSH4 0x55F804B3 EQ PUSH2 0x3C1 JUMPI PUSH2 0x1ED JUMP JUMPDEST DUP1 PUSH4 0x18160DDD GT PUSH2 0x1C0 JUMPI DUP1 PUSH4 0x18160DDD EQ PUSH2 0x2BB JUMPI DUP1 PUSH4 0x1E84C413 EQ PUSH2 0x2E5 JUMPI DUP1 PUSH4 0x23B872DD EQ PUSH2 0x30F JUMPI DUP1 PUSH4 0x2904E6D9 EQ PUSH2 0x337 JUMPI PUSH2 0x1ED JUMP JUMPDEST DUP1 PUSH4 0x1FFC9A7 EQ PUSH2 0x1F1 JUMPI DUP1 PUSH4 0x6FDDE03 EQ PUSH2 0x22D JUMPI DUP1 PUSH4 0x81812FC EQ PUSH2 0x257 JUMPI DUP1 PUSH4 0x95EA7B3 EQ PUSH2 0x293 JUMPI JUMPDEST PUSH0 PUSH0 REVERT JUMPDEST CALLVALUE DUP1 ISZERO PUSH2 0x1FC JUMPI PUSH0 PUSH0 REVERT JUMPDEST POP PUSH2 0x217 PUSH1 0x4 DUP1 CALLDATASIZE SUB DUP2 ADD SWAP1 PUSH2 0x212 SWAP2 SWAP1 PUSH2 0x2B5A JUMP JUMPDEST PUSH2 0x75E JUMP JUMPDEST PUSH1 0x40 MLOAD PUSH2 0x224 SWAP2 SWAP1 PUSH2 0x2B9F JUMP JUMPDEST PUSH1 0x40 MLOAD DUP1 SWAP2 SUB SWAP1 RETURN JUMPDEST CALLVALUE DUP1 ISZERO PUSH2 0x238 JUMPI PUSH0 PUSH0 REVERT JUMPDEST POP PUSH2 0x241 PUSH2 0x83F JUMP JUMPDEST PUSH1 0x40 MLOAD PUSH2 0x24E SWAP2 SWAP1 PUSH2 0x2C28 JUMP JUMPDEST PUSH1 0x40 MLOAD DUP1 SWAP2 SUB SWAP1 RETURN JUMPDEST CALLVALUE DUP1 ISZERO PUSH2 0x262 JUMPI PUSH0 PUSH0 REVERT JUMPDEST POP PUSH2 0x27D PUSH1 0x4 DUP1 CALLDATASIZE SUB DUP2 ADD SWAP1 PUSH2 0x278 SWAP2 SWAP1 PUSH2 0x2C7B JUMP JUMPDEST PUSH2 0x8CE JUMP JUMPDEST PUSH1 0x40 MLOAD PUSH2 0x28A SWAP2 SWAP1 PUSH2 0x2CE5 JUMP JUMPDEST PUSH1 0x40 MLOAD DUP1 SWAP2 SUB SWAP1 RETURN JUMPDEST CALLVALUE DUP1 ISZERO PUSH2 0x29E JUMPI PUSH0 PUSH0 REVERT JUMPDEST POP PUSH2 0x2B9 PUSH1 0x4 DUP1 CALLDATASIZE SUB DUP2 ADD SWAP1 PUSH2 0x2B4 SWAP2 SWAP1 PUSH2 0x2D28 JUMP JUMPDEST PUSH2 0x94F JUMP JUMPDEST STOP JUMPDEST CALLVALUE DUP1 ISZERO PUSH2 0x2C6 JUMPI PUSH0 PUSH0 REVERT JUMPDEST POP PUSH2 0x2CF PUSH2 0xA65 JUMP JUMPDEST PUSH1 0x40 MLOAD PUSH2 0x2DC SWAP2 SWAP1 PUSH2 0x2D75 JUMP JUMPDEST PUSH1 0x40 MLOAD DUP1 SWAP2 SUB SWAP1 RETURN JUMPDEST CALLVALUE DUP1 ISZERO PUSH2 0x2F0 JUMPI PUSH0 PUSH0 REVERT JUMPDEST POP PUSH2 0x2F9 PUSH2 0xA6B JUMP JUMPDEST PUSH1 0x40 MLOAD PUSH2 0x306 SWAP2 SWAP1 PUSH2 0x2B9F JUMP JUMPDEST PUSH1 0x40 MLOAD DUP1 SWAP2 SUB SWAP1 RETURN JUMPDEST CALLVALUE DUP1 ISZERO PUSH2 0x31A JUMPI PUSH0 PUSH0 REVERT JUMPDEST POP PUSH2 0x335 PUSH1 0x4 DUP1 CALLDATASIZE SUB DUP2 ADD SWAP1 PUSH2 0x330 SWAP2 SWAP1 PUSH2 0x2D8E JUMP JUMPDEST PUSH2 0xA7D JUMP JUMPDEST STOP JUMPDEST PUSH2 0x351 PUSH1 0x4 DUP1 CALLDATASIZE SUB DUP2 ADD SWAP1 PUSH2 0x34C SWAP2 SWAP1 PUSH2 0x2F51 JUMP JUMPDEST PUSH2 0xADD JUMP JUMPDEST STOP JUMPDEST PUSH2 0x36D PUSH1 0x4 DUP1 CALLDATASIZE SUB DUP2 ADD SWAP1 PUSH2 0x368 SWAP2 SWAP1 PUSH2 0x2C7B JUMP JUMPDEST PUSH2 0xBFB JUMP JUMPDEST STOP JUMPDEST CALLVALUE DUP1 ISZERO PUSH2 0x37A JUMPI PUSH0 PUSH0 REVERT JUMPDEST POP PUSH2 0x395 PUSH1 0x4 DUP1 CALLDATASIZE SUB DUP2 ADD SWAP1 PUSH2 0x390 SWAP2 SWAP1 PUSH2 0x2D8E JUMP JUMPDEST PUSH2 0xD09 JUMP JUMPDEST STOP JUMPDEST CALLVALUE DUP1 ISZERO PUSH2 0x3A2 JUMPI PUSH0 PUSH0 REVERT JUMPDEST POP PUSH2 0x3AB PUSH2 0xD28 JUMP JUMPDEST PUSH1 0x40 MLOAD PUSH2 0x3B8 SWAP2 SWAP1 PUSH2 0x2B9F JUMP JUMPDEST PUSH1 0x40 MLOAD DUP1 SWAP2 SUB SWAP1 RETURN JUMPDEST CALLVALUE DUP1 ISZERO PUSH2 0x3CC JUMPI PUSH0 PUSH0 REVERT JUMPDEST POP PUSH2 0x3E7 PUSH1 0x4 DUP1 CALLDATASIZE SUB DUP2 ADD SWAP1 PUSH2 0x3E2 SWAP2 SWAP1 PUSH2 0x305B JUMP JUMPDEST PUSH2 0xD3B JUMP JUMPDEST STOP JUMPDEST CALLVALUE DUP1 ISZERO PUSH2 0x3F4 JUMPI PUSH0 PUSH0 REVERT JUMPDEST POP PUSH2 0x3FD PUSH2 0xE01 JUMP JUMPDEST STOP JUMPDEST CALLVALUE DUP1 ISZERO PUSH2 0x40A JUMPI PUSH0 PUSH0 REVERT JUMPDEST POP PUSH2 0x425 PUSH1 0x4 DUP1 CALLDATASIZE SUB DUP2 ADD SWAP1 PUSH2 0x420 SWAP2 SWAP1 PUSH2 0x2C7B JUMP JUMPDEST PUSH2 0xEFF JUMP JUMPDEST PUSH1 0x40 MLOAD PUSH2 0x432 SWAP2 SWAP1 PUSH2 0x2CE5 JUMP JUMPDEST PUSH1 0x40 MLOAD DUP1 SWAP2 SUB SWAP1 RETURN JUMPDEST CALLVALUE DUP1 ISZERO PUSH2 0x446 JUMPI PUSH0 PUSH0 REVERT JUMPDEST POP PUSH2 0x44F PUSH2 0xFAB JUMP JUMPDEST PUSH1 0x40 MLOAD PUSH2 0x45F SWAP5 SWAP4 SWAP3 SWAP2 SWAP1 PUSH2 0x30A2 JUMP JUMPDEST PUSH1 0x40 MLOAD DUP1 SWAP2 SUB SWAP1 RETURN JUMPDEST CALLVALUE DUP1 ISZERO PUSH2 0x473 JUMPI PUSH0 PUSH0 REVERT JUMPDEST POP PUSH2 0x48E PUSH1 0x4 DUP1 CALLDATASIZE SUB DUP2 ADD SWAP1 PUSH2 0x489 SWAP2 SWAP1 PUSH2 0x30E5 JUMP JUMPDEST PUSH2 0xFC8 JUMP JUMPDEST PUSH1 0x40 MLOAD PUSH2 0x49B SWAP2 SWAP1 PUSH2 0x2D75 JUMP JUMPDEST PUSH1 0x40 MLOAD DUP1 SWAP2 SUB SWAP1 RETURN JUMPDEST CALLVALUE DUP1 ISZERO PUSH2 0x4AF JUMPI PUSH0 PUSH0 REVERT JUMPDEST POP PUSH2 0x4B8 PUSH2 0x107C JUMP JUMPDEST STOP JUMPDEST CALLVALUE DUP1 ISZERO PUSH2 0x4C5 JUMPI PUSH0 PUSH0 REVERT JUMPDEST POP PUSH2 0x4E0 PUSH1 0x4 DUP1 CALLDATASIZE SUB DUP2 ADD SWAP1 PUSH2 0x4DB SWAP2 SWAP1 PUSH2 0x3110 JUMP JUMPDEST PUSH2 0x1103 JUMP JUMPDEST STOP JUMPDEST CALLVALUE DUP1 ISZERO PUSH2 0x4ED JUMPI PUSH0 PUSH0 REVERT JUMPDEST POP PUSH2 0x508 PUSH1 0x4 DUP1 CALLDATASIZE SUB DUP2 ADD SWAP1 PUSH2 0x503 SWAP2 SWAP1 PUSH2 0x3174 JUMP JUMPDEST PUSH2 0x11EA JUMP JUMPDEST STOP JUMPDEST CALLVALUE DUP1 ISZERO PUSH2 0x515 JUMPI PUSH0 PUSH0 REVERT JUMPDEST POP PUSH2 0x51E PUSH2 0x12B7 JUMP JUMPDEST STOP JUMPDEST CALLVALUE DUP1 ISZERO PUSH2 0x52B JUMPI PUSH0 PUSH0 REVERT JUMPDEST POP PUSH2 0x534 PUSH2 0x142C JUMP JUMPDEST PUSH1 0x40 MLOAD PUSH2 0x541 SWAP2 SWAP1 PUSH2 0x2CE5 JUMP JUMPDEST PUSH1 0x40 MLOAD DUP1 SWAP2 SUB SWAP1 RETURN JUMPDEST CALLVALUE DUP1 ISZERO PUSH2 0x555 JUMPI PUSH0 PUSH0 REVERT JUMPDEST POP PUSH2 0x55E PUSH2 0x1454 JUMP JUMPDEST PUSH1 0x40 MLOAD PUSH2 0x56F SWAP6 SWAP5 SWAP4 SWAP3 SWAP2 SWAP1 PUSH2 0x31B2 JUMP JUMPDEST PUSH1 0x40 MLOAD DUP1 SWAP2 SUB SWAP1 RETURN JUMPDEST CALLVALUE DUP1 ISZERO PUSH2 0x583 JUMPI PUSH0 PUSH0 REVERT JUMPDEST POP PUSH2 0x59E PUSH1 0x4 DUP1 CALLDATASIZE SUB DUP2 ADD SWAP1 PUSH2 0x599 SWAP2 SWAP1 PUSH2 0x2C7B JUMP JUMPDEST PUSH2 0x1483 JUMP JUMPDEST STOP JUMPDEST CALLVALUE DUP1 ISZERO PUSH2 0x5AB JUMPI PUSH0 PUSH0 REVERT JUMPDEST POP PUSH2 0x5B4 PUSH2 0x1543 JUMP JUMPDEST PUSH1 0x40 MLOAD PUSH2 0x5C1 SWAP2 SWAP1 PUSH2 0x2C28 JUMP JUMPDEST PUSH1 0x40 MLOAD DUP1 SWAP2 SUB SWAP1 RETURN JUMPDEST CALLVALUE DUP1 ISZERO PUSH2 0x5D5 JUMPI PUSH0 PUSH0 REVERT JUMPDEST POP PUSH2 0x5DE PUSH2 0x15D3 JUMP JUMPDEST PUSH1 0x40 MLOAD PUSH2 0x5EB SWAP2 SWAP1 PUSH2 0x2C28 JUMP JUMPDEST PUSH1 0x40 MLOAD DUP1 SWAP2 SUB SWAP1 RETURN JUMPDEST CALLVALUE DUP1 ISZERO PUSH2 0x5FF JUMPI PUSH0 PUSH0 REVERT JUMPDEST POP PUSH2 0x61A PUSH1 0x4 DUP1 CALLDATASIZE SUB DUP2 ADD SWAP1 PUSH2 0x615 SWAP2 SWAP1 PUSH2 0x322D JUMP JUMPDEST PUSH2 0x165F JUMP JUMPDEST STOP JUMPDEST CALLVALUE DUP1 ISZERO PUSH2 0x627 JUMPI PUSH0 PUSH0 REVERT JUMPDEST POP PUSH2 0x642 PUSH1 0x4 DUP1 CALLDATASIZE SUB DUP2 ADD SWAP1 PUSH2 0x63D SWAP2 SWAP1 PUSH2 0x3309 JUMP JUMPDEST PUSH2 0x1675 JUMP JUMPDEST STOP JUMPDEST CALLVALUE DUP1 ISZERO PUSH2 0x64F JUMPI PUSH0 PUSH0 REVERT JUMPDEST POP PUSH2 0x66A PUSH1 0x4 DUP1 CALLDATASIZE SUB DUP2 ADD SWAP1 PUSH2 0x665 SWAP2 SWAP1 PUSH2 0x3389 JUMP JUMPDEST PUSH2 0x16D7 JUMP JUMPDEST PUSH1 0x40 MLOAD PUSH2 0x677 SWAP2 SWAP1 PUSH2 0x2B9F JUMP JUMPDEST PUSH1 0x40 MLOAD DUP1 SWAP2 SUB SWAP1 RETURN JUMPDEST CALLVALUE DUP1 ISZERO PUSH2 0x68B JUMPI PUSH0 PUSH0 REVERT JUMPDEST POP PUSH2 0x6A6 PUSH1 0x4 DUP1 CALLDATASIZE SUB DUP2 ADD SWAP1 PUSH2 0x6A1 SWAP2 SWAP1 PUSH2 0x2C7B JUMP JUMPDEST PUSH2 0x16ED JUMP JUMPDEST PUSH1 0x40 MLOAD PUSH2 0x6B3 SWAP2 SWAP1 PUSH2 0x2C28 JUMP JUMPDEST PUSH1 0x40 MLOAD DUP1 SWAP2 SUB SWAP1 RETURN JUMPDEST CALLVALUE DUP1 ISZERO PUSH2 0x6C7 JUMPI PUSH0 PUSH0 REVERT JUMPDEST POP PUSH2 0x6E2 PUSH1 0x4 DUP1 CALLDATASIZE SUB DUP2 ADD SWAP1 PUSH2 0x6DD SWAP2 SWAP1 PUSH2 0x33E3 JUMP JUMPDEST PUSH2 0x1793 JUMP JUMPDEST STOP JUMPDEST CALLVALUE DUP1 ISZERO PUSH2 0x6EF JUMPI PUSH0 PUSH0 REVERT JUMPDEST POP PUSH2 0x6F8 PUSH2 0x1850 JUMP JUMPDEST STOP JUMPDEST CALLVALUE DUP1 ISZERO PUSH2 0x705 JUMPI PUSH0 PUSH0 REVERT JUMPDEST POP PUSH2 0x720 PUSH1 0x4 DUP1 CALLDATASIZE SUB DUP2 ADD SWAP1 PUSH2 0x71B SWAP2 SWAP1 PUSH2 0x340E JUMP JUMPDEST PUSH2 0x194C JUMP JUMPDEST PUSH1 0x40 MLOAD PUSH2 0x72D SWAP2 SWAP1 PUSH2 0x2B9F JUMP JUMPDEST PUSH1 0x40 MLOAD DUP1 SWAP2 SUB SWAP1 RETURN JUMPDEST CALLVALUE DUP1 ISZERO PUSH2 0x741 JUMPI PUSH0 PUSH0 REVERT JUMPDEST POP PUSH2 0x75C PUSH1 0x4 DUP1 CALLDATASIZE SUB DUP2 ADD SWAP1 PUSH2 0x757 SWAP2 SWAP1 PUSH2 0x30E5 JUMP JUMPDEST PUSH2 0x19DA JUMP JUMPDEST STOP JUMPDEST PUSH0 PUSH32 0x80AC58CD00000000000000000000000000000000000000000000000000000000 PUSH28 0xFFFFFFFFFFFFFFFFFFFFFFFFFFFFFFFFFFFFFFFFFFFFFFFFFFFFFFFF NOT AND DUP3 PUSH28 0xFFFFFFFFFFFFFFFFFFFFFFFFFFFFFFFFFFFFFFFFFFFFFFFFFFFFFFFF NOT AND EQ DUP1 PUSH2 0x828 JUMPI POP PUSH32 0x5B5E139F00000000000000000000000000000000000000000000000000000000 PUSH28 0xFFFFFFFFFFFFFFFFFFFFFFFFFFFFFFFFFFFFFFFFFFFFFFFFFFFFFFFF NOT AND DUP3 PUSH28 0xFFFFFFFFFFFFFFFFFFFFFFFFFFFFFFFFFFFFFFFFFFFFFFFFFFFFFFFF NOT AND EQ JUMPDEST DUP1 PUSH2 0x838 JUMPI POP PUSH2 0x837 DUP3 PUSH2 0x1AD0 JUMP JUMPDEST JUMPDEST SWAP1 POP SWAP2 SWAP1 POP JUMP JUMPDEST PUSH1 0x60 PUSH0 DUP1 SLOAD PUSH2 0x84D SWAP1 PUSH2 0x3479 JUMP JUMPDEST DUP1 PUSH1 0x1F ADD PUSH1 0x20 DUP1 SWAP2 DIV MUL PUSH1 0x20 ADD PUSH1 0x40 MLOAD SWAP1 DUP2 ADD PUSH1 0x40 MSTORE DUP1 SWAP3 SWAP2 SWAP1 DUP2 DUP2 MSTORE PUSH1 0x20 ADD DUP3 DUP1 SLOAD PUSH2 0x879 SWAP1 PUSH2 0x3479 JUMP JUMPDEST DUP1 ISZERO PUSH2 0x8C4 JUMPI DUP1 PUSH1 0x1F LT PUSH2 0x89B JUMPI PUSH2 0x100 DUP1 DUP4 SLOAD DIV MUL DUP4 MSTORE SWAP2 PUSH1 0x20 ADD SWAP2 PUSH2 0x8C4 JUMP JUMPDEST DUP3 ADD SWAP2 SWAP1 PUSH0 MSTORE PUSH1 0x20 PUSH0 KECCAK256 SWAP1 JUMPDEST DUP2 SLOAD DUP2 MSTORE SWAP1 PUSH1 0x1 ADD SWAP1 PUSH1 0x20 ADD DUP1 DUP4 GT PUSH2 0x8A7 JUMPI DUP3 SWAP1 SUB PUSH1 0x1F AND DUP3 ADD SWAP2 JUMPDEST POP POP POP POP POP SWAP1 POP SWAP1 JUMP JUMPDEST PUSH0 PUSH2 0x8D8 DUP3 PUSH2 0x1B39 JUMP JUMPDEST PUSH2 0x917 JUMPI PUSH1 0x40 MLOAD PUSH32 0x8C379A000000000000000000000000000000000000000000000000000000000 DUP2 MSTORE PUSH1 0x4 ADD PUSH2 0x90E SWAP1 PUSH2 0x3519 JUMP JUMPDEST PUSH1 0x40 MLOAD DUP1 SWAP2 SUB SWAP1 REVERT JUMPDEST PUSH1 0x4 PUSH0 DUP4 DUP2 MSTORE PUSH1 0x20 ADD SWAP1 DUP2 MSTORE PUSH1 0x20 ADD PUSH0 KECCAK256 PUSH0 SWAP1 SLOAD SWAP1 PUSH2 0x100 EXP SWAP1 DIV PUSH20 0xFFFFFFFFFFFFFFFFFFFFFFFFFFFFFFFFFFFFFFFF AND SWAP1 POP SWAP2 SWAP1 POP JUMP JUMPDEST PUSH0 PUSH2 0x959 DUP3 PUSH2 0xEFF JUMP JUMPDEST SWAP1 POP DUP1 PUSH20 0xFFFFFFFFFFFFFFFFFFFFFFFFFFFFFFFFFFFFFFFF AND DUP4 PUSH20 0xFFFFFFFFFFFFFFFFFFFFFFFFFFFFFFFFFFFFFFFF AND SUB PUSH2 0x9C9 JUMPI PUSH1 0x40 MLOAD PUSH32 0x8C379A000000000000000000000000000000000000000000000000000000000 DUP2 MSTORE PUSH1 0x4 ADD PUSH2 0x9C0 SWAP1 PUSH2 0x35A7 JUMP JUMPDEST PUSH1 0x40 MLOAD DUP1 SWAP2 SUB SWAP1 REVERT JUMPDEST DUP1 PUSH20 0xFFFFFFFFFFFFFFFFFFFFFFFFFFFFFFFFFFFFFFFF AND PUSH2 0x9E8 PUSH2 0x1BA1 JUMP JUMPDEST PUSH20 0xFFFFFFFFFFFFFFFFFFFFFFFFFFFFFFFFFFFFFFFF AND EQ DUP1 PUSH2 0xA17 JUMPI POP PUSH2 0xA16 DUP2 PUSH2 0xA11 PUSH2 0x1BA1 JUMP JUMPDEST PUSH2 0x194C JUMP JUMPDEST JUMPDEST PUSH2 0xA56 JUMPI PUSH1 0x40 MLOAD PUSH32 0x8C379A000000000000000000000000000000000000000000000000000000000 DUP2 MSTORE PUSH1 0x4 ADD PUSH2 0xA4D SWAP1 PUSH2 0x3635 JUMP JUMPDEST PUSH1 0x40 MLOAD DUP1 SWAP2 SUB SWAP1 REVERT JUMPDEST PUSH2 0xA60 DUP4 DUP4 PUSH2 0x1BA8 JUMP JUMPDEST POP POP POP JUMP JUMPDEST PUSH1 0x9 SLOAD DUP2 JUMP JUMPDEST PUSH1 0x15 PUSH0 SWAP1 SLOAD SWAP1 PUSH2 0x100 EXP SWAP1 DIV PUSH1 0xFF AND DUP2 JUMP JUMPDEST PUSH2 0xA8E PUSH2 0xA88 PUSH2 0x1BA1 JUMP JUMPDEST DUP3 PUSH2 0x1C5E JUMP JUMPDEST PUSH2 0xACD JUMPI PUSH1 0x40 MLOAD PUSH32 0x8C379A000000000000000000000000000000000000000000000000000000000 DUP2 MSTORE PUSH1 0x4 ADD PUSH2 0xAC4 SWAP1 PUSH2 0x36C3 JUMP JUMPDEST PUSH1 0x40 MLOAD DUP1 SWAP2 SUB SWAP1 REVERT JUMPDEST PUSH2 0xAD8 DUP4 DUP4 DUP4 PUSH2 0x1D3A JUMP JUMPDEST POP POP POP JUMP JUMPDEST PUSH1 0x15 PUSH1 0x1 SWAP1 SLOAD SWAP1 PUSH2 0x100 EXP SWAP1 DIV PUSH1 0xFF AND PUSH2 0xB2C JUMPI PUSH1 0x40 MLOAD PUSH32 0x8C379A000000000000000000000000000000000000000000000000000000000 DUP2 MSTORE PUSH1 0x4 ADD PUSH2 0xB23 SWAP1 PUSH2 0x372B JUMP JUMPDEST PUSH1 0x40 MLOAD DUP1 SWAP2 SUB SWAP1 REVERT JUMPDEST PUSH2 0xB40 PUSH1 0x10 PUSH1 0x1 ADD SLOAD PUSH1 0x10 PUSH1 0x2 ADD SLOAD PUSH2 0x1F95 JUMP JUMPDEST PUSH2 0xB7F JUMPI PUSH1 0x40 MLOAD PUSH32 0x8C379A000000000000000000000000000000000000000000000000000000000 DUP2 MSTORE PUSH1 0x4 ADD PUSH2 0xB76 SWAP1 PUSH2 0x3793 JUMP JUMPDEST PUSH1 0x40 MLOAD DUP1 SWAP2 SUB SWAP1 REVERT JUMPDEST PUSH2 0xBAF DUP3 CALLER PUSH1 0x40 MLOAD PUSH1 0x20 ADD PUSH2 0xB94 SWAP2 SWAP1 PUSH2 0x37F6 JUMP JUMPDEST PUSH1 0x40 MLOAD PUSH1 0x20 DUP2 DUP4 SUB SUB DUP2 MSTORE SWAP1 PUSH1 0x40 MSTORE DUP1 MLOAD SWAP1 PUSH1 0x20 ADD KECCAK256 PUSH2 0x16D7 JUMP JUMPDEST PUSH2 0xBEE JUMPI PUSH1 0x40 MLOAD PUSH32 0x8C379A000000000000000000000000000000000000000000000000000000000 DUP2 MSTORE PUSH1 0x4 ADD PUSH2 0xBE5 SWAP1 PUSH2 0x385A JUMP JUMPDEST PUSH1 0x40 MLOAD DUP1 SWAP2 SUB SWAP1 REVERT JUMPDEST PUSH2 0xBF7 DUP2 PUSH2 0x1FC2 JUMP JUMPDEST POP POP JUMP JUMPDEST PUSH1 0x10 PUSH0 ADD PUSH0 SWAP1 SLOAD SWAP1 PUSH2 0x100 EXP SWAP1 DIV PUSH1 0xFF AND ISZERO DUP1 PUSH2 0xC1D JUMPI POP PUSH1 0x10 PUSH1 0x2 ADD SLOAD TIMESTAMP LT ISZERO JUMPDEST PUSH2 0xC5C JUMPI PUSH1 0x40 MLOAD PUSH32 0x8C379A000000000000000000000000000000000000000000000000000000000 DUP2 MSTORE PUSH1 0x4 ADD PUSH2 0xC53 SWAP1 PUSH2 0x38E8 JUMP JUMPDEST PUSH1 0x40 MLOAD DUP1 SWAP2 SUB SWAP1 REVERT JUMPDEST PUSH1 0x15 PUSH0 SWAP1 SLOAD SWAP1 PUSH2 0x100 EXP SWAP1 DIV PUSH1 0xFF AND PUSH2 0xCAA JUMPI PUSH1 0x40 MLOAD PUSH32 0x8C379A000000000000000000000000000000000000000000000000000000000 DUP2 MSTORE PUSH1 0x4 ADD PUSH2 0xCA1 SWAP1 PUSH2 0x3950 JUMP JUMPDEST PUSH1 0x40 MLOAD DUP1 SWAP2 SUB SWAP1 REVERT JUMPDEST PUSH2 0xCBE PUSH1 0x10 PUSH1 0x3 ADD SLOAD PUSH1 0x10 PUSH1 0x4 ADD SLOAD PUSH2 0x1F95 JUMP JUMPDEST PUSH2 0xCFD JUMPI PUSH1 0x40 MLOAD PUSH32 0x8C379A000000000000000000000000000000000000000000000000000000000 DUP2 MSTORE PUSH1 0x4 ADD PUSH2 0xCF4 SWAP1 PUSH2 0x39B8 JUMP JUMPDEST PUSH1 0x40 MLOAD DUP1 SWAP2 SUB SWAP1 REVERT JUMPDEST PUSH2 0xD06 DUP2 PUSH2 0x1FC2 JUMP JUMPDEST POP JUMP JUMPDEST PUSH2 0xD23 DUP4 DUP4 DUP4 PUSH1 0x40 MLOAD DUP1 PUSH1 0x20 ADD PUSH1 0x40 MSTORE DUP1 PUSH0 DUP2 MSTORE POP PUSH2 0x1675 JUMP JUMPDEST POP POP POP JUMP JUMPDEST PUSH1 0x15 PUSH1 0x1 SWAP1 SLOAD SWAP1 PUSH2 0x100 EXP SWAP1 DIV PUSH1 0xFF AND DUP2 JUMP JUMPDEST PUSH2 0xD43 PUSH2 0x1BA1 JUMP JUMPDEST PUSH20 0xFFFFFFFFFFFFFFFFFFFFFFFFFFFFFFFFFFFFFFFF AND PUSH2 0xD61 PUSH2 0x142C JUMP JUMPDEST PUSH20 0xFFFFFFFFFFFFFFFFFFFFFFFFFFFFFFFFFFFFFFFF AND EQ PUSH2 0xDB7 JUMPI PUSH1 0x40 MLOAD PUSH32 0x8C379A000000000000000000000000000000000000000000000000000000000 DUP2 MSTORE PUSH1 0x4 ADD PUSH2 0xDAE SWAP1 PUSH2 0x3A20 JUMP JUMPDEST PUSH1 0x40 MLOAD DUP1 SWAP2 SUB SWAP1 REVERT JUMPDEST DUP1 PUSH1 0xB SWAP1 DUP2 PUSH2 0xDC6 SWAP2 SWAP1 PUSH2 0x3BDE JUMP JUMPDEST POP PUSH32 0xF9C7803E94E0D3C02900D8A90893A6D5E90DD04D32A4CFE825520F82BF9F32F6 DUP2 PUSH1 0x40 MLOAD PUSH2 0xDF6 SWAP2 SWAP1 PUSH2 0x2C28 JUMP JUMPDEST PUSH1 0x40 MLOAD DUP1 SWAP2 SUB SWAP1 LOG1 POP JUMP JUMPDEST PUSH2 0xE09 PUSH2 0x1BA1 JUMP JUMPDEST PUSH20 0xFFFFFFFFFFFFFFFFFFFFFFFFFFFFFFFFFFFFFFFF AND PUSH2 0xE27 PUSH2 0x142C JUMP JUMPDEST PUSH20 0xFFFFFFFFFFFFFFFFFFFFFFFFFFFFFFFFFFFFFFFF AND EQ PUSH2 0xE7D JUMPI PUSH1 0x40 MLOAD PUSH32 0x8C379A000000000000000000000000000000000000000000000000000000000 DUP2 MSTORE PUSH1 0x4 ADD PUSH2 0xE74 SWAP1 PUSH2 0x3A20 JUMP JUMPDEST PUSH1 0x40 MLOAD DUP1 SWAP2 SUB SWAP1 REVERT JUMPDEST PUSH1 0x15 PUSH1 0x1 SWAP1 SLOAD SWAP1 PUSH2 0x100 EXP SWAP1 DIV PUSH1 0xFF AND ISZERO PUSH1 0x15 PUSH1 0x1 PUSH2 0x100 EXP DUP2 SLOAD DUP2 PUSH1 0xFF MUL NOT AND SWAP1 DUP4 ISZERO ISZERO MUL OR SWAP1 SSTORE POP PUSH32 0xF3CEB1B1DF7AFA89A10AFBEA0BC86B42296CFDFA410CDD70A7C2A97F9F9A373 PUSH1 0x15 PUSH0 SWAP1 SLOAD SWAP1 PUSH2 0x100 EXP SWAP1 DIV PUSH1 0xFF AND PUSH1 0x15 PUSH1 0x1 SWAP1 SLOAD SWAP1 PUSH2 0x100 EXP SWAP1 DIV PUSH1 0xFF AND PUSH1 0x40 MLOAD PUSH2 0xEF5 SWAP3 SWAP2 SWAP1 PUSH2 0x3CAD JUMP JUMPDEST PUSH1 0x40 MLOAD DUP1 SWAP2 SUB SWAP1 LOG1 JUMP JUMPDEST PUSH0 PUSH0 PUSH1 0x2 PUSH0 DUP5 DUP2 MSTORE PUSH1 0x20 ADD SWAP1 DUP2 MSTORE PUSH1 0x20 ADD PUSH0 KECCAK256 PUSH0 SWAP1 SLOAD SWAP1 PUSH2 0x100 EXP SWAP1 DIV PUSH20 0xFFFFFFFFFFFFFFFFFFFFFFFFFFFFFFFFFFFFFFFF AND SWAP1 POP PUSH0 PUSH20 0xFFFFFFFFFFFFFFFFFFFFFFFFFFFFFFFFFFFFFFFF AND DUP2 PUSH20 0xFFFFFFFFFFFFFFFFFFFFFFFFFFFFFFFFFFFFFFFF AND SUB PUSH2 0xFA2 JUMPI PUSH1 0x40 MLOAD PUSH32 0x8C379A000000000000000000000000000000000000000000000000000000000 DUP2 MSTORE PUSH1 0x4 ADD PUSH2 0xF99 SWAP1 PUSH2 0x3D44 JUMP JUMPDEST PUSH1 0x40 MLOAD DUP1 SWAP2 SUB SWAP1 REVERT JUMPDEST DUP1 SWAP2 POP POP SWAP2 SWAP1 POP JUMP JUMPDEST PUSH1 0xC DUP1 PUSH0 ADD SLOAD SWAP1 DUP1 PUSH1 0x1 ADD SLOAD SWAP1 DUP1 PUSH1 0x2 ADD SLOAD SWAP1 DUP1 PUSH1 0x3 ADD SLOAD SWAP1 POP DUP5 JUMP JUMPDEST PUSH0 PUSH0 PUSH20 0xFFFFFFFFFFFFFFFFFFFFFFFFFFFFFFFFFFFFFFFF AND DUP3 PUSH20 0xFFFFFFFFFFFFFFFFFFFFFFFFFFFFFFFFFFFFFFFF AND SUB PUSH2 0x1037 JUMPI PUSH1 0x40 MLOAD PUSH32 0x8C379A000000000000000000000000000000000000000000000000000000000 DUP2 MSTORE PUSH1 0x4 ADD PUSH2 0x102E SWAP1 PUSH2 0x3DD2 JUMP JUMPDEST PUSH1 0x40 MLOAD DUP1 SWAP2 SUB SWAP1 REVERT JUMPDEST PUSH1 0x3 PUSH0 DUP4 PUSH20 0xFFFFFFFFFFFFFFFFFFFFFFFFFFFFFFFFFFFFFFFF AND PUSH20 0xFFFFFFFFFFFFFFFFFFFFFFFFFFFFFFFFFFFFFFFF AND DUP2 MSTORE PUSH1 0x20 ADD SWAP1 DUP2 MSTORE PUSH1 0x20 ADD PUSH0 KECCAK256 SLOAD SWAP1 POP SWAP2 SWAP1 POP JUMP JUMPDEST PUSH2 0x1084 PUSH2 0x1BA1 JUMP JUMPDEST PUSH20 0xFFFFFFFFFFFFFFFFFFFFFFFFFFFFFFFFFFFFFFFF AND PUSH2 0x10A2 PUSH2 0x142C JUMP JUMPDEST PUSH20 0xFFFFFFFFFFFFFFFFFFFFFFFFFFFFFFFFFFFFFFFF AND EQ PUSH2 0x10F8 JUMPI PUSH1 0x40 MLOAD PUSH32 0x8C379A000000000000000000000000000000000000000000000000000000000 DUP2 MSTORE PUSH1 0x4 ADD PUSH2 0x10EF SWAP1 PUSH2 0x3A20 JUMP JUMPDEST PUSH1 0x40 MLOAD DUP1 SWAP2 SUB SWAP1 REVERT JUMPDEST PUSH2 0x1101 PUSH0 PUSH2 0x222F JUMP JUMPDEST JUMP JUMPDEST PUSH2 0x110B PUSH2 0x1BA1 JUMP JUMPDEST PUSH20 0xFFFFFFFFFFFFFFFFFFFFFFFFFFFFFFFFFFFFFFFF AND PUSH2 0x1129 PUSH2 0x142C JUMP JUMPDEST PUSH20 0xFFFFFFFFFFFFFFFFFFFFFFFFFFFFFFFFFFFFFFFF AND EQ PUSH2 0x117F JUMPI PUSH1 0x40 MLOAD PUSH32 0x8C379A000000000000000000000000000000000000000000000000000000000 DUP2 MSTORE PUSH1 0x4 ADD PUSH2 0x1176 SWAP1 PUSH2 0x3A20 JUMP JUMPDEST PUSH1 0x40 MLOAD DUP1 SWAP2 SUB SWAP1 REVERT JUMPDEST DUP4 PUSH1 0x10 PUSH1 0x1 ADD DUP2 SWAP1 SSTORE POP DUP3 PUSH1 0x10 PUSH1 0x2 ADD DUP2 SWAP1 SSTORE POP DUP2 PUSH1 0x10 PUSH1 0x3 ADD DUP2 SWAP1 SSTORE POP DUP1 PUSH1 0x10 PUSH1 0x4 ADD DUP2 SWAP1 SSTORE POP PUSH32 0xDF31A79BE646F25CF79F5F1FE56D5972E8AF0F25DE752B9021B909727A0B8EC4 DUP5 DUP5 DUP5 DUP5 PUSH1 0x40 MLOAD PUSH2 0x11DC SWAP5 SWAP4 SWAP3 SWAP2 SWAP1 PUSH2 0x30A2 JUMP JUMPDEST PUSH1 0x40 MLOAD DUP1 SWAP2 SUB SWAP1 LOG1 POP POP POP POP JUMP JUMPDEST PUSH2 0x11F2 PUSH2 0x1BA1 JUMP JUMPDEST PUSH20 0xFFFFFFFFFFFFFFFFFFFFFFFFFFFFFFFFFFFFFFFF AND PUSH2 0x1210 PUSH2 0x142C JUMP JUMPDEST PUSH20 0xFFFFFFFFFFFFFFFFFFFFFFFFFFFFFFFFFFFFFFFF AND EQ PUSH2 0x1266 JUMPI PUSH1 0x40 MLOAD PUSH32 0x8C379A000000000000000000000000000000000000000000000000000000000 DUP2 MSTORE PUSH1 0x4 ADD PUSH2 0x125D SWAP1 PUSH2 0x3A20 JUMP JUMPDEST PUSH1 0x40 MLOAD DUP1 SWAP2 SUB SWAP1 REVERT JUMPDEST DUP2 PUSH1 0xC PUSH1 0x2 ADD DUP2 SWAP1 SSTORE POP DUP1 PUSH1 0xC PUSH1 0x3 ADD DUP2 SWAP1 SSTORE POP PUSH32 0xC37CC9C3C37FDCACBE05156C2F68F96E3D3ECEC5A381A8929651BF7A317F0D1C DUP3 DUP3 PUSH1 0x40 MLOAD PUSH2 0x12AB SWAP3 SWAP2 SWAP1 PUSH2 0x3DF0 JUMP JUMPDEST PUSH1 0x40 MLOAD DUP1 SWAP2 SUB SWAP1 LOG1 POP POP JUMP JUMPDEST PUSH2 0x12BF PUSH2 0x22F2 JUMP JUMPDEST PUSH2 0x12C7 PUSH2 0x1BA1 JUMP JUMPDEST PUSH20 0xFFFFFFFFFFFFFFFFFFFFFFFFFFFFFFFFFFFFFFFF AND PUSH2 0x12E5 PUSH2 0x142C JUMP JUMPDEST PUSH20 0xFFFFFFFFFFFFFFFFFFFFFFFFFFFFFFFFFFFFFFFF AND EQ PUSH2 0x133B JUMPI PUSH1 0x40 MLOAD PUSH32 0x8C379A000000000000000000000000000000000000000000000000000000000 DUP2 MSTORE PUSH1 0x4 ADD PUSH2 0x1332 SWAP1 PUSH2 0x3A20 JUMP JUMPDEST PUSH1 0x40 MLOAD DUP1 SWAP2 SUB SWAP1 REVERT JUMPDEST PUSH0 SELFBALANCE SWAP1 POP PUSH0 DUP2 GT PUSH2 0x1381 JUMPI PUSH1 0x40 MLOAD PUSH32 0x8C379A000000000000000000000000000000000000000000000000000000000 DUP2 MSTORE PUSH1 0x4 ADD PUSH2 0x1378 SWAP1 PUSH2 0x3E61 JUMP JUMPDEST PUSH1 0x40 MLOAD DUP1 SWAP2 SUB SWAP1 REVERT JUMPDEST PUSH2 0x1389 PUSH2 0x142C JUMP JUMPDEST PUSH20 0xFFFFFFFFFFFFFFFFFFFFFFFFFFFFFFFFFFFFFFFF AND PUSH2 0x8FC DUP3 SWAP1 DUP2 ISZERO MUL SWAP1 PUSH1 0x40 MLOAD PUSH0 PUSH1 0x40 MLOAD DUP1 DUP4 SUB DUP2 DUP6 DUP9 DUP9 CALL SWAP4 POP POP POP POP ISZERO DUP1 ISZERO PUSH2 0x13CB JUMPI RETURNDATASIZE PUSH0 PUSH0 RETURNDATACOPY RETURNDATASIZE PUSH0 REVERT JUMPDEST POP PUSH2 0x13D4 PUSH2 0x142C JUMP JUMPDEST PUSH20 0xFFFFFFFFFFFFFFFFFFFFFFFFFFFFFFFFFFFFFFFF AND PUSH32 0xEAFF4B37086828766AD3268786972C0CD24259D4C87A80F9D3963A3C3D999B0D DUP3 PUSH1 0x40 MLOAD PUSH2 0x1419 SWAP2 SWAP1 PUSH2 0x2D75 JUMP JUMPDEST PUSH1 0x40 MLOAD DUP1 SWAP2 SUB SWAP1 LOG2 POP PUSH2 0x142A PUSH2 0x2341 JUMP JUMPDEST JUMP JUMPDEST PUSH0 PUSH1 0x6 PUSH0 SWAP1 SLOAD SWAP1 PUSH2 0x100 EXP SWAP1 DIV PUSH20 0xFFFFFFFFFFFFFFFFFFFFFFFFFFFFFFFFFFFFFFFF AND SWAP1 POP SWAP1 JUMP JUMPDEST PUSH1 0x10 DUP1 PUSH0 ADD PUSH0 SWAP1 SLOAD SWAP1 PUSH2 0x100 EXP SWAP1 DIV PUSH1 0xFF AND SWAP1 DUP1 PUSH1 0x1 ADD SLOAD SWAP1 DUP1 PUSH1 0x2 ADD SLOAD SWAP1 DUP1 PUSH1 0x3 ADD SLOAD SWAP1 DUP1 PUSH1 0x4 ADD SLOAD SWAP1 POP DUP6 JUMP JUMPDEST PUSH2 0x148B PUSH2 0x1BA1 JUMP JUMPDEST PUSH20 0xFFFFFFFFFFFFFFFFFFFFFFFFFFFFFFFFFFFFFFFF AND PUSH2 0x14A9 PUSH2 0x142C JUMP JUMPDEST PUSH20 0xFFFFFFFFFFFFFFFFFFFFFFFFFFFFFFFFFFFFFFFF AND EQ PUSH2 0x14FF JUMPI PUSH1 0x40 MLOAD PUSH32 0x8C379A000000000000000000000000000000000000000000000000000000000 DUP2 MSTORE PUSH1 0x4 ADD PUSH2 0x14F6 SWAP1 PUSH2 0x3A20 JUMP JUMPDEST PUSH1 0x40 MLOAD DUP1 SWAP2 SUB SWAP1 REVERT JUMPDEST DUP1 PUSH1 0xC PUSH1 0x1 ADD DUP2 SWAP1 SSTORE POP PUSH32 0x66CBCA4F3C64FECF1DCB9CE094ABCF7F68C3450A1D4E3A8E917DD621EDB4EBE0 DUP2 PUSH1 0x40 MLOAD PUSH2 0x1538 SWAP2 SWAP1 PUSH2 0x2D75 JUMP JUMPDEST PUSH1 0x40 MLOAD DUP1 SWAP2 SUB SWAP1 LOG1 POP JUMP JUMPDEST PUSH1 0x60 PUSH1 0x1 DUP1 SLOAD PUSH2 0x1552 SWAP1 PUSH2 0x3479 JUMP JUMPDEST DUP1 PUSH1 0x1F ADD PUSH1 0x20 DUP1 SWAP2 DIV MUL PUSH1 0x20 ADD PUSH1 0x40 MLOAD SWAP1 DUP2 ADD PUSH1 0x40 MSTORE DUP1 SWAP3 SWAP2 SWAP1 DUP2 DUP2 MSTORE PUSH1 0x20 ADD DUP3 DUP1 SLOAD PUSH2 0x157E SWAP1 PUSH2 0x3479 JUMP JUMPDEST DUP1 ISZERO PUSH2 0x15C9 JUMPI DUP1 PUSH1 0x1F LT PUSH2 0x15A0 JUMPI PUSH2 0x100 DUP1 DUP4 SLOAD DIV MUL DUP4 MSTORE SWAP2 PUSH1 0x20 ADD SWAP2 PUSH2 0x15C9 JUMP JUMPDEST DUP3 ADD SWAP2 SWAP1 PUSH0 MSTORE PUSH1 0x20 PUSH0 KECCAK256 SWAP1 JUMPDEST DUP2 SLOAD DUP2 MSTORE SWAP1 PUSH1 0x1 ADD SWAP1 PUSH1 0x20 ADD DUP1 DUP4 GT PUSH2 0x15AC JUMPI DUP3 SWAP1 SUB PUSH1 0x1F AND DUP3 ADD SWAP2 JUMPDEST POP POP POP POP POP SWAP1 POP SWAP1 JUMP JUMPDEST PUSH1 0xB DUP1 SLOAD PUSH2 0x15E0 SWAP1 PUSH2 0x3479 JUMP JUMPDEST DUP1 PUSH1 0x1F ADD PUSH1 0x20 DUP1 SWAP2 DIV MUL PUSH1 0x20 ADD PUSH1 0x40 MLOAD SWAP1 DUP2 ADD PUSH1 0x40 MSTORE DUP1 SWAP3 SWAP2 SWAP1 DUP2 DUP2 MSTORE PUSH1 0x20 ADD DUP3 DUP1 SLOAD PUSH2 0x160C SWAP1 PUSH2 0x3479 JUMP JUMPDEST DUP1 ISZERO PUSH2 0x1657 JUMPI DUP1 PUSH1 0x1F LT PUSH2 0x162E JUMPI PUSH2 0x100 DUP1 DUP4 SLOAD DIV MUL DUP4 MSTORE SWAP2 PUSH1 0x20 ADD SWAP2 PUSH2 0x1657 JUMP JUMPDEST DUP3 ADD SWAP2 SWAP1 PUSH0 MSTORE PUSH1 0x20 PUSH0 KECCAK256 SWAP1 JUMPDEST DUP2 SLOAD DUP2 MSTORE SWAP1 PUSH1 0x1 ADD SWAP1 PUSH1 0x20 ADD DUP1 DUP4 GT PUSH2 0x163A JUMPI DUP3 SWAP1 SUB PUSH1 0x1F AND DUP3 ADD SWAP2 JUMPDEST POP POP POP POP POP DUP2 JUMP JUMPDEST PUSH2 0x1671 PUSH2 0x166A PUSH2 0x1BA1 JUMP JUMPDEST DUP4 DUP4 PUSH2 0x234B JUMP JUMPDEST POP POP JUMP JUMPDEST PUSH2 0x1686 PUSH2 0x1680 PUSH2 0x1BA1 JUMP JUMPDEST DUP4 PUSH2 0x1C5E JUMP JUMPDEST PUSH2 0x16C5 JUMPI PUSH1 0x40 MLOAD PUSH32 0x8C379A000000000000000000000000000000000000000000000000000000000 DUP2 MSTORE PUSH1 0x4 ADD PUSH2 0x16BC SWAP1 PUSH2 0x36C3 JUMP JUMPDEST PUSH1 0x40 MLOAD DUP1 SWAP2 SUB SWAP1 REVERT JUMPDEST PUSH2 0x16D1 DUP5 DUP5 DUP5 DUP5 PUSH2 0x24B2 JUMP JUMPDEST POP POP POP POP JUMP JUMPDEST PUSH0 PUSH2 0x16E5 DUP4 PUSH1 0x8 SLOAD DUP5 PUSH2 0x250E JUMP JUMPDEST SWAP1 POP SWAP3 SWAP2 POP POP JUMP JUMPDEST PUSH1 0x60 PUSH2 0x16F8 DUP3 PUSH2 0x1B39 JUMP JUMPDEST PUSH2 0x1737 JUMPI PUSH1 0x40 MLOAD PUSH32 0x8C379A000000000000000000000000000000000000000000000000000000000 DUP2 MSTORE PUSH1 0x4 ADD PUSH2 0x172E SWAP1 PUSH2 0x3EEF JUMP JUMPDEST PUSH1 0x40 MLOAD DUP1 SWAP2 SUB SWAP1 REVERT JUMPDEST PUSH0 PUSH1 0xB DUP1 SLOAD PUSH2 0x1745 SWAP1 PUSH2 0x3479 JUMP JUMPDEST SWAP1 POP GT PUSH2 0x1760 JUMPI PUSH1 0x40 MLOAD DUP1 PUSH1 0x20 ADD PUSH1 0x40 MSTORE DUP1 PUSH0 DUP2 MSTORE POP PUSH2 0x178C JUMP JUMPDEST PUSH1 0xB PUSH2 0x176B DUP4 PUSH2 0x2524 JUMP JUMPDEST PUSH1 0x40 MLOAD PUSH1 0x20 ADD PUSH2 0x177C SWAP3 SWAP2 SWAP1 PUSH2 0x3FC7 JUMP JUMPDEST PUSH1 0x40 MLOAD PUSH1 0x20 DUP2 DUP4 SUB SUB DUP2 MSTORE SWAP1 PUSH1 0x40 MSTORE JUMPDEST SWAP1 POP SWAP2 SWAP1 POP JUMP JUMPDEST PUSH2 0x179B PUSH2 0x1BA1 JUMP JUMPDEST PUSH20 0xFFFFFFFFFFFFFFFFFFFFFFFFFFFFFFFFFFFFFFFF AND PUSH2 0x17B9 PUSH2 0x142C JUMP JUMPDEST PUSH20 0xFFFFFFFFFFFFFFFFFFFFFFFFFFFFFFFFFFFFFFFF AND EQ PUSH2 0x180F JUMPI PUSH1 0x40 MLOAD PUSH32 0x8C379A000000000000000000000000000000000000000000000000000000000 DUP2 MSTORE PUSH1 0x4 ADD PUSH2 0x1806 SWAP1 PUSH2 0x3A20 JUMP JUMPDEST PUSH1 0x40 MLOAD DUP1 SWAP2 SUB SWAP1 REVERT JUMPDEST DUP1 PUSH1 0x8 DUP2 SWAP1 SSTORE POP PUSH32 0x2CBC14F49C068133583F7CB530018AF451C87C1CF1327CF2A4FF4698C4730AA4 DUP2 PUSH1 0x40 MLOAD PUSH2 0x1845 SWAP2 SWAP1 PUSH2 0x3FF9 JUMP JUMPDEST PUSH1 0x40 MLOAD DUP1 SWAP2 SUB SWAP1 LOG1 POP JUMP JUMPDEST PUSH2 0x1858 PUSH2 0x1BA1 JUMP JUMPDEST PUSH20 0xFFFFFFFFFFFFFFFFFFFFFFFFFFFFFFFFFFFFFFFF AND PUSH2 0x1876 PUSH2 0x142C JUMP JUMPDEST PUSH20 0xFFFFFFFFFFFFFFFFFFFFFFFFFFFFFFFFFFFFFFFF AND EQ PUSH2 0x18CC JUMPI PUSH1 0x40 MLOAD PUSH32 0x8C379A000000000000000000000000000000000000000000000000000000000 DUP2 MSTORE PUSH1 0x4 ADD PUSH2 0x18C3 SWAP1 PUSH2 0x3A20 JUMP JUMPDEST PUSH1 0x40 MLOAD DUP1 SWAP2 SUB SWAP1 REVERT JUMPDEST PUSH1 0x15 PUSH0 SWAP1 SLOAD SWAP1 PUSH2 0x100 EXP SWAP1 DIV PUSH1 0xFF AND ISZERO PUSH1 0x15 PUSH0 PUSH2 0x100 EXP DUP2 SLOAD DUP2 PUSH1 0xFF MUL NOT AND SWAP1 DUP4 ISZERO ISZERO MUL OR SWAP1 SSTORE POP PUSH32 0xF3CEB1B1DF7AFA89A10AFBEA0BC86B42296CFDFA410CDD70A7C2A97F9F9A373 PUSH1 0x15 PUSH0 SWAP1 SLOAD SWAP1 PUSH2 0x100 EXP SWAP1 DIV PUSH1 0xFF AND PUSH1 0x15 PUSH1 0x1 SWAP1 SLOAD SWAP1 PUSH2 0x100 EXP SWAP1 DIV PUSH1 0xFF AND PUSH1 0x40 MLOAD PUSH2 0x1942 SWAP3 SWAP2 SWAP1 PUSH2 0x3CAD JUMP JUMPDEST PUSH1 0x40 MLOAD DUP1 SWAP2 SUB SWAP1 LOG1 JUMP JUMPDEST PUSH0 PUSH1 0x5 PUSH0 DUP5 PUSH20 0xFFFFFFFFFFFFFFFFFFFFFFFFFFFFFFFFFFFFFFFF AND PUSH20 0xFFFFFFFFFFFFFFFFFFFFFFFFFFFFFFFFFFFFFFFF AND DUP2 MSTORE PUSH1 0x20 ADD SWAP1 DUP2 MSTORE PUSH1 0x20 ADD PUSH0 KECCAK256 PUSH0 DUP4 PUSH20 0xFFFFFFFFFFFFFFFFFFFFFFFFFFFFFFFFFFFFFFFF AND PUSH20 0xFFFFFFFFFFFFFFFFFFFFFFFFFFFFFFFFFFFFFFFF AND DUP2 MSTORE PUSH1 0x20 ADD SWAP1 DUP2 MSTORE PUSH1 0x20 ADD PUSH0 KECCAK256 PUSH0 SWAP1 SLOAD SWAP1 PUSH2 0x100 EXP SWAP1 DIV PUSH1 0xFF AND SWAP1 POP SWAP3 SWAP2 POP POP JUMP JUMPDEST PUSH2 0x19E2 PUSH2 0x1BA1 JUMP JUMPDEST PUSH20 0xFFFFFFFFFFFFFFFFFFFFFFFFFFFFFFFFFFFFFFFF AND PUSH2 0x1A00 PUSH2 0x142C JUMP JUMPDEST PUSH20 0xFFFFFFFFFFFFFFFFFFFFFFFFFFFFFFFFFFFFFFFF AND EQ PUSH2 0x1A56 JUMPI PUSH1 0x40 MLOAD PUSH32 0x8C379A000000000000000000000000000000000000000000000000000000000 DUP2 MSTORE PUSH1 0x4 ADD PUSH2 0x1A4D SWAP1 PUSH2 0x3A20 JUMP JUMPDEST PUSH1 0x40 MLOAD DUP1 SWAP2 SUB SWAP1 REVERT JUMPDEST PUSH0 PUSH20 0xFFFFFFFFFFFFFFFFFFFFFFFFFFFFFFFFFFFFFFFF AND DUP2 PUSH20 0xFFFFFFFFFFFFFFFFFFFFFFFFFFFFFFFFFFFFFFFF AND SUB PUSH2 0x1AC4 JUMPI PUSH1 0x40 MLOAD PUSH32 0x8C379A000000000000000000000000000000000000000000000000000000000 DUP2 MSTORE PUSH1 0x4 ADD PUSH2 0x1ABB SWAP1 PUSH2 0x4082 JUMP JUMPDEST PUSH1 0x40 MLOAD DUP1 SWAP2 SUB SWAP1 REVERT JUMPDEST PUSH2 0x1ACD DUP2 PUSH2 0x222F JUMP JUMPDEST POP JUMP JUMPDEST PUSH0 PUSH32 0x1FFC9A700000000000000000000000000000000000000000000000000000000 PUSH28 0xFFFFFFFFFFFFFFFFFFFFFFFFFFFFFFFFFFFFFFFFFFFFFFFFFFFFFFFF NOT AND DUP3 PUSH28 0xFFFFFFFFFFFFFFFFFFFFFFFFFFFFFFFFFFFFFFFFFFFFFFFFFFFFFFFF NOT AND EQ SWAP1 POP SWAP2 SWAP1 POP JUMP JUMPDEST PUSH0 PUSH0 PUSH20 0xFFFFFFFFFFFFFFFFFFFFFFFFFFFFFFFFFFFFFFFF AND PUSH1 0x2 PUSH0 DUP5 DUP2 MSTORE PUSH1 0x20 ADD SWAP1 DUP2 MSTORE PUSH1 0x20 ADD PUSH0 KECCAK256 PUSH0 SWAP1 SLOAD SWAP1 PUSH2 0x100 EXP SWAP1 DIV PUSH20 0xFFFFFFFFFFFFFFFFFFFFFFFFFFFFFFFFFFFFFFFF AND PUSH20 0xFFFFFFFFFFFFFFFFFFFFFFFFFFFFFFFFFFFFFFFF AND EQ ISZERO SWAP1 POP SWAP2 SWAP1 POP JUMP JUMPDEST PUSH0 CALLER SWAP1 POP SWAP1 JUMP JUMPDEST DUP2 PUSH1 0x4 PUSH0 DUP4 DUP2 MSTORE PUSH1 0x20 ADD SWAP1 DUP2 MSTORE PUSH1 0x20 ADD PUSH0 KECCAK256 PUSH0 PUSH2 0x100 EXP DUP2 SLOAD DUP2 PUSH20 0xFFFFFFFFFFFFFFFFFFFFFFFFFFFFFFFFFFFFFFFF MUL NOT AND SWAP1 DUP4 PUSH20 0xFFFFFFFFFFFFFFFFFFFFFFFFFFFFFFFFFFFFFFFF AND MUL OR SWAP1 SSTORE POP DUP1 DUP3 PUSH20 0xFFFFFFFFFFFFFFFFFFFFFFFFFFFFFFFFFFFFFFFF AND PUSH2 0x1C18 DUP4 PUSH2 0xEFF JUMP JUMPDEST PUSH20 0xFFFFFFFFFFFFFFFFFFFFFFFFFFFFFFFFFFFFFFFF AND PUSH32 0x8C5BE1E5EBEC7D5BD14F71427D1E84F3DD0314C0F7B2291E5B200AC8C7C3B925 PUSH1 0x40 MLOAD PUSH1 0x40 MLOAD DUP1 SWAP2 SUB SWAP1 LOG4 POP POP JUMP JUMPDEST PUSH0 PUSH2 0x1C68 DUP3 PUSH2 0x1B39 JUMP JUMPDEST PUSH2 0x1CA7 JUMPI PUSH1 0x40 MLOAD PUSH32 0x8C379A000000000000000000000000000000000000000000000000000000000 DUP2 MSTORE PUSH1 0x4 ADD PUSH2 0x1C9E SWAP1 PUSH2 0x4110 JUMP JUMPDEST PUSH1 0x40 MLOAD DUP1 SWAP2 SUB SWAP1 REVERT JUMPDEST PUSH0 PUSH2 0x1CB1 DUP4 PUSH2 0xEFF JUMP JUMPDEST SWAP1 POP DUP1 PUSH20 0xFFFFFFFFFFFFFFFFFFFFFFFFFFFFFFFFFFFFFFFF AND DUP5 PUSH20 0xFFFFFFFFFFFFFFFFFFFFFFFFFFFFFFFFFFFFFFFF AND EQ DUP1 PUSH2 0x1D20 JUMPI POP DUP4 PUSH20 0xFFFFFFFFFFFFFFFFFFFFFFFFFFFFFFFFFFFFFFFF AND PUSH2 0x1D08 DUP5 PUSH2 0x8CE JUMP JUMPDEST PUSH20 0xFFFFFFFFFFFFFFFFFFFFFFFFFFFFFFFFFFFFFFFF AND EQ JUMPDEST DUP1 PUSH2 0x1D31 JUMPI POP PUSH2 0x1D30 DUP2 DUP6 PUSH2 0x194C JUMP JUMPDEST JUMPDEST SWAP2 POP POP SWAP3 SWAP2 POP POP JUMP JUMPDEST DUP3 PUSH20 0xFFFFFFFFFFFFFFFFFFFFFFFFFFFFFFFFFFFFFFFF AND PUSH2 0x1D5A DUP3 PUSH2 0xEFF JUMP JUMPDEST PUSH20 0xFFFFFFFFFFFFFFFFFFFFFFFFFFFFFFFFFFFFFFFF AND EQ PUSH2 0x1DB0 JUMPI PUSH1 0x40 MLOAD PUSH32 0x8C379A000000000000000000000000000000000000000000000000000000000 DUP2 MSTORE PUSH1 0x4 ADD PUSH2 0x1DA7 SWAP1 PUSH2 0x419E JUMP JUMPDEST PUSH1 0x40 MLOAD DUP1 SWAP2 SUB SWAP1 REVERT JUMPDEST PUSH0 PUSH20 0xFFFFFFFFFFFFFFFFFFFFFFFFFFFFFFFFFFFFFFFF AND DUP3 PUSH20 0xFFFFFFFFFFFFFFFFFFFFFFFFFFFFFFFFFFFFFFFF AND SUB PUSH2 0x1E1E JUMPI PUSH1 0x40 MLOAD PUSH32 0x8C379A000000000000000000000000000000000000000000000000000000000 DUP2 MSTORE PUSH1 0x4 ADD PUSH2 0x1E15 SWAP1 PUSH2 0x422C JUMP JUMPDEST PUSH1 0x40 MLOAD DUP1 SWAP2 SUB SWAP1 REVERT JUMPDEST PUSH2 0x1E29 DUP4 DUP4 DUP4 PUSH2 0x267D JUMP JUMPDEST PUSH2 0x1E33 PUSH0 DUP3 PUSH2 0x1BA8 JUMP JUMPDEST PUSH1 0x1 PUSH1 0x3 PUSH0 DUP6 PUSH20 0xFFFFFFFFFFFFFFFFFFFFFFFFFFFFFFFFFFFFFFFF AND PUSH20 0xFFFFFFFFFFFFFFFFFFFFFFFFFFFFFFFFFFFFFFFF AND DUP2 MSTORE PUSH1 0x20 ADD SWAP1 DUP2 MSTORE PUSH1 0x20 ADD PUSH0 KECCAK256 PUSH0 DUP3 DUP3 SLOAD PUSH2 0x1E80 SWAP2 SWAP1 PUSH2 0x4277 JUMP JUMPDEST SWAP3 POP POP DUP2 SWAP1 SSTORE POP PUSH1 0x1 PUSH1 0x3 PUSH0 DUP5 PUSH20 0xFFFFFFFFFFFFFFFFFFFFFFFFFFFFFFFFFFFFFFFF AND PUSH20 0xFFFFFFFFFFFFFFFFFFFFFFFFFFFFFFFFFFFFFFFF AND DUP2 MSTORE PUSH1 0x20 ADD SWAP1 DUP2 MSTORE PUSH1 0x20 ADD PUSH0 KECCAK256 PUSH0 DUP3 DUP3 SLOAD PUSH2 0x1ED4 SWAP2 SWAP1 PUSH2 0x42AA JUMP JUMPDEST SWAP3 POP POP DUP2 SWAP1 SSTORE POP DUP2 PUSH1 0x2 PUSH0 DUP4 DUP2 MSTORE PUSH1 0x20 ADD SWAP1 DUP2 MSTORE PUSH1 0x20 ADD PUSH0 KECCAK256 PUSH0 PUSH2 0x100 EXP DUP2 SLOAD DUP2 PUSH20 0xFFFFFFFFFFFFFFFFFFFFFFFFFFFFFFFFFFFFFFFF MUL NOT AND SWAP1 DUP4 PUSH20 0xFFFFFFFFFFFFFFFFFFFFFFFFFFFFFFFFFFFFFFFF AND MUL OR SWAP1 SSTORE POP DUP1 DUP3 PUSH20 0xFFFFFFFFFFFFFFFFFFFFFFFFFFFFFFFFFFFFFFFF AND DUP5 PUSH20 0xFFFFFFFFFFFFFFFFFFFFFFFFFFFFFFFFFFFFFFFF AND PUSH32 0xDDF252AD1BE2C89B69C2B068FC378DAA952BA7F163C4A11628F55A4DF523B3EF PUSH1 0x40 MLOAD PUSH1 0x40 MLOAD DUP1 SWAP2 SUB SWAP1 LOG4 PUSH2 0x1F90 DUP4 DUP4 DUP4 PUSH2 0x2682 JUMP JUMPDEST POP POP POP JUMP JUMPDEST PUSH0 PUSH0 DUP4 EQ DUP1 PUSH2 0x1FA4 JUMPI POP DUP3 TIMESTAMP LT ISZERO JUMPDEST DUP1 ISZERO PUSH2 0x1FBA JUMPI POP PUSH0 DUP3 EQ DUP1 PUSH2 0x1FB9 JUMPI POP DUP2 TIMESTAMP GT ISZERO JUMPDEST JUMPDEST SWAP1 POP SWAP3 SWAP2 POP POP JUMP JUMPDEST PUSH1 0xC PUSH1 0x2 ADD SLOAD DUP2 GT ISZERO PUSH2 0x200A JUMPI PUSH1 0x40 MLOAD PUSH32 0x8C379A000000000000000000000000000000000000000000000000000000000 DUP2 MSTORE PUSH1 0x4 ADD PUSH2 0x2001 SWAP1 PUSH2 0x4327 JUMP JUMPDEST PUSH1 0x40 MLOAD DUP1 SWAP2 SUB SWAP1 REVERT JUMPDEST PUSH1 0xC PUSH1 0x3 ADD SLOAD DUP2 PUSH1 0xA PUSH0 CALLER PUSH20 0xFFFFFFFFFFFFFFFFFFFFFFFFFFFFFFFFFFFFFFFF AND PUSH20 0xFFFFFFFFFFFFFFFFFFFFFFFFFFFFFFFFFFFFFFFF AND DUP2 MSTORE PUSH1 0x20 ADD SWAP1 DUP2 MSTORE PUSH1 0x20 ADD PUSH0 KECCAK256 SLOAD PUSH2 0x2059 SWAP2 SWAP1 PUSH2 0x42AA JUMP JUMPDEST GT ISZERO PUSH2 0x209A JUMPI PUSH1 0x40 MLOAD PUSH32 0x8C379A000000000000000000000000000000000000000000000000000000000 DUP2 MSTORE PUSH1 0x4 ADD PUSH2 0x2091 SWAP1 PUSH2 0x438F JUMP JUMPDEST PUSH1 0x40 MLOAD DUP1 SWAP2 SUB SWAP1 REVERT JUMPDEST PUSH1 0xC PUSH0 ADD SLOAD DUP2 PUSH1 0x9 SLOAD PUSH2 0x20AD SWAP2 SWAP1 PUSH2 0x42AA JUMP JUMPDEST GT ISZERO PUSH2 0x20EE JUMPI PUSH1 0x40 MLOAD PUSH32 0x8C379A000000000000000000000000000000000000000000000000000000000 DUP2 MSTORE PUSH1 0x4 ADD PUSH2 0x20E5 SWAP1 PUSH2 0x43F7 JUMP JUMPDEST PUSH1 0x40 MLOAD DUP1 SWAP2 SUB SWAP1 REVERT JUMPDEST CALLVALUE PUSH1 0xC PUSH1 0x1 ADD SLOAD DUP3 PUSH2 0x2100 SWAP2 SWAP1 PUSH2 0x4415 JUMP JUMPDEST GT ISZERO PUSH2 0x2141 JUMPI PUSH1 0x40 MLOAD PUSH32 0x8C379A000000000000000000000000000000000000000000000000000000000 DUP2 MSTORE PUSH1 0x4 ADD PUSH2 0x2138 SWAP1 PUSH2 0x44A0 JUMP JUMPDEST PUSH1 0x40 MLOAD DUP1 SWAP2 SUB SWAP1 REVERT JUMPDEST PUSH0 PUSH1 0x1 SWAP1 POP JUMPDEST DUP2 DUP2 GT PUSH2 0x2172 JUMPI PUSH2 0x2165 CALLER DUP3 PUSH1 0x9 SLOAD PUSH2 0x2160 SWAP2 SWAP1 PUSH2 0x42AA JUMP JUMPDEST PUSH2 0x2687 JUMP JUMPDEST DUP1 DUP1 PUSH1 0x1 ADD SWAP2 POP POP PUSH2 0x2147 JUMP JUMPDEST POP DUP1 PUSH1 0xA PUSH0 CALLER PUSH20 0xFFFFFFFFFFFFFFFFFFFFFFFFFFFFFFFFFFFFFFFF AND PUSH20 0xFFFFFFFFFFFFFFFFFFFFFFFFFFFFFFFFFFFFFFFF AND DUP2 MSTORE PUSH1 0x20 ADD SWAP1 DUP2 MSTORE PUSH1 0x20 ADD PUSH0 KECCAK256 PUSH0 DUP3 DUP3 SLOAD PUSH2 0x21BF SWAP2 SWAP1 PUSH2 0x42AA JUMP JUMPDEST SWAP3 POP POP DUP2 SWAP1 SSTORE POP DUP1 PUSH1 0x9 PUSH0 DUP3 DUP3 SLOAD PUSH2 0x21D7 SWAP2 SWAP1 PUSH2 0x42AA JUMP JUMPDEST SWAP3 POP POP DUP2 SWAP1 SSTORE POP CALLER PUSH20 0xFFFFFFFFFFFFFFFFFFFFFFFFFFFFFFFFFFFFFFFF AND PUSH32 0x3F2C9D57C068687834F0DE942A9BABB9E5ACAB57D516D3480A3C16EE165A4273 DUP3 PUSH1 0x40 MLOAD PUSH2 0x2224 SWAP2 SWAP1 PUSH2 0x2D75 JUMP JUMPDEST PUSH1 0x40 MLOAD DUP1 SWAP2 SUB SWAP1 LOG2 POP JUMP JUMPDEST PUSH0 PUSH1 0x6 PUSH0 SWAP1 SLOAD SWAP1 PUSH2 0x100 EXP SWAP1 DIV PUSH20 0xFFFFFFFFFFFFFFFFFFFFFFFFFFFFFFFFFFFFFFFF AND SWAP1 POP DUP2 PUSH1 0x6 PUSH0 PUSH2 0x100 EXP DUP2 SLOAD DUP2 PUSH20 0xFFFFFFFFFFFFFFFFFFFFFFFFFFFFFFFFFFFFFFFF MUL NOT AND SWAP1 DUP4 PUSH20 0xFFFFFFFFFFFFFFFFFFFFFFFFFFFFFFFFFFFFFFFF AND MUL OR SWAP1 SSTORE POP DUP2 PUSH20 0xFFFFFFFFFFFFFFFFFFFFFFFFFFFFFFFFFFFFFFFF AND DUP2 PUSH20 0xFFFFFFFFFFFFFFFFFFFFFFFFFFFFFFFFFFFFFFFF AND PUSH32 0x8BE0079C531659141344CD1FD0A4F28419497F9722A3DAAFE3B4186F6B6457E0 PUSH1 0x40 MLOAD PUSH1 0x40 MLOAD DUP1 SWAP2 SUB SWAP1 LOG3 POP POP JUMP JUMPDEST PUSH1 0x2 PUSH1 0x7 SLOAD SUB PUSH2 0x2337 JUMPI PUSH1 0x40 MLOAD PUSH32 0x8C379A000000000000000000000000000000000000000000000000000000000 DUP2 MSTORE PUSH1 0x4 ADD PUSH2 0x232E SWAP1 PUSH2 0x4508 JUMP JUMPDEST PUSH1 0x40 MLOAD DUP1 SWAP2 SUB SWAP1 REVERT JUMPDEST PUSH1 0x2 PUSH1 0x7 DUP2 SWAP1 SSTORE POP JUMP JUMPDEST PUSH1 0x1 PUSH1 0x7 DUP2 SWAP1 SSTORE POP JUMP JUMPDEST DUP2 PUSH20 0xFFFFFFFFFFFFFFFFFFFFFFFFFFFFFFFFFFFFFFFF AND DUP4 PUSH20 0xFFFFFFFFFFFFFFFFFFFFFFFFFFFFFFFFFFFFFFFF AND SUB PUSH2 0x23B9 JUMPI PUSH1 0x40 MLOAD PUSH32 0x8C379A000000000000000000000000000000000000000000000000000000000 DUP2 MSTORE PUSH1 0x4 ADD PUSH2 0x23B0 SWAP1 PUSH2 0x4570 JUMP JUMPDEST PUSH1 0x40 MLOAD DUP1 SWAP2 SUB SWAP1 REVERT JUMPDEST DUP1 PUSH1 0x5 PUSH0 DUP6 PUSH20 0xFFFFFFFFFFFFFFFFFFFFFFFFFFFFFFFFFFFFFFFF AND PUSH20 0xFFFFFFFFFFFFFFFFFFFFFFFFFFFFFFFFFFFFFFFF AND DUP2 MSTORE PUSH1 0x20 ADD SWAP1 DUP2 MSTORE PUSH1 0x20 ADD PUSH0 KECCAK256 PUSH0 DUP5 PUSH20 0xFFFFFFFFFFFFFFFFFFFFFFFFFFFFFFFFFFFFFFFF AND PUSH20 0xFFFFFFFFFFFFFFFFFFFFFFFFFFFFFFFFFFFFFFFF AND DUP2 MSTORE PUSH1 0x20 ADD SWAP1 DUP2 MSTORE PUSH1 0x20 ADD PUSH0 KECCAK256 PUSH0 PUSH2 0x100 EXP DUP2 SLOAD DUP2 PUSH1 0xFF MUL NOT AND SWAP1 DUP4 ISZERO ISZERO MUL OR SWAP1 SSTORE POP DUP2 PUSH20 0xFFFFFFFFFFFFFFFFFFFFFFFFFFFFFFFFFFFFFFFF AND DUP4 PUSH20 0xFFFFFFFFFFFFFFFFFFFFFFFFFFFFFFFFFFFFFFFF AND PUSH32 0x17307EAB39AB6107E8899845AD3D59BD9653F200F220920489CA2B5937696C31 DUP4 PUSH1 0x40 MLOAD PUSH2 0x24A5 SWAP2 SWAP1 PUSH2 0x2B9F JUMP JUMPDEST PUSH1 0x40 MLOAD DUP1 SWAP2 SUB SWAP1 LOG3 POP POP POP JUMP JUMPDEST PUSH2 0x24BD DUP5 DUP5 DUP5 PUSH2 0x1D3A JUMP JUMPDEST PUSH2 0x24C9 DUP5 DUP5 DUP5 DUP5 PUSH2 0x26A4 JUMP JUMPDEST PUSH2 0x2508 JUMPI PUSH1 0x40 MLOAD PUSH32 0x8C379A000000000000000000000000000000000000000000000000000000000 DUP2 MSTORE PUSH1 0x4 ADD PUSH2 0x24FF SWAP1 PUSH2 0x45FE JUMP JUMPDEST PUSH1 0x40 MLOAD DUP1 SWAP2 SUB SWAP1 REVERT JUMPDEST POP POP POP POP JUMP JUMPDEST PUSH0 DUP3 PUSH2 0x251A DUP6 DUP5 PUSH2 0x2826 JUMP JUMPDEST EQ SWAP1 POP SWAP4 SWAP3 POP POP POP JUMP JUMPDEST PUSH1 0x60 PUSH0 DUP3 SUB PUSH2 0x256A JUMPI PUSH1 0x40 MLOAD DUP1 PUSH1 0x40 ADD PUSH1 0x40 MSTORE DUP1 PUSH1 0x1 DUP2 MSTORE PUSH1 0x20 ADD PUSH32 0x3000000000000000000000000000000000000000000000000000000000000000 DUP2 MSTORE POP SWAP1 POP PUSH2 0x2678 JUMP JUMPDEST PUSH0 DUP3 SWAP1 POP PUSH0 JUMPDEST PUSH0 DUP3 EQ PUSH2 0x2599 JUMPI DUP1 DUP1 PUSH2 0x2582 SWAP1 PUSH2 0x461C JUMP JUMPDEST SWAP2 POP POP PUSH1 0xA DUP3 PUSH2 0x2592 SWAP2 SWAP1 PUSH2 0x4690 JUMP JUMPDEST SWAP2 POP PUSH2 0x2570 JUMP JUMPDEST PUSH0 DUP2 PUSH8 0xFFFFFFFFFFFFFFFF DUP2 GT ISZERO PUSH2 0x25B4 JUMPI PUSH2 0x25B3 PUSH2 0x2DE2 JUMP JUMPDEST JUMPDEST PUSH1 0x40 MLOAD SWAP1 DUP1 DUP3 MSTORE DUP1 PUSH1 0x1F ADD PUSH1 0x1F NOT AND PUSH1 0x20 ADD DUP3 ADD PUSH1 0x40 MSTORE DUP1 ISZERO PUSH2 0x25E6 JUMPI DUP2 PUSH1 0x20 ADD PUSH1 0x1 DUP3 MUL DUP1 CALLDATASIZE DUP4 CALLDATACOPY DUP1 DUP3 ADD SWAP2 POP POP SWAP1 POP JUMPDEST POP SWAP1 POP JUMPDEST PUSH0 DUP6 EQ PUSH2 0x2671 JUMPI PUSH1 0x1 DUP3 PUSH2 0x25FE SWAP2 SWAP1 PUSH2 0x4277 JUMP JUMPDEST SWAP2 POP PUSH1 0xA DUP6 PUSH2 0x260D SWAP2 SWAP1 PUSH2 0x46C0 JUMP JUMPDEST PUSH1 0x30 PUSH2 0x2619 SWAP2 SWAP1 PUSH2 0x42AA JUMP JUMPDEST PUSH1 0xF8 SHL DUP2 DUP4 DUP2 MLOAD DUP2 LT PUSH2 0x262F JUMPI PUSH2 0x262E PUSH2 0x46F0 JUMP JUMPDEST JUMPDEST PUSH1 0x20 ADD ADD SWAP1 PUSH31 0xFFFFFFFFFFFFFFFFFFFFFFFFFFFFFFFFFFFFFFFFFFFFFFFFFFFFFFFFFFFFFF NOT AND SWAP1 DUP2 PUSH0 BYTE SWAP1 MSTORE8 POP PUSH1 0xA DUP6 PUSH2 0x266A SWAP2 SWAP1 PUSH2 0x4690 JUMP JUMPDEST SWAP5 POP PUSH2 0x25EA JUMP JUMPDEST DUP1 SWAP4 POP POP POP POP JUMPDEST SWAP2 SWAP1 POP JUMP JUMPDEST POP POP POP JUMP JUMPDEST POP POP POP JUMP JUMPDEST PUSH2 0x26A0 DUP3 DUP3 PUSH1 0x40 MLOAD DUP1 PUSH1 0x20 ADD PUSH1 0x40 MSTORE DUP1 PUSH0 DUP2 MSTORE POP PUSH2 0x2895 JUMP JUMPDEST POP POP JUMP JUMPDEST PUSH0 PUSH2 0x26C4 DUP5 PUSH20 0xFFFFFFFFFFFFFFFFFFFFFFFFFFFFFFFFFFFFFFFF AND PUSH2 0x28EF JUMP JUMPDEST ISZERO PUSH2 0x2819 JUMPI DUP4 PUSH20 0xFFFFFFFFFFFFFFFFFFFFFFFFFFFFFFFFFFFFFFFF AND PUSH4 0x150B7A02 PUSH2 0x26ED PUSH2 0x1BA1 JUMP JUMPDEST DUP8 DUP7 DUP7 PUSH1 0x40 MLOAD DUP6 PUSH4 0xFFFFFFFF AND PUSH1 0xE0 SHL DUP2 MSTORE PUSH1 0x4 ADD PUSH2 0x270F SWAP5 SWAP4 SWAP3 SWAP2 SWAP1 PUSH2 0x476F JUMP JUMPDEST PUSH1 0x20 PUSH1 0x40 MLOAD DUP1 DUP4 SUB DUP2 PUSH0 DUP8 GAS CALL SWAP3 POP POP POP DUP1 ISZERO PUSH2 0x274A JUMPI POP PUSH1 0x40 MLOAD RETURNDATASIZE PUSH1 0x1F NOT PUSH1 0x1F DUP3 ADD AND DUP3 ADD DUP1 PUSH1 0x40 MSTORE POP DUP2 ADD SWAP1 PUSH2 0x2747 SWAP2 SWAP1 PUSH2 0x47CD JUMP JUMPDEST PUSH1 0x1 JUMPDEST PUSH2 0x27C9 JUMPI RETURNDATASIZE DUP1 PUSH0 DUP2 EQ PUSH2 0x2778 JUMPI PUSH1 0x40 MLOAD SWAP2 POP PUSH1 0x1F NOT PUSH1 0x3F RETURNDATASIZE ADD AND DUP3 ADD PUSH1 0x40 MSTORE RETURNDATASIZE DUP3 MSTORE RETURNDATASIZE PUSH0 PUSH1 0x20 DUP5 ADD RETURNDATACOPY PUSH2 0x277D JUMP JUMPDEST PUSH1 0x60 SWAP2 POP JUMPDEST POP PUSH0 DUP2 MLOAD SUB PUSH2 0x27C1 JUMPI PUSH1 0x40 MLOAD PUSH32 0x8C379A000000000000000000000000000000000000000000000000000000000 DUP2 MSTORE PUSH1 0x4 ADD PUSH2 0x27B8 SWAP1 PUSH2 0x45FE JUMP JUMPDEST PUSH1 0x40 MLOAD DUP1 SWAP2 SUB SWAP1 REVERT JUMPDEST DUP1 MLOAD DUP2 PUSH1 0x20 ADD REVERT JUMPDEST PUSH4 0x150B7A02 PUSH1 0xE0 SHL PUSH28 0xFFFFFFFFFFFFFFFFFFFFFFFFFFFFFFFFFFFFFFFFFFFFFFFFFFFFFFFF NOT AND DUP2 PUSH28 0xFFFFFFFFFFFFFFFFFFFFFFFFFFFFFFFFFFFFFFFFFFFFFFFFFFFFFFFF NOT AND EQ SWAP2 POP POP PUSH2 0x281E JUMP JUMPDEST PUSH1 0x1 SWAP1 POP JUMPDEST SWAP5 SWAP4 POP POP POP POP JUMP JUMPDEST PUSH0 PUSH0 DUP3 SWAP1 POP PUSH0 PUSH0 SWAP1 POP JUMPDEST DUP5 MLOAD DUP2 LT ISZERO PUSH2 0x288A JUMPI PUSH0 DUP6 DUP3 DUP2 MLOAD DUP2 LT PUSH2 0x284D JUMPI PUSH2 0x284C PUSH2 0x46F0 JUMP JUMPDEST JUMPDEST PUSH1 0x20 MUL PUSH1 0x20 ADD ADD MLOAD SWAP1 POP DUP1 DUP4 GT PUSH2 0x286F JUMPI PUSH2 0x2868 DUP4 DUP3 PUSH2 0x2911 JUMP JUMPDEST SWAP3 POP PUSH2 0x287C JUMP JUMPDEST PUSH2 0x2879 DUP2 DUP5 PUSH2 0x2911 JUMP JUMPDEST SWAP3 POP JUMPDEST POP DUP1 DUP1 PUSH1 0x1 ADD SWAP2 POP POP PUSH2 0x2830 JUMP JUMPDEST POP DUP1 SWAP2 POP POP SWAP3 SWAP2 POP POP JUMP JUMPDEST PUSH2 0x289F DUP4 DUP4 PUSH2 0x2925 JUMP JUMPDEST PUSH2 0x28AB PUSH0 DUP5 DUP5 DUP5 PUSH2 0x26A4 JUMP JUMPDEST PUSH2 0x28EA JUMPI PUSH1 0x40 MLOAD PUSH32 0x8C379A000000000000000000000000000000000000000000000000000000000 DUP2 MSTORE PUSH1 0x4 ADD PUSH2 0x28E1 SWAP1 PUSH2 0x45FE JUMP JUMPDEST PUSH1 0x40 MLOAD DUP1 SWAP2 SUB SWAP1 REVERT JUMPDEST POP POP POP JUMP JUMPDEST PUSH0 PUSH0 DUP3 PUSH20 0xFFFFFFFFFFFFFFFFFFFFFFFFFFFFFFFFFFFFFFFF AND EXTCODESIZE GT SWAP1 POP SWAP2 SWAP1 POP JUMP JUMPDEST PUSH0 DUP3 PUSH0 MSTORE DUP2 PUSH1 0x20 MSTORE PUSH1 0x40 PUSH0 KECCAK256 SWAP1 POP SWAP3 SWAP2 POP POP JUMP JUMPDEST PUSH0 PUSH20 0xFFFFFFFFFFFFFFFFFFFFFFFFFFFFFFFFFFFFFFFF AND DUP3 PUSH20 0xFFFFFFFFFFFFFFFFFFFFFFFFFFFFFFFFFFFFFFFF AND SUB PUSH2 0x2993 JUMPI PUSH1 0x40 MLOAD PUSH32 0x8C379A000000000000000000000000000000000000000000000000000000000 DUP2 MSTORE PUSH1 0x4 ADD PUSH2 0x298A SWAP1 PUSH2 0x4842 JUMP JUMPDEST PUSH1 0x40 MLOAD DUP1 SWAP2 SUB SWAP1 REVERT JUMPDEST PUSH2 0x299C DUP2 PUSH2 0x1B39 JUMP JUMPDEST ISZERO PUSH2 0x29DC JUMPI PUSH1 0x40 MLOAD PUSH32 0x8C379A000000000000000000000000000000000000000000000000000000000 DUP2 MSTORE PUSH1 0x4 ADD PUSH2 0x29D3 SWAP1 PUSH2 0x48AA JUMP JUMPDEST PUSH1 0x40 MLOAD DUP1 SWAP2 SUB SWAP1 REVERT JUMPDEST PUSH2 0x29E7 PUSH0 DUP4 DUP4 PUSH2 0x267D JUMP JUMPDEST PUSH1 0x1 PUSH1 0x3 PUSH0 DUP5 PUSH20 0xFFFFFFFFFFFFFFFFFFFFFFFFFFFFFFFFFFFFFFFF AND PUSH20 0xFFFFFFFFFFFFFFFFFFFFFFFFFFFFFFFFFFFFFFFF AND DUP2 MSTORE PUSH1 0x20 ADD SWAP1 DUP2 MSTORE PUSH1 0x20 ADD PUSH0 KECCAK256 PUSH0 DUP3 DUP3 SLOAD PUSH2 0x2A34 SWAP2 SWAP1 PUSH2 0x42AA JUMP JUMPDEST SWAP3 POP POP DUP2 SWAP1 SSTORE POP DUP2 PUSH1 0x2 PUSH0 DUP4 DUP2 MSTORE PUSH1 0x20 ADD SWAP1 DUP2 MSTORE PUSH1 0x20 ADD PUSH0 KECCAK256 PUSH0 PUSH2 0x100 EXP DUP2 SLOAD DUP2 PUSH20 0xFFFFFFFFFFFFFFFFFFFFFFFFFFFFFFFFFFFFFFFF MUL NOT AND SWAP1 DUP4 PUSH20 0xFFFFFFFFFFFFFFFFFFFFFFFFFFFFFFFFFFFFFFFF AND MUL OR SWAP1 SSTORE POP DUP1 DUP3 PUSH20 0xFFFFFFFFFFFFFFFFFFFFFFFFFFFFFFFFFFFFFFFF AND PUSH0 PUSH20 0xFFFFFFFFFFFFFFFFFFFFFFFFFFFFFFFFFFFFFFFF AND PUSH32 0xDDF252AD1BE2C89B69C2B068FC378DAA952BA7F163C4A11628F55A4DF523B3EF PUSH1 0x40 MLOAD PUSH1 0x40 MLOAD DUP1 SWAP2 SUB SWAP1 LOG4 PUSH2 0x2AF0 PUSH0 DUP4 DUP4 PUSH2 0x2682 JUMP JUMPDEST POP POP JUMP JUMPDEST PUSH0 PUSH1 0x40 MLOAD SWAP1 POP SWAP1 JUMP JUMPDEST PUSH0 PUSH0 REVERT JUMPDEST PUSH0 PUSH0 REVERT JUMPDEST PUSH0 PUSH32 0xFFFFFFFF00000000000000000000000000000000000000000000000000000000 DUP3 AND SWAP1 POP SWAP2 SWAP1 POP JUMP JUMPDEST PUSH2 0x2B39 DUP2 PUSH2 0x2B05 JUMP JUMPDEST DUP2 EQ PUSH2 0x2B43 JUMPI PUSH0 PUSH0 REVERT JUMPDEST POP JUMP JUMPDEST PUSH0 DUP2 CALLDATALOAD SWAP1 POP PUSH2 0x2B54 DUP2 PUSH2 0x2B30 JUMP JUMPDEST SWAP3 SWAP2 POP POP JUMP JUMPDEST PUSH0 PUSH1 0x20 DUP3 DUP5 SUB SLT ISZERO PUSH2 0x2B6F JUMPI PUSH2 0x2B6E PUSH2 0x2AFD JUMP JUMPDEST JUMPDEST PUSH0 PUSH2 0x2B7C DUP5 DUP3 DUP6 ADD PUSH2 0x2B46 JUMP JUMPDEST SWAP2 POP POP SWAP3 SWAP2 POP POP JUMP JUMPDEST PUSH0 DUP2 ISZERO ISZERO SWAP1 POP SWAP2 SWAP1 POP JUMP JUMPDEST PUSH2 0x2B99 DUP2 PUSH2 0x2B85 JUMP JUMPDEST DUP3 MSTORE POP POP JUMP JUMPDEST PUSH0 PUSH1 0x20 DUP3 ADD SWAP1 POP PUSH2 0x2BB2 PUSH0 DUP4 ADD DUP5 PUSH2 0x2B90 JUMP JUMPDEST SWAP3 SWAP2 POP POP JUMP JUMPDEST PUSH0 DUP2 MLOAD SWAP1 POP SWAP2 SWAP1 POP JUMP JUMPDEST PUSH0 DUP3 DUP3 MSTORE PUSH1 0x20 DUP3 ADD SWAP1 POP SWAP3 SWAP2 POP POP JUMP JUMPDEST DUP3 DUP2 DUP4 MCOPY PUSH0 DUP4 DUP4 ADD MSTORE POP POP POP JUMP JUMPDEST PUSH0 PUSH1 0x1F NOT PUSH1 0x1F DUP4 ADD AND SWAP1 POP SWAP2 SWAP1 POP JUMP JUMPDEST PUSH0 PUSH2 0x2BFA DUP3 PUSH2 0x2BB8 JUMP JUMPDEST PUSH2 0x2C04 DUP2 DUP6 PUSH2 0x2BC2 JUMP JUMPDEST SWAP4 POP PUSH2 0x2C14 DUP2 DUP6 PUSH1 0x20 DUP7 ADD PUSH2 0x2BD2 JUMP JUMPDEST PUSH2 0x2C1D DUP2 PUSH2 0x2BE0 JUMP JUMPDEST DUP5 ADD SWAP2 POP POP SWAP3 SWAP2 POP POP JUMP JUMPDEST PUSH0 PUSH1 0x20 DUP3 ADD SWAP1 POP DUP2 DUP2 SUB PUSH0 DUP4 ADD MSTORE PUSH2 0x2C40 DUP2 DUP5 PUSH2 0x2BF0 JUMP JUMPDEST SWAP1 POP SWAP3 SWAP2 POP POP JUMP JUMPDEST PUSH0 DUP2 SWAP1 POP SWAP2 SWAP1 POP JUMP JUMPDEST PUSH2 0x2C5A DUP2 PUSH2 0x2C48 JUMP JUMPDEST DUP2 EQ PUSH2 0x2C64 JUMPI PUSH0 PUSH0 REVERT JUMPDEST POP JUMP JUMPDEST PUSH0 DUP2 CALLDATALOAD SWAP1 POP PUSH2 0x2C75 DUP2 PUSH2 0x2C51 JUMP JUMPDEST SWAP3 SWAP2 POP POP JUMP JUMPDEST PUSH0 PUSH1 0x20 DUP3 DUP5 SUB SLT ISZERO PUSH2 0x2C90 JUMPI PUSH2 0x2C8F PUSH2 0x2AFD JUMP JUMPDEST JUMPDEST PUSH0 PUSH2 0x2C9D DUP5 DUP3 DUP6 ADD PUSH2 0x2C67 JUMP JUMPDEST SWAP2 POP POP SWAP3 SWAP2 POP POP JUMP JUMPDEST PUSH0 PUSH20 0xFFFFFFFFFFFFFFFFFFFFFFFFFFFFFFFFFFFFFFFF DUP3 AND SWAP1 POP SWAP2 SWAP1 POP JUMP JUMPDEST PUSH0 PUSH2 0x2CCF DUP3 PUSH2 0x2CA6 JUMP JUMPDEST SWAP1 POP SWAP2 SWAP1 POP JUMP JUMPDEST PUSH2 0x2CDF DUP2 PUSH2 0x2CC5 JUMP JUMPDEST DUP3 MSTORE POP POP JUMP JUMPDEST PUSH0 PUSH1 0x20 DUP3 ADD SWAP1 POP PUSH2 0x2CF8 PUSH0 DUP4 ADD DUP5 PUSH2 0x2CD6 JUMP JUMPDEST SWAP3 SWAP2 POP POP JUMP JUMPDEST PUSH2 0x2D07 DUP2 PUSH2 0x2CC5 JUMP JUMPDEST DUP2 EQ PUSH2 0x2D11 JUMPI PUSH0 PUSH0 REVERT JUMPDEST POP JUMP JUMPDEST PUSH0 DUP2 CALLDATALOAD SWAP1 POP PUSH2 0x2D22 DUP2 PUSH2 0x2CFE JUMP JUMPDEST SWAP3 SWAP2 POP POP JUMP JUMPDEST PUSH0 PUSH0 PUSH1 0x40 DUP4 DUP6 SUB SLT ISZERO PUSH2 0x2D3E JUMPI PUSH2 0x2D3D PUSH2 0x2AFD JUMP JUMPDEST JUMPDEST PUSH0 PUSH2 0x2D4B DUP6 DUP3 DUP7 ADD PUSH2 0x2D14 JUMP JUMPDEST SWAP3 POP POP PUSH1 0x20 PUSH2 0x2D5C DUP6 DUP3 DUP7 ADD PUSH2 0x2C67 JUMP JUMPDEST SWAP2 POP POP SWAP3 POP SWAP3 SWAP1 POP JUMP JUMPDEST PUSH2 0x2D6F DUP2 PUSH2 0x2C48 JUMP JUMPDEST DUP3 MSTORE POP POP JUMP JUMPDEST PUSH0 PUSH1 0x20 DUP3 ADD SWAP1 POP PUSH2 0x2D88 PUSH0 DUP4 ADD DUP5 PUSH2 0x2D66 JUMP JUMPDEST SWAP3 SWAP2 POP POP JUMP JUMPDEST PUSH0 PUSH0 PUSH0 PUSH1 0x60 DUP5 DUP7 SUB SLT ISZERO PUSH2 0x2DA5 JUMPI PUSH2 0x2DA4 PUSH2 0x2AFD JUMP JUMPDEST JUMPDEST PUSH0 PUSH2 0x2DB2 DUP7 DUP3 DUP8 ADD PUSH2 0x2D14 JUMP JUMPDEST SWAP4 POP POP PUSH1 0x20 PUSH2 0x2DC3 DUP7 DUP3 DUP8 ADD PUSH2 0x2D14 JUMP JUMPDEST SWAP3 POP POP PUSH1 0x40 PUSH2 0x2DD4 DUP7 DUP3 DUP8 ADD PUSH2 0x2C67 JUMP JUMPDEST SWAP2 POP POP SWAP3 POP SWAP3 POP SWAP3 JUMP JUMPDEST PUSH0 PUSH0 REVERT JUMPDEST PUSH32 0x4E487B7100000000000000000000000000000000000000000000000000000000 PUSH0 MSTORE PUSH1 0x41 PUSH1 0x4 MSTORE PUSH1 0x24 PUSH0 REVERT JUMPDEST PUSH2 0x2E18 DUP3 PUSH2 0x2BE0 JUMP JUMPDEST DUP2 ADD DUP2 DUP2 LT PUSH8 0xFFFFFFFFFFFFFFFF DUP3 GT OR ISZERO PUSH2 0x2E37 JUMPI PUSH2 0x2E36 PUSH2 0x2DE2 JUMP JUMPDEST JUMPDEST DUP1 PUSH1 0x40 MSTORE POP POP POP JUMP JUMPDEST PUSH0 PUSH2 0x2E49 PUSH2 0x2AF4 JUMP JUMPDEST SWAP1 POP PUSH2 0x2E55 DUP3 DUP3 PUSH2 0x2E0F JUMP JUMPDEST SWAP2 SWAP1 POP JUMP JUMPDEST PUSH0 PUSH8 0xFFFFFFFFFFFFFFFF DUP3 GT ISZERO PUSH2 0x2E74 JUMPI PUSH2 0x2E73 PUSH2 0x2DE2 JUMP JUMPDEST JUMPDEST PUSH1 0x20 DUP3 MUL SWAP1 POP PUSH1 0x20 DUP2 ADD SWAP1 POP SWAP2 SWAP1 POP JUMP JUMPDEST PUSH0 PUSH0 REVERT JUMPDEST PUSH0 DUP2 SWAP1 POP SWAP2 SWAP1 POP JUMP JUMPDEST PUSH2 0x2E9B DUP2 PUSH2 0x2E89 JUMP JUMPDEST DUP2 EQ PUSH2 0x2EA5 JUMPI PUSH0 PUSH0 REVERT JUMPDEST POP JUMP JUMPDEST PUSH0 DUP2 CALLDATALOAD SWAP1 POP PUSH2 0x2EB6 DUP2 PUSH2 0x2E92 JUMP JUMPDEST SWAP3 SWAP2 POP POP JUMP JUMPDEST PUSH0 PUSH2 0x2ECE PUSH2 0x2EC9 DUP5 PUSH2 0x2E5A JUMP JUMPDEST PUSH2 0x2E40 JUMP JUMPDEST SWAP1 POP DUP1 DUP4 DUP3 MSTORE PUSH1 0x20 DUP3 ADD SWAP1 POP PUSH1 0x20 DUP5 MUL DUP4 ADD DUP6 DUP2 GT ISZERO PUSH2 0x2EF1 JUMPI PUSH2 0x2EF0 PUSH2 0x2E85 JUMP JUMPDEST JUMPDEST DUP4 JUMPDEST DUP2 DUP2 LT ISZERO PUSH2 0x2F1A JUMPI DUP1 PUSH2 0x2F06 DUP9 DUP3 PUSH2 0x2EA8 JUMP JUMPDEST DUP5 MSTORE PUSH1 0x20 DUP5 ADD SWAP4 POP POP PUSH1 0x20 DUP2 ADD SWAP1 POP PUSH2 0x2EF3 JUMP JUMPDEST POP POP POP SWAP4 SWAP3 POP POP POP JUMP JUMPDEST PUSH0 DUP3 PUSH1 0x1F DUP4 ADD SLT PUSH2 0x2F38 JUMPI PUSH2 0x2F37 PUSH2 0x2DDE JUMP JUMPDEST JUMPDEST DUP2 CALLDATALOAD PUSH2 0x2F48 DUP5 DUP3 PUSH1 0x20 DUP7 ADD PUSH2 0x2EBC JUMP JUMPDEST SWAP2 POP POP SWAP3 SWAP2 POP POP JUMP JUMPDEST PUSH0 PUSH0 PUSH1 0x40 DUP4 DUP6 SUB SLT ISZERO PUSH2 0x2F67 JUMPI PUSH2 0x2F66 PUSH2 0x2AFD JUMP JUMPDEST JUMPDEST PUSH0 DUP4 ADD CALLDATALOAD PUSH8 0xFFFFFFFFFFFFFFFF DUP2 GT ISZERO PUSH2 0x2F84 JUMPI PUSH2 0x2F83 PUSH2 0x2B01 JUMP JUMPDEST JUMPDEST PUSH2 0x2F90 DUP6 DUP3 DUP7 ADD PUSH2 0x2F24 JUMP JUMPDEST SWAP3 POP POP PUSH1 0x20 PUSH2 0x2FA1 DUP6 DUP3 DUP7 ADD PUSH2 0x2C67 JUMP JUMPDEST SWAP2 POP POP SWAP3 POP SWAP3 SWAP1 POP JUMP JUMPDEST PUSH0 PUSH0 REVERT JUMPDEST PUSH0 PUSH8 0xFFFFFFFFFFFFFFFF DUP3 GT ISZERO PUSH2 0x2FC9 JUMPI PUSH2 0x2FC8 PUSH2 0x2DE2 JUMP JUMPDEST JUMPDEST PUSH2 0x2FD2 DUP3 PUSH2 0x2BE0 JUMP JUMPDEST SWAP1 POP PUSH1 0x20 DUP2 ADD SWAP1 POP SWAP2 SWAP1 POP JUMP JUMPDEST DUP3 DUP2 DUP4 CALLDATACOPY PUSH0 DUP4 DUP4 ADD MSTORE POP POP POP JUMP JUMPDEST PUSH0 PUSH2 0x2FFF PUSH2 0x2FFA DUP5 PUSH2 0x2FAF JUMP JUMPDEST PUSH2 0x2E40 JUMP JUMPDEST SWAP1 POP DUP3 DUP2 MSTORE PUSH1 0x20 DUP2 ADD DUP5 DUP5 DUP5 ADD GT ISZERO PUSH2 0x301B JUMPI PUSH2 0x301A PUSH2 0x2FAB JUMP JUMPDEST JUMPDEST PUSH2 0x3026 DUP5 DUP3 DUP6 PUSH2 0x2FDF JUMP JUMPDEST POP SWAP4 SWAP3 POP POP POP JUMP JUMPDEST PUSH0 DUP3 PUSH1 0x1F DUP4 ADD SLT PUSH2 0x3042 JUMPI PUSH2 0x3041 PUSH2 0x2DDE JUMP JUMPDEST JUMPDEST DUP2 CALLDATALOAD PUSH2 0x3052 DUP5 DUP3 PUSH1 0x20 DUP7 ADD PUSH2 0x2FED JUMP JUMPDEST SWAP2 POP POP SWAP3 SWAP2 POP POP JUMP JUMPDEST PUSH0 PUSH1 0x20 DUP3 DUP5 SUB SLT ISZERO PUSH2 0x3070 JUMPI PUSH2 0x306F PUSH2 0x2AFD JUMP JUMPDEST JUMPDEST PUSH0 DUP3 ADD CALLDATALOAD PUSH8 0xFFFFFFFFFFFFFFFF DUP2 GT ISZERO PUSH2 0x308D JUMPI PUSH2 0x308C PUSH2 0x2B01 JUMP JUMPDEST JUMPDEST PUSH2 0x3099 DUP5 DUP3 DUP6 ADD PUSH2 0x302E JUMP JUMPDEST SWAP2 POP POP SWAP3 SWAP2 POP POP JUMP JUMPDEST PUSH0 PUSH1 0x80 DUP3 ADD SWAP1 POP PUSH2 0x30B5 PUSH0 DUP4 ADD DUP8 PUSH2 0x2D66 JUMP JUMPDEST PUSH2 0x30C2 PUSH1 0x20 DUP4 ADD DUP7 PUSH2 0x2D66 JUMP JUMPDEST PUSH2 0x30CF PUSH1 0x40 DUP4 ADD DUP6 PUSH2 0x2D66 JUMP JUMPDEST PUSH2 0x30DC PUSH1 0x60 DUP4 ADD DUP5 PUSH2 0x2D66 JUMP JUMPDEST SWAP6 SWAP5 POP POP POP POP POP JUMP JUMPDEST PUSH0 PUSH1 0x20 DUP3 DUP5 SUB SLT ISZERO PUSH2 0x30FA JUMPI PUSH2 0x30F9 PUSH2 0x2AFD JUMP JUMPDEST JUMPDEST PUSH0 PUSH2 0x3107 DUP5 DUP3 DUP6 ADD PUSH2 0x2D14 JUMP JUMPDEST SWAP2 POP POP SWAP3 SWAP2 POP POP JUMP JUMPDEST PUSH0 PUSH0 PUSH0 PUSH0 PUSH1 0x80 DUP6 DUP8 SUB SLT ISZERO PUSH2 0x3128 JUMPI PUSH2 0x3127 PUSH2 0x2AFD JUMP JUMPDEST JUMPDEST PUSH0 PUSH2 0x3135 DUP8 DUP3 DUP9 ADD PUSH2 0x2C67 JUMP JUMPDEST SWAP5 POP POP PUSH1 0x20 PUSH2 0x3146 DUP8 DUP3 DUP9 ADD PUSH2 0x2C67 JUMP JUMPDEST SWAP4 POP POP PUSH1 0x40 PUSH2 0x3157 DUP8 DUP3 DUP9 ADD PUSH2 0x2C67 JUMP JUMPDEST SWAP3 POP POP PUSH1 0x60 PUSH2 0x3168 DUP8 DUP3 DUP9 ADD PUSH2 0x2C67 JUMP JUMPDEST SWAP2 POP POP SWAP3 SWAP6 SWAP2 SWAP5 POP SWAP3 POP JUMP JUMPDEST PUSH0 PUSH0 PUSH1 0x40 DUP4 DUP6 SUB SLT ISZERO PUSH2 0x318A JUMPI PUSH2 0x3189 PUSH2 0x2AFD JUMP JUMPDEST JUMPDEST PUSH0 PUSH2 0x3197 DUP6 DUP3 DUP7 ADD PUSH2 0x2C67 JUMP JUMPDEST SWAP3 POP POP PUSH1 0x20 PUSH2 0x31A8 DUP6 DUP3 DUP7 ADD PUSH2 0x2C67 JUMP JUMPDEST SWAP2 POP POP SWAP3 POP SWAP3 SWAP1 POP JUMP JUMPDEST PUSH0 PUSH1 0xA0 DUP3 ADD SWAP1 POP PUSH2 0x31C5 PUSH0 DUP4 ADD DUP9 PUSH2 0x2B90 JUMP JUMPDEST PUSH2 0x31D2 PUSH1 0x20 DUP4 ADD DUP8 PUSH2 0x2D66 JUMP JUMPDEST PUSH2 0x31DF PUSH1 0x40 DUP4 ADD DUP7 PUSH2 0x2D66 JUMP JUMPDEST PUSH2 0x31EC PUSH1 0x60 DUP4 ADD DUP6 PUSH2 0x2D66 JUMP JUMPDEST PUSH2 0x31F9 PUSH1 0x80 DUP4 ADD DUP5 PUSH2 0x2D66 JUMP JUMPDEST SWAP7 SWAP6 POP POP POP POP POP POP JUMP JUMPDEST PUSH2 0x320C DUP2 PUSH2 0x2B85 JUMP JUMPDEST DUP2 EQ PUSH2 0x3216 JUMPI PUSH0 PUSH0 REVERT JUMPDEST POP JUMP JUMPDEST PUSH0 DUP2 CALLDATALOAD SWAP1 POP PUSH2 0x3227 DUP2 PUSH2 0x3203 JUMP JUMPDEST SWAP3 SWAP2 POP POP JUMP JUMPDEST PUSH0 PUSH0 PUSH1 0x40 DUP4 DUP6 SUB SLT ISZERO PUSH2 0x3243 JUMPI PUSH2 0x3242 PUSH2 0x2AFD JUMP JUMPDEST JUMPDEST PUSH0 PUSH2 0x3250 DUP6 DUP3 DUP7 ADD PUSH2 0x2D14 JUMP JUMPDEST SWAP3 POP POP PUSH1 0x20 PUSH2 0x3261 DUP6 DUP3 DUP7 ADD PUSH2 0x3219 JUMP JUMPDEST SWAP2 POP POP SWAP3 POP SWAP3 SWAP1 POP JUMP JUMPDEST PUSH0 PUSH8 0xFFFFFFFFFFFFFFFF DUP3 GT ISZERO PUSH2 0x3285 JUMPI PUSH2 0x3284 PUSH2 0x2DE2 JUMP JUMPDEST JUMPDEST PUSH2 0x328E DUP3 PUSH2 0x2BE0 JUMP JUMPDEST SWAP1 POP PUSH1 0x20 DUP2 ADD SWAP1 POP SWAP2 SWAP1 POP JUMP JUMPDEST PUSH0 PUSH2 0x32AD PUSH2 0x32A8 DUP5 PUSH2 0x326B JUMP JUMPDEST PUSH2 0x2E40 JUMP JUMPDEST SWAP1 POP DUP3 DUP2 MSTORE PUSH1 0x20 DUP2 ADD DUP5 DUP5 DUP5 ADD GT ISZERO PUSH2 0x32C9 JUMPI PUSH2 0x32C8 PUSH2 0x2FAB JUMP JUMPDEST JUMPDEST PUSH2 0x32D4 DUP5 DUP3 DUP6 PUSH2 0x2FDF JUMP JUMPDEST POP SWAP4 SWAP3 POP POP POP JUMP JUMPDEST PUSH0 DUP3 PUSH1 0x1F DUP4 ADD SLT PUSH2 0x32F0 JUMPI PUSH2 0x32EF PUSH2 0x2DDE JUMP JUMPDEST JUMPDEST DUP2 CALLDATALOAD PUSH2 0x3300 DUP5 DUP3 PUSH1 0x20 DUP7 ADD PUSH2 0x329B JUMP JUMPDEST SWAP2 POP POP SWAP3 SWAP2 POP POP JUMP JUMPDEST PUSH0 PUSH0 PUSH0 PUSH0 PUSH1 0x80 DUP6 DUP8 SUB SLT ISZERO PUSH2 0x3321 JUMPI PUSH2 0x3320 PUSH2 0x2AFD JUMP JUMPDEST JUMPDEST PUSH0 PUSH2 0x332E DUP8 DUP3 DUP9 ADD PUSH2 0x2D14 JUMP JUMPDEST SWAP5 POP POP PUSH1 0x20 PUSH2 0x333F DUP8 DUP3 DUP9 ADD PUSH2 0x2D14 JUMP JUMPDEST SWAP4 POP POP PUSH1 0x40 PUSH2 0x3350 DUP8 DUP3 DUP9 ADD PUSH2 0x2C67 JUMP JUMPDEST SWAP3 POP POP PUSH1 0x60 DUP6 ADD CALLDATALOAD PUSH8 0xFFFFFFFFFFFFFFFF DUP2 GT ISZERO PUSH2 0x3371 JUMPI PUSH2 0x3370 PUSH2 0x2B01 JUMP JUMPDEST JUMPDEST PUSH2 0x337D DUP8 DUP3 DUP9 ADD PUSH2 0x32DC JUMP JUMPDEST SWAP2 POP POP SWAP3 SWAP6 SWAP2 SWAP5 POP SWAP3 POP JUMP JUMPDEST PUSH0 PUSH0 PUSH1 0x40 DUP4 DUP6 SUB SLT ISZERO PUSH2 0x339F JUMPI PUSH2 0x339E PUSH2 0x2AFD JUMP JUMPDEST JUMPDEST PUSH0 DUP4 ADD CALLDATALOAD PUSH8 0xFFFFFFFFFFFFFFFF DUP2 GT ISZERO PUSH2 0x33BC JUMPI PUSH2 0x33BB PUSH2 0x2B01 JUMP JUMPDEST JUMPDEST PUSH2 0x33C8 DUP6 DUP3 DUP7 ADD PUSH2 0x2F24 JUMP JUMPDEST SWAP3 POP POP PUSH1 0x20 PUSH2 0x33D9 DUP6 DUP3 DUP7 ADD PUSH2 0x2EA8 JUMP JUMPDEST SWAP2 POP POP SWAP3 POP SWAP3 SWAP1 POP JUMP JUMPDEST PUSH0 PUSH1 0x20 DUP3 DUP5 SUB SLT ISZERO PUSH2 0x33F8 JUMPI PUSH2 0x33F7 PUSH2 0x2AFD JUMP JUMPDEST JUMPDEST PUSH0 PUSH2 0x3405 DUP5 DUP3 DUP6 ADD PUSH2 0x2EA8 JUMP JUMPDEST SWAP2 POP POP SWAP3 SWAP2 POP POP JUMP JUMPDEST PUSH0 PUSH0 PUSH1 0x40 DUP4 DUP6 SUB SLT ISZERO PUSH2 0x3424 JUMPI PUSH2 0x3423 PUSH2 0x2AFD JUMP JUMPDEST JUMPDEST PUSH0 PUSH2 0x3431 DUP6 DUP3 DUP7 ADD PUSH2 0x2D14 JUMP JUMPDEST SWAP3 POP POP PUSH1 0x20 PUSH2 0x3442 DUP6 DUP3 DUP7 ADD PUSH2 0x2D14 JUMP JUMPDEST SWAP2 POP POP SWAP3 POP SWAP3 SWAP1 POP JUMP JUMPDEST PUSH32 0x4E487B7100000000000000000000000000000000000000000000000000000000 PUSH0 MSTORE PUSH1 0x22 PUSH1 0x4 MSTORE PUSH1 0x24 PUSH0 REVERT JUMPDEST PUSH0 PUSH1 0x2 DUP3 DIV SWAP1 POP PUSH1 0x1 DUP3 AND DUP1 PUSH2 0x3490 JUMPI PUSH1 0x7F DUP3 AND SWAP2 POP JUMPDEST PUSH1 0x20 DUP3 LT DUP2 SUB PUSH2 0x34A3 JUMPI PUSH2 0x34A2 PUSH2 0x344C JUMP JUMPDEST JUMPDEST POP SWAP2 SWAP1 POP JUMP JUMPDEST PUSH32 0x4552433732313A20617070726F76656420717565727920666F72206E6F6E6578 PUSH0 DUP3 ADD MSTORE PUSH32 0x697374656E7420746F6B656E0000000000000000000000000000000000000000 PUSH1 0x20 DUP3 ADD MSTORE POP JUMP JUMPDEST PUSH0 PUSH2 0x3503 PUSH1 0x2C DUP4 PUSH2 0x2BC2 JUMP JUMPDEST SWAP2 POP PUSH2 0x350E DUP3 PUSH2 0x34A9 JUMP JUMPDEST PUSH1 0x40 DUP3 ADD SWAP1 POP SWAP2 SWAP1 POP JUMP JUMPDEST PUSH0 PUSH1 0x20 DUP3 ADD SWAP1 POP DUP2 DUP2 SUB PUSH0 DUP4 ADD MSTORE PUSH2 0x3530 DUP2 PUSH2 0x34F7 JUMP JUMPDEST SWAP1 POP SWAP2 SWAP1 POP JUMP JUMPDEST PUSH32 0x4552433732313A20617070726F76616C20746F2063757272656E74206F776E65 PUSH0 DUP3 ADD MSTORE PUSH32 0x7200000000000000000000000000000000000000000000000000000000000000 PUSH1 0x20 DUP3 ADD MSTORE POP JUMP JUMPDEST PUSH0 PUSH2 0x3591 PUSH1 0x21 DUP4 PUSH2 0x2BC2 JUMP JUMPDEST SWAP2 POP PUSH2 0x359C DUP3 PUSH2 0x3537 JUMP JUMPDEST PUSH1 0x40 DUP3 ADD SWAP1 POP SWAP2 SWAP1 POP JUMP JUMPDEST PUSH0 PUSH1 0x20 DUP3 ADD SWAP1 POP DUP2 DUP2 SUB PUSH0 DUP4 ADD MSTORE PUSH2 0x35BE DUP2 PUSH2 0x3585 JUMP JUMPDEST SWAP1 POP SWAP2 SWAP1 POP JUMP JUMPDEST PUSH32 0x4552433732313A20617070726F76652063616C6C6572206973206E6F74206F77 PUSH0 DUP3 ADD MSTORE PUSH32 0x6E6572206E6F7220617070726F76656420666F7220616C6C0000000000000000 PUSH1 0x20 DUP3 ADD MSTORE POP JUMP JUMPDEST PUSH0 PUSH2 0x361F PUSH1 0x38 DUP4 PUSH2 0x2BC2 JUMP JUMPDEST SWAP2 POP PUSH2 0x362A DUP3 PUSH2 0x35C5 JUMP JUMPDEST PUSH1 0x40 DUP3 ADD SWAP1 POP SWAP2 SWAP1 POP JUMP JUMPDEST PUSH0 PUSH1 0x20 DUP3 ADD SWAP1 POP DUP2 DUP2 SUB PUSH0 DUP4 ADD MSTORE PUSH2 0x364C DUP2 PUSH2 0x3613 JUMP JUMPDEST SWAP1 POP SWAP2 SWAP1 POP JUMP JUMPDEST PUSH32 0x4552433732313A207472616E736665722063616C6C6572206973206E6F74206F PUSH0 DUP3 ADD MSTORE PUSH32 0x776E6572206E6F7220617070726F766564000000000000000000000000000000 PUSH1 0x20 DUP3 ADD MSTORE POP JUMP JUMPDEST PUSH0 PUSH2 0x36AD PUSH1 0x31 DUP4 PUSH2 0x2BC2 JUMP JUMPDEST SWAP2 POP PUSH2 0x36B8 DUP3 PUSH2 0x3653 JUMP JUMPDEST PUSH1 0x40 DUP3 ADD SWAP1 POP SWAP2 SWAP1 POP JUMP JUMPDEST PUSH0 PUSH1 0x20 DUP3 ADD SWAP1 POP DUP2 DUP2 SUB PUSH0 DUP4 ADD MSTORE PUSH2 0x36DA DUP2 PUSH2 0x36A1 JUMP JUMPDEST SWAP1 POP SWAP2 SWAP1 POP JUMP JUMPDEST PUSH32 0x57686974656C6973742073616C652069732064697361626C6564000000000000 PUSH0 DUP3 ADD MSTORE POP JUMP JUMPDEST PUSH0 PUSH2 0x3715 PUSH1 0x1A DUP4 PUSH2 0x2BC2 JUMP JUMPDEST SWAP2 POP PUSH2 0x3720 DUP3 PUSH2 0x36E1 JUMP JUMPDEST PUSH1 0x20 DUP3 ADD SWAP1 POP SWAP2 SWAP1 POP JUMP JUMPDEST PUSH0 PUSH1 0x20 DUP3 ADD SWAP1 POP DUP2 DUP2 SUB PUSH0 DUP4 ADD MSTORE PUSH2 0x3742 DUP2 PUSH2 0x3709 JUMP JUMPDEST SWAP1 POP SWAP2 SWAP1 POP JUMP JUMPDEST PUSH32 0x57686974656C6973742073616C65206E6F742061637469766500000000000000 PUSH0 DUP3 ADD MSTORE POP JUMP JUMPDEST PUSH0 PUSH2 0x377D PUSH1 0x19 DUP4 PUSH2 0x2BC2 JUMP JUMPDEST SWAP2 POP PUSH2 0x3788 DUP3 PUSH2 0x3749 JUMP JUMPDEST PUSH1 0x20 DUP3 ADD SWAP1 POP SWAP2 SWAP1 POP JUMP JUMPDEST PUSH0 PUSH1 0x20 DUP3 ADD SWAP1 POP DUP2 DUP2 SUB PUSH0 DUP4 ADD MSTORE PUSH2 0x37AA DUP2 PUSH2 0x3771 JUMP JUMPDEST SWAP1 POP SWAP2 SWAP1 POP JUMP JUMPDEST PUSH0 DUP2 PUSH1 0x60 SHL SWAP1 POP SWAP2 SWAP1 POP JUMP JUMPDEST PUSH0 PUSH2 0x37C7 DUP3 PUSH2 0x37B1 JUMP JUMPDEST SWAP1 POP SWAP2 SWAP1 POP JUMP JUMPDEST PUSH0 PUSH2 0x37D8 DUP3 PUSH2 0x37BD JUMP JUMPDEST SWAP1 POP SWAP2 SWAP1 POP JUMP JUMPDEST PUSH2 0x37F0 PUSH2 0x37EB DUP3 PUSH2 0x2CC5 JUMP JUMPDEST PUSH2 0x37CE JUMP JUMPDEST DUP3 MSTORE POP POP JUMP JUMPDEST PUSH0 PUSH2 0x3801 DUP3 DUP5 PUSH2 0x37DF JUMP JUMPDEST PUSH1 0x14 DUP3 ADD SWAP2 POP DUP2 SWAP1 POP SWAP3 SWAP2 POP POP JUMP JUMPDEST PUSH32 0x4E6F742077686974656C69737465640000000000000000000000000000000000 PUSH0 DUP3 ADD MSTORE POP JUMP JUMPDEST PUSH0 PUSH2 0x3844 PUSH1 0xF DUP4 PUSH2 0x2BC2 JUMP JUMPDEST SWAP2 POP PUSH2 0x384F DUP3 PUSH2 0x3810 JUMP JUMPDEST PUSH1 0x20 DUP3 ADD SWAP1 POP SWAP2 SWAP1 POP JUMP JUMPDEST PUSH0 PUSH1 0x20 DUP3 ADD SWAP1 POP DUP2 DUP2 SUB PUSH0 DUP4 ADD MSTORE PUSH2 0x3871 DUP2 PUSH2 0x3838 JUMP JUMPDEST SWAP1 POP SWAP2 SWAP1 POP JUMP JUMPDEST PUSH32 0x5075626C6963206D696E74696E67206973206E6F7420616C6C6F776564206265 PUSH0 DUP3 ADD MSTORE PUSH32 0x666F72652077686974656C69737420656E647300000000000000000000000000 PUSH1 0x20 DUP3 ADD MSTORE POP JUMP JUMPDEST PUSH0 PUSH2 0x38D2 PUSH1 0x33 DUP4 PUSH2 0x2BC2 JUMP JUMPDEST SWAP2 POP PUSH2 0x38DD DUP3 PUSH2 0x3878 JUMP JUMPDEST PUSH1 0x40 DUP3 ADD SWAP1 POP SWAP2 SWAP1 POP JUMP JUMPDEST PUSH0 PUSH1 0x20 DUP3 ADD SWAP1 POP DUP2 DUP2 SUB PUSH0 DUP4 ADD MSTORE PUSH2 0x38FF DUP2 PUSH2 0x38C6 JUMP JUMPDEST SWAP1 POP SWAP2 SWAP1 POP JUMP JUMPDEST PUSH32 0x5075626C69632073616C652069732064697361626C6564000000000000000000 PUSH0 DUP3 ADD MSTORE POP JUMP JUMPDEST PUSH0 PUSH2 0x393A PUSH1 0x17 DUP4 PUSH2 0x2BC2 JUMP JUMPDEST SWAP2 POP PUSH2 0x3945 DUP3 PUSH2 0x3906 JUMP JUMPDEST PUSH1 0x20 DUP3 ADD SWAP1 POP SWAP2 SWAP1 POP JUMP JUMPDEST PUSH0 PUSH1 0x20 DUP3 ADD SWAP1 POP DUP2 DUP2 SUB PUSH0 DUP4 ADD MSTORE PUSH2 0x3967 DUP2 PUSH2 0x392E JUMP JUMPDEST SWAP1 POP SWAP2 SWAP1 POP JUMP JUMPDEST PUSH32 0x5075626C69632073616C65206E6F742061637469766500000000000000000000 PUSH0 DUP3 ADD MSTORE POP JUMP JUMPDEST PUSH0 PUSH2 0x39A2 PUSH1 0x16 DUP4 PUSH2 0x2BC2 JUMP JUMPDEST SWAP2 POP PUSH2 0x39AD DUP3 PUSH2 0x396E JUMP JUMPDEST PUSH1 0x20 DUP3 ADD SWAP1 POP SWAP2 SWAP1 POP JUMP JUMPDEST PUSH0 PUSH1 0x20 DUP3 ADD SWAP1 POP DUP2 DUP2 SUB PUSH0 DUP4 ADD MSTORE PUSH2 0x39CF DUP2 PUSH2 0x3996 JUMP JUMPDEST SWAP1 POP SWAP2 SWAP1 POP JUMP JUMPDEST PUSH32 0x4F776E61626C653A2063616C6C6572206973206E6F7420746865206F776E6572 PUSH0 DUP3 ADD MSTORE POP JUMP JUMPDEST PUSH0 PUSH2 0x3A0A PUSH1 0x20 DUP4 PUSH2 0x2BC2 JUMP JUMPDEST SWAP2 POP PUSH2 0x3A15 DUP3 PUSH2 0x39D6 JUMP JUMPDEST PUSH1 0x20 DUP3 ADD SWAP1 POP SWAP2 SWAP1 POP JUMP JUMPDEST PUSH0 PUSH1 0x20 DUP3 ADD SWAP1 POP DUP2 DUP2 SUB PUSH0 DUP4 ADD MSTORE PUSH2 0x3A37 DUP2 PUSH2 0x39FE JUMP JUMPDEST SWAP1 POP SWAP2 SWAP1 POP JUMP JUMPDEST PUSH0 DUP2 SWAP1 POP DUP2 PUSH0 MSTORE PUSH1 0x20 PUSH0 KECCAK256 SWAP1 POP SWAP2 SWAP1 POP JUMP JUMPDEST PUSH0 PUSH1 0x20 PUSH1 0x1F DUP4 ADD DIV SWAP1 POP SWAP2 SWAP1 POP JUMP JUMPDEST PUSH0 DUP3 DUP3 SHL SWAP1 POP SWAP3 SWAP2 POP POP JUMP JUMPDEST PUSH0 PUSH1 0x8 DUP4 MUL PUSH2 0x3A9A PUSH32 0xFFFFFFFFFFFFFFFFFFFFFFFFFFFFFFFFFFFFFFFFFFFFFFFFFFFFFFFFFFFFFFFF DUP3 PUSH2 0x3A5F JUMP JUMPDEST PUSH2 0x3AA4 DUP7 DUP4 PUSH2 0x3A5F JUMP JUMPDEST SWAP6 POP DUP1 NOT DUP5 AND SWAP4 POP DUP1 DUP7 AND DUP5 OR SWAP3 POP POP POP SWAP4 SWAP3 POP POP POP JUMP JUMPDEST PUSH0 DUP2 SWAP1 POP SWAP2 SWAP1 POP JUMP JUMPDEST PUSH0 PUSH2 0x3ADF PUSH2 0x3ADA PUSH2 0x3AD5 DUP5 PUSH2 0x2C48 JUMP JUMPDEST PUSH2 0x3ABC JUMP JUMPDEST PUSH2 0x2C48 JUMP JUMPDEST SWAP1 POP SWAP2 SWAP1 POP JUMP JUMPDEST PUSH0 DUP2 SWAP1 POP SWAP2 SWAP1 POP JUMP JUMPDEST PUSH2 0x3AF8 DUP4 PUSH2 0x3AC5 JUMP JUMPDEST PUSH2 0x3B0C PUSH2 0x3B04 DUP3 PUSH2 0x3AE6 JUMP JUMPDEST DUP5 DUP5 SLOAD PUSH2 0x3A6B JUMP JUMPDEST DUP3 SSTORE POP POP POP POP JUMP JUMPDEST PUSH0 PUSH0 SWAP1 POP SWAP1 JUMP JUMPDEST PUSH2 0x3B23 PUSH2 0x3B14 JUMP JUMPDEST PUSH2 0x3B2E DUP2 DUP5 DUP5 PUSH2 0x3AEF JUMP JUMPDEST POP POP POP JUMP JUMPDEST JUMPDEST DUP2 DUP2 LT ISZERO PUSH2 0x3B51 JUMPI PUSH2 0x3B46 PUSH0 DUP3 PUSH2 0x3B1B JUMP JUMPDEST PUSH1 0x1 DUP2 ADD SWAP1 POP PUSH2 0x3B34 JUMP JUMPDEST POP POP JUMP JUMPDEST PUSH1 0x1F DUP3 GT ISZERO PUSH2 0x3B96 JUMPI PUSH2 0x3B67 DUP2 PUSH2 0x3A3E JUMP JUMPDEST PUSH2 0x3B70 DUP5 PUSH2 0x3A50 JUMP JUMPDEST DUP2 ADD PUSH1 0x20 DUP6 LT ISZERO PUSH2 0x3B7F JUMPI DUP2 SWAP1 POP JUMPDEST PUSH2 0x3B93 PUSH2 0x3B8B DUP6 PUSH2 0x3A50 JUMP JUMPDEST DUP4 ADD DUP3 PUSH2 0x3B33 JUMP JUMPDEST POP POP JUMPDEST POP POP POP JUMP JUMPDEST PUSH0 DUP3 DUP3 SHR SWAP1 POP SWAP3 SWAP2 POP POP JUMP JUMPDEST PUSH0 PUSH2 0x3BB6 PUSH0 NOT DUP5 PUSH1 0x8 MUL PUSH2 0x3B9B JUMP JUMPDEST NOT DUP1 DUP4 AND SWAP2 POP POP SWAP3 SWAP2 POP POP JUMP JUMPDEST PUSH0 PUSH2 0x3BCE DUP4 DUP4 PUSH2 0x3BA7 JUMP JUMPDEST SWAP2 POP DUP3 PUSH1 0x2 MUL DUP3 OR SWAP1 POP SWAP3 SWAP2 POP POP JUMP JUMPDEST PUSH2 0x3BE7 DUP3 PUSH2 0x2BB8 JUMP JUMPDEST PUSH8 0xFFFFFFFFFFFFFFFF DUP2 GT ISZERO PUSH2 0x3C00 JUMPI PUSH2 0x3BFF PUSH2 0x2DE2 JUMP JUMPDEST JUMPDEST PUSH2 0x3C0A DUP3 SLOAD PUSH2 0x3479 JUMP JUMPDEST PUSH2 0x3C15 DUP3 DUP3 DUP6 PUSH2 0x3B55 JUMP JUMPDEST PUSH0 PUSH1 0x20 SWAP1 POP PUSH1 0x1F DUP4 GT PUSH1 0x1 DUP2 EQ PUSH2 0x3C46 JUMPI PUSH0 DUP5 ISZERO PUSH2 0x3C34 JUMPI DUP3 DUP8 ADD MLOAD SWAP1 POP JUMPDEST PUSH2 0x3C3E DUP6 DUP3 PUSH2 0x3BC3 JUMP JUMPDEST DUP7 SSTORE POP PUSH2 0x3CA5 JUMP JUMPDEST PUSH1 0x1F NOT DUP5 AND PUSH2 0x3C54 DUP7 PUSH2 0x3A3E JUMP JUMPDEST PUSH0 JUMPDEST DUP3 DUP2 LT ISZERO PUSH2 0x3C7B JUMPI DUP5 DUP10 ADD MLOAD DUP3 SSTORE PUSH1 0x1 DUP3 ADD SWAP2 POP PUSH1 0x20 DUP6 ADD SWAP5 POP PUSH1 0x20 DUP2 ADD SWAP1 POP PUSH2 0x3C56 JUMP JUMPDEST DUP7 DUP4 LT ISZERO PUSH2 0x3C98 JUMPI DUP5 DUP10 ADD MLOAD PUSH2 0x3C94 PUSH1 0x1F DUP10 AND DUP3 PUSH2 0x3BA7 JUMP JUMPDEST DUP4 SSTORE POP JUMPDEST PUSH1 0x1 PUSH1 0x2 DUP9 MUL ADD DUP9 SSTORE POP POP POP JUMPDEST POP POP POP POP POP POP JUMP JUMPDEST PUSH0 PUSH1 0x40 DUP3 ADD SWAP1 POP PUSH2 0x3CC0 PUSH0 DUP4 ADD DUP6 PUSH2 0x2B90 JUMP JUMPDEST PUSH2 0x3CCD PUSH1 0x20 DUP4 ADD DUP5 PUSH2 0x2B90 JUMP JUMPDEST SWAP4 SWAP3 POP POP POP JUMP JUMPDEST PUSH32 0x4552433732313A206F776E657220717565727920666F72206E6F6E6578697374 PUSH0 DUP3 ADD MSTORE PUSH32 0x656E7420746F6B656E0000000000000000000000000000000000000000000000 PUSH1 0x20 DUP3 ADD MSTORE POP JUMP JUMPDEST PUSH0 PUSH2 0x3D2E PUSH1 0x29 DUP4 PUSH2 0x2BC2 JUMP JUMPDEST SWAP2 POP PUSH2 0x3D39 DUP3 PUSH2 0x3CD4 JUMP JUMPDEST PUSH1 0x40 DUP3 ADD SWAP1 POP SWAP2 SWAP1 POP JUMP JUMPDEST PUSH0 PUSH1 0x20 DUP3 ADD SWAP1 POP DUP2 DUP2 SUB PUSH0 DUP4 ADD MSTORE PUSH2 0x3D5B DUP2 PUSH2 0x3D22 JUMP JUMPDEST SWAP1 POP SWAP2 SWAP1 POP JUMP JUMPDEST PUSH32 0x4552433732313A2062616C616E636520717565727920666F7220746865207A65 PUSH0 DUP3 ADD MSTORE PUSH32 0x726F206164647265737300000000000000000000000000000000000000000000 PUSH1 0x20 DUP3 ADD MSTORE POP JUMP JUMPDEST PUSH0 PUSH2 0x3DBC PUSH1 0x2A DUP4 PUSH2 0x2BC2 JUMP JUMPDEST SWAP2 POP PUSH2 0x3DC7 DUP3 PUSH2 0x3D62 JUMP JUMPDEST PUSH1 0x40 DUP3 ADD SWAP1 POP SWAP2 SWAP1 POP JUMP JUMPDEST PUSH0 PUSH1 0x20 DUP3 ADD SWAP1 POP DUP2 DUP2 SUB PUSH0 DUP4 ADD MSTORE PUSH2 0x3DE9 DUP2 PUSH2 0x3DB0 JUMP JUMPDEST SWAP1 POP SWAP2 SWAP1 POP JUMP JUMPDEST PUSH0 PUSH1 0x40 DUP3 ADD SWAP1 POP PUSH2 0x3E03 PUSH0 DUP4 ADD DUP6 PUSH2 0x2D66 JUMP JUMPDEST PUSH2 0x3E10 PUSH1 0x20 DUP4 ADD DUP5 PUSH2 0x2D66 JUMP JUMPDEST SWAP4 SWAP3 POP POP POP JUMP JUMPDEST PUSH32 0x4E6F2066756E647320617661696C61626C650000000000000000000000000000 PUSH0 DUP3 ADD MSTORE POP JUMP JUMPDEST PUSH0 PUSH2 0x3E4B PUSH1 0x12 DUP4 PUSH2 0x2BC2 JUMP JUMPDEST SWAP2 POP PUSH2 0x3E56 DUP3 PUSH2 0x3E17 JUMP JUMPDEST PUSH1 0x20 DUP3 ADD SWAP1 POP SWAP2 SWAP1 POP JUMP JUMPDEST PUSH0 PUSH1 0x20 DUP3 ADD SWAP1 POP DUP2 DUP2 SUB PUSH0 DUP4 ADD MSTORE PUSH2 0x3E78 DUP2 PUSH2 0x3E3F JUMP JUMPDEST SWAP1 POP SWAP2 SWAP1 POP JUMP JUMPDEST PUSH32 0x4552433732314D657461646174613A2055524920717565727920666F72206E6F PUSH0 DUP3 ADD MSTORE PUSH32 0x6E6578697374656E7420746F6B656E0000000000000000000000000000000000 PUSH1 0x20 DUP3 ADD MSTORE POP JUMP JUMPDEST PUSH0 PUSH2 0x3ED9 PUSH1 0x2F DUP4 PUSH2 0x2BC2 JUMP JUMPDEST SWAP2 POP PUSH2 0x3EE4 DUP3 PUSH2 0x3E7F JUMP JUMPDEST PUSH1 0x40 DUP3 ADD SWAP1 POP SWAP2 SWAP1 POP JUMP JUMPDEST PUSH0 PUSH1 0x20 DUP3 ADD SWAP1 POP DUP2 DUP2 SUB PUSH0 DUP4 ADD MSTORE PUSH2 0x3F06 DUP2 PUSH2 0x3ECD JUMP JUMPDEST SWAP1 POP SWAP2 SWAP1 POP JUMP JUMPDEST PUSH0 DUP2 SWAP1 POP SWAP3 SWAP2 POP POP JUMP JUMPDEST PUSH0 DUP2 SLOAD PUSH2 0x3F23 DUP2 PUSH2 0x3479 JUMP JUMPDEST PUSH2 0x3F2D DUP2 DUP7 PUSH2 0x3F0D JUMP JUMPDEST SWAP5 POP PUSH1 0x1 DUP3 AND PUSH0 DUP2 EQ PUSH2 0x3F47 JUMPI PUSH1 0x1 DUP2 EQ PUSH2 0x3F5C JUMPI PUSH2 0x3F8E JUMP JUMPDEST PUSH1 0xFF NOT DUP4 AND DUP7 MSTORE DUP2 ISZERO ISZERO DUP3 MUL DUP7 ADD SWAP4 POP PUSH2 0x3F8E JUMP JUMPDEST PUSH2 0x3F65 DUP6 PUSH2 0x3A3E JUMP JUMPDEST PUSH0 JUMPDEST DUP4 DUP2 LT ISZERO PUSH2 0x3F86 JUMPI DUP2 SLOAD DUP2 DUP10 ADD MSTORE PUSH1 0x1 DUP3 ADD SWAP2 POP PUSH1 0x20 DUP2 ADD SWAP1 POP PUSH2 0x3F67 JUMP JUMPDEST DUP4 DUP9 ADD SWAP6 POP POP POP JUMPDEST POP POP POP SWAP3 SWAP2 POP POP JUMP JUMPDEST PUSH0 PUSH2 0x3FA1 DUP3 PUSH2 0x2BB8 JUMP JUMPDEST PUSH2 0x3FAB DUP2 DUP6 PUSH2 0x3F0D JUMP JUMPDEST SWAP4 POP PUSH2 0x3FBB DUP2 DUP6 PUSH1 0x20 DUP7 ADD PUSH2 0x2BD2 JUMP JUMPDEST DUP1 DUP5 ADD SWAP2 POP POP SWAP3 SWAP2 POP POP JUMP JUMPDEST PUSH0 PUSH2 0x3FD2 DUP3 DUP6 PUSH2 0x3F17 JUMP JUMPDEST SWAP2 POP PUSH2 0x3FDE DUP3 DUP5 PUSH2 0x3F97 JUMP JUMPDEST SWAP2 POP DUP2 SWAP1 POP SWAP4 SWAP3 POP POP POP JUMP JUMPDEST PUSH2 0x3FF3 DUP2 PUSH2 0x2E89 JUMP JUMPDEST DUP3 MSTORE POP POP JUMP JUMPDEST PUSH0 PUSH1 0x20 DUP3 ADD SWAP1 POP PUSH2 0x400C PUSH0 DUP4 ADD DUP5 PUSH2 0x3FEA JUMP JUMPDEST SWAP3 SWAP2 POP POP JUMP JUMPDEST PUSH32 0x4F776E61626C653A206E6577206F776E657220697320746865207A65726F2061 PUSH0 DUP3 ADD MSTORE PUSH32 0x6464726573730000000000000000000000000000000000000000000000000000 PUSH1 0x20 DUP3 ADD MSTORE POP JUMP JUMPDEST PUSH0 PUSH2 0x406C PUSH1 0x26 DUP4 PUSH2 0x2BC2 JUMP JUMPDEST SWAP2 POP PUSH2 0x4077 DUP3 PUSH2 0x4012 JUMP JUMPDEST PUSH1 0x40 DUP3 ADD SWAP1 POP SWAP2 SWAP1 POP JUMP JUMPDEST PUSH0 PUSH1 0x20 DUP3 ADD SWAP1 POP DUP2 DUP2 SUB PUSH0 DUP4 ADD MSTORE PUSH2 0x4099 DUP2 PUSH2 0x4060 JUMP JUMPDEST SWAP1 POP SWAP2 SWAP1 POP JUMP JUMPDEST PUSH32 0x4552433732313A206F70657261746F7220717565727920666F72206E6F6E6578 PUSH0 DUP3 ADD MSTORE PUSH32 0x697374656E7420746F6B656E0000000000000000000000000000000000000000 PUSH1 0x20 DUP3 ADD MSTORE POP JUMP JUMPDEST PUSH0 PUSH2 0x40FA PUSH1 0x2C DUP4 PUSH2 0x2BC2 JUMP JUMPDEST SWAP2 POP PUSH2 0x4105 DUP3 PUSH2 0x40A0 JUMP JUMPDEST PUSH1 0x40 DUP3 ADD SWAP1 POP SWAP2 SWAP1 POP JUMP JUMPDEST PUSH0 PUSH1 0x20 DUP3 ADD SWAP1 POP DUP2 DUP2 SUB PUSH0 DUP4 ADD MSTORE PUSH2 0x4127 DUP2 PUSH2 0x40EE JUMP JUMPDEST SWAP1 POP SWAP2 SWAP1 POP JUMP JUMPDEST PUSH32 0x4552433732313A207472616E736665722066726F6D20696E636F727265637420 PUSH0 DUP3 ADD MSTORE PUSH32 0x6F776E6572000000000000000000000000000000000000000000000000000000 PUSH1 0x20 DUP3 ADD MSTORE POP JUMP JUMPDEST PUSH0 PUSH2 0x4188 PUSH1 0x25 DUP4 PUSH2 0x2BC2 JUMP JUMPDEST SWAP2 POP PUSH2 0x4193 DUP3 PUSH2 0x412E JUMP JUMPDEST PUSH1 0x40 DUP3 ADD SWAP1 POP SWAP2 SWAP1 POP JUMP JUMPDEST PUSH0 PUSH1 0x20 DUP3 ADD SWAP1 POP DUP2 DUP2 SUB PUSH0 DUP4 ADD MSTORE PUSH2 0x41B5 DUP2 PUSH2 0x417C JUMP JUMPDEST SWAP1 POP SWAP2 SWAP1 POP JUMP JUMPDEST PUSH32 0x4552433732313A207472616E7366657220746F20746865207A65726F20616464 PUSH0 DUP3 ADD MSTORE PUSH32 0x7265737300000000000000000000000000000000000000000000000000000000 PUSH1 0x20 DUP3 ADD MSTORE POP JUMP JUMPDEST PUSH0 PUSH2 0x4216 PUSH1 0x24 DUP4 PUSH2 0x2BC2 JUMP JUMPDEST SWAP2 POP PUSH2 0x4221 DUP3 PUSH2 0x41BC JUMP JUMPDEST PUSH1 0x40 DUP3 ADD SWAP1 POP SWAP2 SWAP1 POP JUMP JUMPDEST PUSH0 PUSH1 0x20 DUP3 ADD SWAP1 POP DUP2 DUP2 SUB PUSH0 DUP4 ADD MSTORE PUSH2 0x4243 DUP2 PUSH2 0x420A JUMP JUMPDEST SWAP1 POP SWAP2 SWAP1 POP JUMP JUMPDEST PUSH32 0x4E487B7100000000000000000000000000000000000000000000000000000000 PUSH0 MSTORE PUSH1 0x11 PUSH1 0x4 MSTORE PUSH1 0x24 PUSH0 REVERT JUMPDEST PUSH0 PUSH2 0x4281 DUP3 PUSH2 0x2C48 JUMP JUMPDEST SWAP2 POP PUSH2 0x428C DUP4 PUSH2 0x2C48 JUMP JUMPDEST SWAP3 POP DUP3 DUP3 SUB SWAP1 POP DUP2 DUP2 GT ISZERO PUSH2 0x42A4 JUMPI PUSH2 0x42A3 PUSH2 0x424A JUMP JUMPDEST JUMPDEST SWAP3 SWAP2 POP POP JUMP JUMPDEST PUSH0 PUSH2 0x42B4 DUP3 PUSH2 0x2C48 JUMP JUMPDEST SWAP2 POP PUSH2 0x42BF DUP4 PUSH2 0x2C48 JUMP JUMPDEST SWAP3 POP DUP3 DUP3 ADD SWAP1 POP DUP1 DUP3 GT ISZERO PUSH2 0x42D7 JUMPI PUSH2 0x42D6 PUSH2 0x424A JUMP JUMPDEST JUMPDEST SWAP3 SWAP2 POP POP JUMP JUMPDEST PUSH32 0x45786365656473206D6178206D696E7420706572207472616E73616374696F6E PUSH0 DUP3 ADD MSTORE POP JUMP JUMPDEST PUSH0 PUSH2 0x4311 PUSH1 0x20 DUP4 PUSH2 0x2BC2 JUMP JUMPDEST SWAP2 POP PUSH2 0x431C DUP3 PUSH2 0x42DD JUMP JUMPDEST PUSH1 0x20 DUP3 ADD SWAP1 POP SWAP2 SWAP1 POP JUMP JUMPDEST PUSH0 PUSH1 0x20 DUP3 ADD SWAP1 POP DUP2 DUP2 SUB PUSH0 DUP4 ADD MSTORE PUSH2 0x433E DUP2 PUSH2 0x4305 JUMP JUMPDEST SWAP1 POP SWAP2 SWAP1 POP JUMP JUMPDEST PUSH32 0x457863656564732077616C6C6574206D696E74206C696D697400000000000000 PUSH0 DUP3 ADD MSTORE POP JUMP JUMPDEST PUSH0 PUSH2 0x4379 PUSH1 0x19 DUP4 PUSH2 0x2BC2 JUMP JUMPDEST SWAP2 POP PUSH2 0x4384 DUP3 PUSH2 0x4345 JUMP JUMPDEST PUSH1 0x20 DUP3 ADD SWAP1 POP SWAP2 SWAP1 POP JUMP JUMPDEST PUSH0 PUSH1 0x20 DUP3 ADD SWAP1 POP DUP2 DUP2 SUB PUSH0 DUP4 ADD MSTORE PUSH2 0x43A6 DUP2 PUSH2 0x436D JUMP JUMPDEST SWAP1 POP SWAP2 SWAP1 POP JUMP JUMPDEST PUSH32 0x45786365656473206D617820737570706C790000000000000000000000000000 PUSH0 DUP3 ADD MSTORE POP JUMP JUMPDEST PUSH0 PUSH2 0x43E1 PUSH1 0x12 DUP4 PUSH2 0x2BC2 JUMP JUMPDEST SWAP2 POP PUSH2 0x43EC DUP3 PUSH2 0x43AD JUMP JUMPDEST PUSH1 0x20 DUP3 ADD SWAP1 POP SWAP2 SWAP1 POP JUMP JUMPDEST PUSH0 PUSH1 0x20 DUP3 ADD SWAP1 POP DUP2 DUP2 SUB PUSH0 DUP4 ADD MSTORE PUSH2 0x440E DUP2 PUSH2 0x43D5 JUMP JUMPDEST SWAP1 POP SWAP2 SWAP1 POP JUMP JUMPDEST PUSH0 PUSH2 0x441F DUP3 PUSH2 0x2C48 JUMP JUMPDEST SWAP2 POP PUSH2 0x442A DUP4 PUSH2 0x2C48 JUMP JUMPDEST SWAP3 POP DUP3 DUP3 MUL PUSH2 0x4438 DUP2 PUSH2 0x2C48 JUMP JUMPDEST SWAP2 POP DUP3 DUP3 DIV DUP5 EQ DUP4 ISZERO OR PUSH2 0x444F JUMPI PUSH2 0x444E PUSH2 0x424A JUMP JUMPDEST JUMPDEST POP SWAP3 SWAP2 POP POP JUMP JUMPDEST PUSH32 0x496E636F7272656374204554482076616C756500000000000000000000000000 PUSH0 DUP3 ADD MSTORE POP JUMP JUMPDEST PUSH0 PUSH2 0x448A PUSH1 0x13 DUP4 PUSH2 0x2BC2 JUMP JUMPDEST SWAP2 POP PUSH2 0x4495 DUP3 PUSH2 0x4456 JUMP JUMPDEST PUSH1 0x20 DUP3 ADD SWAP1 POP SWAP2 SWAP1 POP JUMP JUMPDEST PUSH0 PUSH1 0x20 DUP3 ADD SWAP1 POP DUP2 DUP2 SUB PUSH0 DUP4 ADD MSTORE PUSH2 0x44B7 DUP2 PUSH2 0x447E JUMP JUMPDEST SWAP1 POP SWAP2 SWAP1 POP JUMP JUMPDEST PUSH32 0x5265656E7472616E637947756172643A207265656E7472616E742063616C6C00 PUSH0 DUP3 ADD MSTORE POP JUMP JUMPDEST PUSH0 PUSH2 0x44F2 PUSH1 0x1F DUP4 PUSH2 0x2BC2 JUMP JUMPDEST SWAP2 POP PUSH2 0x44FD DUP3 PUSH2 0x44BE JUMP JUMPDEST PUSH1 0x20 DUP3 ADD SWAP1 POP SWAP2 SWAP1 POP JUMP JUMPDEST PUSH0 PUSH1 0x20 DUP3 ADD SWAP1 POP DUP2 DUP2 SUB PUSH0 DUP4 ADD MSTORE PUSH2 0x451F DUP2 PUSH2 0x44E6 JUMP JUMPDEST SWAP1 POP SWAP2 SWAP1 POP JUMP JUMPDEST PUSH32 0x4552433732313A20617070726F766520746F2063616C6C657200000000000000 PUSH0 DUP3 ADD MSTORE POP JUMP JUMPDEST PUSH0 PUSH2 0x455A PUSH1 0x19 DUP4 PUSH2 0x2BC2 JUMP JUMPDEST SWAP2 POP PUSH2 0x4565 DUP3 PUSH2 0x4526 JUMP JUMPDEST PUSH1 0x20 DUP3 ADD SWAP1 POP SWAP2 SWAP1 POP JUMP JUMPDEST PUSH0 PUSH1 0x20 DUP3 ADD SWAP1 POP DUP2 DUP2 SUB PUSH0 DUP4 ADD MSTORE PUSH2 0x4587 DUP2 PUSH2 0x454E JUMP JUMPDEST SWAP1 POP SWAP2 SWAP1 POP JUMP JUMPDEST PUSH32 0x4552433732313A207472616E7366657220746F206E6F6E204552433732315265 PUSH0 DUP3 ADD MSTORE PUSH32 0x63656976657220696D706C656D656E7465720000000000000000000000000000 PUSH1 0x20 DUP3 ADD MSTORE POP JUMP JUMPDEST PUSH0 PUSH2 0x45E8 PUSH1 0x32 DUP4 PUSH2 0x2BC2 JUMP JUMPDEST SWAP2 POP PUSH2 0x45F3 DUP3 PUSH2 0x458E JUMP JUMPDEST PUSH1 0x40 DUP3 ADD SWAP1 POP SWAP2 SWAP1 POP JUMP JUMPDEST PUSH0 PUSH1 0x20 DUP3 ADD SWAP1 POP DUP2 DUP2 SUB PUSH0 DUP4 ADD MSTORE PUSH2 0x4615 DUP2 PUSH2 0x45DC JUMP JUMPDEST SWAP1 POP SWAP2 SWAP1 POP JUMP JUMPDEST PUSH0 PUSH2 0x4626 DUP3 PUSH2 0x2C48 JUMP JUMPDEST SWAP2 POP PUSH32 0xFFFFFFFFFFFFFFFFFFFFFFFFFFFFFFFFFFFFFFFFFFFFFFFFFFFFFFFFFFFFFFFF DUP3 SUB PUSH2 0x4658 JUMPI PUSH2 0x4657 PUSH2 0x424A JUMP JUMPDEST JUMPDEST PUSH1 0x1 DUP3 ADD SWAP1 POP SWAP2 SWAP1 POP JUMP JUMPDEST PUSH32 0x4E487B7100000000000000000000000000000000000000000000000000000000 PUSH0 MSTORE PUSH1 0x12 PUSH1 0x4 MSTORE PUSH1 0x24 PUSH0 REVERT JUMPDEST PUSH0 PUSH2 0x469A DUP3 PUSH2 0x2C48 JUMP JUMPDEST SWAP2 POP PUSH2 0x46A5 DUP4 PUSH2 0x2C48 JUMP JUMPDEST SWAP3 POP DUP3 PUSH2 0x46B5 JUMPI PUSH2 0x46B4 PUSH2 0x4663 JUMP JUMPDEST JUMPDEST DUP3 DUP3 DIV SWAP1 POP SWAP3 SWAP2 POP POP JUMP JUMPDEST PUSH0 PUSH2 0x46CA DUP3 PUSH2 0x2C48 JUMP JUMPDEST SWAP2 POP PUSH2 0x46D5 DUP4 PUSH2 0x2C48 JUMP JUMPDEST SWAP3 POP DUP3 PUSH2 0x46E5 JUMPI PUSH2 0x46E4 PUSH2 0x4663 JUMP JUMPDEST JUMPDEST DUP3 DUP3 MOD SWAP1 POP SWAP3 SWAP2 POP POP JUMP JUMPDEST PUSH32 0x4E487B7100000000000000000000000000000000000000000000000000000000 PUSH0 MSTORE PUSH1 0x32 PUSH1 0x4 MSTORE PUSH1 0x24 PUSH0 REVERT JUMPDEST PUSH0 DUP2 MLOAD SWAP1 POP SWAP2 SWAP1 POP JUMP JUMPDEST PUSH0 DUP3 DUP3 MSTORE PUSH1 0x20 DUP3 ADD SWAP1 POP SWAP3 SWAP2 POP POP JUMP JUMPDEST PUSH0 PUSH2 0x4741 DUP3 PUSH2 0x471D JUMP JUMPDEST PUSH2 0x474B DUP2 DUP6 PUSH2 0x4727 JUMP JUMPDEST SWAP4 POP PUSH2 0x475B DUP2 DUP6 PUSH1 0x20 DUP7 ADD PUSH2 0x2BD2 JUMP JUMPDEST PUSH2 0x4764 DUP2 PUSH2 0x2BE0 JUMP JUMPDEST DUP5 ADD SWAP2 POP POP SWAP3 SWAP2 POP POP JUMP JUMPDEST PUSH0 PUSH1 0x80 DUP3 ADD SWAP1 POP PUSH2 0x4782 PUSH0 DUP4 ADD DUP8 PUSH2 0x2CD6 JUMP JUMPDEST PUSH2 0x478F PUSH1 0x20 DUP4 ADD DUP7 PUSH2 0x2CD6 JUMP JUMPDEST PUSH2 0x479C PUSH1 0x40 DUP4 ADD DUP6 PUSH2 0x2D66 JUMP JUMPDEST DUP2 DUP2 SUB PUSH1 0x60 DUP4 ADD MSTORE PUSH2 0x47AE DUP2 DUP5 PUSH2 0x4737 JUMP JUMPDEST SWAP1 POP SWAP6 SWAP5 POP POP POP POP POP JUMP JUMPDEST PUSH0 DUP2 MLOAD SWAP1 POP PUSH2 0x47C7 DUP2 PUSH2 0x2B30 JUMP JUMPDEST SWAP3 SWAP2 POP POP JUMP JUMPDEST PUSH0 PUSH1 0x20 DUP3 DUP5 SUB SLT ISZERO PUSH2 0x47E2 JUMPI PUSH2 0x47E1 PUSH2 0x2AFD JUMP JUMPDEST JUMPDEST PUSH0 PUSH2 0x47EF DUP5 DUP3 DUP6 ADD PUSH2 0x47B9 JUMP JUMPDEST SWAP2 POP POP SWAP3 SWAP2 POP POP JUMP JUMPDEST PUSH32 0x4552433732313A206D696E7420746F20746865207A65726F2061646472657373 PUSH0 DUP3 ADD MSTORE POP JUMP JUMPDEST PUSH0 PUSH2 0x482C PUSH1 0x20 DUP4 PUSH2 0x2BC2 JUMP JUMPDEST SWAP2 POP PUSH2 0x4837 DUP3 PUSH2 0x47F8 JUMP JUMPDEST PUSH1 0x20 DUP3 ADD SWAP1 POP SWAP2 SWAP1 POP JUMP JUMPDEST PUSH0 PUSH1 0x20 DUP3 ADD SWAP1 POP DUP2 DUP2 SUB PUSH0 DUP4 ADD MSTORE PUSH2 0x4859 DUP2 PUSH2 0x4820 JUMP JUMPDEST SWAP1 POP SWAP2 SWAP1 POP JUMP JUMPDEST PUSH32 0x4552433732313A20746F6B656E20616C7265616479206D696E74656400000000 PUSH0 DUP3 ADD MSTORE POP JUMP JUMPDEST PUSH0 PUSH2 0x4894 PUSH1 0x1C DUP4 PUSH2 0x2BC2 JUMP JUMPDEST SWAP2 POP PUSH2 0x489F DUP3 PUSH2 0x4860 JUMP JUMPDEST PUSH1 0x20 DUP3 ADD SWAP1 POP SWAP2 SWAP1 POP JUMP JUMPDEST PUSH0 PUSH1 0x20 DUP3 ADD SWAP1 POP DUP2 DUP2 SUB PUSH0 DUP4 ADD MSTORE PUSH2 0x48C1 DUP2 PUSH2 0x4888 JUMP JUMPDEST SWAP1 POP SWAP2 SWAP1 POP JUMP INVALID LOG2 PUSH5 0x6970667358 0x22 SLT KECCAK256 0xDC 0xCB 0xDF DUP2 SLOAD 0xF9 DUP14 SWAP8 JUMPDEST SWAP9 0xF8 SWAP3 0xE7 0xB9 PUSH23 0x3C7884ADABFA4E218C75F6EFA28885E4E64736F6C6343 STOP ADDMOD SHR STOP CALLER "
		},
		"gasEstimates": {
			"creation": {
				"codeDepositCost": "3737200",
				"executionCost": "infinite",
				"totalCost": "infinite"
			},
			"external": {
				"approve(address,uint256)": "infinite",
				"balanceOf(address)": "2974",
				"baseUri()": "infinite",
				"collectionConfig()": "infinite",
				"getApproved(uint256)": "5233",
				"isApprovedForAll(address,address)": "infinite",
				"isPublicSaleActive()": "2534",
				"isValid(bytes32[],bytes32)": "infinite",
				"isWhitelistActive()": "2607",
				"name()": "infinite",
				"owner()": "2560",
				"ownerOf(uint256)": "3025",
				"publicMint(uint256)": "infinite",
				"renounceOwnership()": "30412",
				"safeTransferFrom(address,address,uint256)": "infinite",
				"safeTransferFrom(address,address,uint256,bytes)": "infinite",
				"saleConfig()": "infinite",
				"setApprovalForAll(address,bool)": "infinite",
				"setBaseURI(string)": "infinite",
				"setMaxMintLimits(uint256,uint256)": "infinite",
				"setPrice(uint256)": "infinite",
				"setRoot(bytes32)": "infinite",
				"setSaleTimes(uint256,uint256,uint256,uint256)": "infinite",
				"supportsInterface(bytes4)": "810",
				"symbol()": "infinite",
				"togglePublicSale()": "infinite",
				"toggleWhitelistSale()": "infinite",
				"tokenURI(uint256)": "infinite",
				"totalSupply()": "2471",
				"transferFrom(address,address,uint256)": "infinite",
				"transferOwnership(address)": "30839",
				"whitelistMint(bytes32[],uint256)": "infinite",
				"withdrawAll()": "infinite"
			},
			"internal": {
				"_isSaleActive(uint256,uint256)": "124",
				"_mintNFT(uint256)": "infinite"
			}
		},
		"methodIdentifiers": {
			"approve(address,uint256)": "095ea7b3",
			"balanceOf(address)": "70a08231",
			"baseUri()": "9abc8320",
			"collectionConfig()": "6b34d725",
			"getApproved(uint256)": "081812fc",
			"isApprovedForAll(address,address)": "e985e9c5",
			"isPublicSaleActive()": "1e84c413",
			"isValid(bytes32[],bytes32)": "b8a20ed0",
			"isWhitelistActive()": "524513d6",
			"name()": "06fdde03",
			"owner()": "8da5cb5b",
			"ownerOf(uint256)": "6352211e",
			"publicMint(uint256)": "2db11544",
			"renounceOwnership()": "715018a6",
			"safeTransferFrom(address,address,uint256)": "42842e0e",
			"safeTransferFrom(address,address,uint256,bytes)": "b88d4fde",
			"saleConfig()": "90aa0b0f",
			"setApprovalForAll(address,bool)": "a22cb465",
			"setBaseURI(string)": "55f804b3",
			"setMaxMintLimits(uint256,uint256)": "7f31d96a",
			"setPrice(uint256)": "91b7f5ed",
			"setRoot(bytes32)": "dab5f340",
			"setSaleTimes(uint256,uint256,uint256,uint256)": "7bc10294",
			"supportsInterface(bytes4)": "01ffc9a7",
			"symbol()": "95d89b41",
			"togglePublicSale()": "e222c7f9",
			"toggleWhitelistSale()": "59eda1b5",
			"tokenURI(uint256)": "c87b56dd",
			"totalSupply()": "18160ddd",
			"transferFrom(address,address,uint256)": "23b872dd",
			"transferOwnership(address)": "f2fde38b",
			"whitelistMint(bytes32[],uint256)": "2904e6d9",
			"withdrawAll()": "853828b6"
		}
	},
	"abi": [
		{
			"inputs": [
				{
					"internalType": "string",
					"name": "_name",
					"type": "string"
				},
				{
					"internalType": "string",
					"name": "_symbol",
					"type": "string"
				},
				{
					"internalType": "string",
					"name": "_baseUri",
					"type": "string"
				},
				{
					"components": [
						{
							"internalType": "uint256",
							"name": "maxTokens",
							"type": "uint256"
						},
						{
							"internalType": "uint256",
							"name": "mintPrice",
							"type": "uint256"
						},
						{
							"internalType": "uint256",
							"name": "maxMintPerTx",
							"type": "uint256"
						},
						{
							"internalType": "uint256",
							"name": "maxMintPerWallet",
							"type": "uint256"
						}
					],
					"internalType": "struct Nestad.CollectionConfig",
					"name": "_collectionConfig",
					"type": "tuple"
				},
				{
					"components": [
						{
							"internalType": "bool",
							"name": "hasWhitelist",
							"type": "bool"
						},
						{
							"internalType": "uint256",
							"name": "whitelistStart",
							"type": "uint256"
						},
						{
							"internalType": "uint256",
							"name": "whitelistEnd",
							"type": "uint256"
						},
						{
							"internalType": "uint256",
							"name": "publicSaleStart",
							"type": "uint256"
						},
						{
							"internalType": "uint256",
							"name": "publicSaleEnd",
							"type": "uint256"
						}
					],
					"internalType": "struct Nestad.SaleConfig",
					"name": "_saleConfig",
					"type": "tuple"
				}
			],
			"stateMutability": "nonpayable",
			"type": "constructor"
		},
		{
			"anonymous": false,
			"inputs": [
				{
					"indexed": true,
					"internalType": "address",
					"name": "owner",
					"type": "address"
				},
				{
					"indexed": true,
					"internalType": "address",
					"name": "approved",
					"type": "address"
				},
				{
					"indexed": true,
					"internalType": "uint256",
					"name": "tokenId",
					"type": "uint256"
				}
			],
			"name": "Approval",
			"type": "event"
		},
		{
			"anonymous": false,
			"inputs": [
				{
					"indexed": true,
					"internalType": "address",
					"name": "owner",
					"type": "address"
				},
				{
					"indexed": true,
					"internalType": "address",
					"name": "operator",
					"type": "address"
				},
				{
					"indexed": false,
					"internalType": "bool",
					"name": "approved",
					"type": "bool"
				}
			],
			"name": "ApprovalForAll",
			"type": "event"
		},
		{
			"anonymous": false,
			"inputs": [
				{
					"indexed": false,
					"internalType": "string",
					"name": "newBaseURI",
					"type": "string"
				}
			],
			"name": "BaseURISet",
			"type": "event"
		},
		{
			"anonymous": false,
			"inputs": [
				{
					"indexed": true,
					"internalType": "address",
					"name": "owner",
					"type": "address"
				},
				{
					"indexed": false,
					"internalType": "uint256",
					"name": "amount",
					"type": "uint256"
				}
			],
			"name": "FundsWithdrawn",
			"type": "event"
		},
		{
			"anonymous": false,
			"inputs": [
				{
					"indexed": false,
					"internalType": "uint256",
					"name": "newMaxMintPerTx",
					"type": "uint256"
				},
				{
					"indexed": false,
					"internalType": "uint256",
					"name": "newMaxMintPerWallet",
					"type": "uint256"
				}
			],
			"name": "MaxMintUpdated",
			"type": "event"
		},
		{
			"anonymous": false,
			"inputs": [
				{
					"indexed": true,
					"internalType": "address",
					"name": "previousOwner",
					"type": "address"
				},
				{
					"indexed": true,
					"internalType": "address",
					"name": "newOwner",
					"type": "address"
				}
			],
			"name": "OwnershipTransferred",
			"type": "event"
		},
		{
			"anonymous": false,
			"inputs": [
				{
					"indexed": false,
					"internalType": "uint256",
					"name": "newPrice",
					"type": "uint256"
				}
			],
			"name": "PriceUpdated",
			"type": "event"
		},
		{
			"anonymous": false,
			"inputs": [
				{
					"indexed": false,
					"internalType": "bytes32",
					"name": "newRoot",
					"type": "bytes32"
				}
			],
			"name": "RootUpdated",
			"type": "event"
		},
		{
			"anonymous": false,
			"inputs": [
				{
					"indexed": false,
					"internalType": "bool",
					"name": "isPublicSaleActive",
					"type": "bool"
				},
				{
					"indexed": false,
					"internalType": "bool",
					"name": "isWhitelistActive",
					"type": "bool"
				}
			],
			"name": "SaleStateUpdated",
			"type": "event"
		},
		{
			"anonymous": false,
			"inputs": [
				{
					"indexed": false,
					"internalType": "uint256",
					"name": "whitelistStart",
					"type": "uint256"
				},
				{
					"indexed": false,
					"internalType": "uint256",
					"name": "whitelistEnd",
					"type": "uint256"
				},
				{
					"indexed": false,
					"internalType": "uint256",
					"name": "publicSaleStart",
					"type": "uint256"
				},
				{
					"indexed": false,
					"internalType": "uint256",
					"name": "publicSaleEnd",
					"type": "uint256"
				}
			],
			"name": "SaleTimesUpdated",
			"type": "event"
		},
		{
			"anonymous": false,
			"inputs": [
				{
					"indexed": true,
					"internalType": "address",
					"name": "minter",
					"type": "address"
				},
				{
					"indexed": false,
					"internalType": "uint256",
					"name": "amount",
					"type": "uint256"
				}
			],
			"name": "TokensMinted",
			"type": "event"
		},
		{
			"anonymous": false,
			"inputs": [
				{
					"indexed": true,
					"internalType": "address",
					"name": "from",
					"type": "address"
				},
				{
					"indexed": true,
					"internalType": "address",
					"name": "to",
					"type": "address"
				},
				{
					"indexed": true,
					"internalType": "uint256",
					"name": "tokenId",
					"type": "uint256"
				}
			],
			"name": "Transfer",
			"type": "event"
		},
		{
			"inputs": [
				{
					"internalType": "address",
					"name": "to",
					"type": "address"
				},
				{
					"internalType": "uint256",
					"name": "tokenId",
					"type": "uint256"
				}
			],
			"name": "approve",
			"outputs": [],
			"stateMutability": "nonpayable",
			"type": "function"
		},
		{
			"inputs": [
				{
					"internalType": "address",
					"name": "owner",
					"type": "address"
				}
			],
			"name": "balanceOf",
			"outputs": [
				{
					"internalType": "uint256",
					"name": "",
					"type": "uint256"
				}
			],
			"stateMutability": "view",
			"type": "function"
		},
		{
			"inputs": [],
			"name": "baseUri",
			"outputs": [
				{
					"internalType": "string",
					"name": "",
					"type": "string"
				}
			],
			"stateMutability": "view",
			"type": "function"
		},
		{
			"inputs": [],
			"name": "collectionConfig",
			"outputs": [
				{
					"internalType": "uint256",
					"name": "maxTokens",
					"type": "uint256"
				},
				{
					"internalType": "uint256",
					"name": "mintPrice",
					"type": "uint256"
				},
				{
					"internalType": "uint256",
					"name": "maxMintPerTx",
					"type": "uint256"
				},
				{
					"internalType": "uint256",
					"name": "maxMintPerWallet",
					"type": "uint256"
				}
			],
			"stateMutability": "view",
			"type": "function"
		},
		{
			"inputs": [
				{
					"internalType": "uint256",
					"name": "tokenId",
					"type": "uint256"
				}
			],
			"name": "getApproved",
			"outputs": [
				{
					"internalType": "address",
					"name": "",
					"type": "address"
				}
			],
			"stateMutability": "view",
			"type": "function"
		},
		{
			"inputs": [
				{
					"internalType": "address",
					"name": "owner",
					"type": "address"
				},
				{
					"internalType": "address",
					"name": "operator",
					"type": "address"
				}
			],
			"name": "isApprovedForAll",
			"outputs": [
				{
					"internalType": "bool",
					"name": "",
					"type": "bool"
				}
			],
			"stateMutability": "view",
			"type": "function"
		},
		{
			"inputs": [],
			"name": "isPublicSaleActive",
			"outputs": [
				{
					"internalType": "bool",
					"name": "",
					"type": "bool"
				}
			],
			"stateMutability": "view",
			"type": "function"
		},
		{
			"inputs": [
				{
					"internalType": "bytes32[]",
					"name": "proof",
					"type": "bytes32[]"
				},
				{
					"internalType": "bytes32",
					"name": "leaf",
					"type": "bytes32"
				}
			],
			"name": "isValid",
			"outputs": [
				{
					"internalType": "bool",
					"name": "",
					"type": "bool"
				}
			],
			"stateMutability": "view",
			"type": "function"
		},
		{
			"inputs": [],
			"name": "isWhitelistActive",
			"outputs": [
				{
					"internalType": "bool",
					"name": "",
					"type": "bool"
				}
			],
			"stateMutability": "view",
			"type": "function"
		},
		{
			"inputs": [],
			"name": "name",
			"outputs": [
				{
					"internalType": "string",
					"name": "",
					"type": "string"
				}
			],
			"stateMutability": "view",
			"type": "function"
		},
		{
			"inputs": [],
			"name": "owner",
			"outputs": [
				{
					"internalType": "address",
					"name": "",
					"type": "address"
				}
			],
			"stateMutability": "view",
			"type": "function"
		},
		{
			"inputs": [
				{
					"internalType": "uint256",
					"name": "tokenId",
					"type": "uint256"
				}
			],
			"name": "ownerOf",
			"outputs": [
				{
					"internalType": "address",
					"name": "",
					"type": "address"
				}
			],
			"stateMutability": "view",
			"type": "function"
		},
		{
			"inputs": [
				{
					"internalType": "uint256",
					"name": "_amount",
					"type": "uint256"
				}
			],
			"name": "publicMint",
			"outputs": [],
			"stateMutability": "payable",
			"type": "function"
		},
		{
			"inputs": [],
			"name": "renounceOwnership",
			"outputs": [],
			"stateMutability": "nonpayable",
			"type": "function"
		},
		{
			"inputs": [
				{
					"internalType": "address",
					"name": "from",
					"type": "address"
				},
				{
					"internalType": "address",
					"name": "to",
					"type": "address"
				},
				{
					"internalType": "uint256",
					"name": "tokenId",
					"type": "uint256"
				}
			],
			"name": "safeTransferFrom",
			"outputs": [],
			"stateMutability": "nonpayable",
			"type": "function"
		},
		{
			"inputs": [
				{
					"internalType": "address",
					"name": "from",
					"type": "address"
				},
				{
					"internalType": "address",
					"name": "to",
					"type": "address"
				},
				{
					"internalType": "uint256",
					"name": "tokenId",
					"type": "uint256"
				},
				{
					"internalType": "bytes",
					"name": "_data",
					"type": "bytes"
				}
			],
			"name": "safeTransferFrom",
			"outputs": [],
			"stateMutability": "nonpayable",
			"type": "function"
		},
		{
			"inputs": [],
			"name": "saleConfig",
			"outputs": [
				{
					"internalType": "bool",
					"name": "hasWhitelist",
					"type": "bool"
				},
				{
					"internalType": "uint256",
					"name": "whitelistStart",
					"type": "uint256"
				},
				{
					"internalType": "uint256",
					"name": "whitelistEnd",
					"type": "uint256"
				},
				{
					"internalType": "uint256",
					"name": "publicSaleStart",
					"type": "uint256"
				},
				{
					"internalType": "uint256",
					"name": "publicSaleEnd",
					"type": "uint256"
				}
			],
			"stateMutability": "view",
			"type": "function"
		},
		{
			"inputs": [
				{
					"internalType": "address",
					"name": "operator",
					"type": "address"
				},
				{
					"internalType": "bool",
					"name": "approved",
					"type": "bool"
				}
			],
			"name": "setApprovalForAll",
			"outputs": [],
			"stateMutability": "nonpayable",
			"type": "function"
		},
		{
			"inputs": [
				{
					"internalType": "string",
					"name": "_baseUri",
					"type": "string"
				}
			],
			"name": "setBaseURI",
			"outputs": [],
			"stateMutability": "nonpayable",
			"type": "function"
		},
		{
			"inputs": [
				{
					"internalType": "uint256",
					"name": "_maxMintPerTx",
					"type": "uint256"
				},
				{
					"internalType": "uint256",
					"name": "_maxMintPerWallet",
					"type": "uint256"
				}
			],
			"name": "setMaxMintLimits",
			"outputs": [],
			"stateMutability": "nonpayable",
			"type": "function"
		},
		{
			"inputs": [
				{
					"internalType": "uint256",
					"name": "_price",
					"type": "uint256"
				}
			],
			"name": "setPrice",
			"outputs": [],
			"stateMutability": "nonpayable",
			"type": "function"
		},
		{
			"inputs": [
				{
					"internalType": "bytes32",
					"name": "_root",
					"type": "bytes32"
				}
			],
			"name": "setRoot",
			"outputs": [],
			"stateMutability": "nonpayable",
			"type": "function"
		},
		{
			"inputs": [
				{
					"internalType": "uint256",
					"name": "_whitelistStart",
					"type": "uint256"
				},
				{
					"internalType": "uint256",
					"name": "_whitelistEnd",
					"type": "uint256"
				},
				{
					"internalType": "uint256",
					"name": "_publicSaleStart",
					"type": "uint256"
				},
				{
					"internalType": "uint256",
					"name": "_publicSaleEnd",
					"type": "uint256"
				}
			],
			"name": "setSaleTimes",
			"outputs": [],
			"stateMutability": "nonpayable",
			"type": "function"
		},
		{
			"inputs": [
				{
					"internalType": "bytes4",
					"name": "interfaceId",
					"type": "bytes4"
				}
			],
			"name": "supportsInterface",
			"outputs": [
				{
					"internalType": "bool",
					"name": "",
					"type": "bool"
				}
			],
			"stateMutability": "view",
			"type": "function"
		},
		{
			"inputs": [],
			"name": "symbol",
			"outputs": [
				{
					"internalType": "string",
					"name": "",
					"type": "string"
				}
			],
			"stateMutability": "view",
			"type": "function"
		},
		{
			"inputs": [],
			"name": "togglePublicSale",
			"outputs": [],
			"stateMutability": "nonpayable",
			"type": "function"
		},
		{
			"inputs": [],
			"name": "toggleWhitelistSale",
			"outputs": [],
			"stateMutability": "nonpayable",
			"type": "function"
		},
		{
			"inputs": [
				{
					"internalType": "uint256",
					"name": "tokenId",
					"type": "uint256"
				}
			],
			"name": "tokenURI",
			"outputs": [
				{
					"internalType": "string",
					"name": "",
					"type": "string"
				}
			],
			"stateMutability": "view",
			"type": "function"
		},
		{
			"inputs": [],
			"name": "totalSupply",
			"outputs": [
				{
					"internalType": "uint256",
					"name": "",
					"type": "uint256"
				}
			],
			"stateMutability": "view",
			"type": "function"
		},
		{
			"inputs": [
				{
					"internalType": "address",
					"name": "from",
					"type": "address"
				},
				{
					"internalType": "address",
					"name": "to",
					"type": "address"
				},
				{
					"internalType": "uint256",
					"name": "tokenId",
					"type": "uint256"
				}
			],
			"name": "transferFrom",
			"outputs": [],
			"stateMutability": "nonpayable",
			"type": "function"
		},
		{
			"inputs": [
				{
					"internalType": "address",
					"name": "newOwner",
					"type": "address"
				}
			],
			"name": "transferOwnership",
			"outputs": [],
			"stateMutability": "nonpayable",
			"type": "function"
		},
		{
			"inputs": [
				{
					"internalType": "bytes32[]",
					"name": "proof",
					"type": "bytes32[]"
				},
				{
					"internalType": "uint256",
					"name": "_amount",
					"type": "uint256"
				}
			],
			"name": "whitelistMint",
			"outputs": [],
			"stateMutability": "payable",
			"type": "function"
		},
		{
			"inputs": [],
			"name": "withdrawAll",
			"outputs": [],
			"stateMutability": "nonpayable",
			"type": "function"
		}
	]
}