{"contracts/Nestad.sol":{"Nestad":{"abi":[{"inputs":[{"internalType":"string","name":"_name","type":"string"},{"internalType":"string","name":"_symbol","type":"string"},{"internalType":"string","name":"_baseUri","type":"string"},{"components":[{"internalType":"uint256","name":"maxTokens","type":"uint256"},{"internalType":"uint256","name":"mintPrice","type":"uint256"},{"internalType":"uint256","name":"whitelistPrice","type":"uint256"},{"internalType":"uint256","name":"maxMintPerTx","type":"uint256"},{"internalType":"uint256","name":"maxMintPerWallet","type":"uint256"}],"internalType":"struct Nestad.CollectionConfig","name":"_collectionConfig","type":"tuple"},{"components":[{"internalType":"bool","name":"hasWhitelist","type":"bool"},{"internalType":"uint256","name":"whitelistStart","type":"uint256"},{"internalType":"uint256","name":"whitelistEnd","type":"uint256"},{"internalType":"uint256","name":"publicSaleStart","type":"uint256"},{"internalType":"uint256","name":"publicSaleEnd","type":"uint256"}],"internalType":"struct Nestad.SaleConfig","name":"_saleConfig","type":"tuple"},{"internalType":"uint256","name":"_royaltyFee","type":"uint256"},{"internalType":"bytes32","name":"_root","type":"bytes32"}],"stateMutability":"nonpayable","type":"constructor"},{"anonymous":false,"inputs":[{"indexed":true,"internalType":"address","name":"owner","type":"address"},{"indexed":true,"internalType":"address","name":"approved","type":"address"},{"indexed":true,"internalType":"uint256","name":"tokenId","type":"uint256"}],"name":"Approval","type":"event"},{"anonymous":false,"inputs":[{"indexed":true,"internalType":"address","name":"owner","type":"address"},{"indexed":true,"internalType":"address","name":"operator","type":"address"},{"indexed":false,"internalType":"bool","name":"approved","type":"bool"}],"name":"ApprovalForAll","type":"event"},{"anonymous":false,"inputs":[{"indexed":false,"internalType":"string","name":"newBaseURI","type":"string"}],"name":"BaseURISet","type":"event"},{"anonymous":false,"inputs":[{"indexed":true,"internalType":"address","name":"owner","type":"address"},{"indexed":false,"internalType":"uint256","name":"amount","type":"uint256"}],"name":"FundsWithdrawn","type":"event"},{"anonymous":false,"inputs":[{"indexed":false,"internalType":"uint256","name":"newMaxMintPerTx","type":"uint256"},{"indexed":false,"internalType":"uint256","name":"newMaxMintPerWallet","type":"uint256"}],"name":"MaxMintUpdated","type":"event"},{"anonymous":false,"inputs":[{"indexed":true,"internalType":"address","name":"previousOwner","type":"address"},{"indexed":true,"internalType":"address","name":"newOwner","type":"address"}],"name":"OwnershipTransferred","type":"event"},{"anonymous":false,"inputs":[{"indexed":false,"internalType":"uint256","name":"newPrice","type":"uint256"}],"name":"PriceUpdated","type":"event"},{"anonymous":false,"inputs":[{"indexed":false,"internalType":"bytes32","name":"newRoot","type":"bytes32"}],"name":"RootUpdated","type":"event"},{"anonymous":false,"inputs":[{"indexed":false,"internalType":"uint256","name":"newRoyaltyFee","type":"uint256"}],"name":"RoyaltyUpdated","type":"event"},{"anonymous":false,"inputs":[{"indexed":false,"internalType":"bool","name":"isPublicSaleActive","type":"bool"},{"indexed":false,"internalType":"bool","name":"isWhitelistActive","type":"bool"}],"name":"SaleStateUpdated","type":"event"},{"anonymous":false,"inputs":[{"indexed":false,"internalType":"uint256","name":"whitelistStart","type":"uint256"},{"indexed":false,"internalType":"uint256","name":"whitelistEnd","type":"uint256"},{"indexed":false,"internalType":"uint256","name":"publicSaleStart","type":"uint256"},{"indexed":false,"internalType":"uint256","name":"publicSaleEnd","type":"uint256"}],"name":"SaleTimesUpdated","type":"event"},{"anonymous":false,"inputs":[{"indexed":true,"internalType":"address","name":"minter","type":"address"},{"indexed":false,"internalType":"uint256","name":"amount","type":"uint256"}],"name":"TokensMinted","type":"event"},{"anonymous":false,"inputs":[{"indexed":true,"internalType":"address","name":"from","type":"address"},{"indexed":true,"internalType":"address","name":"to","type":"address"},{"indexed":true,"internalType":"uint256","name":"tokenId","type":"uint256"}],"name":"Transfer","type":"event"},{"inputs":[],"name":"PLATFORM_ADDRESS","outputs":[{"internalType":"address","name":"","type":"address"}],"stateMutability":"view","type":"function"},{"inputs":[],"name":"PLATFORM_ROYALTY","outputs":[{"internalType":"uint256","name":"","type":"uint256"}],"stateMutability":"view","type":"function"},{"inputs":[{"internalType":"address","name":"to","type":"address"},{"internalType":"uint256","name":"tokenId","type":"uint256"}],"name":"approve","outputs":[],"stateMutability":"nonpayable","type":"function"},{"inputs":[{"internalType":"address","name":"owner","type":"address"}],"name":"balanceOf","outputs":[{"internalType":"uint256","name":"","type":"uint256"}],"stateMutability":"view","type":"function"},{"inputs":[],"name":"baseUri","outputs":[{"internalType":"string","name":"","type":"string"}],"stateMutability":"view","type":"function"},{"inputs":[],"name":"collectionConfig","outputs":[{"internalType":"uint256","name":"maxTokens","type":"uint256"},{"internalType":"uint256","name":"mintPrice","type":"uint256"},{"internalType":"uint256","name":"whitelistPrice","type":"uint256"},{"internalType":"uint256","name":"maxMintPerTx","type":"uint256"},{"internalType":"uint256","name":"maxMintPerWallet","type":"uint256"}],"stateMutability":"view","type":"function"},{"inputs":[{"internalType":"uint256","name":"tokenId","type":"uint256"}],"name":"getApproved","outputs":[{"internalType":"address","name":"","type":"address"}],"stateMutability":"view","type":"function"},{"inputs":[{"internalType":"address","name":"owner","type":"address"},{"internalType":"address","name":"operator","type":"address"}],"name":"isApprovedForAll","outputs":[{"internalType":"bool","name":"","type":"bool"}],"stateMutability":"view","type":"function"},{"inputs":[],"name":"isPublicSaleActive","outputs":[{"internalType":"bool","name":"","type":"bool"}],"stateMutability":"view","type":"function"},{"inputs":[{"internalType":"bytes32[]","name":"proof","type":"bytes32[]"},{"internalType":"bytes32","name":"leaf","type":"bytes32"}],"name":"isValid","outputs":[{"internalType":"bool","name":"","type":"bool"}],"stateMutability":"view","type":"function"},{"inputs":[],"name":"isWhitelistActive","outputs":[{"internalType":"bool","name":"","type":"bool"}],"stateMutability":"view","type":"function"},{"inputs":[],"name":"name","outputs":[{"internalType":"string","name":"","type":"string"}],"stateMutability":"view","type":"function"},{"inputs":[],"name":"owner","outputs":[{"internalType":"address","name":"","type":"address"}],"stateMutability":"view","type":"function"},{"inputs":[{"internalType":"uint256","name":"tokenId","type":"uint256"}],"name":"ownerOf","outputs":[{"internalType":"address","name":"","type":"address"}],"stateMutability":"view","type":"function"},{"inputs":[{"internalType":"uint256","name":"_amount","type":"uint256"}],"name":"publicMint","outputs":[],"stateMutability":"payable","type":"function"},{"inputs":[],"name":"renounceOwnership","outputs":[],"stateMutability":"nonpayable","type":"function"},{"inputs":[],"name":"royaltyFee","outputs":[{"internalType":"uint256","name":"","type":"uint256"}],"stateMutability":"view","type":"function"},{"inputs":[{"internalType":"uint256","name":"","type":"uint256"},{"internalType":"uint256","name":"_salePrice","type":"uint256"}],"name":"royaltyInfo","outputs":[{"internalType":"address","name":"receiver","type":"address"},{"internalType":"uint256","name":"royaltyAmount","type":"uint256"}],"stateMutability":"view","type":"function"},{"inputs":[{"internalType":"address","name":"from","type":"address"},{"internalType":"address","name":"to","type":"address"},{"internalType":"uint256","name":"tokenId","type":"uint256"}],"name":"safeTransferFrom","outputs":[],"stateMutability":"nonpayable","type":"function"},{"inputs":[{"internalType":"address","name":"from","type":"address"},{"internalType":"address","name":"to","type":"address"},{"internalType":"uint256","name":"tokenId","type":"uint256"},{"internalType":"bytes","name":"_data","type":"bytes"}],"name":"safeTransferFrom","outputs":[],"stateMutability":"nonpayable","type":"function"},{"inputs":[],"name":"saleConfig","outputs":[{"internalType":"bool","name":"hasWhitelist","type":"bool"},{"internalType":"uint256","name":"whitelistStart","type":"uint256"},{"internalType":"uint256","name":"whitelistEnd","type":"uint256"},{"internalType":"uint256","name":"publicSaleStart","type":"uint256"},{"internalType":"uint256","name":"publicSaleEnd","type":"uint256"}],"stateMutability":"view","type":"function"},{"inputs":[{"internalType":"address","name":"operator","type":"address"},{"internalType":"bool","name":"approved","type":"bool"}],"name":"setApprovalForAll","outputs":[],"stateMutability":"nonpayable","type":"function"},{"inputs":[{"internalType":"string","name":"_baseUri","type":"string"}],"name":"setBaseURI","outputs":[],"stateMutability":"nonpayable","type":"function"},{"inputs":[{"internalType":"uint256","name":"_maxMintPerTx","type":"uint256"},{"internalType":"uint256","name":"_maxMintPerWallet","type":"uint256"}],"name":"setMaxMintLimits","outputs":[],"stateMutability":"nonpayable","type":"function"},{"inputs":[{"internalType":"uint256","name":"_price","type":"uint256"}],"name":"setPrice","outputs":[],"stateMutability":"nonpayable","type":"function"},{"inputs":[{"internalType":"bytes32","name":"_root","type":"bytes32"}],"name":"setRoot","outputs":[],"stateMutability":"nonpayable","type":"function"},{"inputs":[{"internalType":"uint256","name":"_royaltyFee","type":"uint256"}],"name":"setRoyalty","outputs":[],"stateMutability":"nonpayable","type":"function"},{"inputs":[{"internalType":"uint256","name":"_whitelistStart","type":"uint256"},{"internalType":"uint256","name":"_whitelistEnd","type":"uint256"},{"internalType":"uint256","name":"_publicSaleStart","type":"uint256"},{"internalType":"uint256","name":"_publicSaleEnd","type":"uint256"}],"name":"setSaleTimes","outputs":[],"stateMutability":"nonpayable","type":"function"},{"inputs":[{"internalType":"uint256","name":"_whitelistPrice","type":"uint256"}],"name":"setWhitelistPrice","outputs":[],"stateMutability":"nonpayable","type":"function"},{"inputs":[{"internalType":"bytes4","name":"interfaceId","type":"bytes4"}],"name":"supportsInterface","outputs":[{"internalType":"bool","name":"","type":"bool"}],"stateMutability":"view","type":"function"},{"inputs":[],"name":"symbol","outputs":[{"internalType":"string","name":"","type":"string"}],"stateMutability":"view","type":"function"},{"inputs":[],"name":"togglePublicSale","outputs":[],"stateMutability":"nonpayable","type":"function"},{"inputs":[],"name":"toggleWhitelistSale","outputs":[],"stateMutability":"nonpayable","type":"function"},{"inputs":[{"internalType":"uint256","name":"tokenId","type":"uint256"}],"name":"tokenURI","outputs":[{"internalType":"string","name":"","type":"string"}],"stateMutability":"view","type":"function"},{"inputs":[],"name":"totalSupply","outputs":[{"internalType":"uint256","name":"","type":"uint256"}],"stateMutability":"view","type":"function"},{"inputs":[{"internalType":"address","name":"from","type":"address"},{"internalType":"address","name":"to","type":"address"},{"internalType":"uint256","name":"tokenId","type":"uint256"}],"name":"transferFrom","outputs":[],"stateMutability":"nonpayable","type":"function"},{"inputs":[{"internalType":"address","name":"newOwner","type":"address"}],"name":"transferOwnership","outputs":[],"stateMutability":"nonpayable","type":"function"},{"inputs":[{"internalType":"bytes32[]","name":"proof","type":"bytes32[]"},{"internalType":"uint256","name":"_amount","type":"uint256"}],"name":"whitelistMint","outputs":[],"stateMutability":"payable","type":"function"},{"inputs":[],"name":"withdrawAll","outputs":[],"stateMutability":"nonpayable","type":"function"}],"evm":{"bytecode":{"linkReferences":{},"object":"60806040526001601660006101000a81548160ff02191690831515021790555034801561002b57600080fd5b50604051615b43380380615b43833981810160405281019061004d919061064b565b8686816000908161005e919061095c565b50806001908161006e919061095c565b50505061008d61008261024760201b60201c565b61024f60201b60201c565b60016007819055508060088190555083600c600082015181600001556020820151816001015560408201518160020155606082015181600301556080820151816004015590505082601160008201518160000160006101000a81548160ff0219169083151502179055506020820151816001015560408201518160020155606082015181600301556080820151816004015590505084600b9081610131919061095c565b508260000151601660016101000a81548160ff0219169083151502179055506103e86064836101609190610a5d565b11156101a1576040517f08c379a000000000000000000000000000000000000000000000000000000000815260040161019890610aee565b60405180910390fd5b816017819055508360400151600c6002018190555082602001516011600101819055508260400151601160020181905550826060015160116003018190555082608001516011600401819055507fdf31a79be646f25cf79f5f1fe56d5972e8af0f25de752b9021b909727a0b8ec483602001518460400151856060015186608001516040516102339493929190610b1d565b60405180910390a150505050505050610b62565b600033905090565b6000600660009054906101000a900473ffffffffffffffffffffffffffffffffffffffff16905081600660006101000a81548173ffffffffffffffffffffffffffffffffffffffff021916908373ffffffffffffffffffffffffffffffffffffffff1602179055508173ffffffffffffffffffffffffffffffffffffffff168173ffffffffffffffffffffffffffffffffffffffff167f8be0079c531659141344cd1fd0a4f28419497f9722a3daafe3b4186f6b6457e060405160405180910390a35050565b6000604051905090565b600080fd5b600080fd5b600080fd5b600080fd5b6000601f19601f8301169050919050565b7f4e487b7100000000000000000000000000000000000000000000000000000000600052604160045260246000fd5b61037c82610333565b810181811067ffffffffffffffff8211171561039b5761039a610344565b5b80604052505050565b60006103ae610315565b90506103ba8282610373565b919050565b600067ffffffffffffffff8211156103da576103d9610344565b5b6103e382610333565b9050602081019050919050565b60005b8381101561040e5780820151818401526020810190506103f3565b60008484015250505050565b600061042d610428846103bf565b6103a4565b9050828152602081018484840111156104495761044861032e565b5b6104548482856103f0565b509392505050565b600082601f83011261047157610470610329565b5b815161048184826020860161041a565b91505092915050565b600080fd5b6000819050919050565b6104a28161048f565b81146104ad57600080fd5b50565b6000815190506104bf81610499565b92915050565b600060a082840312156104db576104da61048a565b5b6104e560a06103a4565b905060006104f5848285016104b0565b6000830152506020610509848285016104b0565b602083015250604061051d848285016104b0565b6040830152506060610531848285016104b0565b6060830152506080610545848285016104b0565b60808301525092915050565b60008115159050919050565b61056681610551565b811461057157600080fd5b50565b6000815190506105838161055d565b92915050565b600060a0828403121561059f5761059e61048a565b5b6105a960a06103a4565b905060006105b984828501610574565b60008301525060206105cd848285016104b0565b60208301525060406105e1848285016104b0565b60408301525060606105f5848285016104b0565b6060830152506080610609848285016104b0565b60808301525092915050565b6000819050919050565b61062881610615565b811461063357600080fd5b50565b6000815190506106458161061f565b92915050565b60008060008060008060006101e0888a03121561066b5761066a61031f565b5b600088015167ffffffffffffffff81111561068957610688610324565b5b6106958a828b0161045c565b975050602088015167ffffffffffffffff8111156106b6576106b5610324565b5b6106c28a828b0161045c565b965050604088015167ffffffffffffffff8111156106e3576106e2610324565b5b6106ef8a828b0161045c565b95505060606107008a828b016104c5565b9450506101006107128a828b01610589565b9350506101a06107248a828b016104b0565b9250506101c06107368a828b01610636565b91505092959891949750929550565b600081519050919050565b7f4e487b7100000000000000000000000000000000000000000000000000000000600052602260045260246000fd5b6000600282049050600182168061079757607f821691505b6020821081036107aa576107a9610750565b5b50919050565b60008190508160005260206000209050919050565b60006020601f8301049050919050565b600082821b905092915050565b6000600883026108127fffffffffffffffffffffffffffffffffffffffffffffffffffffffffffffffff826107d5565b61081c86836107d5565b95508019841693508086168417925050509392505050565b6000819050919050565b600061085961085461084f8461048f565b610834565b61048f565b9050919050565b6000819050919050565b6108738361083e565b61088761087f82610860565b8484546107e2565b825550505050565b600090565b61089c61088f565b6108a781848461086a565b505050565b5b818110156108cb576108c0600082610894565b6001810190506108ad565b5050565b601f821115610910576108e1816107b0565b6108ea846107c5565b810160208510156108f9578190505b61090d610905856107c5565b8301826108ac565b50505b505050565b600082821c905092915050565b600061093360001984600802610915565b1980831691505092915050565b600061094c8383610922565b9150826002028217905092915050565b61096582610745565b67ffffffffffffffff81111561097e5761097d610344565b5b610988825461077f565b6109938282856108cf565b600060209050601f8311600181146109c657600084156109b4578287015190505b6109be8582610940565b865550610a26565b601f1984166109d4866107b0565b60005b828110156109fc578489015182556001820191506020850194506020810190506109d7565b86831015610a195784890151610a15601f891682610922565b8355505b6001600288020188555050505b505050505050565b7f4e487b7100000000000000000000000000000000000000000000000000000000600052601160045260246000fd5b6000610a688261048f565b9150610a738361048f565b9250828201905080821115610a8b57610a8a610a2e565b5b92915050565b600082825260208201905092915050565b7f546f74616c20726f79616c74792063616e6e6f74206578636565642031302500600082015250565b6000610ad8601f83610a91565b9150610ae382610aa2565b602082019050919050565b60006020820190508181036000830152610b0781610acb565b9050919050565b610b178161048f565b82525050565b6000608082019050610b326000830187610b0e565b610b3f6020830186610b0e565b610b4c6040830185610b0e565b610b596060830184610b0e565b95945050505050565b614fd280610b716000396000f3fe6080604052600436106102305760003560e01c8063717d57d31161012e578063b88d4fde116100ab578063d6b8a82e1161006f578063d6b8a82e14610802578063dab5f3401461082d578063e222c7f914610856578063e985e9c51461086d578063f2fde38b146108aa57610230565b8063b88d4fde14610709578063b8997a9714610732578063b8a20ed01461075d578063bbc284891461079a578063c87b56dd146107c557610230565b806390aa0b0f116100f257806390aa0b0f1461063257806391b7f5ed1461066157806395d89b411461068a5780639abc8320146106b5578063a22cb465146106e057610230565b8063717d57d3146105755780637bc102941461059e5780637f31d96a146105c7578063853828b6146105f05780638da5cb5b1461060757610230565b80632db11544116101bc57806359eda1b51161018057806359eda1b51461049e5780636352211e146104b55780636b34d725146104f257806370a0823114610521578063715018a61461055e57610230565b80632db11544146103dc5780634209a2e1146103f857806342842e0e14610421578063524513d61461044a57806355f804b31461047557610230565b806318160ddd1161020357806318160ddd146103035780631e84c4131461032e57806323b872dd146103595780632904e6d9146103825780632a55205a1461039e57610230565b806301ffc9a71461023557806306fdde0314610272578063081812fc1461029d578063095ea7b3146102da575b600080fd5b34801561024157600080fd5b5061025c60048036038101906102579190613038565b6108d3565b6040516102699190613080565b60405180910390f35b34801561027e57600080fd5b506102876109b5565b604051610294919061312b565b60405180910390f35b3480156102a957600080fd5b506102c460048036038101906102bf9190613183565b610a47565b6040516102d191906131f1565b60405180910390f35b3480156102e657600080fd5b5061030160048036038101906102fc9190613238565b610acc565b005b34801561030f57600080fd5b50610318610be3565b6040516103259190613287565b60405180910390f35b34801561033a57600080fd5b50610343610be9565b6040516103509190613080565b60405180910390f35b34801561036557600080fd5b50610380600480360381019061037b91906132a2565b610bfc565b005b61039c60048036038101906103979190613473565b610c5c565b005b3480156103aa57600080fd5b506103c560048036038101906103c091906134cf565b610d7c565b6040516103d392919061350f565b60405180910390f35b6103f660048036038101906103f19190613183565b610ddd565b005b34801561040457600080fd5b5061041f600480360381019061041a9190613183565b610ef0565b005b34801561042d57600080fd5b50610448600480360381019061044391906132a2565b610ffe565b005b34801561045657600080fd5b5061045f61101e565b60405161046c9190613080565b60405180910390f35b34801561048157600080fd5b5061049c600480360381019061049791906135ed565b611031565b005b3480156104aa57600080fd5b506104b36110f7565b005b3480156104c157600080fd5b506104dc60048036038101906104d79190613183565b6111f6565b6040516104e991906131f1565b60405180910390f35b3480156104fe57600080fd5b506105076112a7565b604051610518959493929190613636565b60405180910390f35b34801561052d57600080fd5b5061054860048036038101906105439190613689565b6112cb565b6040516105559190613287565b60405180910390f35b34801561056a57600080fd5b50610573611382565b005b34801561058157600080fd5b5061059c60048036038101906105979190613183565b61140a565b005b3480156105aa57600080fd5b506105c560048036038101906105c091906136b6565b6114ca565b005b3480156105d357600080fd5b506105ee60048036038101906105e991906134cf565b6115b1565b005b3480156105fc57600080fd5b5061060561167e565b005b34801561061357600080fd5b5061061c6118c8565b60405161062991906131f1565b60405180910390f35b34801561063e57600080fd5b506106476118f2565b60405161065895949392919061371d565b60405180910390f35b34801561066d57600080fd5b5061068860048036038101906106839190613183565b611923565b005b34801561069657600080fd5b5061069f6119e3565b6040516106ac919061312b565b60405180910390f35b3480156106c157600080fd5b506106ca611a75565b6040516106d7919061312b565b60405180910390f35b3480156106ec57600080fd5b506107076004803603810190610702919061379c565b611b03565b005b34801561071557600080fd5b50610730600480360381019061072b919061387d565b611b19565b005b34801561073e57600080fd5b50610747611b7b565b6040516107549190613287565b60405180910390f35b34801561076957600080fd5b50610784600480360381019061077f9190613900565b611b81565b6040516107919190613080565b60405180910390f35b3480156107a657600080fd5b506107af611b98565b6040516107bc91906131f1565b60405180910390f35b3480156107d157600080fd5b506107ec60048036038101906107e79190613183565b611bb0565b6040516107f9919061312b565b60405180910390f35b34801561080e57600080fd5b50610817611c58565b6040516108249190613287565b60405180910390f35b34801561083957600080fd5b50610854600480360381019061084f919061395c565b611c5d565b005b34801561086257600080fd5b5061086b611d1a565b005b34801561087957600080fd5b50610894600480360381019061088f9190613989565b611e19565b6040516108a19190613080565b60405180910390f35b3480156108b657600080fd5b506108d160048036038101906108cc9190613689565b611ead565b005b60007f80ac58cd000000000000000000000000000000000000000000000000000000007bffffffffffffffffffffffffffffffffffffffffffffffffffffffff1916827bffffffffffffffffffffffffffffffffffffffffffffffffffffffff1916148061099e57507f5b5e139f000000000000000000000000000000000000000000000000000000007bffffffffffffffffffffffffffffffffffffffffffffffffffffffff1916827bffffffffffffffffffffffffffffffffffffffffffffffffffffffff1916145b806109ae57506109ad82611fa4565b5b9050919050565b6060600080546109c4906139f8565b80601f01602080910402602001604051908101604052809291908181526020018280546109f0906139f8565b8015610a3d5780601f10610a1257610100808354040283529160200191610a3d565b820191906000526020600020905b815481529060010190602001808311610a2057829003601f168201915b5050505050905090565b6000610a528261200e565b610a91576040517f08c379a0000000000000000000000000000000000000000000000000000000008152600401610a8890613a9b565b60405180910390fd5b6004600083815260200190815260200160002060009054906101000a900473ffffffffffffffffffffffffffffffffffffffff169050919050565b6000610ad7826111f6565b90508073ffffffffffffffffffffffffffffffffffffffff168373ffffffffffffffffffffffffffffffffffffffff1603610b47576040517f08c379a0000000000000000000000000000000000000000000000000000000008152600401610b3e90613b2d565b60405180910390fd5b8073ffffffffffffffffffffffffffffffffffffffff16610b6661207a565b73ffffffffffffffffffffffffffffffffffffffff161480610b955750610b9481610b8f61207a565b611e19565b5b610bd4576040517f08c379a0000000000000000000000000000000000000000000000000000000008152600401610bcb90613bbf565b60405180910390fd5b610bde8383612082565b505050565b60095481565b601660009054906101000a900460ff1681565b610c0d610c0761207a565b8261213b565b610c4c576040517f08c379a0000000000000000000000000000000000000000000000000000000008152600401610c4390613c51565b60405180910390fd5b610c57838383612219565b505050565b601660019054906101000a900460ff16610cab576040517f08c379a0000000000000000000000000000000000000000000000000000000008152600401610ca290613cbd565b60405180910390fd5b610cbf60116001015460116002015461247f565b610cfe576040517f08c379a0000000000000000000000000000000000000000000000000000000008152600401610cf590613d29565b60405180910390fd5b610d2e8233604051602001610d139190613d91565b60405160208183030381529060405280519060200120611b81565b610d6d576040517f08c379a0000000000000000000000000000000000000000000000000000000008152600401610d6490613df8565b60405180910390fd5b610d788160016124ae565b5050565b6000806000612710606485610d919190613e47565b610d9b9190613eb8565b9050600061271060175486610db09190613e47565b610dba9190613eb8565b9050610dc46118c8565b8282610dd09190613ee9565b9350935050509250929050565b601160000160009054906101000a900460ff161580610e0157506011600201544210155b610e40576040517f08c379a0000000000000000000000000000000000000000000000000000000008152600401610e3790613f8f565b60405180910390fd5b601660009054906101000a900460ff16610e8f576040517f08c379a0000000000000000000000000000000000000000000000000000000008152600401610e8690613ffb565b60405180910390fd5b610ea360116003015460116004015461247f565b610ee2576040517f08c379a0000000000000000000000000000000000000000000000000000000008152600401610ed990614067565b60405180910390fd5b610eed8160006124ae565b50565b610ef861207a565b73ffffffffffffffffffffffffffffffffffffffff16610f166118c8565b73ffffffffffffffffffffffffffffffffffffffff1614610f6c576040517f08c379a0000000000000000000000000000000000000000000000000000000008152600401610f63906140d3565b60405180910390fd5b6103e8606482610f7c91906140f3565b1115610fbd576040517f08c379a0000000000000000000000000000000000000000000000000000000008152600401610fb490614173565b60405180910390fd5b806017819055507f244ea8d7627f5a08f4299862bd5a45752842c183aee5b0fb0d1e4887bfa605b381604051610ff39190613287565b60405180910390a150565b61101983838360405180602001604052806000815250611b19565b505050565b601660019054906101000a900460ff1681565b61103961207a565b73ffffffffffffffffffffffffffffffffffffffff166110576118c8565b73ffffffffffffffffffffffffffffffffffffffff16146110ad576040517f08c379a00000000000000000000000000000000000000000000000000000000081526004016110a4906140d3565b60405180910390fd5b80600b90816110bc919061433f565b507ff9c7803e94e0d3c02900d8a90893a6d5e90dd04d32a4cfe825520f82bf9f32f6816040516110ec919061312b565b60405180910390a150565b6110ff61207a565b73ffffffffffffffffffffffffffffffffffffffff1661111d6118c8565b73ffffffffffffffffffffffffffffffffffffffff1614611173576040517f08c379a000000000000000000000000000000000000000000000000000000000815260040161116a906140d3565b60405180910390fd5b601660019054906101000a900460ff1615601660016101000a81548160ff0219169083151502179055507f0f3ceb1b1df7afa89a10afbea0bc86b42296cfdfa410cdd70a7c2a97f9f9a373601660009054906101000a900460ff16601660019054906101000a900460ff166040516111ec929190614411565b60405180910390a1565b6000806002600084815260200190815260200160002060009054906101000a900473ffffffffffffffffffffffffffffffffffffffff169050600073ffffffffffffffffffffffffffffffffffffffff168173ffffffffffffffffffffffffffffffffffffffff160361129e576040517f08c379a0000000000000000000000000000000000000000000000000000000008152600401611295906144ac565b60405180910390fd5b80915050919050565b600c8060000154908060010154908060020154908060030154908060040154905085565b60008073ffffffffffffffffffffffffffffffffffffffff168273ffffffffffffffffffffffffffffffffffffffff160361133b576040517f08c379a00000000000000000000000000000000000000000000000000000000081526004016113329061453e565b60405180910390fd5b600360008373ffffffffffffffffffffffffffffffffffffffff1673ffffffffffffffffffffffffffffffffffffffff168152602001908152602001600020549050919050565b61138a61207a565b73ffffffffffffffffffffffffffffffffffffffff166113a86118c8565b73ffffffffffffffffffffffffffffffffffffffff16146113fe576040517f08c379a00000000000000000000000000000000000000000000000000000000081526004016113f5906140d3565b60405180910390fd5b611408600061273b565b565b61141261207a565b73ffffffffffffffffffffffffffffffffffffffff166114306118c8565b73ffffffffffffffffffffffffffffffffffffffff1614611486576040517f08c379a000000000000000000000000000000000000000000000000000000000815260040161147d906140d3565b60405180910390fd5b80600c600201819055507f66cbca4f3c64fecf1dcb9ce094abcf7f68c3450a1d4e3a8e917dd621edb4ebe0816040516114bf9190613287565b60405180910390a150565b6114d261207a565b73ffffffffffffffffffffffffffffffffffffffff166114f06118c8565b73ffffffffffffffffffffffffffffffffffffffff1614611546576040517f08c379a000000000000000000000000000000000000000000000000000000000815260040161153d906140d3565b60405180910390fd5b836011600101819055508260116002018190555081601160030181905550806011600401819055507fdf31a79be646f25cf79f5f1fe56d5972e8af0f25de752b9021b909727a0b8ec4848484846040516115a3949392919061455e565b60405180910390a150505050565b6115b961207a565b73ffffffffffffffffffffffffffffffffffffffff166115d76118c8565b73ffffffffffffffffffffffffffffffffffffffff161461162d576040517f08c379a0000000000000000000000000000000000000000000000000000000008152600401611624906140d3565b60405180910390fd5b81600c6003018190555080600c600401819055507fc37cc9c3c37fdcacbe05156c2f68f96e3d3ecec5a381a8929651bf7a317f0d1c82826040516116729291906145a3565b60405180910390a15050565b6002600754036116c3576040517f08c379a00000000000000000000000000000000000000000000000000000000081526004016116ba90614618565b60405180910390fd5b60026007819055506116d361207a565b73ffffffffffffffffffffffffffffffffffffffff166116f16118c8565b73ffffffffffffffffffffffffffffffffffffffff1614611747576040517f08c379a000000000000000000000000000000000000000000000000000000000815260040161173e906140d3565b60405180910390fd5b60004790506000811161178f576040517f08c379a000000000000000000000000000000000000000000000000000000000815260040161178690614684565b60405180910390fd5b60006127106064836117a19190613e47565b6117ab9190613eb8565b9050600081836117bb9190613ee9565b905073f26eab233b0a2b499fc21f4452fac0326303076573ffffffffffffffffffffffffffffffffffffffff166108fc839081150290604051600060405180830381858888f19350505050158015611817573d6000803e3d6000fd5b506118206118c8565b73ffffffffffffffffffffffffffffffffffffffff166108fc829081150290604051600060405180830381858888f19350505050158015611865573d6000803e3d6000fd5b5061186e6118c8565b73ffffffffffffffffffffffffffffffffffffffff167feaff4b37086828766ad3268786972c0cd24259d4c87a80f9d3963a3c3d999b0d826040516118b39190613287565b60405180910390a25050506001600781905550565b6000600660009054906101000a900473ffffffffffffffffffffffffffffffffffffffff16905090565b60118060000160009054906101000a900460ff16908060010154908060020154908060030154908060040154905085565b61192b61207a565b73ffffffffffffffffffffffffffffffffffffffff166119496118c8565b73ffffffffffffffffffffffffffffffffffffffff161461199f576040517f08c379a0000000000000000000000000000000000000000000000000000000008152600401611996906140d3565b60405180910390fd5b80600c600101819055507f66cbca4f3c64fecf1dcb9ce094abcf7f68c3450a1d4e3a8e917dd621edb4ebe0816040516119d89190613287565b60405180910390a150565b6060600180546119f2906139f8565b80601f0160208091040260200160405190810160405280929190818152602001828054611a1e906139f8565b8015611a6b5780601f10611a4057610100808354040283529160200191611a6b565b820191906000526020600020905b815481529060010190602001808311611a4e57829003601f168201915b5050505050905090565b600b8054611a82906139f8565b80601f0160208091040260200160405190810160405280929190818152602001828054611aae906139f8565b8015611afb5780601f10611ad057610100808354040283529160200191611afb565b820191906000526020600020905b815481529060010190602001808311611ade57829003601f168201915b505050505081565b611b15611b0e61207a565b8383612801565b5050565b611b2a611b2461207a565b8361213b565b611b69576040517f08c379a0000000000000000000000000000000000000000000000000000000008152600401611b6090613c51565b60405180910390fd5b611b758484848461296d565b50505050565b60175481565b6000611b9083600854846129c9565b905092915050565b73f26eab233b0a2b499fc21f4452fac0326303076581565b6060611bbb8261200e565b611bfa576040517f08c379a0000000000000000000000000000000000000000000000000000000008152600401611bf190614716565b60405180910390fd5b6000600b8054611c09906139f8565b905011611c255760405180602001604052806000815250611c51565b600b611c30836129e0565b604051602001611c419291906147f5565b6040516020818303038152906040525b9050919050565b606481565b611c6561207a565b73ffffffffffffffffffffffffffffffffffffffff16611c836118c8565b73ffffffffffffffffffffffffffffffffffffffff1614611cd9576040517f08c379a0000000000000000000000000000000000000000000000000000000008152600401611cd0906140d3565b60405180910390fd5b806008819055507f2cbc14f49c068133583f7cb530018af451c87c1cf1327cf2a4ff4698c4730aa481604051611d0f9190614828565b60405180910390a150565b611d2261207a565b73ffffffffffffffffffffffffffffffffffffffff16611d406118c8565b73ffffffffffffffffffffffffffffffffffffffff1614611d96576040517f08c379a0000000000000000000000000000000000000000000000000000000008152600401611d8d906140d3565b60405180910390fd5b601660009054906101000a900460ff1615601660006101000a81548160ff0219169083151502179055507f0f3ceb1b1df7afa89a10afbea0bc86b42296cfdfa410cdd70a7c2a97f9f9a373601660009054906101000a900460ff16601660019054906101000a900460ff16604051611e0f929190614411565b60405180910390a1565b6000600560008473ffffffffffffffffffffffffffffffffffffffff1673ffffffffffffffffffffffffffffffffffffffff16815260200190815260200160002060008373ffffffffffffffffffffffffffffffffffffffff1673ffffffffffffffffffffffffffffffffffffffff16815260200190815260200160002060009054906101000a900460ff16905092915050565b611eb561207a565b73ffffffffffffffffffffffffffffffffffffffff16611ed36118c8565b73ffffffffffffffffffffffffffffffffffffffff1614611f29576040517f08c379a0000000000000000000000000000000000000000000000000000000008152600401611f20906140d3565b60405180910390fd5b600073ffffffffffffffffffffffffffffffffffffffff168173ffffffffffffffffffffffffffffffffffffffff1603611f98576040517f08c379a0000000000000000000000000000000000000000000000000000000008152600401611f8f906148b5565b60405180910390fd5b611fa18161273b565b50565b60007f01ffc9a7000000000000000000000000000000000000000000000000000000007bffffffffffffffffffffffffffffffffffffffffffffffffffffffff1916827bffffffffffffffffffffffffffffffffffffffffffffffffffffffff1916149050919050565b60008073ffffffffffffffffffffffffffffffffffffffff166002600084815260200190815260200160002060009054906101000a900473ffffffffffffffffffffffffffffffffffffffff1673ffffffffffffffffffffffffffffffffffffffff1614159050919050565b600033905090565b816004600083815260200190815260200160002060006101000a81548173ffffffffffffffffffffffffffffffffffffffff021916908373ffffffffffffffffffffffffffffffffffffffff160217905550808273ffffffffffffffffffffffffffffffffffffffff166120f5836111f6565b73ffffffffffffffffffffffffffffffffffffffff167f8c5be1e5ebec7d5bd14f71427d1e84f3dd0314c0f7b2291e5b200ac8c7c3b92560405160405180910390a45050565b60006121468261200e565b612185576040517f08c379a000000000000000000000000000000000000000000000000000000000815260040161217c90614947565b60405180910390fd5b6000612190836111f6565b90508073ffffffffffffffffffffffffffffffffffffffff168473ffffffffffffffffffffffffffffffffffffffff1614806121ff57508373ffffffffffffffffffffffffffffffffffffffff166121e784610a47565b73ffffffffffffffffffffffffffffffffffffffff16145b80612210575061220f8185611e19565b5b91505092915050565b8273ffffffffffffffffffffffffffffffffffffffff16612239826111f6565b73ffffffffffffffffffffffffffffffffffffffff161461228f576040517f08c379a0000000000000000000000000000000000000000000000000000000008152600401612286906149d9565b60405180910390fd5b600073ffffffffffffffffffffffffffffffffffffffff168273ffffffffffffffffffffffffffffffffffffffff16036122fe576040517f08c379a00000000000000000000000000000000000000000000000000000000081526004016122f590614a6b565b60405180910390fd5b612309838383612b40565b612314600082612082565b6001600360008573ffffffffffffffffffffffffffffffffffffffff1673ffffffffffffffffffffffffffffffffffffffff16815260200190815260200160002060008282546123649190613ee9565b925050819055506001600360008473ffffffffffffffffffffffffffffffffffffffff1673ffffffffffffffffffffffffffffffffffffffff16815260200190815260200160002060008282546123bb91906140f3565b92505081905550816002600083815260200190815260200160002060006101000a81548173ffffffffffffffffffffffffffffffffffffffff021916908373ffffffffffffffffffffffffffffffffffffffff160217905550808273ffffffffffffffffffffffffffffffffffffffff168473ffffffffffffffffffffffffffffffffffffffff167fddf252ad1be2c89b69c2b068fc378daa952ba7f163c4a11628f55a4df523b3ef60405160405180910390a461247a838383612b45565b505050565b60008083148061248f5750824210155b80156124a6575060008214806124a55750814211155b5b905092915050565b600c600301548211156124f6576040517f08c379a00000000000000000000000000000000000000000000000000000000081526004016124ed90614ad7565b60405180910390fd5b600c6004015482600a60003373ffffffffffffffffffffffffffffffffffffffff1673ffffffffffffffffffffffffffffffffffffffff1681526020019081526020016000205461254791906140f3565b1115612588576040517f08c379a000000000000000000000000000000000000000000000000000000000815260040161257f90614b43565b60405180910390fd5b600c600001548260095461259c91906140f3565b11156125dd576040517f08c379a00000000000000000000000000000000000000000000000000000000081526004016125d490614baf565b60405180910390fd5b6000816125ef57600c600101546125f6565b600c600201545b90503481846126059190613e47565b1115612646576040517f08c379a000000000000000000000000000000000000000000000000000000000815260040161263d90614c1b565b60405180910390fd5b6000600190505b8381116126785761266b338260095461266691906140f3565b612b4a565b808060010191505061264d565b5082600a60003373ffffffffffffffffffffffffffffffffffffffff1673ffffffffffffffffffffffffffffffffffffffff16815260200190815260200160002060008282546126c891906140f3565b9250508190555082600960008282546126e191906140f3565b925050819055503373ffffffffffffffffffffffffffffffffffffffff167f3f2c9d57c068687834f0de942a9babb9e5acab57d516d3480a3c16ee165a42738460405161272e9190613287565b60405180910390a2505050565b6000600660009054906101000a900473ffffffffffffffffffffffffffffffffffffffff16905081600660006101000a81548173ffffffffffffffffffffffffffffffffffffffff021916908373ffffffffffffffffffffffffffffffffffffffff1602179055508173ffffffffffffffffffffffffffffffffffffffff168173ffffffffffffffffffffffffffffffffffffffff167f8be0079c531659141344cd1fd0a4f28419497f9722a3daafe3b4186f6b6457e060405160405180910390a35050565b8173ffffffffffffffffffffffffffffffffffffffff168373ffffffffffffffffffffffffffffffffffffffff160361286f576040517f08c379a000000000000000000000000000000000000000000000000000000000815260040161286690614c87565b60405180910390fd5b80600560008573ffffffffffffffffffffffffffffffffffffffff1673ffffffffffffffffffffffffffffffffffffffff16815260200190815260200160002060008473ffffffffffffffffffffffffffffffffffffffff1673ffffffffffffffffffffffffffffffffffffffff16815260200190815260200160002060006101000a81548160ff0219169083151502179055508173ffffffffffffffffffffffffffffffffffffffff168373ffffffffffffffffffffffffffffffffffffffff167f17307eab39ab6107e8899845ad3d59bd9653f200f220920489ca2b5937696c31836040516129609190613080565b60405180910390a3505050565b612978848484612219565b61298484848484612b68565b6129c3576040517f08c379a00000000000000000000000000000000000000000000000000000000081526004016129ba90614d19565b60405180910390fd5b50505050565b6000826129d68584612cef565b1490509392505050565b606060008203612a27576040518060400160405280600181526020017f30000000000000000000000000000000000000000000000000000000000000008152509050612b3b565b600082905060005b60008214612a59578080612a4290614d39565b915050600a82612a529190613eb8565b9150612a2f565b60008167ffffffffffffffff811115612a7557612a746132fa565b5b6040519080825280601f01601f191660200182016040528015612aa75781602001600182028036833780820191505090505b5090505b60008514612b3457600182612ac09190613ee9565b9150600a85612acf9190614d81565b6030612adb91906140f3565b60f81b818381518110612af157612af0614db2565b5b60200101907effffffffffffffffffffffffffffffffffffffffffffffffffffffffffffff1916908160001a905350600a85612b2d9190613eb8565b9450612aab565b8093505050505b919050565b505050565b505050565b612b64828260405180602001604052806000815250612d5e565b5050565b6000612b898473ffffffffffffffffffffffffffffffffffffffff16612db9565b15612ce2578373ffffffffffffffffffffffffffffffffffffffff1663150b7a02612bb261207a565b8786866040518563ffffffff1660e01b8152600401612bd49493929190614e36565b6020604051808303816000875af1925050508015612c1057506040513d601f19601f82011682018060405250810190612c0d9190614e97565b60015b612c92573d8060008114612c40576040519150601f19603f3d011682016040523d82523d6000602084013e612c45565b606091505b506000815103612c8a576040517f08c379a0000000000000000000000000000000000000000000000000000000008152600401612c8190614d19565b60405180910390fd5b805181602001fd5b63150b7a0260e01b7bffffffffffffffffffffffffffffffffffffffffffffffffffffffff1916817bffffffffffffffffffffffffffffffffffffffffffffffffffffffff191614915050612ce7565b600190505b949350505050565b60008082905060005b8451811015612d53576000858281518110612d1657612d15614db2565b5b60200260200101519050808311612d3857612d318382612ddc565b9250612d45565b612d428184612ddc565b92505b508080600101915050612cf8565b508091505092915050565b612d688383612df3565b612d756000848484612b68565b612db4576040517f08c379a0000000000000000000000000000000000000000000000000000000008152600401612dab90614d19565b60405180910390fd5b505050565b6000808273ffffffffffffffffffffffffffffffffffffffff163b119050919050565b600082600052816020526040600020905092915050565b600073ffffffffffffffffffffffffffffffffffffffff168273ffffffffffffffffffffffffffffffffffffffff1603612e62576040517f08c379a0000000000000000000000000000000000000000000000000000000008152600401612e5990614f10565b60405180910390fd5b612e6b8161200e565b15612eab576040517f08c379a0000000000000000000000000000000000000000000000000000000008152600401612ea290614f7c565b60405180910390fd5b612eb760008383612b40565b6001600360008473ffffffffffffffffffffffffffffffffffffffff1673ffffffffffffffffffffffffffffffffffffffff1681526020019081526020016000206000828254612f0791906140f3565b92505081905550816002600083815260200190815260200160002060006101000a81548173ffffffffffffffffffffffffffffffffffffffff021916908373ffffffffffffffffffffffffffffffffffffffff160217905550808273ffffffffffffffffffffffffffffffffffffffff16600073ffffffffffffffffffffffffffffffffffffffff167fddf252ad1be2c89b69c2b068fc378daa952ba7f163c4a11628f55a4df523b3ef60405160405180910390a4612fc860008383612b45565b5050565b6000604051905090565b600080fd5b600080fd5b60007fffffffff0000000000000000000000000000000000000000000000000000000082169050919050565b61301581612fe0565b811461302057600080fd5b50565b6000813590506130328161300c565b92915050565b60006020828403121561304e5761304d612fd6565b5b600061305c84828501613023565b91505092915050565b60008115159050919050565b61307a81613065565b82525050565b60006020820190506130956000830184613071565b92915050565b600081519050919050565b600082825260208201905092915050565b60005b838110156130d55780820151818401526020810190506130ba565b60008484015250505050565b6000601f19601f8301169050919050565b60006130fd8261309b565b61310781856130a6565b93506131178185602086016130b7565b613120816130e1565b840191505092915050565b6000602082019050818103600083015261314581846130f2565b905092915050565b6000819050919050565b6131608161314d565b811461316b57600080fd5b50565b60008135905061317d81613157565b92915050565b60006020828403121561319957613198612fd6565b5b60006131a78482850161316e565b91505092915050565b600073ffffffffffffffffffffffffffffffffffffffff82169050919050565b60006131db826131b0565b9050919050565b6131eb816131d0565b82525050565b600060208201905061320660008301846131e2565b92915050565b613215816131d0565b811461322057600080fd5b50565b6000813590506132328161320c565b92915050565b6000806040838503121561324f5761324e612fd6565b5b600061325d85828601613223565b925050602061326e8582860161316e565b9150509250929050565b6132818161314d565b82525050565b600060208201905061329c6000830184613278565b92915050565b6000806000606084860312156132bb576132ba612fd6565b5b60006132c986828701613223565b93505060206132da86828701613223565b92505060406132eb8682870161316e565b9150509250925092565b600080fd5b7f4e487b7100000000000000000000000000000000000000000000000000000000600052604160045260246000fd5b613332826130e1565b810181811067ffffffffffffffff82111715613351576133506132fa565b5b80604052505050565b6000613364612fcc565b90506133708282613329565b919050565b600067ffffffffffffffff8211156133905761338f6132fa565b5b602082029050602081019050919050565b600080fd5b6000819050919050565b6133b9816133a6565b81146133c457600080fd5b50565b6000813590506133d6816133b0565b92915050565b60006133ef6133ea84613375565b61335a565b90508083825260208201905060208402830185811115613412576134116133a1565b5b835b8181101561343b578061342788826133c7565b845260208401935050602081019050613414565b5050509392505050565b600082601f83011261345a576134596132f5565b5b813561346a8482602086016133dc565b91505092915050565b6000806040838503121561348a57613489612fd6565b5b600083013567ffffffffffffffff8111156134a8576134a7612fdb565b5b6134b485828601613445565b92505060206134c58582860161316e565b9150509250929050565b600080604083850312156134e6576134e5612fd6565b5b60006134f48582860161316e565b92505060206135058582860161316e565b9150509250929050565b600060408201905061352460008301856131e2565b6135316020830184613278565b9392505050565b600080fd5b600067ffffffffffffffff821115613558576135576132fa565b5b613561826130e1565b9050602081019050919050565b82818337600083830152505050565b600061359061358b8461353d565b61335a565b9050828152602081018484840111156135ac576135ab613538565b5b6135b784828561356e565b509392505050565b600082601f8301126135d4576135d36132f5565b5b81356135e484826020860161357d565b91505092915050565b60006020828403121561360357613602612fd6565b5b600082013567ffffffffffffffff81111561362157613620612fdb565b5b61362d848285016135bf565b91505092915050565b600060a08201905061364b6000830188613278565b6136586020830187613278565b6136656040830186613278565b6136726060830185613278565b61367f6080830184613278565b9695505050505050565b60006020828403121561369f5761369e612fd6565b5b60006136ad84828501613223565b91505092915050565b600080600080608085870312156136d0576136cf612fd6565b5b60006136de8782880161316e565b94505060206136ef8782880161316e565b93505060406137008782880161316e565b92505060606137118782880161316e565b91505092959194509250565b600060a0820190506137326000830188613071565b61373f6020830187613278565b61374c6040830186613278565b6137596060830185613278565b6137666080830184613278565b9695505050505050565b61377981613065565b811461378457600080fd5b50565b60008135905061379681613770565b92915050565b600080604083850312156137b3576137b2612fd6565b5b60006137c185828601613223565b92505060206137d285828601613787565b9150509250929050565b600067ffffffffffffffff8211156137f7576137f66132fa565b5b613800826130e1565b9050602081019050919050565b600061382061381b846137dc565b61335a565b90508281526020810184848401111561383c5761383b613538565b5b61384784828561356e565b509392505050565b600082601f830112613864576138636132f5565b5b813561387484826020860161380d565b91505092915050565b6000806000806080858703121561389757613896612fd6565b5b60006138a587828801613223565b94505060206138b687828801613223565b93505060406138c78782880161316e565b925050606085013567ffffffffffffffff8111156138e8576138e7612fdb565b5b6138f48782880161384f565b91505092959194509250565b6000806040838503121561391757613916612fd6565b5b600083013567ffffffffffffffff81111561393557613934612fdb565b5b61394185828601613445565b9250506020613952858286016133c7565b9150509250929050565b60006020828403121561397257613971612fd6565b5b6000613980848285016133c7565b91505092915050565b600080604083850312156139a05761399f612fd6565b5b60006139ae85828601613223565b92505060206139bf85828601613223565b9150509250929050565b7f4e487b7100000000000000000000000000000000000000000000000000000000600052602260045260246000fd5b60006002820490506001821680613a1057607f821691505b602082108103613a2357613a226139c9565b5b50919050565b7f4552433732313a20617070726f76656420717565727920666f72206e6f6e657860008201527f697374656e7420746f6b656e0000000000000000000000000000000000000000602082015250565b6000613a85602c836130a6565b9150613a9082613a29565b604082019050919050565b60006020820190508181036000830152613ab481613a78565b9050919050565b7f4552433732313a20617070726f76616c20746f2063757272656e74206f776e6560008201527f7200000000000000000000000000000000000000000000000000000000000000602082015250565b6000613b176021836130a6565b9150613b2282613abb565b604082019050919050565b60006020820190508181036000830152613b4681613b0a565b9050919050565b7f4552433732313a20617070726f76652063616c6c6572206973206e6f74206f7760008201527f6e6572206e6f7220617070726f76656420666f7220616c6c0000000000000000602082015250565b6000613ba96038836130a6565b9150613bb482613b4d565b604082019050919050565b60006020820190508181036000830152613bd881613b9c565b9050919050565b7f4552433732313a207472616e736665722063616c6c6572206973206e6f74206f60008201527f776e6572206e6f7220617070726f766564000000000000000000000000000000602082015250565b6000613c3b6031836130a6565b9150613c4682613bdf565b604082019050919050565b60006020820190508181036000830152613c6a81613c2e565b9050919050565b7f57686974656c6973742073616c652069732064697361626c6564000000000000600082015250565b6000613ca7601a836130a6565b9150613cb282613c71565b602082019050919050565b60006020820190508181036000830152613cd681613c9a565b9050919050565b7f57686974656c6973742073616c65206e6f742061637469766500000000000000600082015250565b6000613d136019836130a6565b9150613d1e82613cdd565b602082019050919050565b60006020820190508181036000830152613d4281613d06565b9050919050565b60008160601b9050919050565b6000613d6182613d49565b9050919050565b6000613d7382613d56565b9050919050565b613d8b613d86826131d0565b613d68565b82525050565b6000613d9d8284613d7a565b60148201915081905092915050565b7f4e6f742077686974656c69737465640000000000000000000000000000000000600082015250565b6000613de2600f836130a6565b9150613ded82613dac565b602082019050919050565b60006020820190508181036000830152613e1181613dd5565b9050919050565b7f4e487b7100000000000000000000000000000000000000000000000000000000600052601160045260246000fd5b6000613e528261314d565b9150613e5d8361314d565b9250828202613e6b8161314d565b91508282048414831517613e8257613e81613e18565b5b5092915050565b7f4e487b7100000000000000000000000000000000000000000000000000000000600052601260045260246000fd5b6000613ec38261314d565b9150613ece8361314d565b925082613ede57613edd613e89565b5b828204905092915050565b6000613ef48261314d565b9150613eff8361314d565b9250828203905081811115613f1757613f16613e18565b5b92915050565b7f5075626c6963206d696e74696e67206973206e6f7420616c6c6f77656420626560008201527f666f72652077686974656c69737420656e647300000000000000000000000000602082015250565b6000613f796033836130a6565b9150613f8482613f1d565b604082019050919050565b60006020820190508181036000830152613fa881613f6c565b9050919050565b7f5075626c69632073616c652069732064697361626c6564000000000000000000600082015250565b6000613fe56017836130a6565b9150613ff082613faf565b602082019050919050565b6000602082019050818103600083015261401481613fd8565b9050919050565b7f5075626c69632073616c65206e6f742061637469766500000000000000000000600082015250565b60006140516016836130a6565b915061405c8261401b565b602082019050919050565b6000602082019050818103600083015261408081614044565b9050919050565b7f4f776e61626c653a2063616c6c6572206973206e6f7420746865206f776e6572600082015250565b60006140bd6020836130a6565b91506140c882614087565b602082019050919050565b600060208201905081810360008301526140ec816140b0565b9050919050565b60006140fe8261314d565b91506141098361314d565b925082820190508082111561412157614120613e18565b5b92915050565b7f546f74616c20726f79616c74792063616e6e6f74206578636565642031302500600082015250565b600061415d601f836130a6565b915061416882614127565b602082019050919050565b6000602082019050818103600083015261418c81614150565b9050919050565b60008190508160005260206000209050919050565b60006020601f8301049050919050565b600082821b905092915050565b6000600883026141f57fffffffffffffffffffffffffffffffffffffffffffffffffffffffffffffffff826141b8565b6141ff86836141b8565b95508019841693508086168417925050509392505050565b6000819050919050565b600061423c6142376142328461314d565b614217565b61314d565b9050919050565b6000819050919050565b61425683614221565b61426a61426282614243565b8484546141c5565b825550505050565b600090565b61427f614272565b61428a81848461424d565b505050565b5b818110156142ae576142a3600082614277565b600181019050614290565b5050565b601f8211156142f3576142c481614193565b6142cd846141a8565b810160208510156142dc578190505b6142f06142e8856141a8565b83018261428f565b50505b505050565b600082821c905092915050565b6000614316600019846008026142f8565b1980831691505092915050565b600061432f8383614305565b9150826002028217905092915050565b6143488261309b565b67ffffffffffffffff811115614361576143606132fa565b5b61436b82546139f8565b6143768282856142b2565b600060209050601f8311600181146143a95760008415614397578287015190505b6143a18582614323565b865550614409565b601f1984166143b786614193565b60005b828110156143df578489015182556001820191506020850194506020810190506143ba565b868310156143fc57848901516143f8601f891682614305565b8355505b6001600288020188555050505b505050505050565b60006040820190506144266000830185613071565b6144336020830184613071565b9392505050565b7f4552433732313a206f776e657220717565727920666f72206e6f6e657869737460008201527f656e7420746f6b656e0000000000000000000000000000000000000000000000602082015250565b60006144966029836130a6565b91506144a18261443a565b604082019050919050565b600060208201905081810360008301526144c581614489565b9050919050565b7f4552433732313a2062616c616e636520717565727920666f7220746865207a6560008201527f726f206164647265737300000000000000000000000000000000000000000000602082015250565b6000614528602a836130a6565b9150614533826144cc565b604082019050919050565b600060208201905081810360008301526145578161451b565b9050919050565b60006080820190506145736000830187613278565b6145806020830186613278565b61458d6040830185613278565b61459a6060830184613278565b95945050505050565b60006040820190506145b86000830185613278565b6145c56020830184613278565b9392505050565b7f5265656e7472616e637947756172643a207265656e7472616e742063616c6c00600082015250565b6000614602601f836130a6565b915061460d826145cc565b602082019050919050565b60006020820190508181036000830152614631816145f5565b9050919050565b7f4e6f2066756e647320617661696c61626c650000000000000000000000000000600082015250565b600061466e6012836130a6565b915061467982614638565b602082019050919050565b6000602082019050818103600083015261469d81614661565b9050919050565b7f4552433732314d657461646174613a2055524920717565727920666f72206e6f60008201527f6e6578697374656e7420746f6b656e0000000000000000000000000000000000602082015250565b6000614700602f836130a6565b915061470b826146a4565b604082019050919050565b6000602082019050818103600083015261472f816146f3565b9050919050565b600081905092915050565b6000815461474e816139f8565b6147588186614736565b945060018216600081146147735760018114614788576147bb565b60ff19831686528115158202860193506147bb565b61479185614193565b60005b838110156147b357815481890152600182019150602081019050614794565b838801955050505b50505092915050565b60006147cf8261309b565b6147d98185614736565b93506147e98185602086016130b7565b80840191505092915050565b60006148018285614741565b915061480d82846147c4565b91508190509392505050565b614822816133a6565b82525050565b600060208201905061483d6000830184614819565b92915050565b7f4f776e61626c653a206e6577206f776e657220697320746865207a65726f206160008201527f6464726573730000000000000000000000000000000000000000000000000000602082015250565b600061489f6026836130a6565b91506148aa82614843565b604082019050919050565b600060208201905081810360008301526148ce81614892565b9050919050565b7f4552433732313a206f70657261746f7220717565727920666f72206e6f6e657860008201527f697374656e7420746f6b656e0000000000000000000000000000000000000000602082015250565b6000614931602c836130a6565b915061493c826148d5565b604082019050919050565b6000602082019050818103600083015261496081614924565b9050919050565b7f4552433732313a207472616e736665722066726f6d20696e636f72726563742060008201527f6f776e6572000000000000000000000000000000000000000000000000000000602082015250565b60006149c36025836130a6565b91506149ce82614967565b604082019050919050565b600060208201905081810360008301526149f2816149b6565b9050919050565b7f4552433732313a207472616e7366657220746f20746865207a65726f2061646460008201527f7265737300000000000000000000000000000000000000000000000000000000602082015250565b6000614a556024836130a6565b9150614a60826149f9565b604082019050919050565b60006020820190508181036000830152614a8481614a48565b9050919050565b7f45786365656473206d6178206d696e7420706572207472616e73616374696f6e600082015250565b6000614ac16020836130a6565b9150614acc82614a8b565b602082019050919050565b60006020820190508181036000830152614af081614ab4565b9050919050565b7f457863656564732077616c6c6574206d696e74206c696d697400000000000000600082015250565b6000614b2d6019836130a6565b9150614b3882614af7565b602082019050919050565b60006020820190508181036000830152614b5c81614b20565b9050919050565b7f45786365656473206d617820737570706c790000000000000000000000000000600082015250565b6000614b996012836130a6565b9150614ba482614b63565b602082019050919050565b60006020820190508181036000830152614bc881614b8c565b9050919050565b7f496e636f7272656374204d4f4e2076616c756500000000000000000000000000600082015250565b6000614c056013836130a6565b9150614c1082614bcf565b602082019050919050565b60006020820190508181036000830152614c3481614bf8565b9050919050565b7f4552433732313a20617070726f766520746f2063616c6c657200000000000000600082015250565b6000614c716019836130a6565b9150614c7c82614c3b565b602082019050919050565b60006020820190508181036000830152614ca081614c64565b9050919050565b7f4552433732313a207472616e7366657220746f206e6f6e20455243373231526560008201527f63656976657220696d706c656d656e7465720000000000000000000000000000602082015250565b6000614d036032836130a6565b9150614d0e82614ca7565b604082019050919050565b60006020820190508181036000830152614d3281614cf6565b9050919050565b6000614d448261314d565b91507fffffffffffffffffffffffffffffffffffffffffffffffffffffffffffffffff8203614d7657614d75613e18565b5b600182019050919050565b6000614d8c8261314d565b9150614d978361314d565b925082614da757614da6613e89565b5b828206905092915050565b7f4e487b7100000000000000000000000000000000000000000000000000000000600052603260045260246000fd5b600081519050919050565b600082825260208201905092915050565b6000614e0882614de1565b614e128185614dec565b9350614e228185602086016130b7565b614e2b816130e1565b840191505092915050565b6000608082019050614e4b60008301876131e2565b614e5860208301866131e2565b614e656040830185613278565b8181036060830152614e778184614dfd565b905095945050505050565b600081519050614e918161300c565b92915050565b600060208284031215614ead57614eac612fd6565b5b6000614ebb84828501614e82565b91505092915050565b7f4552433732313a206d696e7420746f20746865207a65726f2061646472657373600082015250565b6000614efa6020836130a6565b9150614f0582614ec4565b602082019050919050565b60006020820190508181036000830152614f2981614eed565b9050919050565b7f4552433732313a20746f6b656e20616c7265616479206d696e74656400000000600082015250565b6000614f66601c836130a6565b9150614f7182614f30565b602082019050919050565b60006020820190508181036000830152614f9581614f59565b905091905056fea2646970667358221220aaa8e9e6d003883d736daef037a966ca367798c44e8fd5bc755ec1c681deccbc64736f6c634300081a0033","opcodes":"PUSH1 0x80 PUSH1 0x40 MSTORE PUSH1 0x1 PUSH1 0x16 PUSH1 0x0 PUSH2 0x100 EXP DUP2 SLOAD DUP2 PUSH1 0xFF MUL NOT AND SWAP1 DUP4 ISZERO ISZERO MUL OR SWAP1 SSTORE POP CALLVALUE DUP1 ISZERO PUSH2 0x2B JUMPI PUSH1 0x0 DUP1 REVERT JUMPDEST POP PUSH1 0x40 MLOAD PUSH2 0x5B43 CODESIZE SUB DUP1 PUSH2 0x5B43 DUP4 CODECOPY DUP2 DUP2 ADD PUSH1 0x40 MSTORE DUP2 ADD SWAP1 PUSH2 0x4D SWAP2 SWAP1 PUSH2 0x64B JUMP JUMPDEST DUP7 DUP7 DUP2 PUSH1 0x0 SWAP1 DUP2 PUSH2 0x5E SWAP2 SWAP1 PUSH2 0x95C JUMP JUMPDEST POP DUP1 PUSH1 0x1 SWAP1 DUP2 PUSH2 0x6E SWAP2 SWAP1 PUSH2 0x95C JUMP JUMPDEST POP POP POP PUSH2 0x8D PUSH2 0x82 PUSH2 0x247 PUSH1 0x20 SHL PUSH1 0x20 SHR JUMP JUMPDEST PUSH2 0x24F PUSH1 0x20 SHL PUSH1 0x20 SHR JUMP JUMPDEST PUSH1 0x1 PUSH1 0x7 DUP2 SWAP1 SSTORE POP DUP1 PUSH1 0x8 DUP2 SWAP1 SSTORE POP DUP4 PUSH1 0xC PUSH1 0x0 DUP3 ADD MLOAD DUP2 PUSH1 0x0 ADD SSTORE PUSH1 0x20 DUP3 ADD MLOAD DUP2 PUSH1 0x1 ADD SSTORE PUSH1 0x40 DUP3 ADD MLOAD DUP2 PUSH1 0x2 ADD SSTORE PUSH1 0x60 DUP3 ADD MLOAD DUP2 PUSH1 0x3 ADD SSTORE PUSH1 0x80 DUP3 ADD MLOAD DUP2 PUSH1 0x4 ADD SSTORE SWAP1 POP POP DUP3 PUSH1 0x11 PUSH1 0x0 DUP3 ADD MLOAD DUP2 PUSH1 0x0 ADD PUSH1 0x0 PUSH2 0x100 EXP DUP2 SLOAD DUP2 PUSH1 0xFF MUL NOT AND SWAP1 DUP4 ISZERO ISZERO MUL OR SWAP1 SSTORE POP PUSH1 0x20 DUP3 ADD MLOAD DUP2 PUSH1 0x1 ADD SSTORE PUSH1 0x40 DUP3 ADD MLOAD DUP2 PUSH1 0x2 ADD SSTORE PUSH1 0x60 DUP3 ADD MLOAD DUP2 PUSH1 0x3 ADD SSTORE PUSH1 0x80 DUP3 ADD MLOAD DUP2 PUSH1 0x4 ADD SSTORE SWAP1 POP POP DUP5 PUSH1 0xB SWAP1 DUP2 PUSH2 0x131 SWAP2 SWAP1 PUSH2 0x95C JUMP JUMPDEST POP DUP3 PUSH1 0x0 ADD MLOAD PUSH1 0x16 PUSH1 0x1 PUSH2 0x100 EXP DUP2 SLOAD DUP2 PUSH1 0xFF MUL NOT AND SWAP1 DUP4 ISZERO ISZERO MUL OR SWAP1 SSTORE POP PUSH2 0x3E8 PUSH1 0x64 DUP4 PUSH2 0x160 SWAP2 SWAP1 PUSH2 0xA5D JUMP JUMPDEST GT ISZERO PUSH2 0x1A1 JUMPI PUSH1 0x40 MLOAD PUSH32 0x8C379A000000000000000000000000000000000000000000000000000000000 DUP2 MSTORE PUSH1 0x4 ADD PUSH2 0x198 SWAP1 PUSH2 0xAEE JUMP JUMPDEST PUSH1 0x40 MLOAD DUP1 SWAP2 SUB SWAP1 REVERT JUMPDEST DUP2 PUSH1 0x17 DUP2 SWAP1 SSTORE POP DUP4 PUSH1 0x40 ADD MLOAD PUSH1 0xC PUSH1 0x2 ADD DUP2 SWAP1 SSTORE POP DUP3 PUSH1 0x20 ADD MLOAD PUSH1 0x11 PUSH1 0x1 ADD DUP2 SWAP1 SSTORE POP DUP3 PUSH1 0x40 ADD MLOAD PUSH1 0x11 PUSH1 0x2 ADD DUP2 SWAP1 SSTORE POP DUP3 PUSH1 0x60 ADD MLOAD PUSH1 0x11 PUSH1 0x3 ADD DUP2 SWAP1 SSTORE POP DUP3 PUSH1 0x80 ADD MLOAD PUSH1 0x11 PUSH1 0x4 ADD DUP2 SWAP1 SSTORE POP PUSH32 0xDF31A79BE646F25CF79F5F1FE56D5972E8AF0F25DE752B9021B909727A0B8EC4 DUP4 PUSH1 0x20 ADD MLOAD DUP5 PUSH1 0x40 ADD MLOAD DUP6 PUSH1 0x60 ADD MLOAD DUP7 PUSH1 0x80 ADD MLOAD PUSH1 0x40 MLOAD PUSH2 0x233 SWAP5 SWAP4 SWAP3 SWAP2 SWAP1 PUSH2 0xB1D JUMP JUMPDEST PUSH1 0x40 MLOAD DUP1 SWAP2 SUB SWAP1 LOG1 POP POP POP POP POP POP POP PUSH2 0xB62 JUMP JUMPDEST PUSH1 0x0 CALLER SWAP1 POP SWAP1 JUMP JUMPDEST PUSH1 0x0 PUSH1 0x6 PUSH1 0x0 SWAP1 SLOAD SWAP1 PUSH2 0x100 EXP SWAP1 DIV PUSH20 0xFFFFFFFFFFFFFFFFFFFFFFFFFFFFFFFFFFFFFFFF AND SWAP1 POP DUP2 PUSH1 0x6 PUSH1 0x0 PUSH2 0x100 EXP DUP2 SLOAD DUP2 PUSH20 0xFFFFFFFFFFFFFFFFFFFFFFFFFFFFFFFFFFFFFFFF MUL NOT AND SWAP1 DUP4 PUSH20 0xFFFFFFFFFFFFFFFFFFFFFFFFFFFFFFFFFFFFFFFF AND MUL OR SWAP1 SSTORE POP DUP2 PUSH20 0xFFFFFFFFFFFFFFFFFFFFFFFFFFFFFFFFFFFFFFFF AND DUP2 PUSH20 0xFFFFFFFFFFFFFFFFFFFFFFFFFFFFFFFFFFFFFFFF AND PUSH32 0x8BE0079C531659141344CD1FD0A4F28419497F9722A3DAAFE3B4186F6B6457E0 PUSH1 0x40 MLOAD PUSH1 0x40 MLOAD DUP1 SWAP2 SUB SWAP1 LOG3 POP POP JUMP JUMPDEST PUSH1 0x0 PUSH1 0x40 MLOAD SWAP1 POP SWAP1 JUMP JUMPDEST PUSH1 0x0 DUP1 REVERT JUMPDEST PUSH1 0x0 DUP1 REVERT JUMPDEST PUSH1 0x0 DUP1 REVERT JUMPDEST PUSH1 0x0 DUP1 REVERT JUMPDEST PUSH1 0x0 PUSH1 0x1F NOT PUSH1 0x1F DUP4 ADD AND SWAP1 POP SWAP2 SWAP1 POP JUMP JUMPDEST PUSH32 0x4E487B7100000000000000000000000000000000000000000000000000000000 PUSH1 0x0 MSTORE PUSH1 0x41 PUSH1 0x4 MSTORE PUSH1 0x24 PUSH1 0x0 REVERT JUMPDEST PUSH2 0x37C DUP3 PUSH2 0x333 JUMP JUMPDEST DUP2 ADD DUP2 DUP2 LT PUSH8 0xFFFFFFFFFFFFFFFF DUP3 GT OR ISZERO PUSH2 0x39B JUMPI PUSH2 0x39A PUSH2 0x344 JUMP JUMPDEST JUMPDEST DUP1 PUSH1 0x40 MSTORE POP POP POP JUMP JUMPDEST PUSH1 0x0 PUSH2 0x3AE PUSH2 0x315 JUMP JUMPDEST SWAP1 POP PUSH2 0x3BA DUP3 DUP3 PUSH2 0x373 JUMP JUMPDEST SWAP2 SWAP1 POP JUMP JUMPDEST PUSH1 0x0 PUSH8 0xFFFFFFFFFFFFFFFF DUP3 GT ISZERO PUSH2 0x3DA JUMPI PUSH2 0x3D9 PUSH2 0x344 JUMP JUMPDEST JUMPDEST PUSH2 0x3E3 DUP3 PUSH2 0x333 JUMP JUMPDEST SWAP1 POP PUSH1 0x20 DUP2 ADD SWAP1 POP SWAP2 SWAP1 POP JUMP JUMPDEST PUSH1 0x0 JUMPDEST DUP4 DUP2 LT ISZERO PUSH2 0x40E JUMPI DUP1 DUP3 ADD MLOAD DUP2 DUP5 ADD MSTORE PUSH1 0x20 DUP2 ADD SWAP1 POP PUSH2 0x3F3 JUMP JUMPDEST PUSH1 0x0 DUP5 DUP5 ADD MSTORE POP POP POP POP JUMP JUMPDEST PUSH1 0x0 PUSH2 0x42D PUSH2 0x428 DUP5 PUSH2 0x3BF JUMP JUMPDEST PUSH2 0x3A4 JUMP JUMPDEST SWAP1 POP DUP3 DUP2 MSTORE PUSH1 0x20 DUP2 ADD DUP5 DUP5 DUP5 ADD GT ISZERO PUSH2 0x449 JUMPI PUSH2 0x448 PUSH2 0x32E JUMP JUMPDEST JUMPDEST PUSH2 0x454 DUP5 DUP3 DUP6 PUSH2 0x3F0 JUMP JUMPDEST POP SWAP4 SWAP3 POP POP POP JUMP JUMPDEST PUSH1 0x0 DUP3 PUSH1 0x1F DUP4 ADD SLT PUSH2 0x471 JUMPI PUSH2 0x470 PUSH2 0x329 JUMP JUMPDEST JUMPDEST DUP2 MLOAD PUSH2 0x481 DUP5 DUP3 PUSH1 0x20 DUP7 ADD PUSH2 0x41A JUMP JUMPDEST SWAP2 POP POP SWAP3 SWAP2 POP POP JUMP JUMPDEST PUSH1 0x0 DUP1 REVERT JUMPDEST PUSH1 0x0 DUP2 SWAP1 POP SWAP2 SWAP1 POP JUMP JUMPDEST PUSH2 0x4A2 DUP2 PUSH2 0x48F JUMP JUMPDEST DUP2 EQ PUSH2 0x4AD JUMPI PUSH1 0x0 DUP1 REVERT JUMPDEST POP JUMP JUMPDEST PUSH1 0x0 DUP2 MLOAD SWAP1 POP PUSH2 0x4BF DUP2 PUSH2 0x499 JUMP JUMPDEST SWAP3 SWAP2 POP POP JUMP JUMPDEST PUSH1 0x0 PUSH1 0xA0 DUP3 DUP5 SUB SLT ISZERO PUSH2 0x4DB JUMPI PUSH2 0x4DA PUSH2 0x48A JUMP JUMPDEST JUMPDEST PUSH2 0x4E5 PUSH1 0xA0 PUSH2 0x3A4 JUMP JUMPDEST SWAP1 POP PUSH1 0x0 PUSH2 0x4F5 DUP5 DUP3 DUP6 ADD PUSH2 0x4B0 JUMP JUMPDEST PUSH1 0x0 DUP4 ADD MSTORE POP PUSH1 0x20 PUSH2 0x509 DUP5 DUP3 DUP6 ADD PUSH2 0x4B0 JUMP JUMPDEST PUSH1 0x20 DUP4 ADD MSTORE POP PUSH1 0x40 PUSH2 0x51D DUP5 DUP3 DUP6 ADD PUSH2 0x4B0 JUMP JUMPDEST PUSH1 0x40 DUP4 ADD MSTORE POP PUSH1 0x60 PUSH2 0x531 DUP5 DUP3 DUP6 ADD PUSH2 0x4B0 JUMP JUMPDEST PUSH1 0x60 DUP4 ADD MSTORE POP PUSH1 0x80 PUSH2 0x545 DUP5 DUP3 DUP6 ADD PUSH2 0x4B0 JUMP JUMPDEST PUSH1 0x80 DUP4 ADD MSTORE POP SWAP3 SWAP2 POP POP JUMP JUMPDEST PUSH1 0x0 DUP2 ISZERO ISZERO SWAP1 POP SWAP2 SWAP1 POP JUMP JUMPDEST PUSH2 0x566 DUP2 PUSH2 0x551 JUMP JUMPDEST DUP2 EQ PUSH2 0x571 JUMPI PUSH1 0x0 DUP1 REVERT JUMPDEST POP JUMP JUMPDEST PUSH1 0x0 DUP2 MLOAD SWAP1 POP PUSH2 0x583 DUP2 PUSH2 0x55D JUMP JUMPDEST SWAP3 SWAP2 POP POP JUMP JUMPDEST PUSH1 0x0 PUSH1 0xA0 DUP3 DUP5 SUB SLT ISZERO PUSH2 0x59F JUMPI PUSH2 0x59E PUSH2 0x48A JUMP JUMPDEST JUMPDEST PUSH2 0x5A9 PUSH1 0xA0 PUSH2 0x3A4 JUMP JUMPDEST SWAP1 POP PUSH1 0x0 PUSH2 0x5B9 DUP5 DUP3 DUP6 ADD PUSH2 0x574 JUMP JUMPDEST PUSH1 0x0 DUP4 ADD MSTORE POP PUSH1 0x20 PUSH2 0x5CD DUP5 DUP3 DUP6 ADD PUSH2 0x4B0 JUMP JUMPDEST PUSH1 0x20 DUP4 ADD MSTORE POP PUSH1 0x40 PUSH2 0x5E1 DUP5 DUP3 DUP6 ADD PUSH2 0x4B0 JUMP JUMPDEST PUSH1 0x40 DUP4 ADD MSTORE POP PUSH1 0x60 PUSH2 0x5F5 DUP5 DUP3 DUP6 ADD PUSH2 0x4B0 JUMP JUMPDEST PUSH1 0x60 DUP4 ADD MSTORE POP PUSH1 0x80 PUSH2 0x609 DUP5 DUP3 DUP6 ADD PUSH2 0x4B0 JUMP JUMPDEST PUSH1 0x80 DUP4 ADD MSTORE POP SWAP3 SWAP2 POP POP JUMP JUMPDEST PUSH1 0x0 DUP2 SWAP1 POP SWAP2 SWAP1 POP JUMP JUMPDEST PUSH2 0x628 DUP2 PUSH2 0x615 JUMP JUMPDEST DUP2 EQ PUSH2 0x633 JUMPI PUSH1 0x0 DUP1 REVERT JUMPDEST POP JUMP JUMPDEST PUSH1 0x0 DUP2 MLOAD SWAP1 POP PUSH2 0x645 DUP2 PUSH2 0x61F JUMP JUMPDEST SWAP3 SWAP2 POP POP JUMP JUMPDEST PUSH1 0x0 DUP1 PUSH1 0x0 DUP1 PUSH1 0x0 DUP1 PUSH1 0x0 PUSH2 0x1E0 DUP9 DUP11 SUB SLT ISZERO PUSH2 0x66B JUMPI PUSH2 0x66A PUSH2 0x31F JUMP JUMPDEST JUMPDEST PUSH1 0x0 DUP9 ADD MLOAD PUSH8 0xFFFFFFFFFFFFFFFF DUP2 GT ISZERO PUSH2 0x689 JUMPI PUSH2 0x688 PUSH2 0x324 JUMP JUMPDEST JUMPDEST PUSH2 0x695 DUP11 DUP3 DUP12 ADD PUSH2 0x45C JUMP JUMPDEST SWAP8 POP POP PUSH1 0x20 DUP9 ADD MLOAD PUSH8 0xFFFFFFFFFFFFFFFF DUP2 GT ISZERO PUSH2 0x6B6 JUMPI PUSH2 0x6B5 PUSH2 0x324 JUMP JUMPDEST JUMPDEST PUSH2 0x6C2 DUP11 DUP3 DUP12 ADD PUSH2 0x45C JUMP JUMPDEST SWAP7 POP POP PUSH1 0x40 DUP9 ADD MLOAD PUSH8 0xFFFFFFFFFFFFFFFF DUP2 GT ISZERO PUSH2 0x6E3 JUMPI PUSH2 0x6E2 PUSH2 0x324 JUMP JUMPDEST JUMPDEST PUSH2 0x6EF DUP11 DUP3 DUP12 ADD PUSH2 0x45C JUMP JUMPDEST SWAP6 POP POP PUSH1 0x60 PUSH2 0x700 DUP11 DUP3 DUP12 ADD PUSH2 0x4C5 JUMP JUMPDEST SWAP5 POP POP PUSH2 0x100 PUSH2 0x712 DUP11 DUP3 DUP12 ADD PUSH2 0x589 JUMP JUMPDEST SWAP4 POP POP PUSH2 0x1A0 PUSH2 0x724 DUP11 DUP3 DUP12 ADD PUSH2 0x4B0 JUMP JUMPDEST SWAP3 POP POP PUSH2 0x1C0 PUSH2 0x736 DUP11 DUP3 DUP12 ADD PUSH2 0x636 JUMP JUMPDEST SWAP2 POP POP SWAP3 SWAP6 SWAP9 SWAP2 SWAP5 SWAP8 POP SWAP3 SWAP6 POP JUMP JUMPDEST PUSH1 0x0 DUP2 MLOAD SWAP1 POP SWAP2 SWAP1 POP JUMP JUMPDEST PUSH32 0x4E487B7100000000000000000000000000000000000000000000000000000000 PUSH1 0x0 MSTORE PUSH1 0x22 PUSH1 0x4 MSTORE PUSH1 0x24 PUSH1 0x0 REVERT JUMPDEST PUSH1 0x0 PUSH1 0x2 DUP3 DIV SWAP1 POP PUSH1 0x1 DUP3 AND DUP1 PUSH2 0x797 JUMPI PUSH1 0x7F DUP3 AND SWAP2 POP JUMPDEST PUSH1 0x20 DUP3 LT DUP2 SUB PUSH2 0x7AA JUMPI PUSH2 0x7A9 PUSH2 0x750 JUMP JUMPDEST JUMPDEST POP SWAP2 SWAP1 POP JUMP JUMPDEST PUSH1 0x0 DUP2 SWAP1 POP DUP2 PUSH1 0x0 MSTORE PUSH1 0x20 PUSH1 0x0 KECCAK256 SWAP1 POP SWAP2 SWAP1 POP JUMP JUMPDEST PUSH1 0x0 PUSH1 0x20 PUSH1 0x1F DUP4 ADD DIV SWAP1 POP SWAP2 SWAP1 POP JUMP JUMPDEST PUSH1 0x0 DUP3 DUP3 SHL SWAP1 POP SWAP3 SWAP2 POP POP JUMP JUMPDEST PUSH1 0x0 PUSH1 0x8 DUP4 MUL PUSH2 0x812 PUSH32 0xFFFFFFFFFFFFFFFFFFFFFFFFFFFFFFFFFFFFFFFFFFFFFFFFFFFFFFFFFFFFFFFF DUP3 PUSH2 0x7D5 JUMP JUMPDEST PUSH2 0x81C DUP7 DUP4 PUSH2 0x7D5 JUMP JUMPDEST SWAP6 POP DUP1 NOT DUP5 AND SWAP4 POP DUP1 DUP7 AND DUP5 OR SWAP3 POP POP POP SWAP4 SWAP3 POP POP POP JUMP JUMPDEST PUSH1 0x0 DUP2 SWAP1 POP SWAP2 SWAP1 POP JUMP JUMPDEST PUSH1 0x0 PUSH2 0x859 PUSH2 0x854 PUSH2 0x84F DUP5 PUSH2 0x48F JUMP JUMPDEST PUSH2 0x834 JUMP JUMPDEST PUSH2 0x48F JUMP JUMPDEST SWAP1 POP SWAP2 SWAP1 POP JUMP JUMPDEST PUSH1 0x0 DUP2 SWAP1 POP SWAP2 SWAP1 POP JUMP JUMPDEST PUSH2 0x873 DUP4 PUSH2 0x83E JUMP JUMPDEST PUSH2 0x887 PUSH2 0x87F DUP3 PUSH2 0x860 JUMP JUMPDEST DUP5 DUP5 SLOAD PUSH2 0x7E2 JUMP JUMPDEST DUP3 SSTORE POP POP POP POP JUMP JUMPDEST PUSH1 0x0 SWAP1 JUMP JUMPDEST PUSH2 0x89C PUSH2 0x88F JUMP JUMPDEST PUSH2 0x8A7 DUP2 DUP5 DUP5 PUSH2 0x86A JUMP JUMPDEST POP POP POP JUMP JUMPDEST JUMPDEST DUP2 DUP2 LT ISZERO PUSH2 0x8CB JUMPI PUSH2 0x8C0 PUSH1 0x0 DUP3 PUSH2 0x894 JUMP JUMPDEST PUSH1 0x1 DUP2 ADD SWAP1 POP PUSH2 0x8AD JUMP JUMPDEST POP POP JUMP JUMPDEST PUSH1 0x1F DUP3 GT ISZERO PUSH2 0x910 JUMPI PUSH2 0x8E1 DUP2 PUSH2 0x7B0 JUMP JUMPDEST PUSH2 0x8EA DUP5 PUSH2 0x7C5 JUMP JUMPDEST DUP2 ADD PUSH1 0x20 DUP6 LT ISZERO PUSH2 0x8F9 JUMPI DUP2 SWAP1 POP JUMPDEST PUSH2 0x90D PUSH2 0x905 DUP6 PUSH2 0x7C5 JUMP JUMPDEST DUP4 ADD DUP3 PUSH2 0x8AC JUMP JUMPDEST POP POP JUMPDEST POP POP POP JUMP JUMPDEST PUSH1 0x0 DUP3 DUP3 SHR SWAP1 POP SWAP3 SWAP2 POP POP JUMP JUMPDEST PUSH1 0x0 PUSH2 0x933 PUSH1 0x0 NOT DUP5 PUSH1 0x8 MUL PUSH2 0x915 JUMP JUMPDEST NOT DUP1 DUP4 AND SWAP2 POP POP SWAP3 SWAP2 POP POP JUMP JUMPDEST PUSH1 0x0 PUSH2 0x94C DUP4 DUP4 PUSH2 0x922 JUMP JUMPDEST SWAP2 POP DUP3 PUSH1 0x2 MUL DUP3 OR SWAP1 POP SWAP3 SWAP2 POP POP JUMP JUMPDEST PUSH2 0x965 DUP3 PUSH2 0x745 JUMP JUMPDEST PUSH8 0xFFFFFFFFFFFFFFFF DUP2 GT ISZERO PUSH2 0x97E JUMPI PUSH2 0x97D PUSH2 0x344 JUMP JUMPDEST JUMPDEST PUSH2 0x988 DUP3 SLOAD PUSH2 0x77F JUMP JUMPDEST PUSH2 0x993 DUP3 DUP3 DUP6 PUSH2 0x8CF JUMP JUMPDEST PUSH1 0x0 PUSH1 0x20 SWAP1 POP PUSH1 0x1F DUP4 GT PUSH1 0x1 DUP2 EQ PUSH2 0x9C6 JUMPI PUSH1 0x0 DUP5 ISZERO PUSH2 0x9B4 JUMPI DUP3 DUP8 ADD MLOAD SWAP1 POP JUMPDEST PUSH2 0x9BE DUP6 DUP3 PUSH2 0x940 JUMP JUMPDEST DUP7 SSTORE POP PUSH2 0xA26 JUMP JUMPDEST PUSH1 0x1F NOT DUP5 AND PUSH2 0x9D4 DUP7 PUSH2 0x7B0 JUMP JUMPDEST PUSH1 0x0 JUMPDEST DUP3 DUP2 LT ISZERO PUSH2 0x9FC JUMPI DUP5 DUP10 ADD MLOAD DUP3 SSTORE PUSH1 0x1 DUP3 ADD SWAP2 POP PUSH1 0x20 DUP6 ADD SWAP5 POP PUSH1 0x20 DUP2 ADD SWAP1 POP PUSH2 0x9D7 JUMP JUMPDEST DUP7 DUP4 LT ISZERO PUSH2 0xA19 JUMPI DUP5 DUP10 ADD MLOAD PUSH2 0xA15 PUSH1 0x1F DUP10 AND DUP3 PUSH2 0x922 JUMP JUMPDEST DUP4 SSTORE POP JUMPDEST PUSH1 0x1 PUSH1 0x2 DUP9 MUL ADD DUP9 SSTORE POP POP POP JUMPDEST POP POP POP POP POP POP JUMP JUMPDEST PUSH32 0x4E487B7100000000000000000000000000000000000000000000000000000000 PUSH1 0x0 MSTORE PUSH1 0x11 PUSH1 0x4 MSTORE PUSH1 0x24 PUSH1 0x0 REVERT JUMPDEST PUSH1 0x0 PUSH2 0xA68 DUP3 PUSH2 0x48F JUMP JUMPDEST SWAP2 POP PUSH2 0xA73 DUP4 PUSH2 0x48F JUMP JUMPDEST SWAP3 POP DUP3 DUP3 ADD SWAP1 POP DUP1 DUP3 GT ISZERO PUSH2 0xA8B JUMPI PUSH2 0xA8A PUSH2 0xA2E JUMP JUMPDEST JUMPDEST SWAP3 SWAP2 POP POP JUMP JUMPDEST PUSH1 0x0 DUP3 DUP3 MSTORE PUSH1 0x20 DUP3 ADD SWAP1 POP SWAP3 SWAP2 POP POP JUMP JUMPDEST PUSH32 0x546F74616C20726F79616C74792063616E6E6F74206578636565642031302500 PUSH1 0x0 DUP3 ADD MSTORE POP JUMP JUMPDEST PUSH1 0x0 PUSH2 0xAD8 PUSH1 0x1F DUP4 PUSH2 0xA91 JUMP JUMPDEST SWAP2 POP PUSH2 0xAE3 DUP3 PUSH2 0xAA2 JUMP JUMPDEST PUSH1 0x20 DUP3 ADD SWAP1 POP SWAP2 SWAP1 POP JUMP JUMPDEST PUSH1 0x0 PUSH1 0x20 DUP3 ADD SWAP1 POP DUP2 DUP2 SUB PUSH1 0x0 DUP4 ADD MSTORE PUSH2 0xB07 DUP2 PUSH2 0xACB JUMP JUMPDEST SWAP1 POP SWAP2 SWAP1 POP JUMP JUMPDEST PUSH2 0xB17 DUP2 PUSH2 0x48F JUMP JUMPDEST DUP3 MSTORE POP POP JUMP JUMPDEST PUSH1 0x0 PUSH1 0x80 DUP3 ADD SWAP1 POP PUSH2 0xB32 PUSH1 0x0 DUP4 ADD DUP8 PUSH2 0xB0E JUMP JUMPDEST PUSH2 0xB3F PUSH1 0x20 DUP4 ADD DUP7 PUSH2 0xB0E JUMP JUMPDEST PUSH2 0xB4C PUSH1 0x40 DUP4 ADD DUP6 PUSH2 0xB0E JUMP JUMPDEST PUSH2 0xB59 PUSH1 0x60 DUP4 ADD DUP5 PUSH2 0xB0E JUMP JUMPDEST SWAP6 SWAP5 POP POP POP POP POP JUMP JUMPDEST PUSH2 0x4FD2 DUP1 PUSH2 0xB71 PUSH1 0x0 CODECOPY PUSH1 0x0 RETURN INVALID PUSH1 0x80 PUSH1 0x40 MSTORE PUSH1 0x4 CALLDATASIZE LT PUSH2 0x230 JUMPI PUSH1 0x0 CALLDATALOAD PUSH1 0xE0 SHR DUP1 PUSH4 0x717D57D3 GT PUSH2 0x12E JUMPI DUP1 PUSH4 0xB88D4FDE GT PUSH2 0xAB JUMPI DUP1 PUSH4 0xD6B8A82E GT PUSH2 0x6F JUMPI DUP1 PUSH4 0xD6B8A82E EQ PUSH2 0x802 JUMPI DUP1 PUSH4 0xDAB5F340 EQ PUSH2 0x82D JUMPI DUP1 PUSH4 0xE222C7F9 EQ PUSH2 0x856 JUMPI DUP1 PUSH4 0xE985E9C5 EQ PUSH2 0x86D JUMPI DUP1 PUSH4 0xF2FDE38B EQ PUSH2 0x8AA JUMPI PUSH2 0x230 JUMP JUMPDEST DUP1 PUSH4 0xB88D4FDE EQ PUSH2 0x709 JUMPI DUP1 PUSH4 0xB8997A97 EQ PUSH2 0x732 JUMPI DUP1 PUSH4 0xB8A20ED0 EQ PUSH2 0x75D JUMPI DUP1 PUSH4 0xBBC28489 EQ PUSH2 0x79A JUMPI DUP1 PUSH4 0xC87B56DD EQ PUSH2 0x7C5 JUMPI PUSH2 0x230 JUMP JUMPDEST DUP1 PUSH4 0x90AA0B0F GT PUSH2 0xF2 JUMPI DUP1 PUSH4 0x90AA0B0F EQ PUSH2 0x632 JUMPI DUP1 PUSH4 0x91B7F5ED EQ PUSH2 0x661 JUMPI DUP1 PUSH4 0x95D89B41 EQ PUSH2 0x68A JUMPI DUP1 PUSH4 0x9ABC8320 EQ PUSH2 0x6B5 JUMPI DUP1 PUSH4 0xA22CB465 EQ PUSH2 0x6E0 JUMPI PUSH2 0x230 JUMP JUMPDEST DUP1 PUSH4 0x717D57D3 EQ PUSH2 0x575 JUMPI DUP1 PUSH4 0x7BC10294 EQ PUSH2 0x59E JUMPI DUP1 PUSH4 0x7F31D96A EQ PUSH2 0x5C7 JUMPI DUP1 PUSH4 0x853828B6 EQ PUSH2 0x5F0 JUMPI DUP1 PUSH4 0x8DA5CB5B EQ PUSH2 0x607 JUMPI PUSH2 0x230 JUMP JUMPDEST DUP1 PUSH4 0x2DB11544 GT PUSH2 0x1BC JUMPI DUP1 PUSH4 0x59EDA1B5 GT PUSH2 0x180 JUMPI DUP1 PUSH4 0x59EDA1B5 EQ PUSH2 0x49E JUMPI DUP1 PUSH4 0x6352211E EQ PUSH2 0x4B5 JUMPI DUP1 PUSH4 0x6B34D725 EQ PUSH2 0x4F2 JUMPI DUP1 PUSH4 0x70A08231 EQ PUSH2 0x521 JUMPI DUP1 PUSH4 0x715018A6 EQ PUSH2 0x55E JUMPI PUSH2 0x230 JUMP JUMPDEST DUP1 PUSH4 0x2DB11544 EQ PUSH2 0x3DC JUMPI DUP1 PUSH4 0x4209A2E1 EQ PUSH2 0x3F8 JUMPI DUP1 PUSH4 0x42842E0E EQ PUSH2 0x421 JUMPI DUP1 PUSH4 0x524513D6 EQ PUSH2 0x44A JUMPI DUP1 PUSH4 0x55F804B3 EQ PUSH2 0x475 JUMPI PUSH2 0x230 JUMP JUMPDEST DUP1 PUSH4 0x18160DDD GT PUSH2 0x203 JUMPI DUP1 PUSH4 0x18160DDD EQ PUSH2 0x303 JUMPI DUP1 PUSH4 0x1E84C413 EQ PUSH2 0x32E JUMPI DUP1 PUSH4 0x23B872DD EQ PUSH2 0x359 JUMPI DUP1 PUSH4 0x2904E6D9 EQ PUSH2 0x382 JUMPI DUP1 PUSH4 0x2A55205A EQ PUSH2 0x39E JUMPI PUSH2 0x230 JUMP JUMPDEST DUP1 PUSH4 0x1FFC9A7 EQ PUSH2 0x235 JUMPI DUP1 PUSH4 0x6FDDE03 EQ PUSH2 0x272 JUMPI DUP1 PUSH4 0x81812FC EQ PUSH2 0x29D JUMPI DUP1 PUSH4 0x95EA7B3 EQ PUSH2 0x2DA JUMPI JUMPDEST PUSH1 0x0 DUP1 REVERT JUMPDEST CALLVALUE DUP1 ISZERO PUSH2 0x241 JUMPI PUSH1 0x0 DUP1 REVERT JUMPDEST POP PUSH2 0x25C PUSH1 0x4 DUP1 CALLDATASIZE SUB DUP2 ADD SWAP1 PUSH2 0x257 SWAP2 SWAP1 PUSH2 0x3038 JUMP JUMPDEST PUSH2 0x8D3 JUMP JUMPDEST PUSH1 0x40 MLOAD PUSH2 0x269 SWAP2 SWAP1 PUSH2 0x3080 JUMP JUMPDEST PUSH1 0x40 MLOAD DUP1 SWAP2 SUB SWAP1 RETURN JUMPDEST CALLVALUE DUP1 ISZERO PUSH2 0x27E JUMPI PUSH1 0x0 DUP1 REVERT JUMPDEST POP PUSH2 0x287 PUSH2 0x9B5 JUMP JUMPDEST PUSH1 0x40 MLOAD PUSH2 0x294 SWAP2 SWAP1 PUSH2 0x312B JUMP JUMPDEST PUSH1 0x40 MLOAD DUP1 SWAP2 SUB SWAP1 RETURN JUMPDEST CALLVALUE DUP1 ISZERO PUSH2 0x2A9 JUMPI PUSH1 0x0 DUP1 REVERT JUMPDEST POP PUSH2 0x2C4 PUSH1 0x4 DUP1 CALLDATASIZE SUB DUP2 ADD SWAP1 PUSH2 0x2BF SWAP2 SWAP1 PUSH2 0x3183 JUMP JUMPDEST PUSH2 0xA47 JUMP JUMPDEST PUSH1 0x40 MLOAD PUSH2 0x2D1 SWAP2 SWAP1 PUSH2 0x31F1 JUMP JUMPDEST PUSH1 0x40 MLOAD DUP1 SWAP2 SUB SWAP1 RETURN JUMPDEST CALLVALUE DUP1 ISZERO PUSH2 0x2E6 JUMPI PUSH1 0x0 DUP1 REVERT JUMPDEST POP PUSH2 0x301 PUSH1 0x4 DUP1 CALLDATASIZE SUB DUP2 ADD SWAP1 PUSH2 0x2FC SWAP2 SWAP1 PUSH2 0x3238 JUMP JUMPDEST PUSH2 0xACC JUMP JUMPDEST STOP JUMPDEST CALLVALUE DUP1 ISZERO PUSH2 0x30F JUMPI PUSH1 0x0 DUP1 REVERT JUMPDEST POP PUSH2 0x318 PUSH2 0xBE3 JUMP JUMPDEST PUSH1 0x40 MLOAD PUSH2 0x325 SWAP2 SWAP1 PUSH2 0x3287 JUMP JUMPDEST PUSH1 0x40 MLOAD DUP1 SWAP2 SUB SWAP1 RETURN JUMPDEST CALLVALUE DUP1 ISZERO PUSH2 0x33A JUMPI PUSH1 0x0 DUP1 REVERT JUMPDEST POP PUSH2 0x343 PUSH2 0xBE9 JUMP JUMPDEST PUSH1 0x40 MLOAD PUSH2 0x350 SWAP2 SWAP1 PUSH2 0x3080 JUMP JUMPDEST PUSH1 0x40 MLOAD DUP1 SWAP2 SUB SWAP1 RETURN JUMPDEST CALLVALUE DUP1 ISZERO PUSH2 0x365 JUMPI PUSH1 0x0 DUP1 REVERT JUMPDEST POP PUSH2 0x380 PUSH1 0x4 DUP1 CALLDATASIZE SUB DUP2 ADD SWAP1 PUSH2 0x37B SWAP2 SWAP1 PUSH2 0x32A2 JUMP JUMPDEST PUSH2 0xBFC JUMP JUMPDEST STOP JUMPDEST PUSH2 0x39C PUSH1 0x4 DUP1 CALLDATASIZE SUB DUP2 ADD SWAP1 PUSH2 0x397 SWAP2 SWAP1 PUSH2 0x3473 JUMP JUMPDEST PUSH2 0xC5C JUMP JUMPDEST STOP JUMPDEST CALLVALUE DUP1 ISZERO PUSH2 0x3AA JUMPI PUSH1 0x0 DUP1 REVERT JUMPDEST POP PUSH2 0x3C5 PUSH1 0x4 DUP1 CALLDATASIZE SUB DUP2 ADD SWAP1 PUSH2 0x3C0 SWAP2 SWAP1 PUSH2 0x34CF JUMP JUMPDEST PUSH2 0xD7C JUMP JUMPDEST PUSH1 0x40 MLOAD PUSH2 0x3D3 SWAP3 SWAP2 SWAP1 PUSH2 0x350F JUMP JUMPDEST PUSH1 0x40 MLOAD DUP1 SWAP2 SUB SWAP1 RETURN JUMPDEST PUSH2 0x3F6 PUSH1 0x4 DUP1 CALLDATASIZE SUB DUP2 ADD SWAP1 PUSH2 0x3F1 SWAP2 SWAP1 PUSH2 0x3183 JUMP JUMPDEST PUSH2 0xDDD JUMP JUMPDEST STOP JUMPDEST CALLVALUE DUP1 ISZERO PUSH2 0x404 JUMPI PUSH1 0x0 DUP1 REVERT JUMPDEST POP PUSH2 0x41F PUSH1 0x4 DUP1 CALLDATASIZE SUB DUP2 ADD SWAP1 PUSH2 0x41A SWAP2 SWAP1 PUSH2 0x3183 JUMP JUMPDEST PUSH2 0xEF0 JUMP JUMPDEST STOP JUMPDEST CALLVALUE DUP1 ISZERO PUSH2 0x42D JUMPI PUSH1 0x0 DUP1 REVERT JUMPDEST POP PUSH2 0x448 PUSH1 0x4 DUP1 CALLDATASIZE SUB DUP2 ADD SWAP1 PUSH2 0x443 SWAP2 SWAP1 PUSH2 0x32A2 JUMP JUMPDEST PUSH2 0xFFE JUMP JUMPDEST STOP JUMPDEST CALLVALUE DUP1 ISZERO PUSH2 0x456 JUMPI PUSH1 0x0 DUP1 REVERT JUMPDEST POP PUSH2 0x45F PUSH2 0x101E JUMP JUMPDEST PUSH1 0x40 MLOAD PUSH2 0x46C SWAP2 SWAP1 PUSH2 0x3080 JUMP JUMPDEST PUSH1 0x40 MLOAD DUP1 SWAP2 SUB SWAP1 RETURN JUMPDEST CALLVALUE DUP1 ISZERO PUSH2 0x481 JUMPI PUSH1 0x0 DUP1 REVERT JUMPDEST POP PUSH2 0x49C PUSH1 0x4 DUP1 CALLDATASIZE SUB DUP2 ADD SWAP1 PUSH2 0x497 SWAP2 SWAP1 PUSH2 0x35ED JUMP JUMPDEST PUSH2 0x1031 JUMP JUMPDEST STOP JUMPDEST CALLVALUE DUP1 ISZERO PUSH2 0x4AA JUMPI PUSH1 0x0 DUP1 REVERT JUMPDEST POP PUSH2 0x4B3 PUSH2 0x10F7 JUMP JUMPDEST STOP JUMPDEST CALLVALUE DUP1 ISZERO PUSH2 0x4C1 JUMPI PUSH1 0x0 DUP1 REVERT JUMPDEST POP PUSH2 0x4DC PUSH1 0x4 DUP1 CALLDATASIZE SUB DUP2 ADD SWAP1 PUSH2 0x4D7 SWAP2 SWAP1 PUSH2 0x3183 JUMP JUMPDEST PUSH2 0x11F6 JUMP JUMPDEST PUSH1 0x40 MLOAD PUSH2 0x4E9 SWAP2 SWAP1 PUSH2 0x31F1 JUMP JUMPDEST PUSH1 0x40 MLOAD DUP1 SWAP2 SUB SWAP1 RETURN JUMPDEST CALLVALUE DUP1 ISZERO PUSH2 0x4FE JUMPI PUSH1 0x0 DUP1 REVERT JUMPDEST POP PUSH2 0x507 PUSH2 0x12A7 JUMP JUMPDEST PUSH1 0x40 MLOAD PUSH2 0x518 SWAP6 SWAP5 SWAP4 SWAP3 SWAP2 SWAP1 PUSH2 0x3636 JUMP JUMPDEST PUSH1 0x40 MLOAD DUP1 SWAP2 SUB SWAP1 RETURN JUMPDEST CALLVALUE DUP1 ISZERO PUSH2 0x52D JUMPI PUSH1 0x0 DUP1 REVERT JUMPDEST POP PUSH2 0x548 PUSH1 0x4 DUP1 CALLDATASIZE SUB DUP2 ADD SWAP1 PUSH2 0x543 SWAP2 SWAP1 PUSH2 0x3689 JUMP JUMPDEST PUSH2 0x12CB JUMP JUMPDEST PUSH1 0x40 MLOAD PUSH2 0x555 SWAP2 SWAP1 PUSH2 0x3287 JUMP JUMPDEST PUSH1 0x40 MLOAD DUP1 SWAP2 SUB SWAP1 RETURN JUMPDEST CALLVALUE DUP1 ISZERO PUSH2 0x56A JUMPI PUSH1 0x0 DUP1 REVERT JUMPDEST POP PUSH2 0x573 PUSH2 0x1382 JUMP JUMPDEST STOP JUMPDEST CALLVALUE DUP1 ISZERO PUSH2 0x581 JUMPI PUSH1 0x0 DUP1 REVERT JUMPDEST POP PUSH2 0x59C PUSH1 0x4 DUP1 CALLDATASIZE SUB DUP2 ADD SWAP1 PUSH2 0x597 SWAP2 SWAP1 PUSH2 0x3183 JUMP JUMPDEST PUSH2 0x140A JUMP JUMPDEST STOP JUMPDEST CALLVALUE DUP1 ISZERO PUSH2 0x5AA JUMPI PUSH1 0x0 DUP1 REVERT JUMPDEST POP PUSH2 0x5C5 PUSH1 0x4 DUP1 CALLDATASIZE SUB DUP2 ADD SWAP1 PUSH2 0x5C0 SWAP2 SWAP1 PUSH2 0x36B6 JUMP JUMPDEST PUSH2 0x14CA JUMP JUMPDEST STOP JUMPDEST CALLVALUE DUP1 ISZERO PUSH2 0x5D3 JUMPI PUSH1 0x0 DUP1 REVERT JUMPDEST POP PUSH2 0x5EE PUSH1 0x4 DUP1 CALLDATASIZE SUB DUP2 ADD SWAP1 PUSH2 0x5E9 SWAP2 SWAP1 PUSH2 0x34CF JUMP JUMPDEST PUSH2 0x15B1 JUMP JUMPDEST STOP JUMPDEST CALLVALUE DUP1 ISZERO PUSH2 0x5FC JUMPI PUSH1 0x0 DUP1 REVERT JUMPDEST POP PUSH2 0x605 PUSH2 0x167E JUMP JUMPDEST STOP JUMPDEST CALLVALUE DUP1 ISZERO PUSH2 0x613 JUMPI PUSH1 0x0 DUP1 REVERT JUMPDEST POP PUSH2 0x61C PUSH2 0x18C8 JUMP JUMPDEST PUSH1 0x40 MLOAD PUSH2 0x629 SWAP2 SWAP1 PUSH2 0x31F1 JUMP JUMPDEST PUSH1 0x40 MLOAD DUP1 SWAP2 SUB SWAP1 RETURN JUMPDEST CALLVALUE DUP1 ISZERO PUSH2 0x63E JUMPI PUSH1 0x0 DUP1 REVERT JUMPDEST POP PUSH2 0x647 PUSH2 0x18F2 JUMP JUMPDEST PUSH1 0x40 MLOAD PUSH2 0x658 SWAP6 SWAP5 SWAP4 SWAP3 SWAP2 SWAP1 PUSH2 0x371D JUMP JUMPDEST PUSH1 0x40 MLOAD DUP1 SWAP2 SUB SWAP1 RETURN JUMPDEST CALLVALUE DUP1 ISZERO PUSH2 0x66D JUMPI PUSH1 0x0 DUP1 REVERT JUMPDEST POP PUSH2 0x688 PUSH1 0x4 DUP1 CALLDATASIZE SUB DUP2 ADD SWAP1 PUSH2 0x683 SWAP2 SWAP1 PUSH2 0x3183 JUMP JUMPDEST PUSH2 0x1923 JUMP JUMPDEST STOP JUMPDEST CALLVALUE DUP1 ISZERO PUSH2 0x696 JUMPI PUSH1 0x0 DUP1 REVERT JUMPDEST POP PUSH2 0x69F PUSH2 0x19E3 JUMP JUMPDEST PUSH1 0x40 MLOAD PUSH2 0x6AC SWAP2 SWAP1 PUSH2 0x312B JUMP JUMPDEST PUSH1 0x40 MLOAD DUP1 SWAP2 SUB SWAP1 RETURN JUMPDEST CALLVALUE DUP1 ISZERO PUSH2 0x6C1 JUMPI PUSH1 0x0 DUP1 REVERT JUMPDEST POP PUSH2 0x6CA PUSH2 0x1A75 JUMP JUMPDEST PUSH1 0x40 MLOAD PUSH2 0x6D7 SWAP2 SWAP1 PUSH2 0x312B JUMP JUMPDEST PUSH1 0x40 MLOAD DUP1 SWAP2 SUB SWAP1 RETURN JUMPDEST CALLVALUE DUP1 ISZERO PUSH2 0x6EC JUMPI PUSH1 0x0 DUP1 REVERT JUMPDEST POP PUSH2 0x707 PUSH1 0x4 DUP1 CALLDATASIZE SUB DUP2 ADD SWAP1 PUSH2 0x702 SWAP2 SWAP1 PUSH2 0x379C JUMP JUMPDEST PUSH2 0x1B03 JUMP JUMPDEST STOP JUMPDEST CALLVALUE DUP1 ISZERO PUSH2 0x715 JUMPI PUSH1 0x0 DUP1 REVERT JUMPDEST POP PUSH2 0x730 PUSH1 0x4 DUP1 CALLDATASIZE SUB DUP2 ADD SWAP1 PUSH2 0x72B SWAP2 SWAP1 PUSH2 0x387D JUMP JUMPDEST PUSH2 0x1B19 JUMP JUMPDEST STOP JUMPDEST CALLVALUE DUP1 ISZERO PUSH2 0x73E JUMPI PUSH1 0x0 DUP1 REVERT JUMPDEST POP PUSH2 0x747 PUSH2 0x1B7B JUMP JUMPDEST PUSH1 0x40 MLOAD PUSH2 0x754 SWAP2 SWAP1 PUSH2 0x3287 JUMP JUMPDEST PUSH1 0x40 MLOAD DUP1 SWAP2 SUB SWAP1 RETURN JUMPDEST CALLVALUE DUP1 ISZERO PUSH2 0x769 JUMPI PUSH1 0x0 DUP1 REVERT JUMPDEST POP PUSH2 0x784 PUSH1 0x4 DUP1 CALLDATASIZE SUB DUP2 ADD SWAP1 PUSH2 0x77F SWAP2 SWAP1 PUSH2 0x3900 JUMP JUMPDEST PUSH2 0x1B81 JUMP JUMPDEST PUSH1 0x40 MLOAD PUSH2 0x791 SWAP2 SWAP1 PUSH2 0x3080 JUMP JUMPDEST PUSH1 0x40 MLOAD DUP1 SWAP2 SUB SWAP1 RETURN JUMPDEST CALLVALUE DUP1 ISZERO PUSH2 0x7A6 JUMPI PUSH1 0x0 DUP1 REVERT JUMPDEST POP PUSH2 0x7AF PUSH2 0x1B98 JUMP JUMPDEST PUSH1 0x40 MLOAD PUSH2 0x7BC SWAP2 SWAP1 PUSH2 0x31F1 JUMP JUMPDEST PUSH1 0x40 MLOAD DUP1 SWAP2 SUB SWAP1 RETURN JUMPDEST CALLVALUE DUP1 ISZERO PUSH2 0x7D1 JUMPI PUSH1 0x0 DUP1 REVERT JUMPDEST POP PUSH2 0x7EC PUSH1 0x4 DUP1 CALLDATASIZE SUB DUP2 ADD SWAP1 PUSH2 0x7E7 SWAP2 SWAP1 PUSH2 0x3183 JUMP JUMPDEST PUSH2 0x1BB0 JUMP JUMPDEST PUSH1 0x40 MLOAD PUSH2 0x7F9 SWAP2 SWAP1 PUSH2 0x312B JUMP JUMPDEST PUSH1 0x40 MLOAD DUP1 SWAP2 SUB SWAP1 RETURN JUMPDEST CALLVALUE DUP1 ISZERO PUSH2 0x80E JUMPI PUSH1 0x0 DUP1 REVERT JUMPDEST POP PUSH2 0x817 PUSH2 0x1C58 JUMP JUMPDEST PUSH1 0x40 MLOAD PUSH2 0x824 SWAP2 SWAP1 PUSH2 0x3287 JUMP JUMPDEST PUSH1 0x40 MLOAD DUP1 SWAP2 SUB SWAP1 RETURN JUMPDEST CALLVALUE DUP1 ISZERO PUSH2 0x839 JUMPI PUSH1 0x0 DUP1 REVERT JUMPDEST POP PUSH2 0x854 PUSH1 0x4 DUP1 CALLDATASIZE SUB DUP2 ADD SWAP1 PUSH2 0x84F SWAP2 SWAP1 PUSH2 0x395C JUMP JUMPDEST PUSH2 0x1C5D JUMP JUMPDEST STOP JUMPDEST CALLVALUE DUP1 ISZERO PUSH2 0x862 JUMPI PUSH1 0x0 DUP1 REVERT JUMPDEST POP PUSH2 0x86B PUSH2 0x1D1A JUMP JUMPDEST STOP JUMPDEST CALLVALUE DUP1 ISZERO PUSH2 0x879 JUMPI PUSH1 0x0 DUP1 REVERT JUMPDEST POP PUSH2 0x894 PUSH1 0x4 DUP1 CALLDATASIZE SUB DUP2 ADD SWAP1 PUSH2 0x88F SWAP2 SWAP1 PUSH2 0x3989 JUMP JUMPDEST PUSH2 0x1E19 JUMP JUMPDEST PUSH1 0x40 MLOAD PUSH2 0x8A1 SWAP2 SWAP1 PUSH2 0x3080 JUMP JUMPDEST PUSH1 0x40 MLOAD DUP1 SWAP2 SUB SWAP1 RETURN JUMPDEST CALLVALUE DUP1 ISZERO PUSH2 0x8B6 JUMPI PUSH1 0x0 DUP1 REVERT JUMPDEST POP PUSH2 0x8D1 PUSH1 0x4 DUP1 CALLDATASIZE SUB DUP2 ADD SWAP1 PUSH2 0x8CC SWAP2 SWAP1 PUSH2 0x3689 JUMP JUMPDEST PUSH2 0x1EAD JUMP JUMPDEST STOP JUMPDEST PUSH1 0x0 PUSH32 0x80AC58CD00000000000000000000000000000000000000000000000000000000 PUSH28 0xFFFFFFFFFFFFFFFFFFFFFFFFFFFFFFFFFFFFFFFFFFFFFFFFFFFFFFFF NOT AND DUP3 PUSH28 0xFFFFFFFFFFFFFFFFFFFFFFFFFFFFFFFFFFFFFFFFFFFFFFFFFFFFFFFF NOT AND EQ DUP1 PUSH2 0x99E JUMPI POP PUSH32 0x5B5E139F00000000000000000000000000000000000000000000000000000000 PUSH28 0xFFFFFFFFFFFFFFFFFFFFFFFFFFFFFFFFFFFFFFFFFFFFFFFFFFFFFFFF NOT AND DUP3 PUSH28 0xFFFFFFFFFFFFFFFFFFFFFFFFFFFFFFFFFFFFFFFFFFFFFFFFFFFFFFFF NOT AND EQ JUMPDEST DUP1 PUSH2 0x9AE JUMPI POP PUSH2 0x9AD DUP3 PUSH2 0x1FA4 JUMP JUMPDEST JUMPDEST SWAP1 POP SWAP2 SWAP1 POP JUMP JUMPDEST PUSH1 0x60 PUSH1 0x0 DUP1 SLOAD PUSH2 0x9C4 SWAP1 PUSH2 0x39F8 JUMP JUMPDEST DUP1 PUSH1 0x1F ADD PUSH1 0x20 DUP1 SWAP2 DIV MUL PUSH1 0x20 ADD PUSH1 0x40 MLOAD SWAP1 DUP2 ADD PUSH1 0x40 MSTORE DUP1 SWAP3 SWAP2 SWAP1 DUP2 DUP2 MSTORE PUSH1 0x20 ADD DUP3 DUP1 SLOAD PUSH2 0x9F0 SWAP1 PUSH2 0x39F8 JUMP JUMPDEST DUP1 ISZERO PUSH2 0xA3D JUMPI DUP1 PUSH1 0x1F LT PUSH2 0xA12 JUMPI PUSH2 0x100 DUP1 DUP4 SLOAD DIV MUL DUP4 MSTORE SWAP2 PUSH1 0x20 ADD SWAP2 PUSH2 0xA3D JUMP JUMPDEST DUP3 ADD SWAP2 SWAP1 PUSH1 0x0 MSTORE PUSH1 0x20 PUSH1 0x0 KECCAK256 SWAP1 JUMPDEST DUP2 SLOAD DUP2 MSTORE SWAP1 PUSH1 0x1 ADD SWAP1 PUSH1 0x20 ADD DUP1 DUP4 GT PUSH2 0xA20 JUMPI DUP3 SWAP1 SUB PUSH1 0x1F AND DUP3 ADD SWAP2 JUMPDEST POP POP POP POP POP SWAP1 POP SWAP1 JUMP JUMPDEST PUSH1 0x0 PUSH2 0xA52 DUP3 PUSH2 0x200E JUMP JUMPDEST PUSH2 0xA91 JUMPI PUSH1 0x40 MLOAD PUSH32 0x8C379A000000000000000000000000000000000000000000000000000000000 DUP2 MSTORE PUSH1 0x4 ADD PUSH2 0xA88 SWAP1 PUSH2 0x3A9B JUMP JUMPDEST PUSH1 0x40 MLOAD DUP1 SWAP2 SUB SWAP1 REVERT JUMPDEST PUSH1 0x4 PUSH1 0x0 DUP4 DUP2 MSTORE PUSH1 0x20 ADD SWAP1 DUP2 MSTORE PUSH1 0x20 ADD PUSH1 0x0 KECCAK256 PUSH1 0x0 SWAP1 SLOAD SWAP1 PUSH2 0x100 EXP SWAP1 DIV PUSH20 0xFFFFFFFFFFFFFFFFFFFFFFFFFFFFFFFFFFFFFFFF AND SWAP1 POP SWAP2 SWAP1 POP JUMP JUMPDEST PUSH1 0x0 PUSH2 0xAD7 DUP3 PUSH2 0x11F6 JUMP JUMPDEST SWAP1 POP DUP1 PUSH20 0xFFFFFFFFFFFFFFFFFFFFFFFFFFFFFFFFFFFFFFFF AND DUP4 PUSH20 0xFFFFFFFFFFFFFFFFFFFFFFFFFFFFFFFFFFFFFFFF AND SUB PUSH2 0xB47 JUMPI PUSH1 0x40 MLOAD PUSH32 0x8C379A000000000000000000000000000000000000000000000000000000000 DUP2 MSTORE PUSH1 0x4 ADD PUSH2 0xB3E SWAP1 PUSH2 0x3B2D JUMP JUMPDEST PUSH1 0x40 MLOAD DUP1 SWAP2 SUB SWAP1 REVERT JUMPDEST DUP1 PUSH20 0xFFFFFFFFFFFFFFFFFFFFFFFFFFFFFFFFFFFFFFFF AND PUSH2 0xB66 PUSH2 0x207A JUMP JUMPDEST PUSH20 0xFFFFFFFFFFFFFFFFFFFFFFFFFFFFFFFFFFFFFFFF AND EQ DUP1 PUSH2 0xB95 JUMPI POP PUSH2 0xB94 DUP2 PUSH2 0xB8F PUSH2 0x207A JUMP JUMPDEST PUSH2 0x1E19 JUMP JUMPDEST JUMPDEST PUSH2 0xBD4 JUMPI PUSH1 0x40 MLOAD PUSH32 0x8C379A000000000000000000000000000000000000000000000000000000000 DUP2 MSTORE PUSH1 0x4 ADD PUSH2 0xBCB SWAP1 PUSH2 0x3BBF JUMP JUMPDEST PUSH1 0x40 MLOAD DUP1 SWAP2 SUB SWAP1 REVERT JUMPDEST PUSH2 0xBDE DUP4 DUP4 PUSH2 0x2082 JUMP JUMPDEST POP POP POP JUMP JUMPDEST PUSH1 0x9 SLOAD DUP2 JUMP JUMPDEST PUSH1 0x16 PUSH1 0x0 SWAP1 SLOAD SWAP1 PUSH2 0x100 EXP SWAP1 DIV PUSH1 0xFF AND DUP2 JUMP JUMPDEST PUSH2 0xC0D PUSH2 0xC07 PUSH2 0x207A JUMP JUMPDEST DUP3 PUSH2 0x213B JUMP JUMPDEST PUSH2 0xC4C JUMPI PUSH1 0x40 MLOAD PUSH32 0x8C379A000000000000000000000000000000000000000000000000000000000 DUP2 MSTORE PUSH1 0x4 ADD PUSH2 0xC43 SWAP1 PUSH2 0x3C51 JUMP JUMPDEST PUSH1 0x40 MLOAD DUP1 SWAP2 SUB SWAP1 REVERT JUMPDEST PUSH2 0xC57 DUP4 DUP4 DUP4 PUSH2 0x2219 JUMP JUMPDEST POP POP POP JUMP JUMPDEST PUSH1 0x16 PUSH1 0x1 SWAP1 SLOAD SWAP1 PUSH2 0x100 EXP SWAP1 DIV PUSH1 0xFF AND PUSH2 0xCAB JUMPI PUSH1 0x40 MLOAD PUSH32 0x8C379A000000000000000000000000000000000000000000000000000000000 DUP2 MSTORE PUSH1 0x4 ADD PUSH2 0xCA2 SWAP1 PUSH2 0x3CBD JUMP JUMPDEST PUSH1 0x40 MLOAD DUP1 SWAP2 SUB SWAP1 REVERT JUMPDEST PUSH2 0xCBF PUSH1 0x11 PUSH1 0x1 ADD SLOAD PUSH1 0x11 PUSH1 0x2 ADD SLOAD PUSH2 0x247F JUMP JUMPDEST PUSH2 0xCFE JUMPI PUSH1 0x40 MLOAD PUSH32 0x8C379A000000000000000000000000000000000000000000000000000000000 DUP2 MSTORE PUSH1 0x4 ADD PUSH2 0xCF5 SWAP1 PUSH2 0x3D29 JUMP JUMPDEST PUSH1 0x40 MLOAD DUP1 SWAP2 SUB SWAP1 REVERT JUMPDEST PUSH2 0xD2E DUP3 CALLER PUSH1 0x40 MLOAD PUSH1 0x20 ADD PUSH2 0xD13 SWAP2 SWAP1 PUSH2 0x3D91 JUMP JUMPDEST PUSH1 0x40 MLOAD PUSH1 0x20 DUP2 DUP4 SUB SUB DUP2 MSTORE SWAP1 PUSH1 0x40 MSTORE DUP1 MLOAD SWAP1 PUSH1 0x20 ADD KECCAK256 PUSH2 0x1B81 JUMP JUMPDEST PUSH2 0xD6D JUMPI PUSH1 0x40 MLOAD PUSH32 0x8C379A000000000000000000000000000000000000000000000000000000000 DUP2 MSTORE PUSH1 0x4 ADD PUSH2 0xD64 SWAP1 PUSH2 0x3DF8 JUMP JUMPDEST PUSH1 0x40 MLOAD DUP1 SWAP2 SUB SWAP1 REVERT JUMPDEST PUSH2 0xD78 DUP2 PUSH1 0x1 PUSH2 0x24AE JUMP JUMPDEST POP POP JUMP JUMPDEST PUSH1 0x0 DUP1 PUSH1 0x0 PUSH2 0x2710 PUSH1 0x64 DUP6 PUSH2 0xD91 SWAP2 SWAP1 PUSH2 0x3E47 JUMP JUMPDEST PUSH2 0xD9B SWAP2 SWAP1 PUSH2 0x3EB8 JUMP JUMPDEST SWAP1 POP PUSH1 0x0 PUSH2 0x2710 PUSH1 0x17 SLOAD DUP7 PUSH2 0xDB0 SWAP2 SWAP1 PUSH2 0x3E47 JUMP JUMPDEST PUSH2 0xDBA SWAP2 SWAP1 PUSH2 0x3EB8 JUMP JUMPDEST SWAP1 POP PUSH2 0xDC4 PUSH2 0x18C8 JUMP JUMPDEST DUP3 DUP3 PUSH2 0xDD0 SWAP2 SWAP1 PUSH2 0x3EE9 JUMP JUMPDEST SWAP4 POP SWAP4 POP POP POP SWAP3 POP SWAP3 SWAP1 POP JUMP JUMPDEST PUSH1 0x11 PUSH1 0x0 ADD PUSH1 0x0 SWAP1 SLOAD SWAP1 PUSH2 0x100 EXP SWAP1 DIV PUSH1 0xFF AND ISZERO DUP1 PUSH2 0xE01 JUMPI POP PUSH1 0x11 PUSH1 0x2 ADD SLOAD TIMESTAMP LT ISZERO JUMPDEST PUSH2 0xE40 JUMPI PUSH1 0x40 MLOAD PUSH32 0x8C379A000000000000000000000000000000000000000000000000000000000 DUP2 MSTORE PUSH1 0x4 ADD PUSH2 0xE37 SWAP1 PUSH2 0x3F8F JUMP JUMPDEST PUSH1 0x40 MLOAD DUP1 SWAP2 SUB SWAP1 REVERT JUMPDEST PUSH1 0x16 PUSH1 0x0 SWAP1 SLOAD SWAP1 PUSH2 0x100 EXP SWAP1 DIV PUSH1 0xFF AND PUSH2 0xE8F JUMPI PUSH1 0x40 MLOAD PUSH32 0x8C379A000000000000000000000000000000000000000000000000000000000 DUP2 MSTORE PUSH1 0x4 ADD PUSH2 0xE86 SWAP1 PUSH2 0x3FFB JUMP JUMPDEST PUSH1 0x40 MLOAD DUP1 SWAP2 SUB SWAP1 REVERT JUMPDEST PUSH2 0xEA3 PUSH1 0x11 PUSH1 0x3 ADD SLOAD PUSH1 0x11 PUSH1 0x4 ADD SLOAD PUSH2 0x247F JUMP JUMPDEST PUSH2 0xEE2 JUMPI PUSH1 0x40 MLOAD PUSH32 0x8C379A000000000000000000000000000000000000000000000000000000000 DUP2 MSTORE PUSH1 0x4 ADD PUSH2 0xED9 SWAP1 PUSH2 0x4067 JUMP JUMPDEST PUSH1 0x40 MLOAD DUP1 SWAP2 SUB SWAP1 REVERT JUMPDEST PUSH2 0xEED DUP2 PUSH1 0x0 PUSH2 0x24AE JUMP JUMPDEST POP JUMP JUMPDEST PUSH2 0xEF8 PUSH2 0x207A JUMP JUMPDEST PUSH20 0xFFFFFFFFFFFFFFFFFFFFFFFFFFFFFFFFFFFFFFFF AND PUSH2 0xF16 PUSH2 0x18C8 JUMP JUMPDEST PUSH20 0xFFFFFFFFFFFFFFFFFFFFFFFFFFFFFFFFFFFFFFFF AND EQ PUSH2 0xF6C JUMPI PUSH1 0x40 MLOAD PUSH32 0x8C379A000000000000000000000000000000000000000000000000000000000 DUP2 MSTORE PUSH1 0x4 ADD PUSH2 0xF63 SWAP1 PUSH2 0x40D3 JUMP JUMPDEST PUSH1 0x40 MLOAD DUP1 SWAP2 SUB SWAP1 REVERT JUMPDEST PUSH2 0x3E8 PUSH1 0x64 DUP3 PUSH2 0xF7C SWAP2 SWAP1 PUSH2 0x40F3 JUMP JUMPDEST GT ISZERO PUSH2 0xFBD JUMPI PUSH1 0x40 MLOAD PUSH32 0x8C379A000000000000000000000000000000000000000000000000000000000 DUP2 MSTORE PUSH1 0x4 ADD PUSH2 0xFB4 SWAP1 PUSH2 0x4173 JUMP JUMPDEST PUSH1 0x40 MLOAD DUP1 SWAP2 SUB SWAP1 REVERT JUMPDEST DUP1 PUSH1 0x17 DUP2 SWAP1 SSTORE POP PUSH32 0x244EA8D7627F5A08F4299862BD5A45752842C183AEE5B0FB0D1E4887BFA605B3 DUP2 PUSH1 0x40 MLOAD PUSH2 0xFF3 SWAP2 SWAP1 PUSH2 0x3287 JUMP JUMPDEST PUSH1 0x40 MLOAD DUP1 SWAP2 SUB SWAP1 LOG1 POP JUMP JUMPDEST PUSH2 0x1019 DUP4 DUP4 DUP4 PUSH1 0x40 MLOAD DUP1 PUSH1 0x20 ADD PUSH1 0x40 MSTORE DUP1 PUSH1 0x0 DUP2 MSTORE POP PUSH2 0x1B19 JUMP JUMPDEST POP POP POP JUMP JUMPDEST PUSH1 0x16 PUSH1 0x1 SWAP1 SLOAD SWAP1 PUSH2 0x100 EXP SWAP1 DIV PUSH1 0xFF AND DUP2 JUMP JUMPDEST PUSH2 0x1039 PUSH2 0x207A JUMP JUMPDEST PUSH20 0xFFFFFFFFFFFFFFFFFFFFFFFFFFFFFFFFFFFFFFFF AND PUSH2 0x1057 PUSH2 0x18C8 JUMP JUMPDEST PUSH20 0xFFFFFFFFFFFFFFFFFFFFFFFFFFFFFFFFFFFFFFFF AND EQ PUSH2 0x10AD JUMPI PUSH1 0x40 MLOAD PUSH32 0x8C379A000000000000000000000000000000000000000000000000000000000 DUP2 MSTORE PUSH1 0x4 ADD PUSH2 0x10A4 SWAP1 PUSH2 0x40D3 JUMP JUMPDEST PUSH1 0x40 MLOAD DUP1 SWAP2 SUB SWAP1 REVERT JUMPDEST DUP1 PUSH1 0xB SWAP1 DUP2 PUSH2 0x10BC SWAP2 SWAP1 PUSH2 0x433F JUMP JUMPDEST POP PUSH32 0xF9C7803E94E0D3C02900D8A90893A6D5E90DD04D32A4CFE825520F82BF9F32F6 DUP2 PUSH1 0x40 MLOAD PUSH2 0x10EC SWAP2 SWAP1 PUSH2 0x312B JUMP JUMPDEST PUSH1 0x40 MLOAD DUP1 SWAP2 SUB SWAP1 LOG1 POP JUMP JUMPDEST PUSH2 0x10FF PUSH2 0x207A JUMP JUMPDEST PUSH20 0xFFFFFFFFFFFFFFFFFFFFFFFFFFFFFFFFFFFFFFFF AND PUSH2 0x111D PUSH2 0x18C8 JUMP JUMPDEST PUSH20 0xFFFFFFFFFFFFFFFFFFFFFFFFFFFFFFFFFFFFFFFF AND EQ PUSH2 0x1173 JUMPI PUSH1 0x40 MLOAD PUSH32 0x8C379A000000000000000000000000000000000000000000000000000000000 DUP2 MSTORE PUSH1 0x4 ADD PUSH2 0x116A SWAP1 PUSH2 0x40D3 JUMP JUMPDEST PUSH1 0x40 MLOAD DUP1 SWAP2 SUB SWAP1 REVERT JUMPDEST PUSH1 0x16 PUSH1 0x1 SWAP1 SLOAD SWAP1 PUSH2 0x100 EXP SWAP1 DIV PUSH1 0xFF AND ISZERO PUSH1 0x16 PUSH1 0x1 PUSH2 0x100 EXP DUP2 SLOAD DUP2 PUSH1 0xFF MUL NOT AND SWAP1 DUP4 ISZERO ISZERO MUL OR SWAP1 SSTORE POP PUSH32 0xF3CEB1B1DF7AFA89A10AFBEA0BC86B42296CFDFA410CDD70A7C2A97F9F9A373 PUSH1 0x16 PUSH1 0x0 SWAP1 SLOAD SWAP1 PUSH2 0x100 EXP SWAP1 DIV PUSH1 0xFF AND PUSH1 0x16 PUSH1 0x1 SWAP1 SLOAD SWAP1 PUSH2 0x100 EXP SWAP1 DIV PUSH1 0xFF AND PUSH1 0x40 MLOAD PUSH2 0x11EC SWAP3 SWAP2 SWAP1 PUSH2 0x4411 JUMP JUMPDEST PUSH1 0x40 MLOAD DUP1 SWAP2 SUB SWAP1 LOG1 JUMP JUMPDEST PUSH1 0x0 DUP1 PUSH1 0x2 PUSH1 0x0 DUP5 DUP2 MSTORE PUSH1 0x20 ADD SWAP1 DUP2 MSTORE PUSH1 0x20 ADD PUSH1 0x0 KECCAK256 PUSH1 0x0 SWAP1 SLOAD SWAP1 PUSH2 0x100 EXP SWAP1 DIV PUSH20 0xFFFFFFFFFFFFFFFFFFFFFFFFFFFFFFFFFFFFFFFF AND SWAP1 POP PUSH1 0x0 PUSH20 0xFFFFFFFFFFFFFFFFFFFFFFFFFFFFFFFFFFFFFFFF AND DUP2 PUSH20 0xFFFFFFFFFFFFFFFFFFFFFFFFFFFFFFFFFFFFFFFF AND SUB PUSH2 0x129E JUMPI PUSH1 0x40 MLOAD PUSH32 0x8C379A000000000000000000000000000000000000000000000000000000000 DUP2 MSTORE PUSH1 0x4 ADD PUSH2 0x1295 SWAP1 PUSH2 0x44AC JUMP JUMPDEST PUSH1 0x40 MLOAD DUP1 SWAP2 SUB SWAP1 REVERT JUMPDEST DUP1 SWAP2 POP POP SWAP2 SWAP1 POP JUMP JUMPDEST PUSH1 0xC DUP1 PUSH1 0x0 ADD SLOAD SWAP1 DUP1 PUSH1 0x1 ADD SLOAD SWAP1 DUP1 PUSH1 0x2 ADD SLOAD SWAP1 DUP1 PUSH1 0x3 ADD SLOAD SWAP1 DUP1 PUSH1 0x4 ADD SLOAD SWAP1 POP DUP6 JUMP JUMPDEST PUSH1 0x0 DUP1 PUSH20 0xFFFFFFFFFFFFFFFFFFFFFFFFFFFFFFFFFFFFFFFF AND DUP3 PUSH20 0xFFFFFFFFFFFFFFFFFFFFFFFFFFFFFFFFFFFFFFFF AND SUB PUSH2 0x133B JUMPI PUSH1 0x40 MLOAD PUSH32 0x8C379A000000000000000000000000000000000000000000000000000000000 DUP2 MSTORE PUSH1 0x4 ADD PUSH2 0x1332 SWAP1 PUSH2 0x453E JUMP JUMPDEST PUSH1 0x40 MLOAD DUP1 SWAP2 SUB SWAP1 REVERT JUMPDEST PUSH1 0x3 PUSH1 0x0 DUP4 PUSH20 0xFFFFFFFFFFFFFFFFFFFFFFFFFFFFFFFFFFFFFFFF AND PUSH20 0xFFFFFFFFFFFFFFFFFFFFFFFFFFFFFFFFFFFFFFFF AND DUP2 MSTORE PUSH1 0x20 ADD SWAP1 DUP2 MSTORE PUSH1 0x20 ADD PUSH1 0x0 KECCAK256 SLOAD SWAP1 POP SWAP2 SWAP1 POP JUMP JUMPDEST PUSH2 0x138A PUSH2 0x207A JUMP JUMPDEST PUSH20 0xFFFFFFFFFFFFFFFFFFFFFFFFFFFFFFFFFFFFFFFF AND PUSH2 0x13A8 PUSH2 0x18C8 JUMP JUMPDEST PUSH20 0xFFFFFFFFFFFFFFFFFFFFFFFFFFFFFFFFFFFFFFFF AND EQ PUSH2 0x13FE JUMPI PUSH1 0x40 MLOAD PUSH32 0x8C379A000000000000000000000000000000000000000000000000000000000 DUP2 MSTORE PUSH1 0x4 ADD PUSH2 0x13F5 SWAP1 PUSH2 0x40D3 JUMP JUMPDEST PUSH1 0x40 MLOAD DUP1 SWAP2 SUB SWAP1 REVERT JUMPDEST PUSH2 0x1408 PUSH1 0x0 PUSH2 0x273B JUMP JUMPDEST JUMP JUMPDEST PUSH2 0x1412 PUSH2 0x207A JUMP JUMPDEST PUSH20 0xFFFFFFFFFFFFFFFFFFFFFFFFFFFFFFFFFFFFFFFF AND PUSH2 0x1430 PUSH2 0x18C8 JUMP JUMPDEST PUSH20 0xFFFFFFFFFFFFFFFFFFFFFFFFFFFFFFFFFFFFFFFF AND EQ PUSH2 0x1486 JUMPI PUSH1 0x40 MLOAD PUSH32 0x8C379A000000000000000000000000000000000000000000000000000000000 DUP2 MSTORE PUSH1 0x4 ADD PUSH2 0x147D SWAP1 PUSH2 0x40D3 JUMP JUMPDEST PUSH1 0x40 MLOAD DUP1 SWAP2 SUB SWAP1 REVERT JUMPDEST DUP1 PUSH1 0xC PUSH1 0x2 ADD DUP2 SWAP1 SSTORE POP PUSH32 0x66CBCA4F3C64FECF1DCB9CE094ABCF7F68C3450A1D4E3A8E917DD621EDB4EBE0 DUP2 PUSH1 0x40 MLOAD PUSH2 0x14BF SWAP2 SWAP1 PUSH2 0x3287 JUMP JUMPDEST PUSH1 0x40 MLOAD DUP1 SWAP2 SUB SWAP1 LOG1 POP JUMP JUMPDEST PUSH2 0x14D2 PUSH2 0x207A JUMP JUMPDEST PUSH20 0xFFFFFFFFFFFFFFFFFFFFFFFFFFFFFFFFFFFFFFFF AND PUSH2 0x14F0 PUSH2 0x18C8 JUMP JUMPDEST PUSH20 0xFFFFFFFFFFFFFFFFFFFFFFFFFFFFFFFFFFFFFFFF AND EQ PUSH2 0x1546 JUMPI PUSH1 0x40 MLOAD PUSH32 0x8C379A000000000000000000000000000000000000000000000000000000000 DUP2 MSTORE PUSH1 0x4 ADD PUSH2 0x153D SWAP1 PUSH2 0x40D3 JUMP JUMPDEST PUSH1 0x40 MLOAD DUP1 SWAP2 SUB SWAP1 REVERT JUMPDEST DUP4 PUSH1 0x11 PUSH1 0x1 ADD DUP2 SWAP1 SSTORE POP DUP3 PUSH1 0x11 PUSH1 0x2 ADD DUP2 SWAP1 SSTORE POP DUP2 PUSH1 0x11 PUSH1 0x3 ADD DUP2 SWAP1 SSTORE POP DUP1 PUSH1 0x11 PUSH1 0x4 ADD DUP2 SWAP1 SSTORE POP PUSH32 0xDF31A79BE646F25CF79F5F1FE56D5972E8AF0F25DE752B9021B909727A0B8EC4 DUP5 DUP5 DUP5 DUP5 PUSH1 0x40 MLOAD PUSH2 0x15A3 SWAP5 SWAP4 SWAP3 SWAP2 SWAP1 PUSH2 0x455E JUMP JUMPDEST PUSH1 0x40 MLOAD DUP1 SWAP2 SUB SWAP1 LOG1 POP POP POP POP JUMP JUMPDEST PUSH2 0x15B9 PUSH2 0x207A JUMP JUMPDEST PUSH20 0xFFFFFFFFFFFFFFFFFFFFFFFFFFFFFFFFFFFFFFFF AND PUSH2 0x15D7 PUSH2 0x18C8 JUMP JUMPDEST PUSH20 0xFFFFFFFFFFFFFFFFFFFFFFFFFFFFFFFFFFFFFFFF AND EQ PUSH2 0x162D JUMPI PUSH1 0x40 MLOAD PUSH32 0x8C379A000000000000000000000000000000000000000000000000000000000 DUP2 MSTORE PUSH1 0x4 ADD PUSH2 0x1624 SWAP1 PUSH2 0x40D3 JUMP JUMPDEST PUSH1 0x40 MLOAD DUP1 SWAP2 SUB SWAP1 REVERT JUMPDEST DUP2 PUSH1 0xC PUSH1 0x3 ADD DUP2 SWAP1 SSTORE POP DUP1 PUSH1 0xC PUSH1 0x4 ADD DUP2 SWAP1 SSTORE POP PUSH32 0xC37CC9C3C37FDCACBE05156C2F68F96E3D3ECEC5A381A8929651BF7A317F0D1C DUP3 DUP3 PUSH1 0x40 MLOAD PUSH2 0x1672 SWAP3 SWAP2 SWAP1 PUSH2 0x45A3 JUMP JUMPDEST PUSH1 0x40 MLOAD DUP1 SWAP2 SUB SWAP1 LOG1 POP POP JUMP JUMPDEST PUSH1 0x2 PUSH1 0x7 SLOAD SUB PUSH2 0x16C3 JUMPI PUSH1 0x40 MLOAD PUSH32 0x8C379A000000000000000000000000000000000000000000000000000000000 DUP2 MSTORE PUSH1 0x4 ADD PUSH2 0x16BA SWAP1 PUSH2 0x4618 JUMP JUMPDEST PUSH1 0x40 MLOAD DUP1 SWAP2 SUB SWAP1 REVERT JUMPDEST PUSH1 0x2 PUSH1 0x7 DUP2 SWAP1 SSTORE POP PUSH2 0x16D3 PUSH2 0x207A JUMP JUMPDEST PUSH20 0xFFFFFFFFFFFFFFFFFFFFFFFFFFFFFFFFFFFFFFFF AND PUSH2 0x16F1 PUSH2 0x18C8 JUMP JUMPDEST PUSH20 0xFFFFFFFFFFFFFFFFFFFFFFFFFFFFFFFFFFFFFFFF AND EQ PUSH2 0x1747 JUMPI PUSH1 0x40 MLOAD PUSH32 0x8C379A000000000000000000000000000000000000000000000000000000000 DUP2 MSTORE PUSH1 0x4 ADD PUSH2 0x173E SWAP1 PUSH2 0x40D3 JUMP JUMPDEST PUSH1 0x40 MLOAD DUP1 SWAP2 SUB SWAP1 REVERT JUMPDEST PUSH1 0x0 SELFBALANCE SWAP1 POP PUSH1 0x0 DUP2 GT PUSH2 0x178F JUMPI PUSH1 0x40 MLOAD PUSH32 0x8C379A000000000000000000000000000000000000000000000000000000000 DUP2 MSTORE PUSH1 0x4 ADD PUSH2 0x1786 SWAP1 PUSH2 0x4684 JUMP JUMPDEST PUSH1 0x40 MLOAD DUP1 SWAP2 SUB SWAP1 REVERT JUMPDEST PUSH1 0x0 PUSH2 0x2710 PUSH1 0x64 DUP4 PUSH2 0x17A1 SWAP2 SWAP1 PUSH2 0x3E47 JUMP JUMPDEST PUSH2 0x17AB SWAP2 SWAP1 PUSH2 0x3EB8 JUMP JUMPDEST SWAP1 POP PUSH1 0x0 DUP2 DUP4 PUSH2 0x17BB SWAP2 SWAP1 PUSH2 0x3EE9 JUMP JUMPDEST SWAP1 POP PUSH20 0xF26EAB233B0A2B499FC21F4452FAC03263030765 PUSH20 0xFFFFFFFFFFFFFFFFFFFFFFFFFFFFFFFFFFFFFFFF AND PUSH2 0x8FC DUP4 SWAP1 DUP2 ISZERO MUL SWAP1 PUSH1 0x40 MLOAD PUSH1 0x0 PUSH1 0x40 MLOAD DUP1 DUP4 SUB DUP2 DUP6 DUP9 DUP9 CALL SWAP4 POP POP POP POP ISZERO DUP1 ISZERO PUSH2 0x1817 JUMPI RETURNDATASIZE PUSH1 0x0 DUP1 RETURNDATACOPY RETURNDATASIZE PUSH1 0x0 REVERT JUMPDEST POP PUSH2 0x1820 PUSH2 0x18C8 JUMP JUMPDEST PUSH20 0xFFFFFFFFFFFFFFFFFFFFFFFFFFFFFFFFFFFFFFFF AND PUSH2 0x8FC DUP3 SWAP1 DUP2 ISZERO MUL SWAP1 PUSH1 0x40 MLOAD PUSH1 0x0 PUSH1 0x40 MLOAD DUP1 DUP4 SUB DUP2 DUP6 DUP9 DUP9 CALL SWAP4 POP POP POP POP ISZERO DUP1 ISZERO PUSH2 0x1865 JUMPI RETURNDATASIZE PUSH1 0x0 DUP1 RETURNDATACOPY RETURNDATASIZE PUSH1 0x0 REVERT JUMPDEST POP PUSH2 0x186E PUSH2 0x18C8 JUMP JUMPDEST PUSH20 0xFFFFFFFFFFFFFFFFFFFFFFFFFFFFFFFFFFFFFFFF AND PUSH32 0xEAFF4B37086828766AD3268786972C0CD24259D4C87A80F9D3963A3C3D999B0D DUP3 PUSH1 0x40 MLOAD PUSH2 0x18B3 SWAP2 SWAP1 PUSH2 0x3287 JUMP JUMPDEST PUSH1 0x40 MLOAD DUP1 SWAP2 SUB SWAP1 LOG2 POP POP POP PUSH1 0x1 PUSH1 0x7 DUP2 SWAP1 SSTORE POP JUMP JUMPDEST PUSH1 0x0 PUSH1 0x6 PUSH1 0x0 SWAP1 SLOAD SWAP1 PUSH2 0x100 EXP SWAP1 DIV PUSH20 0xFFFFFFFFFFFFFFFFFFFFFFFFFFFFFFFFFFFFFFFF AND SWAP1 POP SWAP1 JUMP JUMPDEST PUSH1 0x11 DUP1 PUSH1 0x0 ADD PUSH1 0x0 SWAP1 SLOAD SWAP1 PUSH2 0x100 EXP SWAP1 DIV PUSH1 0xFF AND SWAP1 DUP1 PUSH1 0x1 ADD SLOAD SWAP1 DUP1 PUSH1 0x2 ADD SLOAD SWAP1 DUP1 PUSH1 0x3 ADD SLOAD SWAP1 DUP1 PUSH1 0x4 ADD SLOAD SWAP1 POP DUP6 JUMP JUMPDEST PUSH2 0x192B PUSH2 0x207A JUMP JUMPDEST PUSH20 0xFFFFFFFFFFFFFFFFFFFFFFFFFFFFFFFFFFFFFFFF AND PUSH2 0x1949 PUSH2 0x18C8 JUMP JUMPDEST PUSH20 0xFFFFFFFFFFFFFFFFFFFFFFFFFFFFFFFFFFFFFFFF AND EQ PUSH2 0x199F JUMPI PUSH1 0x40 MLOAD PUSH32 0x8C379A000000000000000000000000000000000000000000000000000000000 DUP2 MSTORE PUSH1 0x4 ADD PUSH2 0x1996 SWAP1 PUSH2 0x40D3 JUMP JUMPDEST PUSH1 0x40 MLOAD DUP1 SWAP2 SUB SWAP1 REVERT JUMPDEST DUP1 PUSH1 0xC PUSH1 0x1 ADD DUP2 SWAP1 SSTORE POP PUSH32 0x66CBCA4F3C64FECF1DCB9CE094ABCF7F68C3450A1D4E3A8E917DD621EDB4EBE0 DUP2 PUSH1 0x40 MLOAD PUSH2 0x19D8 SWAP2 SWAP1 PUSH2 0x3287 JUMP JUMPDEST PUSH1 0x40 MLOAD DUP1 SWAP2 SUB SWAP1 LOG1 POP JUMP JUMPDEST PUSH1 0x60 PUSH1 0x1 DUP1 SLOAD PUSH2 0x19F2 SWAP1 PUSH2 0x39F8 JUMP JUMPDEST DUP1 PUSH1 0x1F ADD PUSH1 0x20 DUP1 SWAP2 DIV MUL PUSH1 0x20 ADD PUSH1 0x40 MLOAD SWAP1 DUP2 ADD PUSH1 0x40 MSTORE DUP1 SWAP3 SWAP2 SWAP1 DUP2 DUP2 MSTORE PUSH1 0x20 ADD DUP3 DUP1 SLOAD PUSH2 0x1A1E SWAP1 PUSH2 0x39F8 JUMP JUMPDEST DUP1 ISZERO PUSH2 0x1A6B JUMPI DUP1 PUSH1 0x1F LT PUSH2 0x1A40 JUMPI PUSH2 0x100 DUP1 DUP4 SLOAD DIV MUL DUP4 MSTORE SWAP2 PUSH1 0x20 ADD SWAP2 PUSH2 0x1A6B JUMP JUMPDEST DUP3 ADD SWAP2 SWAP1 PUSH1 0x0 MSTORE PUSH1 0x20 PUSH1 0x0 KECCAK256 SWAP1 JUMPDEST DUP2 SLOAD DUP2 MSTORE SWAP1 PUSH1 0x1 ADD SWAP1 PUSH1 0x20 ADD DUP1 DUP4 GT PUSH2 0x1A4E JUMPI DUP3 SWAP1 SUB PUSH1 0x1F AND DUP3 ADD SWAP2 JUMPDEST POP POP POP POP POP SWAP1 POP SWAP1 JUMP JUMPDEST PUSH1 0xB DUP1 SLOAD PUSH2 0x1A82 SWAP1 PUSH2 0x39F8 JUMP JUMPDEST DUP1 PUSH1 0x1F ADD PUSH1 0x20 DUP1 SWAP2 DIV MUL PUSH1 0x20 ADD PUSH1 0x40 MLOAD SWAP1 DUP2 ADD PUSH1 0x40 MSTORE DUP1 SWAP3 SWAP2 SWAP1 DUP2 DUP2 MSTORE PUSH1 0x20 ADD DUP3 DUP1 SLOAD PUSH2 0x1AAE SWAP1 PUSH2 0x39F8 JUMP JUMPDEST DUP1 ISZERO PUSH2 0x1AFB JUMPI DUP1 PUSH1 0x1F LT PUSH2 0x1AD0 JUMPI PUSH2 0x100 DUP1 DUP4 SLOAD DIV MUL DUP4 MSTORE SWAP2 PUSH1 0x20 ADD SWAP2 PUSH2 0x1AFB JUMP JUMPDEST DUP3 ADD SWAP2 SWAP1 PUSH1 0x0 MSTORE PUSH1 0x20 PUSH1 0x0 KECCAK256 SWAP1 JUMPDEST DUP2 SLOAD DUP2 MSTORE SWAP1 PUSH1 0x1 ADD SWAP1 PUSH1 0x20 ADD DUP1 DUP4 GT PUSH2 0x1ADE JUMPI DUP3 SWAP1 SUB PUSH1 0x1F AND DUP3 ADD SWAP2 JUMPDEST POP POP POP POP POP DUP2 JUMP JUMPDEST PUSH2 0x1B15 PUSH2 0x1B0E PUSH2 0x207A JUMP JUMPDEST DUP4 DUP4 PUSH2 0x2801 JUMP JUMPDEST POP POP JUMP JUMPDEST PUSH2 0x1B2A PUSH2 0x1B24 PUSH2 0x207A JUMP JUMPDEST DUP4 PUSH2 0x213B JUMP JUMPDEST PUSH2 0x1B69 JUMPI PUSH1 0x40 MLOAD PUSH32 0x8C379A000000000000000000000000000000000000000000000000000000000 DUP2 MSTORE PUSH1 0x4 ADD PUSH2 0x1B60 SWAP1 PUSH2 0x3C51 JUMP JUMPDEST PUSH1 0x40 MLOAD DUP1 SWAP2 SUB SWAP1 REVERT JUMPDEST PUSH2 0x1B75 DUP5 DUP5 DUP5 DUP5 PUSH2 0x296D JUMP JUMPDEST POP POP POP POP JUMP JUMPDEST PUSH1 0x17 SLOAD DUP2 JUMP JUMPDEST PUSH1 0x0 PUSH2 0x1B90 DUP4 PUSH1 0x8 SLOAD DUP5 PUSH2 0x29C9 JUMP JUMPDEST SWAP1 POP SWAP3 SWAP2 POP POP JUMP JUMPDEST PUSH20 0xF26EAB233B0A2B499FC21F4452FAC03263030765 DUP2 JUMP JUMPDEST PUSH1 0x60 PUSH2 0x1BBB DUP3 PUSH2 0x200E JUMP JUMPDEST PUSH2 0x1BFA JUMPI PUSH1 0x40 MLOAD PUSH32 0x8C379A000000000000000000000000000000000000000000000000000000000 DUP2 MSTORE PUSH1 0x4 ADD PUSH2 0x1BF1 SWAP1 PUSH2 0x4716 JUMP JUMPDEST PUSH1 0x40 MLOAD DUP1 SWAP2 SUB SWAP1 REVERT JUMPDEST PUSH1 0x0 PUSH1 0xB DUP1 SLOAD PUSH2 0x1C09 SWAP1 PUSH2 0x39F8 JUMP JUMPDEST SWAP1 POP GT PUSH2 0x1C25 JUMPI PUSH1 0x40 MLOAD DUP1 PUSH1 0x20 ADD PUSH1 0x40 MSTORE DUP1 PUSH1 0x0 DUP2 MSTORE POP PUSH2 0x1C51 JUMP JUMPDEST PUSH1 0xB PUSH2 0x1C30 DUP4 PUSH2 0x29E0 JUMP JUMPDEST PUSH1 0x40 MLOAD PUSH1 0x20 ADD PUSH2 0x1C41 SWAP3 SWAP2 SWAP1 PUSH2 0x47F5 JUMP JUMPDEST PUSH1 0x40 MLOAD PUSH1 0x20 DUP2 DUP4 SUB SUB DUP2 MSTORE SWAP1 PUSH1 0x40 MSTORE JUMPDEST SWAP1 POP SWAP2 SWAP1 POP JUMP JUMPDEST PUSH1 0x64 DUP2 JUMP JUMPDEST PUSH2 0x1C65 PUSH2 0x207A JUMP JUMPDEST PUSH20 0xFFFFFFFFFFFFFFFFFFFFFFFFFFFFFFFFFFFFFFFF AND PUSH2 0x1C83 PUSH2 0x18C8 JUMP JUMPDEST PUSH20 0xFFFFFFFFFFFFFFFFFFFFFFFFFFFFFFFFFFFFFFFF AND EQ PUSH2 0x1CD9 JUMPI PUSH1 0x40 MLOAD PUSH32 0x8C379A000000000000000000000000000000000000000000000000000000000 DUP2 MSTORE PUSH1 0x4 ADD PUSH2 0x1CD0 SWAP1 PUSH2 0x40D3 JUMP JUMPDEST PUSH1 0x40 MLOAD DUP1 SWAP2 SUB SWAP1 REVERT JUMPDEST DUP1 PUSH1 0x8 DUP2 SWAP1 SSTORE POP PUSH32 0x2CBC14F49C068133583F7CB530018AF451C87C1CF1327CF2A4FF4698C4730AA4 DUP2 PUSH1 0x40 MLOAD PUSH2 0x1D0F SWAP2 SWAP1 PUSH2 0x4828 JUMP JUMPDEST PUSH1 0x40 MLOAD DUP1 SWAP2 SUB SWAP1 LOG1 POP JUMP JUMPDEST PUSH2 0x1D22 PUSH2 0x207A JUMP JUMPDEST PUSH20 0xFFFFFFFFFFFFFFFFFFFFFFFFFFFFFFFFFFFFFFFF AND PUSH2 0x1D40 PUSH2 0x18C8 JUMP JUMPDEST PUSH20 0xFFFFFFFFFFFFFFFFFFFFFFFFFFFFFFFFFFFFFFFF AND EQ PUSH2 0x1D96 JUMPI PUSH1 0x40 MLOAD PUSH32 0x8C379A000000000000000000000000000000000000000000000000000000000 DUP2 MSTORE PUSH1 0x4 ADD PUSH2 0x1D8D SWAP1 PUSH2 0x40D3 JUMP JUMPDEST PUSH1 0x40 MLOAD DUP1 SWAP2 SUB SWAP1 REVERT JUMPDEST PUSH1 0x16 PUSH1 0x0 SWAP1 SLOAD SWAP1 PUSH2 0x100 EXP SWAP1 DIV PUSH1 0xFF AND ISZERO PUSH1 0x16 PUSH1 0x0 PUSH2 0x100 EXP DUP2 SLOAD DUP2 PUSH1 0xFF MUL NOT AND SWAP1 DUP4 ISZERO ISZERO MUL OR SWAP1 SSTORE POP PUSH32 0xF3CEB1B1DF7AFA89A10AFBEA0BC86B42296CFDFA410CDD70A7C2A97F9F9A373 PUSH1 0x16 PUSH1 0x0 SWAP1 SLOAD SWAP1 PUSH2 0x100 EXP SWAP1 DIV PUSH1 0xFF AND PUSH1 0x16 PUSH1 0x1 SWAP1 SLOAD SWAP1 PUSH2 0x100 EXP SWAP1 DIV PUSH1 0xFF AND PUSH1 0x40 MLOAD PUSH2 0x1E0F SWAP3 SWAP2 SWAP1 PUSH2 0x4411 JUMP JUMPDEST PUSH1 0x40 MLOAD DUP1 SWAP2 SUB SWAP1 LOG1 JUMP JUMPDEST PUSH1 0x0 PUSH1 0x5 PUSH1 0x0 DUP5 PUSH20 0xFFFFFFFFFFFFFFFFFFFFFFFFFFFFFFFFFFFFFFFF AND PUSH20 0xFFFFFFFFFFFFFFFFFFFFFFFFFFFFFFFFFFFFFFFF AND DUP2 MSTORE PUSH1 0x20 ADD SWAP1 DUP2 MSTORE PUSH1 0x20 ADD PUSH1 0x0 KECCAK256 PUSH1 0x0 DUP4 PUSH20 0xFFFFFFFFFFFFFFFFFFFFFFFFFFFFFFFFFFFFFFFF AND PUSH20 0xFFFFFFFFFFFFFFFFFFFFFFFFFFFFFFFFFFFFFFFF AND DUP2 MSTORE PUSH1 0x20 ADD SWAP1 DUP2 MSTORE PUSH1 0x20 ADD PUSH1 0x0 KECCAK256 PUSH1 0x0 SWAP1 SLOAD SWAP1 PUSH2 0x100 EXP SWAP1 DIV PUSH1 0xFF AND SWAP1 POP SWAP3 SWAP2 POP POP JUMP JUMPDEST PUSH2 0x1EB5 PUSH2 0x207A JUMP JUMPDEST PUSH20 0xFFFFFFFFFFFFFFFFFFFFFFFFFFFFFFFFFFFFFFFF AND PUSH2 0x1ED3 PUSH2 0x18C8 JUMP JUMPDEST PUSH20 0xFFFFFFFFFFFFFFFFFFFFFFFFFFFFFFFFFFFFFFFF AND EQ PUSH2 0x1F29 JUMPI PUSH1 0x40 MLOAD PUSH32 0x8C379A000000000000000000000000000000000000000000000000000000000 DUP2 MSTORE PUSH1 0x4 ADD PUSH2 0x1F20 SWAP1 PUSH2 0x40D3 JUMP JUMPDEST PUSH1 0x40 MLOAD DUP1 SWAP2 SUB SWAP1 REVERT JUMPDEST PUSH1 0x0 PUSH20 0xFFFFFFFFFFFFFFFFFFFFFFFFFFFFFFFFFFFFFFFF AND DUP2 PUSH20 0xFFFFFFFFFFFFFFFFFFFFFFFFFFFFFFFFFFFFFFFF AND SUB PUSH2 0x1F98 JUMPI PUSH1 0x40 MLOAD PUSH32 0x8C379A000000000000000000000000000000000000000000000000000000000 DUP2 MSTORE PUSH1 0x4 ADD PUSH2 0x1F8F SWAP1 PUSH2 0x48B5 JUMP JUMPDEST PUSH1 0x40 MLOAD DUP1 SWAP2 SUB SWAP1 REVERT JUMPDEST PUSH2 0x1FA1 DUP2 PUSH2 0x273B JUMP JUMPDEST POP JUMP JUMPDEST PUSH1 0x0 PUSH32 0x1FFC9A700000000000000000000000000000000000000000000000000000000 PUSH28 0xFFFFFFFFFFFFFFFFFFFFFFFFFFFFFFFFFFFFFFFFFFFFFFFFFFFFFFFF NOT AND DUP3 PUSH28 0xFFFFFFFFFFFFFFFFFFFFFFFFFFFFFFFFFFFFFFFFFFFFFFFFFFFFFFFF NOT AND EQ SWAP1 POP SWAP2 SWAP1 POP JUMP JUMPDEST PUSH1 0x0 DUP1 PUSH20 0xFFFFFFFFFFFFFFFFFFFFFFFFFFFFFFFFFFFFFFFF AND PUSH1 0x2 PUSH1 0x0 DUP5 DUP2 MSTORE PUSH1 0x20 ADD SWAP1 DUP2 MSTORE PUSH1 0x20 ADD PUSH1 0x0 KECCAK256 PUSH1 0x0 SWAP1 SLOAD SWAP1 PUSH2 0x100 EXP SWAP1 DIV PUSH20 0xFFFFFFFFFFFFFFFFFFFFFFFFFFFFFFFFFFFFFFFF AND PUSH20 0xFFFFFFFFFFFFFFFFFFFFFFFFFFFFFFFFFFFFFFFF AND EQ ISZERO SWAP1 POP SWAP2 SWAP1 POP JUMP JUMPDEST PUSH1 0x0 CALLER SWAP1 POP SWAP1 JUMP JUMPDEST DUP2 PUSH1 0x4 PUSH1 0x0 DUP4 DUP2 MSTORE PUSH1 0x20 ADD SWAP1 DUP2 MSTORE PUSH1 0x20 ADD PUSH1 0x0 KECCAK256 PUSH1 0x0 PUSH2 0x100 EXP DUP2 SLOAD DUP2 PUSH20 0xFFFFFFFFFFFFFFFFFFFFFFFFFFFFFFFFFFFFFFFF MUL NOT AND SWAP1 DUP4 PUSH20 0xFFFFFFFFFFFFFFFFFFFFFFFFFFFFFFFFFFFFFFFF AND MUL OR SWAP1 SSTORE POP DUP1 DUP3 PUSH20 0xFFFFFFFFFFFFFFFFFFFFFFFFFFFFFFFFFFFFFFFF AND PUSH2 0x20F5 DUP4 PUSH2 0x11F6 JUMP JUMPDEST PUSH20 0xFFFFFFFFFFFFFFFFFFFFFFFFFFFFFFFFFFFFFFFF AND PUSH32 0x8C5BE1E5EBEC7D5BD14F71427D1E84F3DD0314C0F7B2291E5B200AC8C7C3B925 PUSH1 0x40 MLOAD PUSH1 0x40 MLOAD DUP1 SWAP2 SUB SWAP1 LOG4 POP POP JUMP JUMPDEST PUSH1 0x0 PUSH2 0x2146 DUP3 PUSH2 0x200E JUMP JUMPDEST PUSH2 0x2185 JUMPI PUSH1 0x40 MLOAD PUSH32 0x8C379A000000000000000000000000000000000000000000000000000000000 DUP2 MSTORE PUSH1 0x4 ADD PUSH2 0x217C SWAP1 PUSH2 0x4947 JUMP JUMPDEST PUSH1 0x40 MLOAD DUP1 SWAP2 SUB SWAP1 REVERT JUMPDEST PUSH1 0x0 PUSH2 0x2190 DUP4 PUSH2 0x11F6 JUMP JUMPDEST SWAP1 POP DUP1 PUSH20 0xFFFFFFFFFFFFFFFFFFFFFFFFFFFFFFFFFFFFFFFF AND DUP5 PUSH20 0xFFFFFFFFFFFFFFFFFFFFFFFFFFFFFFFFFFFFFFFF AND EQ DUP1 PUSH2 0x21FF JUMPI POP DUP4 PUSH20 0xFFFFFFFFFFFFFFFFFFFFFFFFFFFFFFFFFFFFFFFF AND PUSH2 0x21E7 DUP5 PUSH2 0xA47 JUMP JUMPDEST PUSH20 0xFFFFFFFFFFFFFFFFFFFFFFFFFFFFFFFFFFFFFFFF AND EQ JUMPDEST DUP1 PUSH2 0x2210 JUMPI POP PUSH2 0x220F DUP2 DUP6 PUSH2 0x1E19 JUMP JUMPDEST JUMPDEST SWAP2 POP POP SWAP3 SWAP2 POP POP JUMP JUMPDEST DUP3 PUSH20 0xFFFFFFFFFFFFFFFFFFFFFFFFFFFFFFFFFFFFFFFF AND PUSH2 0x2239 DUP3 PUSH2 0x11F6 JUMP JUMPDEST PUSH20 0xFFFFFFFFFFFFFFFFFFFFFFFFFFFFFFFFFFFFFFFF AND EQ PUSH2 0x228F JUMPI PUSH1 0x40 MLOAD PUSH32 0x8C379A000000000000000000000000000000000000000000000000000000000 DUP2 MSTORE PUSH1 0x4 ADD PUSH2 0x2286 SWAP1 PUSH2 0x49D9 JUMP JUMPDEST PUSH1 0x40 MLOAD DUP1 SWAP2 SUB SWAP1 REVERT JUMPDEST PUSH1 0x0 PUSH20 0xFFFFFFFFFFFFFFFFFFFFFFFFFFFFFFFFFFFFFFFF AND DUP3 PUSH20 0xFFFFFFFFFFFFFFFFFFFFFFFFFFFFFFFFFFFFFFFF AND SUB PUSH2 0x22FE JUMPI PUSH1 0x40 MLOAD PUSH32 0x8C379A000000000000000000000000000000000000000000000000000000000 DUP2 MSTORE PUSH1 0x4 ADD PUSH2 0x22F5 SWAP1 PUSH2 0x4A6B JUMP JUMPDEST PUSH1 0x40 MLOAD DUP1 SWAP2 SUB SWAP1 REVERT JUMPDEST PUSH2 0x2309 DUP4 DUP4 DUP4 PUSH2 0x2B40 JUMP JUMPDEST PUSH2 0x2314 PUSH1 0x0 DUP3 PUSH2 0x2082 JUMP JUMPDEST PUSH1 0x1 PUSH1 0x3 PUSH1 0x0 DUP6 PUSH20 0xFFFFFFFFFFFFFFFFFFFFFFFFFFFFFFFFFFFFFFFF AND PUSH20 0xFFFFFFFFFFFFFFFFFFFFFFFFFFFFFFFFFFFFFFFF AND DUP2 MSTORE PUSH1 0x20 ADD SWAP1 DUP2 MSTORE PUSH1 0x20 ADD PUSH1 0x0 KECCAK256 PUSH1 0x0 DUP3 DUP3 SLOAD PUSH2 0x2364 SWAP2 SWAP1 PUSH2 0x3EE9 JUMP JUMPDEST SWAP3 POP POP DUP2 SWAP1 SSTORE POP PUSH1 0x1 PUSH1 0x3 PUSH1 0x0 DUP5 PUSH20 0xFFFFFFFFFFFFFFFFFFFFFFFFFFFFFFFFFFFFFFFF AND PUSH20 0xFFFFFFFFFFFFFFFFFFFFFFFFFFFFFFFFFFFFFFFF AND DUP2 MSTORE PUSH1 0x20 ADD SWAP1 DUP2 MSTORE PUSH1 0x20 ADD PUSH1 0x0 KECCAK256 PUSH1 0x0 DUP3 DUP3 SLOAD PUSH2 0x23BB SWAP2 SWAP1 PUSH2 0x40F3 JUMP JUMPDEST SWAP3 POP POP DUP2 SWAP1 SSTORE POP DUP2 PUSH1 0x2 PUSH1 0x0 DUP4 DUP2 MSTORE PUSH1 0x20 ADD SWAP1 DUP2 MSTORE PUSH1 0x20 ADD PUSH1 0x0 KECCAK256 PUSH1 0x0 PUSH2 0x100 EXP DUP2 SLOAD DUP2 PUSH20 0xFFFFFFFFFFFFFFFFFFFFFFFFFFFFFFFFFFFFFFFF MUL NOT AND SWAP1 DUP4 PUSH20 0xFFFFFFFFFFFFFFFFFFFFFFFFFFFFFFFFFFFFFFFF AND MUL OR SWAP1 SSTORE POP DUP1 DUP3 PUSH20 0xFFFFFFFFFFFFFFFFFFFFFFFFFFFFFFFFFFFFFFFF AND DUP5 PUSH20 0xFFFFFFFFFFFFFFFFFFFFFFFFFFFFFFFFFFFFFFFF AND PUSH32 0xDDF252AD1BE2C89B69C2B068FC378DAA952BA7F163C4A11628F55A4DF523B3EF PUSH1 0x40 MLOAD PUSH1 0x40 MLOAD DUP1 SWAP2 SUB SWAP1 LOG4 PUSH2 0x247A DUP4 DUP4 DUP4 PUSH2 0x2B45 JUMP JUMPDEST POP POP POP JUMP JUMPDEST PUSH1 0x0 DUP1 DUP4 EQ DUP1 PUSH2 0x248F JUMPI POP DUP3 TIMESTAMP LT ISZERO JUMPDEST DUP1 ISZERO PUSH2 0x24A6 JUMPI POP PUSH1 0x0 DUP3 EQ DUP1 PUSH2 0x24A5 JUMPI POP DUP2 TIMESTAMP GT ISZERO JUMPDEST JUMPDEST SWAP1 POP SWAP3 SWAP2 POP POP JUMP JUMPDEST PUSH1 0xC PUSH1 0x3 ADD SLOAD DUP3 GT ISZERO PUSH2 0x24F6 JUMPI PUSH1 0x40 MLOAD PUSH32 0x8C379A000000000000000000000000000000000000000000000000000000000 DUP2 MSTORE PUSH1 0x4 ADD PUSH2 0x24ED SWAP1 PUSH2 0x4AD7 JUMP JUMPDEST PUSH1 0x40 MLOAD DUP1 SWAP2 SUB SWAP1 REVERT JUMPDEST PUSH1 0xC PUSH1 0x4 ADD SLOAD DUP3 PUSH1 0xA PUSH1 0x0 CALLER PUSH20 0xFFFFFFFFFFFFFFFFFFFFFFFFFFFFFFFFFFFFFFFF AND PUSH20 0xFFFFFFFFFFFFFFFFFFFFFFFFFFFFFFFFFFFFFFFF AND DUP2 MSTORE PUSH1 0x20 ADD SWAP1 DUP2 MSTORE PUSH1 0x20 ADD PUSH1 0x0 KECCAK256 SLOAD PUSH2 0x2547 SWAP2 SWAP1 PUSH2 0x40F3 JUMP JUMPDEST GT ISZERO PUSH2 0x2588 JUMPI PUSH1 0x40 MLOAD PUSH32 0x8C379A000000000000000000000000000000000000000000000000000000000 DUP2 MSTORE PUSH1 0x4 ADD PUSH2 0x257F SWAP1 PUSH2 0x4B43 JUMP JUMPDEST PUSH1 0x40 MLOAD DUP1 SWAP2 SUB SWAP1 REVERT JUMPDEST PUSH1 0xC PUSH1 0x0 ADD SLOAD DUP3 PUSH1 0x9 SLOAD PUSH2 0x259C SWAP2 SWAP1 PUSH2 0x40F3 JUMP JUMPDEST GT ISZERO PUSH2 0x25DD JUMPI PUSH1 0x40 MLOAD PUSH32 0x8C379A000000000000000000000000000000000000000000000000000000000 DUP2 MSTORE PUSH1 0x4 ADD PUSH2 0x25D4 SWAP1 PUSH2 0x4BAF JUMP JUMPDEST PUSH1 0x40 MLOAD DUP1 SWAP2 SUB SWAP1 REVERT JUMPDEST PUSH1 0x0 DUP2 PUSH2 0x25EF JUMPI PUSH1 0xC PUSH1 0x1 ADD SLOAD PUSH2 0x25F6 JUMP JUMPDEST PUSH1 0xC PUSH1 0x2 ADD SLOAD JUMPDEST SWAP1 POP CALLVALUE DUP2 DUP5 PUSH2 0x2605 SWAP2 SWAP1 PUSH2 0x3E47 JUMP JUMPDEST GT ISZERO PUSH2 0x2646 JUMPI PUSH1 0x40 MLOAD PUSH32 0x8C379A000000000000000000000000000000000000000000000000000000000 DUP2 MSTORE PUSH1 0x4 ADD PUSH2 0x263D SWAP1 PUSH2 0x4C1B JUMP JUMPDEST PUSH1 0x40 MLOAD DUP1 SWAP2 SUB SWAP1 REVERT JUMPDEST PUSH1 0x0 PUSH1 0x1 SWAP1 POP JUMPDEST DUP4 DUP2 GT PUSH2 0x2678 JUMPI PUSH2 0x266B CALLER DUP3 PUSH1 0x9 SLOAD PUSH2 0x2666 SWAP2 SWAP1 PUSH2 0x40F3 JUMP JUMPDEST PUSH2 0x2B4A JUMP JUMPDEST DUP1 DUP1 PUSH1 0x1 ADD SWAP2 POP POP PUSH2 0x264D JUMP JUMPDEST POP DUP3 PUSH1 0xA PUSH1 0x0 CALLER PUSH20 0xFFFFFFFFFFFFFFFFFFFFFFFFFFFFFFFFFFFFFFFF AND PUSH20 0xFFFFFFFFFFFFFFFFFFFFFFFFFFFFFFFFFFFFFFFF AND DUP2 MSTORE PUSH1 0x20 ADD SWAP1 DUP2 MSTORE PUSH1 0x20 ADD PUSH1 0x0 KECCAK256 PUSH1 0x0 DUP3 DUP3 SLOAD PUSH2 0x26C8 SWAP2 SWAP1 PUSH2 0x40F3 JUMP JUMPDEST SWAP3 POP POP DUP2 SWAP1 SSTORE POP DUP3 PUSH1 0x9 PUSH1 0x0 DUP3 DUP3 SLOAD PUSH2 0x26E1 SWAP2 SWAP1 PUSH2 0x40F3 JUMP JUMPDEST SWAP3 POP POP DUP2 SWAP1 SSTORE POP CALLER PUSH20 0xFFFFFFFFFFFFFFFFFFFFFFFFFFFFFFFFFFFFFFFF AND PUSH32 0x3F2C9D57C068687834F0DE942A9BABB9E5ACAB57D516D3480A3C16EE165A4273 DUP5 PUSH1 0x40 MLOAD PUSH2 0x272E SWAP2 SWAP1 PUSH2 0x3287 JUMP JUMPDEST PUSH1 0x40 MLOAD DUP1 SWAP2 SUB SWAP1 LOG2 POP POP POP JUMP JUMPDEST PUSH1 0x0 PUSH1 0x6 PUSH1 0x0 SWAP1 SLOAD SWAP1 PUSH2 0x100 EXP SWAP1 DIV PUSH20 0xFFFFFFFFFFFFFFFFFFFFFFFFFFFFFFFFFFFFFFFF AND SWAP1 POP DUP2 PUSH1 0x6 PUSH1 0x0 PUSH2 0x100 EXP DUP2 SLOAD DUP2 PUSH20 0xFFFFFFFFFFFFFFFFFFFFFFFFFFFFFFFFFFFFFFFF MUL NOT AND SWAP1 DUP4 PUSH20 0xFFFFFFFFFFFFFFFFFFFFFFFFFFFFFFFFFFFFFFFF AND MUL OR SWAP1 SSTORE POP DUP2 PUSH20 0xFFFFFFFFFFFFFFFFFFFFFFFFFFFFFFFFFFFFFFFF AND DUP2 PUSH20 0xFFFFFFFFFFFFFFFFFFFFFFFFFFFFFFFFFFFFFFFF AND PUSH32 0x8BE0079C531659141344CD1FD0A4F28419497F9722A3DAAFE3B4186F6B6457E0 PUSH1 0x40 MLOAD PUSH1 0x40 MLOAD DUP1 SWAP2 SUB SWAP1 LOG3 POP POP JUMP JUMPDEST DUP2 PUSH20 0xFFFFFFFFFFFFFFFFFFFFFFFFFFFFFFFFFFFFFFFF AND DUP4 PUSH20 0xFFFFFFFFFFFFFFFFFFFFFFFFFFFFFFFFFFFFFFFF AND SUB PUSH2 0x286F JUMPI PUSH1 0x40 MLOAD PUSH32 0x8C379A000000000000000000000000000000000000000000000000000000000 DUP2 MSTORE PUSH1 0x4 ADD PUSH2 0x2866 SWAP1 PUSH2 0x4C87 JUMP JUMPDEST PUSH1 0x40 MLOAD DUP1 SWAP2 SUB SWAP1 REVERT JUMPDEST DUP1 PUSH1 0x5 PUSH1 0x0 DUP6 PUSH20 0xFFFFFFFFFFFFFFFFFFFFFFFFFFFFFFFFFFFFFFFF AND PUSH20 0xFFFFFFFFFFFFFFFFFFFFFFFFFFFFFFFFFFFFFFFF AND DUP2 MSTORE PUSH1 0x20 ADD SWAP1 DUP2 MSTORE PUSH1 0x20 ADD PUSH1 0x0 KECCAK256 PUSH1 0x0 DUP5 PUSH20 0xFFFFFFFFFFFFFFFFFFFFFFFFFFFFFFFFFFFFFFFF AND PUSH20 0xFFFFFFFFFFFFFFFFFFFFFFFFFFFFFFFFFFFFFFFF AND DUP2 MSTORE PUSH1 0x20 ADD SWAP1 DUP2 MSTORE PUSH1 0x20 ADD PUSH1 0x0 KECCAK256 PUSH1 0x0 PUSH2 0x100 EXP DUP2 SLOAD DUP2 PUSH1 0xFF MUL NOT AND SWAP1 DUP4 ISZERO ISZERO MUL OR SWAP1 SSTORE POP DUP2 PUSH20 0xFFFFFFFFFFFFFFFFFFFFFFFFFFFFFFFFFFFFFFFF AND DUP4 PUSH20 0xFFFFFFFFFFFFFFFFFFFFFFFFFFFFFFFFFFFFFFFF AND PUSH32 0x17307EAB39AB6107E8899845AD3D59BD9653F200F220920489CA2B5937696C31 DUP4 PUSH1 0x40 MLOAD PUSH2 0x2960 SWAP2 SWAP1 PUSH2 0x3080 JUMP JUMPDEST PUSH1 0x40 MLOAD DUP1 SWAP2 SUB SWAP1 LOG3 POP POP POP JUMP JUMPDEST PUSH2 0x2978 DUP5 DUP5 DUP5 PUSH2 0x2219 JUMP JUMPDEST PUSH2 0x2984 DUP5 DUP5 DUP5 DUP5 PUSH2 0x2B68 JUMP JUMPDEST PUSH2 0x29C3 JUMPI PUSH1 0x40 MLOAD PUSH32 0x8C379A000000000000000000000000000000000000000000000000000000000 DUP2 MSTORE PUSH1 0x4 ADD PUSH2 0x29BA SWAP1 PUSH2 0x4D19 JUMP JUMPDEST PUSH1 0x40 MLOAD DUP1 SWAP2 SUB SWAP1 REVERT JUMPDEST POP POP POP POP JUMP JUMPDEST PUSH1 0x0 DUP3 PUSH2 0x29D6 DUP6 DUP5 PUSH2 0x2CEF JUMP JUMPDEST EQ SWAP1 POP SWAP4 SWAP3 POP POP POP JUMP JUMPDEST PUSH1 0x60 PUSH1 0x0 DUP3 SUB PUSH2 0x2A27 JUMPI PUSH1 0x40 MLOAD DUP1 PUSH1 0x40 ADD PUSH1 0x40 MSTORE DUP1 PUSH1 0x1 DUP2 MSTORE PUSH1 0x20 ADD PUSH32 0x3000000000000000000000000000000000000000000000000000000000000000 DUP2 MSTORE POP SWAP1 POP PUSH2 0x2B3B JUMP JUMPDEST PUSH1 0x0 DUP3 SWAP1 POP PUSH1 0x0 JUMPDEST PUSH1 0x0 DUP3 EQ PUSH2 0x2A59 JUMPI DUP1 DUP1 PUSH2 0x2A42 SWAP1 PUSH2 0x4D39 JUMP JUMPDEST SWAP2 POP POP PUSH1 0xA DUP3 PUSH2 0x2A52 SWAP2 SWAP1 PUSH2 0x3EB8 JUMP JUMPDEST SWAP2 POP PUSH2 0x2A2F JUMP JUMPDEST PUSH1 0x0 DUP2 PUSH8 0xFFFFFFFFFFFFFFFF DUP2 GT ISZERO PUSH2 0x2A75 JUMPI PUSH2 0x2A74 PUSH2 0x32FA JUMP JUMPDEST JUMPDEST PUSH1 0x40 MLOAD SWAP1 DUP1 DUP3 MSTORE DUP1 PUSH1 0x1F ADD PUSH1 0x1F NOT AND PUSH1 0x20 ADD DUP3 ADD PUSH1 0x40 MSTORE DUP1 ISZERO PUSH2 0x2AA7 JUMPI DUP2 PUSH1 0x20 ADD PUSH1 0x1 DUP3 MUL DUP1 CALLDATASIZE DUP4 CALLDATACOPY DUP1 DUP3 ADD SWAP2 POP POP SWAP1 POP JUMPDEST POP SWAP1 POP JUMPDEST PUSH1 0x0 DUP6 EQ PUSH2 0x2B34 JUMPI PUSH1 0x1 DUP3 PUSH2 0x2AC0 SWAP2 SWAP1 PUSH2 0x3EE9 JUMP JUMPDEST SWAP2 POP PUSH1 0xA DUP6 PUSH2 0x2ACF SWAP2 SWAP1 PUSH2 0x4D81 JUMP JUMPDEST PUSH1 0x30 PUSH2 0x2ADB SWAP2 SWAP1 PUSH2 0x40F3 JUMP JUMPDEST PUSH1 0xF8 SHL DUP2 DUP4 DUP2 MLOAD DUP2 LT PUSH2 0x2AF1 JUMPI PUSH2 0x2AF0 PUSH2 0x4DB2 JUMP JUMPDEST JUMPDEST PUSH1 0x20 ADD ADD SWAP1 PUSH31 0xFFFFFFFFFFFFFFFFFFFFFFFFFFFFFFFFFFFFFFFFFFFFFFFFFFFFFFFFFFFFFF NOT AND SWAP1 DUP2 PUSH1 0x0 BYTE SWAP1 MSTORE8 POP PUSH1 0xA DUP6 PUSH2 0x2B2D SWAP2 SWAP1 PUSH2 0x3EB8 JUMP JUMPDEST SWAP5 POP PUSH2 0x2AAB JUMP JUMPDEST DUP1 SWAP4 POP POP POP POP JUMPDEST SWAP2 SWAP1 POP JUMP JUMPDEST POP POP POP JUMP JUMPDEST POP POP POP JUMP JUMPDEST PUSH2 0x2B64 DUP3 DUP3 PUSH1 0x40 MLOAD DUP1 PUSH1 0x20 ADD PUSH1 0x40 MSTORE DUP1 PUSH1 0x0 DUP2 MSTORE POP PUSH2 0x2D5E JUMP JUMPDEST POP POP JUMP JUMPDEST PUSH1 0x0 PUSH2 0x2B89 DUP5 PUSH20 0xFFFFFFFFFFFFFFFFFFFFFFFFFFFFFFFFFFFFFFFF AND PUSH2 0x2DB9 JUMP JUMPDEST ISZERO PUSH2 0x2CE2 JUMPI DUP4 PUSH20 0xFFFFFFFFFFFFFFFFFFFFFFFFFFFFFFFFFFFFFFFF AND PUSH4 0x150B7A02 PUSH2 0x2BB2 PUSH2 0x207A JUMP JUMPDEST DUP8 DUP7 DUP7 PUSH1 0x40 MLOAD DUP6 PUSH4 0xFFFFFFFF AND PUSH1 0xE0 SHL DUP2 MSTORE PUSH1 0x4 ADD PUSH2 0x2BD4 SWAP5 SWAP4 SWAP3 SWAP2 SWAP1 PUSH2 0x4E36 JUMP JUMPDEST PUSH1 0x20 PUSH1 0x40 MLOAD DUP1 DUP4 SUB DUP2 PUSH1 0x0 DUP8 GAS CALL SWAP3 POP POP POP DUP1 ISZERO PUSH2 0x2C10 JUMPI POP PUSH1 0x40 MLOAD RETURNDATASIZE PUSH1 0x1F NOT PUSH1 0x1F DUP3 ADD AND DUP3 ADD DUP1 PUSH1 0x40 MSTORE POP DUP2 ADD SWAP1 PUSH2 0x2C0D SWAP2 SWAP1 PUSH2 0x4E97 JUMP JUMPDEST PUSH1 0x1 JUMPDEST PUSH2 0x2C92 JUMPI RETURNDATASIZE DUP1 PUSH1 0x0 DUP2 EQ PUSH2 0x2C40 JUMPI PUSH1 0x40 MLOAD SWAP2 POP PUSH1 0x1F NOT PUSH1 0x3F RETURNDATASIZE ADD AND DUP3 ADD PUSH1 0x40 MSTORE RETURNDATASIZE DUP3 MSTORE RETURNDATASIZE PUSH1 0x0 PUSH1 0x20 DUP5 ADD RETURNDATACOPY PUSH2 0x2C45 JUMP JUMPDEST PUSH1 0x60 SWAP2 POP JUMPDEST POP PUSH1 0x0 DUP2 MLOAD SUB PUSH2 0x2C8A JUMPI PUSH1 0x40 MLOAD PUSH32 0x8C379A000000000000000000000000000000000000000000000000000000000 DUP2 MSTORE PUSH1 0x4 ADD PUSH2 0x2C81 SWAP1 PUSH2 0x4D19 JUMP JUMPDEST PUSH1 0x40 MLOAD DUP1 SWAP2 SUB SWAP1 REVERT JUMPDEST DUP1 MLOAD DUP2 PUSH1 0x20 ADD REVERT JUMPDEST PUSH4 0x150B7A02 PUSH1 0xE0 SHL PUSH28 0xFFFFFFFFFFFFFFFFFFFFFFFFFFFFFFFFFFFFFFFFFFFFFFFFFFFFFFFF NOT AND DUP2 PUSH28 0xFFFFFFFFFFFFFFFFFFFFFFFFFFFFFFFFFFFFFFFFFFFFFFFFFFFFFFFF NOT AND EQ SWAP2 POP POP PUSH2 0x2CE7 JUMP JUMPDEST PUSH1 0x1 SWAP1 POP JUMPDEST SWAP5 SWAP4 POP POP POP POP JUMP JUMPDEST PUSH1 0x0 DUP1 DUP3 SWAP1 POP PUSH1 0x0 JUMPDEST DUP5 MLOAD DUP2 LT ISZERO PUSH2 0x2D53 JUMPI PUSH1 0x0 DUP6 DUP3 DUP2 MLOAD DUP2 LT PUSH2 0x2D16 JUMPI PUSH2 0x2D15 PUSH2 0x4DB2 JUMP JUMPDEST JUMPDEST PUSH1 0x20 MUL PUSH1 0x20 ADD ADD MLOAD SWAP1 POP DUP1 DUP4 GT PUSH2 0x2D38 JUMPI PUSH2 0x2D31 DUP4 DUP3 PUSH2 0x2DDC JUMP JUMPDEST SWAP3 POP PUSH2 0x2D45 JUMP JUMPDEST PUSH2 0x2D42 DUP2 DUP5 PUSH2 0x2DDC JUMP JUMPDEST SWAP3 POP JUMPDEST POP DUP1 DUP1 PUSH1 0x1 ADD SWAP2 POP POP PUSH2 0x2CF8 JUMP JUMPDEST POP DUP1 SWAP2 POP POP SWAP3 SWAP2 POP POP JUMP JUMPDEST PUSH2 0x2D68 DUP4 DUP4 PUSH2 0x2DF3 JUMP JUMPDEST PUSH2 0x2D75 PUSH1 0x0 DUP5 DUP5 DUP5 PUSH2 0x2B68 JUMP JUMPDEST PUSH2 0x2DB4 JUMPI PUSH1 0x40 MLOAD PUSH32 0x8C379A000000000000000000000000000000000000000000000000000000000 DUP2 MSTORE PUSH1 0x4 ADD PUSH2 0x2DAB SWAP1 PUSH2 0x4D19 JUMP JUMPDEST PUSH1 0x40 MLOAD DUP1 SWAP2 SUB SWAP1 REVERT JUMPDEST POP POP POP JUMP JUMPDEST PUSH1 0x0 DUP1 DUP3 PUSH20 0xFFFFFFFFFFFFFFFFFFFFFFFFFFFFFFFFFFFFFFFF AND EXTCODESIZE GT SWAP1 POP SWAP2 SWAP1 POP JUMP JUMPDEST PUSH1 0x0 DUP3 PUSH1 0x0 MSTORE DUP2 PUSH1 0x20 MSTORE PUSH1 0x40 PUSH1 0x0 KECCAK256 SWAP1 POP SWAP3 SWAP2 POP POP JUMP JUMPDEST PUSH1 0x0 PUSH20 0xFFFFFFFFFFFFFFFFFFFFFFFFFFFFFFFFFFFFFFFF AND DUP3 PUSH20 0xFFFFFFFFFFFFFFFFFFFFFFFFFFFFFFFFFFFFFFFF AND SUB PUSH2 0x2E62 JUMPI PUSH1 0x40 MLOAD PUSH32 0x8C379A000000000000000000000000000000000000000000000000000000000 DUP2 MSTORE PUSH1 0x4 ADD PUSH2 0x2E59 SWAP1 PUSH2 0x4F10 JUMP JUMPDEST PUSH1 0x40 MLOAD DUP1 SWAP2 SUB SWAP1 REVERT JUMPDEST PUSH2 0x2E6B DUP2 PUSH2 0x200E JUMP JUMPDEST ISZERO PUSH2 0x2EAB JUMPI PUSH1 0x40 MLOAD PUSH32 0x8C379A000000000000000000000000000000000000000000000000000000000 DUP2 MSTORE PUSH1 0x4 ADD PUSH2 0x2EA2 SWAP1 PUSH2 0x4F7C JUMP JUMPDEST PUSH1 0x40 MLOAD DUP1 SWAP2 SUB SWAP1 REVERT JUMPDEST PUSH2 0x2EB7 PUSH1 0x0 DUP4 DUP4 PUSH2 0x2B40 JUMP JUMPDEST PUSH1 0x1 PUSH1 0x3 PUSH1 0x0 DUP5 PUSH20 0xFFFFFFFFFFFFFFFFFFFFFFFFFFFFFFFFFFFFFFFF AND PUSH20 0xFFFFFFFFFFFFFFFFFFFFFFFFFFFFFFFFFFFFFFFF AND DUP2 MSTORE PUSH1 0x20 ADD SWAP1 DUP2 MSTORE PUSH1 0x20 ADD PUSH1 0x0 KECCAK256 PUSH1 0x0 DUP3 DUP3 SLOAD PUSH2 0x2F07 SWAP2 SWAP1 PUSH2 0x40F3 JUMP JUMPDEST SWAP3 POP POP DUP2 SWAP1 SSTORE POP DUP2 PUSH1 0x2 PUSH1 0x0 DUP4 DUP2 MSTORE PUSH1 0x20 ADD SWAP1 DUP2 MSTORE PUSH1 0x20 ADD PUSH1 0x0 KECCAK256 PUSH1 0x0 PUSH2 0x100 EXP DUP2 SLOAD DUP2 PUSH20 0xFFFFFFFFFFFFFFFFFFFFFFFFFFFFFFFFFFFFFFFF MUL NOT AND SWAP1 DUP4 PUSH20 0xFFFFFFFFFFFFFFFFFFFFFFFFFFFFFFFFFFFFFFFF AND MUL OR SWAP1 SSTORE POP DUP1 DUP3 PUSH20 0xFFFFFFFFFFFFFFFFFFFFFFFFFFFFFFFFFFFFFFFF AND PUSH1 0x0 PUSH20 0xFFFFFFFFFFFFFFFFFFFFFFFFFFFFFFFFFFFFFFFF AND PUSH32 0xDDF252AD1BE2C89B69C2B068FC378DAA952BA7F163C4A11628F55A4DF523B3EF PUSH1 0x40 MLOAD PUSH1 0x40 MLOAD DUP1 SWAP2 SUB SWAP1 LOG4 PUSH2 0x2FC8 PUSH1 0x0 DUP4 DUP4 PUSH2 0x2B45 JUMP JUMPDEST POP POP JUMP JUMPDEST PUSH1 0x0 PUSH1 0x40 MLOAD SWAP1 POP SWAP1 JUMP JUMPDEST PUSH1 0x0 DUP1 REVERT JUMPDEST PUSH1 0x0 DUP1 REVERT JUMPDEST PUSH1 0x0 PUSH32 0xFFFFFFFF00000000000000000000000000000000000000000000000000000000 DUP3 AND SWAP1 POP SWAP2 SWAP1 POP JUMP JUMPDEST PUSH2 0x3015 DUP2 PUSH2 0x2FE0 JUMP JUMPDEST DUP2 EQ PUSH2 0x3020 JUMPI PUSH1 0x0 DUP1 REVERT JUMPDEST POP JUMP JUMPDEST PUSH1 0x0 DUP2 CALLDATALOAD SWAP1 POP PUSH2 0x3032 DUP2 PUSH2 0x300C JUMP JUMPDEST SWAP3 SWAP2 POP POP JUMP JUMPDEST PUSH1 0x0 PUSH1 0x20 DUP3 DUP5 SUB SLT ISZERO PUSH2 0x304E JUMPI PUSH2 0x304D PUSH2 0x2FD6 JUMP JUMPDEST JUMPDEST PUSH1 0x0 PUSH2 0x305C DUP5 DUP3 DUP6 ADD PUSH2 0x3023 JUMP JUMPDEST SWAP2 POP POP SWAP3 SWAP2 POP POP JUMP JUMPDEST PUSH1 0x0 DUP2 ISZERO ISZERO SWAP1 POP SWAP2 SWAP1 POP JUMP JUMPDEST PUSH2 0x307A DUP2 PUSH2 0x3065 JUMP JUMPDEST DUP3 MSTORE POP POP JUMP JUMPDEST PUSH1 0x0 PUSH1 0x20 DUP3 ADD SWAP1 POP PUSH2 0x3095 PUSH1 0x0 DUP4 ADD DUP5 PUSH2 0x3071 JUMP JUMPDEST SWAP3 SWAP2 POP POP JUMP JUMPDEST PUSH1 0x0 DUP2 MLOAD SWAP1 POP SWAP2 SWAP1 POP JUMP JUMPDEST PUSH1 0x0 DUP3 DUP3 MSTORE PUSH1 0x20 DUP3 ADD SWAP1 POP SWAP3 SWAP2 POP POP JUMP JUMPDEST PUSH1 0x0 JUMPDEST DUP4 DUP2 LT ISZERO PUSH2 0x30D5 JUMPI DUP1 DUP3 ADD MLOAD DUP2 DUP5 ADD MSTORE PUSH1 0x20 DUP2 ADD SWAP1 POP PUSH2 0x30BA JUMP JUMPDEST PUSH1 0x0 DUP5 DUP5 ADD MSTORE POP POP POP POP JUMP JUMPDEST PUSH1 0x0 PUSH1 0x1F NOT PUSH1 0x1F DUP4 ADD AND SWAP1 POP SWAP2 SWAP1 POP JUMP JUMPDEST PUSH1 0x0 PUSH2 0x30FD DUP3 PUSH2 0x309B JUMP JUMPDEST PUSH2 0x3107 DUP2 DUP6 PUSH2 0x30A6 JUMP JUMPDEST SWAP4 POP PUSH2 0x3117 DUP2 DUP6 PUSH1 0x20 DUP7 ADD PUSH2 0x30B7 JUMP JUMPDEST PUSH2 0x3120 DUP2 PUSH2 0x30E1 JUMP JUMPDEST DUP5 ADD SWAP2 POP POP SWAP3 SWAP2 POP POP JUMP JUMPDEST PUSH1 0x0 PUSH1 0x20 DUP3 ADD SWAP1 POP DUP2 DUP2 SUB PUSH1 0x0 DUP4 ADD MSTORE PUSH2 0x3145 DUP2 DUP5 PUSH2 0x30F2 JUMP JUMPDEST SWAP1 POP SWAP3 SWAP2 POP POP JUMP JUMPDEST PUSH1 0x0 DUP2 SWAP1 POP SWAP2 SWAP1 POP JUMP JUMPDEST PUSH2 0x3160 DUP2 PUSH2 0x314D JUMP JUMPDEST DUP2 EQ PUSH2 0x316B JUMPI PUSH1 0x0 DUP1 REVERT JUMPDEST POP JUMP JUMPDEST PUSH1 0x0 DUP2 CALLDATALOAD SWAP1 POP PUSH2 0x317D DUP2 PUSH2 0x3157 JUMP JUMPDEST SWAP3 SWAP2 POP POP JUMP JUMPDEST PUSH1 0x0 PUSH1 0x20 DUP3 DUP5 SUB SLT ISZERO PUSH2 0x3199 JUMPI PUSH2 0x3198 PUSH2 0x2FD6 JUMP JUMPDEST JUMPDEST PUSH1 0x0 PUSH2 0x31A7 DUP5 DUP3 DUP6 ADD PUSH2 0x316E JUMP JUMPDEST SWAP2 POP POP SWAP3 SWAP2 POP POP JUMP JUMPDEST PUSH1 0x0 PUSH20 0xFFFFFFFFFFFFFFFFFFFFFFFFFFFFFFFFFFFFFFFF DUP3 AND SWAP1 POP SWAP2 SWAP1 POP JUMP JUMPDEST PUSH1 0x0 PUSH2 0x31DB DUP3 PUSH2 0x31B0 JUMP JUMPDEST SWAP1 POP SWAP2 SWAP1 POP JUMP JUMPDEST PUSH2 0x31EB DUP2 PUSH2 0x31D0 JUMP JUMPDEST DUP3 MSTORE POP POP JUMP JUMPDEST PUSH1 0x0 PUSH1 0x20 DUP3 ADD SWAP1 POP PUSH2 0x3206 PUSH1 0x0 DUP4 ADD DUP5 PUSH2 0x31E2 JUMP JUMPDEST SWAP3 SWAP2 POP POP JUMP JUMPDEST PUSH2 0x3215 DUP2 PUSH2 0x31D0 JUMP JUMPDEST DUP2 EQ PUSH2 0x3220 JUMPI PUSH1 0x0 DUP1 REVERT JUMPDEST POP JUMP JUMPDEST PUSH1 0x0 DUP2 CALLDATALOAD SWAP1 POP PUSH2 0x3232 DUP2 PUSH2 0x320C JUMP JUMPDEST SWAP3 SWAP2 POP POP JUMP JUMPDEST PUSH1 0x0 DUP1 PUSH1 0x40 DUP4 DUP6 SUB SLT ISZERO PUSH2 0x324F JUMPI PUSH2 0x324E PUSH2 0x2FD6 JUMP JUMPDEST JUMPDEST PUSH1 0x0 PUSH2 0x325D DUP6 DUP3 DUP7 ADD PUSH2 0x3223 JUMP JUMPDEST SWAP3 POP POP PUSH1 0x20 PUSH2 0x326E DUP6 DUP3 DUP7 ADD PUSH2 0x316E JUMP JUMPDEST SWAP2 POP POP SWAP3 POP SWAP3 SWAP1 POP JUMP JUMPDEST PUSH2 0x3281 DUP2 PUSH2 0x314D JUMP JUMPDEST DUP3 MSTORE POP POP JUMP JUMPDEST PUSH1 0x0 PUSH1 0x20 DUP3 ADD SWAP1 POP PUSH2 0x329C PUSH1 0x0 DUP4 ADD DUP5 PUSH2 0x3278 JUMP JUMPDEST SWAP3 SWAP2 POP POP JUMP JUMPDEST PUSH1 0x0 DUP1 PUSH1 0x0 PUSH1 0x60 DUP5 DUP7 SUB SLT ISZERO PUSH2 0x32BB JUMPI PUSH2 0x32BA PUSH2 0x2FD6 JUMP JUMPDEST JUMPDEST PUSH1 0x0 PUSH2 0x32C9 DUP7 DUP3 DUP8 ADD PUSH2 0x3223 JUMP JUMPDEST SWAP4 POP POP PUSH1 0x20 PUSH2 0x32DA DUP7 DUP3 DUP8 ADD PUSH2 0x3223 JUMP JUMPDEST SWAP3 POP POP PUSH1 0x40 PUSH2 0x32EB DUP7 DUP3 DUP8 ADD PUSH2 0x316E JUMP JUMPDEST SWAP2 POP POP SWAP3 POP SWAP3 POP SWAP3 JUMP JUMPDEST PUSH1 0x0 DUP1 REVERT JUMPDEST PUSH32 0x4E487B7100000000000000000000000000000000000000000000000000000000 PUSH1 0x0 MSTORE PUSH1 0x41 PUSH1 0x4 MSTORE PUSH1 0x24 PUSH1 0x0 REVERT JUMPDEST PUSH2 0x3332 DUP3 PUSH2 0x30E1 JUMP JUMPDEST DUP2 ADD DUP2 DUP2 LT PUSH8 0xFFFFFFFFFFFFFFFF DUP3 GT OR ISZERO PUSH2 0x3351 JUMPI PUSH2 0x3350 PUSH2 0x32FA JUMP JUMPDEST JUMPDEST DUP1 PUSH1 0x40 MSTORE POP POP POP JUMP JUMPDEST PUSH1 0x0 PUSH2 0x3364 PUSH2 0x2FCC JUMP JUMPDEST SWAP1 POP PUSH2 0x3370 DUP3 DUP3 PUSH2 0x3329 JUMP JUMPDEST SWAP2 SWAP1 POP JUMP JUMPDEST PUSH1 0x0 PUSH8 0xFFFFFFFFFFFFFFFF DUP3 GT ISZERO PUSH2 0x3390 JUMPI PUSH2 0x338F PUSH2 0x32FA JUMP JUMPDEST JUMPDEST PUSH1 0x20 DUP3 MUL SWAP1 POP PUSH1 0x20 DUP2 ADD SWAP1 POP SWAP2 SWAP1 POP JUMP JUMPDEST PUSH1 0x0 DUP1 REVERT JUMPDEST PUSH1 0x0 DUP2 SWAP1 POP SWAP2 SWAP1 POP JUMP JUMPDEST PUSH2 0x33B9 DUP2 PUSH2 0x33A6 JUMP JUMPDEST DUP2 EQ PUSH2 0x33C4 JUMPI PUSH1 0x0 DUP1 REVERT JUMPDEST POP JUMP JUMPDEST PUSH1 0x0 DUP2 CALLDATALOAD SWAP1 POP PUSH2 0x33D6 DUP2 PUSH2 0x33B0 JUMP JUMPDEST SWAP3 SWAP2 POP POP JUMP JUMPDEST PUSH1 0x0 PUSH2 0x33EF PUSH2 0x33EA DUP5 PUSH2 0x3375 JUMP JUMPDEST PUSH2 0x335A JUMP JUMPDEST SWAP1 POP DUP1 DUP4 DUP3 MSTORE PUSH1 0x20 DUP3 ADD SWAP1 POP PUSH1 0x20 DUP5 MUL DUP4 ADD DUP6 DUP2 GT ISZERO PUSH2 0x3412 JUMPI PUSH2 0x3411 PUSH2 0x33A1 JUMP JUMPDEST JUMPDEST DUP4 JUMPDEST DUP2 DUP2 LT ISZERO PUSH2 0x343B JUMPI DUP1 PUSH2 0x3427 DUP9 DUP3 PUSH2 0x33C7 JUMP JUMPDEST DUP5 MSTORE PUSH1 0x20 DUP5 ADD SWAP4 POP POP PUSH1 0x20 DUP2 ADD SWAP1 POP PUSH2 0x3414 JUMP JUMPDEST POP POP POP SWAP4 SWAP3 POP POP POP JUMP JUMPDEST PUSH1 0x0 DUP3 PUSH1 0x1F DUP4 ADD SLT PUSH2 0x345A JUMPI PUSH2 0x3459 PUSH2 0x32F5 JUMP JUMPDEST JUMPDEST DUP2 CALLDATALOAD PUSH2 0x346A DUP5 DUP3 PUSH1 0x20 DUP7 ADD PUSH2 0x33DC JUMP JUMPDEST SWAP2 POP POP SWAP3 SWAP2 POP POP JUMP JUMPDEST PUSH1 0x0 DUP1 PUSH1 0x40 DUP4 DUP6 SUB SLT ISZERO PUSH2 0x348A JUMPI PUSH2 0x3489 PUSH2 0x2FD6 JUMP JUMPDEST JUMPDEST PUSH1 0x0 DUP4 ADD CALLDATALOAD PUSH8 0xFFFFFFFFFFFFFFFF DUP2 GT ISZERO PUSH2 0x34A8 JUMPI PUSH2 0x34A7 PUSH2 0x2FDB JUMP JUMPDEST JUMPDEST PUSH2 0x34B4 DUP6 DUP3 DUP7 ADD PUSH2 0x3445 JUMP JUMPDEST SWAP3 POP POP PUSH1 0x20 PUSH2 0x34C5 DUP6 DUP3 DUP7 ADD PUSH2 0x316E JUMP JUMPDEST SWAP2 POP POP SWAP3 POP SWAP3 SWAP1 POP JUMP JUMPDEST PUSH1 0x0 DUP1 PUSH1 0x40 DUP4 DUP6 SUB SLT ISZERO PUSH2 0x34E6 JUMPI PUSH2 0x34E5 PUSH2 0x2FD6 JUMP JUMPDEST JUMPDEST PUSH1 0x0 PUSH2 0x34F4 DUP6 DUP3 DUP7 ADD PUSH2 0x316E JUMP JUMPDEST SWAP3 POP POP PUSH1 0x20 PUSH2 0x3505 DUP6 DUP3 DUP7 ADD PUSH2 0x316E JUMP JUMPDEST SWAP2 POP POP SWAP3 POP SWAP3 SWAP1 POP JUMP JUMPDEST PUSH1 0x0 PUSH1 0x40 DUP3 ADD SWAP1 POP PUSH2 0x3524 PUSH1 0x0 DUP4 ADD DUP6 PUSH2 0x31E2 JUMP JUMPDEST PUSH2 0x3531 PUSH1 0x20 DUP4 ADD DUP5 PUSH2 0x3278 JUMP JUMPDEST SWAP4 SWAP3 POP POP POP JUMP JUMPDEST PUSH1 0x0 DUP1 REVERT JUMPDEST PUSH1 0x0 PUSH8 0xFFFFFFFFFFFFFFFF DUP3 GT ISZERO PUSH2 0x3558 JUMPI PUSH2 0x3557 PUSH2 0x32FA JUMP JUMPDEST JUMPDEST PUSH2 0x3561 DUP3 PUSH2 0x30E1 JUMP JUMPDEST SWAP1 POP PUSH1 0x20 DUP2 ADD SWAP1 POP SWAP2 SWAP1 POP JUMP JUMPDEST DUP3 DUP2 DUP4 CALLDATACOPY PUSH1 0x0 DUP4 DUP4 ADD MSTORE POP POP POP JUMP JUMPDEST PUSH1 0x0 PUSH2 0x3590 PUSH2 0x358B DUP5 PUSH2 0x353D JUMP JUMPDEST PUSH2 0x335A JUMP JUMPDEST SWAP1 POP DUP3 DUP2 MSTORE PUSH1 0x20 DUP2 ADD DUP5 DUP5 DUP5 ADD GT ISZERO PUSH2 0x35AC JUMPI PUSH2 0x35AB PUSH2 0x3538 JUMP JUMPDEST JUMPDEST PUSH2 0x35B7 DUP5 DUP3 DUP6 PUSH2 0x356E JUMP JUMPDEST POP SWAP4 SWAP3 POP POP POP JUMP JUMPDEST PUSH1 0x0 DUP3 PUSH1 0x1F DUP4 ADD SLT PUSH2 0x35D4 JUMPI PUSH2 0x35D3 PUSH2 0x32F5 JUMP JUMPDEST JUMPDEST DUP2 CALLDATALOAD PUSH2 0x35E4 DUP5 DUP3 PUSH1 0x20 DUP7 ADD PUSH2 0x357D JUMP JUMPDEST SWAP2 POP POP SWAP3 SWAP2 POP POP JUMP JUMPDEST PUSH1 0x0 PUSH1 0x20 DUP3 DUP5 SUB SLT ISZERO PUSH2 0x3603 JUMPI PUSH2 0x3602 PUSH2 0x2FD6 JUMP JUMPDEST JUMPDEST PUSH1 0x0 DUP3 ADD CALLDATALOAD PUSH8 0xFFFFFFFFFFFFFFFF DUP2 GT ISZERO PUSH2 0x3621 JUMPI PUSH2 0x3620 PUSH2 0x2FDB JUMP JUMPDEST JUMPDEST PUSH2 0x362D DUP5 DUP3 DUP6 ADD PUSH2 0x35BF JUMP JUMPDEST SWAP2 POP POP SWAP3 SWAP2 POP POP JUMP JUMPDEST PUSH1 0x0 PUSH1 0xA0 DUP3 ADD SWAP1 POP PUSH2 0x364B PUSH1 0x0 DUP4 ADD DUP9 PUSH2 0x3278 JUMP JUMPDEST PUSH2 0x3658 PUSH1 0x20 DUP4 ADD DUP8 PUSH2 0x3278 JUMP JUMPDEST PUSH2 0x3665 PUSH1 0x40 DUP4 ADD DUP7 PUSH2 0x3278 JUMP JUMPDEST PUSH2 0x3672 PUSH1 0x60 DUP4 ADD DUP6 PUSH2 0x3278 JUMP JUMPDEST PUSH2 0x367F PUSH1 0x80 DUP4 ADD DUP5 PUSH2 0x3278 JUMP JUMPDEST SWAP7 SWAP6 POP POP POP POP POP POP JUMP JUMPDEST PUSH1 0x0 PUSH1 0x20 DUP3 DUP5 SUB SLT ISZERO PUSH2 0x369F JUMPI PUSH2 0x369E PUSH2 0x2FD6 JUMP JUMPDEST JUMPDEST PUSH1 0x0 PUSH2 0x36AD DUP5 DUP3 DUP6 ADD PUSH2 0x3223 JUMP JUMPDEST SWAP2 POP POP SWAP3 SWAP2 POP POP JUMP JUMPDEST PUSH1 0x0 DUP1 PUSH1 0x0 DUP1 PUSH1 0x80 DUP6 DUP8 SUB SLT ISZERO PUSH2 0x36D0 JUMPI PUSH2 0x36CF PUSH2 0x2FD6 JUMP JUMPDEST JUMPDEST PUSH1 0x0 PUSH2 0x36DE DUP8 DUP3 DUP9 ADD PUSH2 0x316E JUMP JUMPDEST SWAP5 POP POP PUSH1 0x20 PUSH2 0x36EF DUP8 DUP3 DUP9 ADD PUSH2 0x316E JUMP JUMPDEST SWAP4 POP POP PUSH1 0x40 PUSH2 0x3700 DUP8 DUP3 DUP9 ADD PUSH2 0x316E JUMP JUMPDEST SWAP3 POP POP PUSH1 0x60 PUSH2 0x3711 DUP8 DUP3 DUP9 ADD PUSH2 0x316E JUMP JUMPDEST SWAP2 POP POP SWAP3 SWAP6 SWAP2 SWAP5 POP SWAP3 POP JUMP JUMPDEST PUSH1 0x0 PUSH1 0xA0 DUP3 ADD SWAP1 POP PUSH2 0x3732 PUSH1 0x0 DUP4 ADD DUP9 PUSH2 0x3071 JUMP JUMPDEST PUSH2 0x373F PUSH1 0x20 DUP4 ADD DUP8 PUSH2 0x3278 JUMP JUMPDEST PUSH2 0x374C PUSH1 0x40 DUP4 ADD DUP7 PUSH2 0x3278 JUMP JUMPDEST PUSH2 0x3759 PUSH1 0x60 DUP4 ADD DUP6 PUSH2 0x3278 JUMP JUMPDEST PUSH2 0x3766 PUSH1 0x80 DUP4 ADD DUP5 PUSH2 0x3278 JUMP JUMPDEST SWAP7 SWAP6 POP POP POP POP POP POP JUMP JUMPDEST PUSH2 0x3779 DUP2 PUSH2 0x3065 JUMP JUMPDEST DUP2 EQ PUSH2 0x3784 JUMPI PUSH1 0x0 DUP1 REVERT JUMPDEST POP JUMP JUMPDEST PUSH1 0x0 DUP2 CALLDATALOAD SWAP1 POP PUSH2 0x3796 DUP2 PUSH2 0x3770 JUMP JUMPDEST SWAP3 SWAP2 POP POP JUMP JUMPDEST PUSH1 0x0 DUP1 PUSH1 0x40 DUP4 DUP6 SUB SLT ISZERO PUSH2 0x37B3 JUMPI PUSH2 0x37B2 PUSH2 0x2FD6 JUMP JUMPDEST JUMPDEST PUSH1 0x0 PUSH2 0x37C1 DUP6 DUP3 DUP7 ADD PUSH2 0x3223 JUMP JUMPDEST SWAP3 POP POP PUSH1 0x20 PUSH2 0x37D2 DUP6 DUP3 DUP7 ADD PUSH2 0x3787 JUMP JUMPDEST SWAP2 POP POP SWAP3 POP SWAP3 SWAP1 POP JUMP JUMPDEST PUSH1 0x0 PUSH8 0xFFFFFFFFFFFFFFFF DUP3 GT ISZERO PUSH2 0x37F7 JUMPI PUSH2 0x37F6 PUSH2 0x32FA JUMP JUMPDEST JUMPDEST PUSH2 0x3800 DUP3 PUSH2 0x30E1 JUMP JUMPDEST SWAP1 POP PUSH1 0x20 DUP2 ADD SWAP1 POP SWAP2 SWAP1 POP JUMP JUMPDEST PUSH1 0x0 PUSH2 0x3820 PUSH2 0x381B DUP5 PUSH2 0x37DC JUMP JUMPDEST PUSH2 0x335A JUMP JUMPDEST SWAP1 POP DUP3 DUP2 MSTORE PUSH1 0x20 DUP2 ADD DUP5 DUP5 DUP5 ADD GT ISZERO PUSH2 0x383C JUMPI PUSH2 0x383B PUSH2 0x3538 JUMP JUMPDEST JUMPDEST PUSH2 0x3847 DUP5 DUP3 DUP6 PUSH2 0x356E JUMP JUMPDEST POP SWAP4 SWAP3 POP POP POP JUMP JUMPDEST PUSH1 0x0 DUP3 PUSH1 0x1F DUP4 ADD SLT PUSH2 0x3864 JUMPI PUSH2 0x3863 PUSH2 0x32F5 JUMP JUMPDEST JUMPDEST DUP2 CALLDATALOAD PUSH2 0x3874 DUP5 DUP3 PUSH1 0x20 DUP7 ADD PUSH2 0x380D JUMP JUMPDEST SWAP2 POP POP SWAP3 SWAP2 POP POP JUMP JUMPDEST PUSH1 0x0 DUP1 PUSH1 0x0 DUP1 PUSH1 0x80 DUP6 DUP8 SUB SLT ISZERO PUSH2 0x3897 JUMPI PUSH2 0x3896 PUSH2 0x2FD6 JUMP JUMPDEST JUMPDEST PUSH1 0x0 PUSH2 0x38A5 DUP8 DUP3 DUP9 ADD PUSH2 0x3223 JUMP JUMPDEST SWAP5 POP POP PUSH1 0x20 PUSH2 0x38B6 DUP8 DUP3 DUP9 ADD PUSH2 0x3223 JUMP JUMPDEST SWAP4 POP POP PUSH1 0x40 PUSH2 0x38C7 DUP8 DUP3 DUP9 ADD PUSH2 0x316E JUMP JUMPDEST SWAP3 POP POP PUSH1 0x60 DUP6 ADD CALLDATALOAD PUSH8 0xFFFFFFFFFFFFFFFF DUP2 GT ISZERO PUSH2 0x38E8 JUMPI PUSH2 0x38E7 PUSH2 0x2FDB JUMP JUMPDEST JUMPDEST PUSH2 0x38F4 DUP8 DUP3 DUP9 ADD PUSH2 0x384F JUMP JUMPDEST SWAP2 POP POP SWAP3 SWAP6 SWAP2 SWAP5 POP SWAP3 POP JUMP JUMPDEST PUSH1 0x0 DUP1 PUSH1 0x40 DUP4 DUP6 SUB SLT ISZERO PUSH2 0x3917 JUMPI PUSH2 0x3916 PUSH2 0x2FD6 JUMP JUMPDEST JUMPDEST PUSH1 0x0 DUP4 ADD CALLDATALOAD PUSH8 0xFFFFFFFFFFFFFFFF DUP2 GT ISZERO PUSH2 0x3935 JUMPI PUSH2 0x3934 PUSH2 0x2FDB JUMP JUMPDEST JUMPDEST PUSH2 0x3941 DUP6 DUP3 DUP7 ADD PUSH2 0x3445 JUMP JUMPDEST SWAP3 POP POP PUSH1 0x20 PUSH2 0x3952 DUP6 DUP3 DUP7 ADD PUSH2 0x33C7 JUMP JUMPDEST SWAP2 POP POP SWAP3 POP SWAP3 SWAP1 POP JUMP JUMPDEST PUSH1 0x0 PUSH1 0x20 DUP3 DUP5 SUB SLT ISZERO PUSH2 0x3972 JUMPI PUSH2 0x3971 PUSH2 0x2FD6 JUMP JUMPDEST JUMPDEST PUSH1 0x0 PUSH2 0x3980 DUP5 DUP3 DUP6 ADD PUSH2 0x33C7 JUMP JUMPDEST SWAP2 POP POP SWAP3 SWAP2 POP POP JUMP JUMPDEST PUSH1 0x0 DUP1 PUSH1 0x40 DUP4 DUP6 SUB SLT ISZERO PUSH2 0x39A0 JUMPI PUSH2 0x399F PUSH2 0x2FD6 JUMP JUMPDEST JUMPDEST PUSH1 0x0 PUSH2 0x39AE DUP6 DUP3 DUP7 ADD PUSH2 0x3223 JUMP JUMPDEST SWAP3 POP POP PUSH1 0x20 PUSH2 0x39BF DUP6 DUP3 DUP7 ADD PUSH2 0x3223 JUMP JUMPDEST SWAP2 POP POP SWAP3 POP SWAP3 SWAP1 POP JUMP JUMPDEST PUSH32 0x4E487B7100000000000000000000000000000000000000000000000000000000 PUSH1 0x0 MSTORE PUSH1 0x22 PUSH1 0x4 MSTORE PUSH1 0x24 PUSH1 0x0 REVERT JUMPDEST PUSH1 0x0 PUSH1 0x2 DUP3 DIV SWAP1 POP PUSH1 0x1 DUP3 AND DUP1 PUSH2 0x3A10 JUMPI PUSH1 0x7F DUP3 AND SWAP2 POP JUMPDEST PUSH1 0x20 DUP3 LT DUP2 SUB PUSH2 0x3A23 JUMPI PUSH2 0x3A22 PUSH2 0x39C9 JUMP JUMPDEST JUMPDEST POP SWAP2 SWAP1 POP JUMP JUMPDEST PUSH32 0x4552433732313A20617070726F76656420717565727920666F72206E6F6E6578 PUSH1 0x0 DUP3 ADD MSTORE PUSH32 0x697374656E7420746F6B656E0000000000000000000000000000000000000000 PUSH1 0x20 DUP3 ADD MSTORE POP JUMP JUMPDEST PUSH1 0x0 PUSH2 0x3A85 PUSH1 0x2C DUP4 PUSH2 0x30A6 JUMP JUMPDEST SWAP2 POP PUSH2 0x3A90 DUP3 PUSH2 0x3A29 JUMP JUMPDEST PUSH1 0x40 DUP3 ADD SWAP1 POP SWAP2 SWAP1 POP JUMP JUMPDEST PUSH1 0x0 PUSH1 0x20 DUP3 ADD SWAP1 POP DUP2 DUP2 SUB PUSH1 0x0 DUP4 ADD MSTORE PUSH2 0x3AB4 DUP2 PUSH2 0x3A78 JUMP JUMPDEST SWAP1 POP SWAP2 SWAP1 POP JUMP JUMPDEST PUSH32 0x4552433732313A20617070726F76616C20746F2063757272656E74206F776E65 PUSH1 0x0 DUP3 ADD MSTORE PUSH32 0x7200000000000000000000000000000000000000000000000000000000000000 PUSH1 0x20 DUP3 ADD MSTORE POP JUMP JUMPDEST PUSH1 0x0 PUSH2 0x3B17 PUSH1 0x21 DUP4 PUSH2 0x30A6 JUMP JUMPDEST SWAP2 POP PUSH2 0x3B22 DUP3 PUSH2 0x3ABB JUMP JUMPDEST PUSH1 0x40 DUP3 ADD SWAP1 POP SWAP2 SWAP1 POP JUMP JUMPDEST PUSH1 0x0 PUSH1 0x20 DUP3 ADD SWAP1 POP DUP2 DUP2 SUB PUSH1 0x0 DUP4 ADD MSTORE PUSH2 0x3B46 DUP2 PUSH2 0x3B0A JUMP JUMPDEST SWAP1 POP SWAP2 SWAP1 POP JUMP JUMPDEST PUSH32 0x4552433732313A20617070726F76652063616C6C6572206973206E6F74206F77 PUSH1 0x0 DUP3 ADD MSTORE PUSH32 0x6E6572206E6F7220617070726F76656420666F7220616C6C0000000000000000 PUSH1 0x20 DUP3 ADD MSTORE POP JUMP JUMPDEST PUSH1 0x0 PUSH2 0x3BA9 PUSH1 0x38 DUP4 PUSH2 0x30A6 JUMP JUMPDEST SWAP2 POP PUSH2 0x3BB4 DUP3 PUSH2 0x3B4D JUMP JUMPDEST PUSH1 0x40 DUP3 ADD SWAP1 POP SWAP2 SWAP1 POP JUMP JUMPDEST PUSH1 0x0 PUSH1 0x20 DUP3 ADD SWAP1 POP DUP2 DUP2 SUB PUSH1 0x0 DUP4 ADD MSTORE PUSH2 0x3BD8 DUP2 PUSH2 0x3B9C JUMP JUMPDEST SWAP1 POP SWAP2 SWAP1 POP JUMP JUMPDEST PUSH32 0x4552433732313A207472616E736665722063616C6C6572206973206E6F74206F PUSH1 0x0 DUP3 ADD MSTORE PUSH32 0x776E6572206E6F7220617070726F766564000000000000000000000000000000 PUSH1 0x20 DUP3 ADD MSTORE POP JUMP JUMPDEST PUSH1 0x0 PUSH2 0x3C3B PUSH1 0x31 DUP4 PUSH2 0x30A6 JUMP JUMPDEST SWAP2 POP PUSH2 0x3C46 DUP3 PUSH2 0x3BDF JUMP JUMPDEST PUSH1 0x40 DUP3 ADD SWAP1 POP SWAP2 SWAP1 POP JUMP JUMPDEST PUSH1 0x0 PUSH1 0x20 DUP3 ADD SWAP1 POP DUP2 DUP2 SUB PUSH1 0x0 DUP4 ADD MSTORE PUSH2 0x3C6A DUP2 PUSH2 0x3C2E JUMP JUMPDEST SWAP1 POP SWAP2 SWAP1 POP JUMP JUMPDEST PUSH32 0x57686974656C6973742073616C652069732064697361626C6564000000000000 PUSH1 0x0 DUP3 ADD MSTORE POP JUMP JUMPDEST PUSH1 0x0 PUSH2 0x3CA7 PUSH1 0x1A DUP4 PUSH2 0x30A6 JUMP JUMPDEST SWAP2 POP PUSH2 0x3CB2 DUP3 PUSH2 0x3C71 JUMP JUMPDEST PUSH1 0x20 DUP3 ADD SWAP1 POP SWAP2 SWAP1 POP JUMP JUMPDEST PUSH1 0x0 PUSH1 0x20 DUP3 ADD SWAP1 POP DUP2 DUP2 SUB PUSH1 0x0 DUP4 ADD MSTORE PUSH2 0x3CD6 DUP2 PUSH2 0x3C9A JUMP JUMPDEST SWAP1 POP SWAP2 SWAP1 POP JUMP JUMPDEST PUSH32 0x57686974656C6973742073616C65206E6F742061637469766500000000000000 PUSH1 0x0 DUP3 ADD MSTORE POP JUMP JUMPDEST PUSH1 0x0 PUSH2 0x3D13 PUSH1 0x19 DUP4 PUSH2 0x30A6 JUMP JUMPDEST SWAP2 POP PUSH2 0x3D1E DUP3 PUSH2 0x3CDD JUMP JUMPDEST PUSH1 0x20 DUP3 ADD SWAP1 POP SWAP2 SWAP1 POP JUMP JUMPDEST PUSH1 0x0 PUSH1 0x20 DUP3 ADD SWAP1 POP DUP2 DUP2 SUB PUSH1 0x0 DUP4 ADD MSTORE PUSH2 0x3D42 DUP2 PUSH2 0x3D06 JUMP JUMPDEST SWAP1 POP SWAP2 SWAP1 POP JUMP JUMPDEST PUSH1 0x0 DUP2 PUSH1 0x60 SHL SWAP1 POP SWAP2 SWAP1 POP JUMP JUMPDEST PUSH1 0x0 PUSH2 0x3D61 DUP3 PUSH2 0x3D49 JUMP JUMPDEST SWAP1 POP SWAP2 SWAP1 POP JUMP JUMPDEST PUSH1 0x0 PUSH2 0x3D73 DUP3 PUSH2 0x3D56 JUMP JUMPDEST SWAP1 POP SWAP2 SWAP1 POP JUMP JUMPDEST PUSH2 0x3D8B PUSH2 0x3D86 DUP3 PUSH2 0x31D0 JUMP JUMPDEST PUSH2 0x3D68 JUMP JUMPDEST DUP3 MSTORE POP POP JUMP JUMPDEST PUSH1 0x0 PUSH2 0x3D9D DUP3 DUP5 PUSH2 0x3D7A JUMP JUMPDEST PUSH1 0x14 DUP3 ADD SWAP2 POP DUP2 SWAP1 POP SWAP3 SWAP2 POP POP JUMP JUMPDEST PUSH32 0x4E6F742077686974656C69737465640000000000000000000000000000000000 PUSH1 0x0 DUP3 ADD MSTORE POP JUMP JUMPDEST PUSH1 0x0 PUSH2 0x3DE2 PUSH1 0xF DUP4 PUSH2 0x30A6 JUMP JUMPDEST SWAP2 POP PUSH2 0x3DED DUP3 PUSH2 0x3DAC JUMP JUMPDEST PUSH1 0x20 DUP3 ADD SWAP1 POP SWAP2 SWAP1 POP JUMP JUMPDEST PUSH1 0x0 PUSH1 0x20 DUP3 ADD SWAP1 POP DUP2 DUP2 SUB PUSH1 0x0 DUP4 ADD MSTORE PUSH2 0x3E11 DUP2 PUSH2 0x3DD5 JUMP JUMPDEST SWAP1 POP SWAP2 SWAP1 POP JUMP JUMPDEST PUSH32 0x4E487B7100000000000000000000000000000000000000000000000000000000 PUSH1 0x0 MSTORE PUSH1 0x11 PUSH1 0x4 MSTORE PUSH1 0x24 PUSH1 0x0 REVERT JUMPDEST PUSH1 0x0 PUSH2 0x3E52 DUP3 PUSH2 0x314D JUMP JUMPDEST SWAP2 POP PUSH2 0x3E5D DUP4 PUSH2 0x314D JUMP JUMPDEST SWAP3 POP DUP3 DUP3 MUL PUSH2 0x3E6B DUP2 PUSH2 0x314D JUMP JUMPDEST SWAP2 POP DUP3 DUP3 DIV DUP5 EQ DUP4 ISZERO OR PUSH2 0x3E82 JUMPI PUSH2 0x3E81 PUSH2 0x3E18 JUMP JUMPDEST JUMPDEST POP SWAP3 SWAP2 POP POP JUMP JUMPDEST PUSH32 0x4E487B7100000000000000000000000000000000000000000000000000000000 PUSH1 0x0 MSTORE PUSH1 0x12 PUSH1 0x4 MSTORE PUSH1 0x24 PUSH1 0x0 REVERT JUMPDEST PUSH1 0x0 PUSH2 0x3EC3 DUP3 PUSH2 0x314D JUMP JUMPDEST SWAP2 POP PUSH2 0x3ECE DUP4 PUSH2 0x314D JUMP JUMPDEST SWAP3 POP DUP3 PUSH2 0x3EDE JUMPI PUSH2 0x3EDD PUSH2 0x3E89 JUMP JUMPDEST JUMPDEST DUP3 DUP3 DIV SWAP1 POP SWAP3 SWAP2 POP POP JUMP JUMPDEST PUSH1 0x0 PUSH2 0x3EF4 DUP3 PUSH2 0x314D JUMP JUMPDEST SWAP2 POP PUSH2 0x3EFF DUP4 PUSH2 0x314D JUMP JUMPDEST SWAP3 POP DUP3 DUP3 SUB SWAP1 POP DUP2 DUP2 GT ISZERO PUSH2 0x3F17 JUMPI PUSH2 0x3F16 PUSH2 0x3E18 JUMP JUMPDEST JUMPDEST SWAP3 SWAP2 POP POP JUMP JUMPDEST PUSH32 0x5075626C6963206D696E74696E67206973206E6F7420616C6C6F776564206265 PUSH1 0x0 DUP3 ADD MSTORE PUSH32 0x666F72652077686974656C69737420656E647300000000000000000000000000 PUSH1 0x20 DUP3 ADD MSTORE POP JUMP JUMPDEST PUSH1 0x0 PUSH2 0x3F79 PUSH1 0x33 DUP4 PUSH2 0x30A6 JUMP JUMPDEST SWAP2 POP PUSH2 0x3F84 DUP3 PUSH2 0x3F1D JUMP JUMPDEST PUSH1 0x40 DUP3 ADD SWAP1 POP SWAP2 SWAP1 POP JUMP JUMPDEST PUSH1 0x0 PUSH1 0x20 DUP3 ADD SWAP1 POP DUP2 DUP2 SUB PUSH1 0x0 DUP4 ADD MSTORE PUSH2 0x3FA8 DUP2 PUSH2 0x3F6C JUMP JUMPDEST SWAP1 POP SWAP2 SWAP1 POP JUMP JUMPDEST PUSH32 0x5075626C69632073616C652069732064697361626C6564000000000000000000 PUSH1 0x0 DUP3 ADD MSTORE POP JUMP JUMPDEST PUSH1 0x0 PUSH2 0x3FE5 PUSH1 0x17 DUP4 PUSH2 0x30A6 JUMP JUMPDEST SWAP2 POP PUSH2 0x3FF0 DUP3 PUSH2 0x3FAF JUMP JUMPDEST PUSH1 0x20 DUP3 ADD SWAP1 POP SWAP2 SWAP1 POP JUMP JUMPDEST PUSH1 0x0 PUSH1 0x20 DUP3 ADD SWAP1 POP DUP2 DUP2 SUB PUSH1 0x0 DUP4 ADD MSTORE PUSH2 0x4014 DUP2 PUSH2 0x3FD8 JUMP JUMPDEST SWAP1 POP SWAP2 SWAP1 POP JUMP JUMPDEST PUSH32 0x5075626C69632073616C65206E6F742061637469766500000000000000000000 PUSH1 0x0 DUP3 ADD MSTORE POP JUMP JUMPDEST PUSH1 0x0 PUSH2 0x4051 PUSH1 0x16 DUP4 PUSH2 0x30A6 JUMP JUMPDEST SWAP2 POP PUSH2 0x405C DUP3 PUSH2 0x401B JUMP JUMPDEST PUSH1 0x20 DUP3 ADD SWAP1 POP SWAP2 SWAP1 POP JUMP JUMPDEST PUSH1 0x0 PUSH1 0x20 DUP3 ADD SWAP1 POP DUP2 DUP2 SUB PUSH1 0x0 DUP4 ADD MSTORE PUSH2 0x4080 DUP2 PUSH2 0x4044 JUMP JUMPDEST SWAP1 POP SWAP2 SWAP1 POP JUMP JUMPDEST PUSH32 0x4F776E61626C653A2063616C6C6572206973206E6F7420746865206F776E6572 PUSH1 0x0 DUP3 ADD MSTORE POP JUMP JUMPDEST PUSH1 0x0 PUSH2 0x40BD PUSH1 0x20 DUP4 PUSH2 0x30A6 JUMP JUMPDEST SWAP2 POP PUSH2 0x40C8 DUP3 PUSH2 0x4087 JUMP JUMPDEST PUSH1 0x20 DUP3 ADD SWAP1 POP SWAP2 SWAP1 POP JUMP JUMPDEST PUSH1 0x0 PUSH1 0x20 DUP3 ADD SWAP1 POP DUP2 DUP2 SUB PUSH1 0x0 DUP4 ADD MSTORE PUSH2 0x40EC DUP2 PUSH2 0x40B0 JUMP JUMPDEST SWAP1 POP SWAP2 SWAP1 POP JUMP JUMPDEST PUSH1 0x0 PUSH2 0x40FE DUP3 PUSH2 0x314D JUMP JUMPDEST SWAP2 POP PUSH2 0x4109 DUP4 PUSH2 0x314D JUMP JUMPDEST SWAP3 POP DUP3 DUP3 ADD SWAP1 POP DUP1 DUP3 GT ISZERO PUSH2 0x4121 JUMPI PUSH2 0x4120 PUSH2 0x3E18 JUMP JUMPDEST JUMPDEST SWAP3 SWAP2 POP POP JUMP JUMPDEST PUSH32 0x546F74616C20726F79616C74792063616E6E6F74206578636565642031302500 PUSH1 0x0 DUP3 ADD MSTORE POP JUMP JUMPDEST PUSH1 0x0 PUSH2 0x415D PUSH1 0x1F DUP4 PUSH2 0x30A6 JUMP JUMPDEST SWAP2 POP PUSH2 0x4168 DUP3 PUSH2 0x4127 JUMP JUMPDEST PUSH1 0x20 DUP3 ADD SWAP1 POP SWAP2 SWAP1 POP JUMP JUMPDEST PUSH1 0x0 PUSH1 0x20 DUP3 ADD SWAP1 POP DUP2 DUP2 SUB PUSH1 0x0 DUP4 ADD MSTORE PUSH2 0x418C DUP2 PUSH2 0x4150 JUMP JUMPDEST SWAP1 POP SWAP2 SWAP1 POP JUMP JUMPDEST PUSH1 0x0 DUP2 SWAP1 POP DUP2 PUSH1 0x0 MSTORE PUSH1 0x20 PUSH1 0x0 KECCAK256 SWAP1 POP SWAP2 SWAP1 POP JUMP JUMPDEST PUSH1 0x0 PUSH1 0x20 PUSH1 0x1F DUP4 ADD DIV SWAP1 POP SWAP2 SWAP1 POP JUMP JUMPDEST PUSH1 0x0 DUP3 DUP3 SHL SWAP1 POP SWAP3 SWAP2 POP POP JUMP JUMPDEST PUSH1 0x0 PUSH1 0x8 DUP4 MUL PUSH2 0x41F5 PUSH32 0xFFFFFFFFFFFFFFFFFFFFFFFFFFFFFFFFFFFFFFFFFFFFFFFFFFFFFFFFFFFFFFFF DUP3 PUSH2 0x41B8 JUMP JUMPDEST PUSH2 0x41FF DUP7 DUP4 PUSH2 0x41B8 JUMP JUMPDEST SWAP6 POP DUP1 NOT DUP5 AND SWAP4 POP DUP1 DUP7 AND DUP5 OR SWAP3 POP POP POP SWAP4 SWAP3 POP POP POP JUMP JUMPDEST PUSH1 0x0 DUP2 SWAP1 POP SWAP2 SWAP1 POP JUMP JUMPDEST PUSH1 0x0 PUSH2 0x423C PUSH2 0x4237 PUSH2 0x4232 DUP5 PUSH2 0x314D JUMP JUMPDEST PUSH2 0x4217 JUMP JUMPDEST PUSH2 0x314D JUMP JUMPDEST SWAP1 POP SWAP2 SWAP1 POP JUMP JUMPDEST PUSH1 0x0 DUP2 SWAP1 POP SWAP2 SWAP1 POP JUMP JUMPDEST PUSH2 0x4256 DUP4 PUSH2 0x4221 JUMP JUMPDEST PUSH2 0x426A PUSH2 0x4262 DUP3 PUSH2 0x4243 JUMP JUMPDEST DUP5 DUP5 SLOAD PUSH2 0x41C5 JUMP JUMPDEST DUP3 SSTORE POP POP POP POP JUMP JUMPDEST PUSH1 0x0 SWAP1 JUMP JUMPDEST PUSH2 0x427F PUSH2 0x4272 JUMP JUMPDEST PUSH2 0x428A DUP2 DUP5 DUP5 PUSH2 0x424D JUMP JUMPDEST POP POP POP JUMP JUMPDEST JUMPDEST DUP2 DUP2 LT ISZERO PUSH2 0x42AE JUMPI PUSH2 0x42A3 PUSH1 0x0 DUP3 PUSH2 0x4277 JUMP JUMPDEST PUSH1 0x1 DUP2 ADD SWAP1 POP PUSH2 0x4290 JUMP JUMPDEST POP POP JUMP JUMPDEST PUSH1 0x1F DUP3 GT ISZERO PUSH2 0x42F3 JUMPI PUSH2 0x42C4 DUP2 PUSH2 0x4193 JUMP JUMPDEST PUSH2 0x42CD DUP5 PUSH2 0x41A8 JUMP JUMPDEST DUP2 ADD PUSH1 0x20 DUP6 LT ISZERO PUSH2 0x42DC JUMPI DUP2 SWAP1 POP JUMPDEST PUSH2 0x42F0 PUSH2 0x42E8 DUP6 PUSH2 0x41A8 JUMP JUMPDEST DUP4 ADD DUP3 PUSH2 0x428F JUMP JUMPDEST POP POP JUMPDEST POP POP POP JUMP JUMPDEST PUSH1 0x0 DUP3 DUP3 SHR SWAP1 POP SWAP3 SWAP2 POP POP JUMP JUMPDEST PUSH1 0x0 PUSH2 0x4316 PUSH1 0x0 NOT DUP5 PUSH1 0x8 MUL PUSH2 0x42F8 JUMP JUMPDEST NOT DUP1 DUP4 AND SWAP2 POP POP SWAP3 SWAP2 POP POP JUMP JUMPDEST PUSH1 0x0 PUSH2 0x432F DUP4 DUP4 PUSH2 0x4305 JUMP JUMPDEST SWAP2 POP DUP3 PUSH1 0x2 MUL DUP3 OR SWAP1 POP SWAP3 SWAP2 POP POP JUMP JUMPDEST PUSH2 0x4348 DUP3 PUSH2 0x309B JUMP JUMPDEST PUSH8 0xFFFFFFFFFFFFFFFF DUP2 GT ISZERO PUSH2 0x4361 JUMPI PUSH2 0x4360 PUSH2 0x32FA JUMP JUMPDEST JUMPDEST PUSH2 0x436B DUP3 SLOAD PUSH2 0x39F8 JUMP JUMPDEST PUSH2 0x4376 DUP3 DUP3 DUP6 PUSH2 0x42B2 JUMP JUMPDEST PUSH1 0x0 PUSH1 0x20 SWAP1 POP PUSH1 0x1F DUP4 GT PUSH1 0x1 DUP2 EQ PUSH2 0x43A9 JUMPI PUSH1 0x0 DUP5 ISZERO PUSH2 0x4397 JUMPI DUP3 DUP8 ADD MLOAD SWAP1 POP JUMPDEST PUSH2 0x43A1 DUP6 DUP3 PUSH2 0x4323 JUMP JUMPDEST DUP7 SSTORE POP PUSH2 0x4409 JUMP JUMPDEST PUSH1 0x1F NOT DUP5 AND PUSH2 0x43B7 DUP7 PUSH2 0x4193 JUMP JUMPDEST PUSH1 0x0 JUMPDEST DUP3 DUP2 LT ISZERO PUSH2 0x43DF JUMPI DUP5 DUP10 ADD MLOAD DUP3 SSTORE PUSH1 0x1 DUP3 ADD SWAP2 POP PUSH1 0x20 DUP6 ADD SWAP5 POP PUSH1 0x20 DUP2 ADD SWAP1 POP PUSH2 0x43BA JUMP JUMPDEST DUP7 DUP4 LT ISZERO PUSH2 0x43FC JUMPI DUP5 DUP10 ADD MLOAD PUSH2 0x43F8 PUSH1 0x1F DUP10 AND DUP3 PUSH2 0x4305 JUMP JUMPDEST DUP4 SSTORE POP JUMPDEST PUSH1 0x1 PUSH1 0x2 DUP9 MUL ADD DUP9 SSTORE POP POP POP JUMPDEST POP POP POP POP POP POP JUMP JUMPDEST PUSH1 0x0 PUSH1 0x40 DUP3 ADD SWAP1 POP PUSH2 0x4426 PUSH1 0x0 DUP4 ADD DUP6 PUSH2 0x3071 JUMP JUMPDEST PUSH2 0x4433 PUSH1 0x20 DUP4 ADD DUP5 PUSH2 0x3071 JUMP JUMPDEST SWAP4 SWAP3 POP POP POP JUMP JUMPDEST PUSH32 0x4552433732313A206F776E657220717565727920666F72206E6F6E6578697374 PUSH1 0x0 DUP3 ADD MSTORE PUSH32 0x656E7420746F6B656E0000000000000000000000000000000000000000000000 PUSH1 0x20 DUP3 ADD MSTORE POP JUMP JUMPDEST PUSH1 0x0 PUSH2 0x4496 PUSH1 0x29 DUP4 PUSH2 0x30A6 JUMP JUMPDEST SWAP2 POP PUSH2 0x44A1 DUP3 PUSH2 0x443A JUMP JUMPDEST PUSH1 0x40 DUP3 ADD SWAP1 POP SWAP2 SWAP1 POP JUMP JUMPDEST PUSH1 0x0 PUSH1 0x20 DUP3 ADD SWAP1 POP DUP2 DUP2 SUB PUSH1 0x0 DUP4 ADD MSTORE PUSH2 0x44C5 DUP2 PUSH2 0x4489 JUMP JUMPDEST SWAP1 POP SWAP2 SWAP1 POP JUMP JUMPDEST PUSH32 0x4552433732313A2062616C616E636520717565727920666F7220746865207A65 PUSH1 0x0 DUP3 ADD MSTORE PUSH32 0x726F206164647265737300000000000000000000000000000000000000000000 PUSH1 0x20 DUP3 ADD MSTORE POP JUMP JUMPDEST PUSH1 0x0 PUSH2 0x4528 PUSH1 0x2A DUP4 PUSH2 0x30A6 JUMP JUMPDEST SWAP2 POP PUSH2 0x4533 DUP3 PUSH2 0x44CC JUMP JUMPDEST PUSH1 0x40 DUP3 ADD SWAP1 POP SWAP2 SWAP1 POP JUMP JUMPDEST PUSH1 0x0 PUSH1 0x20 DUP3 ADD SWAP1 POP DUP2 DUP2 SUB PUSH1 0x0 DUP4 ADD MSTORE PUSH2 0x4557 DUP2 PUSH2 0x451B JUMP JUMPDEST SWAP1 POP SWAP2 SWAP1 POP JUMP JUMPDEST PUSH1 0x0 PUSH1 0x80 DUP3 ADD SWAP1 POP PUSH2 0x4573 PUSH1 0x0 DUP4 ADD DUP8 PUSH2 0x3278 JUMP JUMPDEST PUSH2 0x4580 PUSH1 0x20 DUP4 ADD DUP7 PUSH2 0x3278 JUMP JUMPDEST PUSH2 0x458D PUSH1 0x40 DUP4 ADD DUP6 PUSH2 0x3278 JUMP JUMPDEST PUSH2 0x459A PUSH1 0x60 DUP4 ADD DUP5 PUSH2 0x3278 JUMP JUMPDEST SWAP6 SWAP5 POP POP POP POP POP JUMP JUMPDEST PUSH1 0x0 PUSH1 0x40 DUP3 ADD SWAP1 POP PUSH2 0x45B8 PUSH1 0x0 DUP4 ADD DUP6 PUSH2 0x3278 JUMP JUMPDEST PUSH2 0x45C5 PUSH1 0x20 DUP4 ADD DUP5 PUSH2 0x3278 JUMP JUMPDEST SWAP4 SWAP3 POP POP POP JUMP JUMPDEST PUSH32 0x5265656E7472616E637947756172643A207265656E7472616E742063616C6C00 PUSH1 0x0 DUP3 ADD MSTORE POP JUMP JUMPDEST PUSH1 0x0 PUSH2 0x4602 PUSH1 0x1F DUP4 PUSH2 0x30A6 JUMP JUMPDEST SWAP2 POP PUSH2 0x460D DUP3 PUSH2 0x45CC JUMP JUMPDEST PUSH1 0x20 DUP3 ADD SWAP1 POP SWAP2 SWAP1 POP JUMP JUMPDEST PUSH1 0x0 PUSH1 0x20 DUP3 ADD SWAP1 POP DUP2 DUP2 SUB PUSH1 0x0 DUP4 ADD MSTORE PUSH2 0x4631 DUP2 PUSH2 0x45F5 JUMP JUMPDEST SWAP1 POP SWAP2 SWAP1 POP JUMP JUMPDEST PUSH32 0x4E6F2066756E647320617661696C61626C650000000000000000000000000000 PUSH1 0x0 DUP3 ADD MSTORE POP JUMP JUMPDEST PUSH1 0x0 PUSH2 0x466E PUSH1 0x12 DUP4 PUSH2 0x30A6 JUMP JUMPDEST SWAP2 POP PUSH2 0x4679 DUP3 PUSH2 0x4638 JUMP JUMPDEST PUSH1 0x20 DUP3 ADD SWAP1 POP SWAP2 SWAP1 POP JUMP JUMPDEST PUSH1 0x0 PUSH1 0x20 DUP3 ADD SWAP1 POP DUP2 DUP2 SUB PUSH1 0x0 DUP4 ADD MSTORE PUSH2 0x469D DUP2 PUSH2 0x4661 JUMP JUMPDEST SWAP1 POP SWAP2 SWAP1 POP JUMP JUMPDEST PUSH32 0x4552433732314D657461646174613A2055524920717565727920666F72206E6F PUSH1 0x0 DUP3 ADD MSTORE PUSH32 0x6E6578697374656E7420746F6B656E0000000000000000000000000000000000 PUSH1 0x20 DUP3 ADD MSTORE POP JUMP JUMPDEST PUSH1 0x0 PUSH2 0x4700 PUSH1 0x2F DUP4 PUSH2 0x30A6 JUMP JUMPDEST SWAP2 POP PUSH2 0x470B DUP3 PUSH2 0x46A4 JUMP JUMPDEST PUSH1 0x40 DUP3 ADD SWAP1 POP SWAP2 SWAP1 POP JUMP JUMPDEST PUSH1 0x0 PUSH1 0x20 DUP3 ADD SWAP1 POP DUP2 DUP2 SUB PUSH1 0x0 DUP4 ADD MSTORE PUSH2 0x472F DUP2 PUSH2 0x46F3 JUMP JUMPDEST SWAP1 POP SWAP2 SWAP1 POP JUMP JUMPDEST PUSH1 0x0 DUP2 SWAP1 POP SWAP3 SWAP2 POP POP JUMP JUMPDEST PUSH1 0x0 DUP2 SLOAD PUSH2 0x474E DUP2 PUSH2 0x39F8 JUMP JUMPDEST PUSH2 0x4758 DUP2 DUP7 PUSH2 0x4736 JUMP JUMPDEST SWAP5 POP PUSH1 0x1 DUP3 AND PUSH1 0x0 DUP2 EQ PUSH2 0x4773 JUMPI PUSH1 0x1 DUP2 EQ PUSH2 0x4788 JUMPI PUSH2 0x47BB JUMP JUMPDEST PUSH1 0xFF NOT DUP4 AND DUP7 MSTORE DUP2 ISZERO ISZERO DUP3 MUL DUP7 ADD SWAP4 POP PUSH2 0x47BB JUMP JUMPDEST PUSH2 0x4791 DUP6 PUSH2 0x4193 JUMP JUMPDEST PUSH1 0x0 JUMPDEST DUP4 DUP2 LT ISZERO PUSH2 0x47B3 JUMPI DUP2 SLOAD DUP2 DUP10 ADD MSTORE PUSH1 0x1 DUP3 ADD SWAP2 POP PUSH1 0x20 DUP2 ADD SWAP1 POP PUSH2 0x4794 JUMP JUMPDEST DUP4 DUP9 ADD SWAP6 POP POP POP JUMPDEST POP POP POP SWAP3 SWAP2 POP POP JUMP JUMPDEST PUSH1 0x0 PUSH2 0x47CF DUP3 PUSH2 0x309B JUMP JUMPDEST PUSH2 0x47D9 DUP2 DUP6 PUSH2 0x4736 JUMP JUMPDEST SWAP4 POP PUSH2 0x47E9 DUP2 DUP6 PUSH1 0x20 DUP7 ADD PUSH2 0x30B7 JUMP JUMPDEST DUP1 DUP5 ADD SWAP2 POP POP SWAP3 SWAP2 POP POP JUMP JUMPDEST PUSH1 0x0 PUSH2 0x4801 DUP3 DUP6 PUSH2 0x4741 JUMP JUMPDEST SWAP2 POP PUSH2 0x480D DUP3 DUP5 PUSH2 0x47C4 JUMP JUMPDEST SWAP2 POP DUP2 SWAP1 POP SWAP4 SWAP3 POP POP POP JUMP JUMPDEST PUSH2 0x4822 DUP2 PUSH2 0x33A6 JUMP JUMPDEST DUP3 MSTORE POP POP JUMP JUMPDEST PUSH1 0x0 PUSH1 0x20 DUP3 ADD SWAP1 POP PUSH2 0x483D PUSH1 0x0 DUP4 ADD DUP5 PUSH2 0x4819 JUMP JUMPDEST SWAP3 SWAP2 POP POP JUMP JUMPDEST PUSH32 0x4F776E61626C653A206E6577206F776E657220697320746865207A65726F2061 PUSH1 0x0 DUP3 ADD MSTORE PUSH32 0x6464726573730000000000000000000000000000000000000000000000000000 PUSH1 0x20 DUP3 ADD MSTORE POP JUMP JUMPDEST PUSH1 0x0 PUSH2 0x489F PUSH1 0x26 DUP4 PUSH2 0x30A6 JUMP JUMPDEST SWAP2 POP PUSH2 0x48AA DUP3 PUSH2 0x4843 JUMP JUMPDEST PUSH1 0x40 DUP3 ADD SWAP1 POP SWAP2 SWAP1 POP JUMP JUMPDEST PUSH1 0x0 PUSH1 0x20 DUP3 ADD SWAP1 POP DUP2 DUP2 SUB PUSH1 0x0 DUP4 ADD MSTORE PUSH2 0x48CE DUP2 PUSH2 0x4892 JUMP JUMPDEST SWAP1 POP SWAP2 SWAP1 POP JUMP JUMPDEST PUSH32 0x4552433732313A206F70657261746F7220717565727920666F72206E6F6E6578 PUSH1 0x0 DUP3 ADD MSTORE PUSH32 0x697374656E7420746F6B656E0000000000000000000000000000000000000000 PUSH1 0x20 DUP3 ADD MSTORE POP JUMP JUMPDEST PUSH1 0x0 PUSH2 0x4931 PUSH1 0x2C DUP4 PUSH2 0x30A6 JUMP JUMPDEST SWAP2 POP PUSH2 0x493C DUP3 PUSH2 0x48D5 JUMP JUMPDEST PUSH1 0x40 DUP3 ADD SWAP1 POP SWAP2 SWAP1 POP JUMP JUMPDEST PUSH1 0x0 PUSH1 0x20 DUP3 ADD SWAP1 POP DUP2 DUP2 SUB PUSH1 0x0 DUP4 ADD MSTORE PUSH2 0x4960 DUP2 PUSH2 0x4924 JUMP JUMPDEST SWAP1 POP SWAP2 SWAP1 POP JUMP JUMPDEST PUSH32 0x4552433732313A207472616E736665722066726F6D20696E636F727265637420 PUSH1 0x0 DUP3 ADD MSTORE PUSH32 0x6F776E6572000000000000000000000000000000000000000000000000000000 PUSH1 0x20 DUP3 ADD MSTORE POP JUMP JUMPDEST PUSH1 0x0 PUSH2 0x49C3 PUSH1 0x25 DUP4 PUSH2 0x30A6 JUMP JUMPDEST SWAP2 POP PUSH2 0x49CE DUP3 PUSH2 0x4967 JUMP JUMPDEST PUSH1 0x40 DUP3 ADD SWAP1 POP SWAP2 SWAP1 POP JUMP JUMPDEST PUSH1 0x0 PUSH1 0x20 DUP3 ADD SWAP1 POP DUP2 DUP2 SUB PUSH1 0x0 DUP4 ADD MSTORE PUSH2 0x49F2 DUP2 PUSH2 0x49B6 JUMP JUMPDEST SWAP1 POP SWAP2 SWAP1 POP JUMP JUMPDEST PUSH32 0x4552433732313A207472616E7366657220746F20746865207A65726F20616464 PUSH1 0x0 DUP3 ADD MSTORE PUSH32 0x7265737300000000000000000000000000000000000000000000000000000000 PUSH1 0x20 DUP3 ADD MSTORE POP JUMP JUMPDEST PUSH1 0x0 PUSH2 0x4A55 PUSH1 0x24 DUP4 PUSH2 0x30A6 JUMP JUMPDEST SWAP2 POP PUSH2 0x4A60 DUP3 PUSH2 0x49F9 JUMP JUMPDEST PUSH1 0x40 DUP3 ADD SWAP1 POP SWAP2 SWAP1 POP JUMP JUMPDEST PUSH1 0x0 PUSH1 0x20 DUP3 ADD SWAP1 POP DUP2 DUP2 SUB PUSH1 0x0 DUP4 ADD MSTORE PUSH2 0x4A84 DUP2 PUSH2 0x4A48 JUMP JUMPDEST SWAP1 POP SWAP2 SWAP1 POP JUMP JUMPDEST PUSH32 0x45786365656473206D6178206D696E7420706572207472616E73616374696F6E PUSH1 0x0 DUP3 ADD MSTORE POP JUMP JUMPDEST PUSH1 0x0 PUSH2 0x4AC1 PUSH1 0x20 DUP4 PUSH2 0x30A6 JUMP JUMPDEST SWAP2 POP PUSH2 0x4ACC DUP3 PUSH2 0x4A8B JUMP JUMPDEST PUSH1 0x20 DUP3 ADD SWAP1 POP SWAP2 SWAP1 POP JUMP JUMPDEST PUSH1 0x0 PUSH1 0x20 DUP3 ADD SWAP1 POP DUP2 DUP2 SUB PUSH1 0x0 DUP4 ADD MSTORE PUSH2 0x4AF0 DUP2 PUSH2 0x4AB4 JUMP JUMPDEST SWAP1 POP SWAP2 SWAP1 POP JUMP JUMPDEST PUSH32 0x457863656564732077616C6C6574206D696E74206C696D697400000000000000 PUSH1 0x0 DUP3 ADD MSTORE POP JUMP JUMPDEST PUSH1 0x0 PUSH2 0x4B2D PUSH1 0x19 DUP4 PUSH2 0x30A6 JUMP JUMPDEST SWAP2 POP PUSH2 0x4B38 DUP3 PUSH2 0x4AF7 JUMP JUMPDEST PUSH1 0x20 DUP3 ADD SWAP1 POP SWAP2 SWAP1 POP JUMP JUMPDEST PUSH1 0x0 PUSH1 0x20 DUP3 ADD SWAP1 POP DUP2 DUP2 SUB PUSH1 0x0 DUP4 ADD MSTORE PUSH2 0x4B5C DUP2 PUSH2 0x4B20 JUMP JUMPDEST SWAP1 POP SWAP2 SWAP1 POP JUMP JUMPDEST PUSH32 0x45786365656473206D617820737570706C790000000000000000000000000000 PUSH1 0x0 DUP3 ADD MSTORE POP JUMP JUMPDEST PUSH1 0x0 PUSH2 0x4B99 PUSH1 0x12 DUP4 PUSH2 0x30A6 JUMP JUMPDEST SWAP2 POP PUSH2 0x4BA4 DUP3 PUSH2 0x4B63 JUMP JUMPDEST PUSH1 0x20 DUP3 ADD SWAP1 POP SWAP2 SWAP1 POP JUMP JUMPDEST PUSH1 0x0 PUSH1 0x20 DUP3 ADD SWAP1 POP DUP2 DUP2 SUB PUSH1 0x0 DUP4 ADD MSTORE PUSH2 0x4BC8 DUP2 PUSH2 0x4B8C JUMP JUMPDEST SWAP1 POP SWAP2 SWAP1 POP JUMP JUMPDEST PUSH32 0x496E636F7272656374204D4F4E2076616C756500000000000000000000000000 PUSH1 0x0 DUP3 ADD MSTORE POP JUMP JUMPDEST PUSH1 0x0 PUSH2 0x4C05 PUSH1 0x13 DUP4 PUSH2 0x30A6 JUMP JUMPDEST SWAP2 POP PUSH2 0x4C10 DUP3 PUSH2 0x4BCF JUMP JUMPDEST PUSH1 0x20 DUP3 ADD SWAP1 POP SWAP2 SWAP1 POP JUMP JUMPDEST PUSH1 0x0 PUSH1 0x20 DUP3 ADD SWAP1 POP DUP2 DUP2 SUB PUSH1 0x0 DUP4 ADD MSTORE PUSH2 0x4C34 DUP2 PUSH2 0x4BF8 JUMP JUMPDEST SWAP1 POP SWAP2 SWAP1 POP JUMP JUMPDEST PUSH32 0x4552433732313A20617070726F766520746F2063616C6C657200000000000000 PUSH1 0x0 DUP3 ADD MSTORE POP JUMP JUMPDEST PUSH1 0x0 PUSH2 0x4C71 PUSH1 0x19 DUP4 PUSH2 0x30A6 JUMP JUMPDEST SWAP2 POP PUSH2 0x4C7C DUP3 PUSH2 0x4C3B JUMP JUMPDEST PUSH1 0x20 DUP3 ADD SWAP1 POP SWAP2 SWAP1 POP JUMP JUMPDEST PUSH1 0x0 PUSH1 0x20 DUP3 ADD SWAP1 POP DUP2 DUP2 SUB PUSH1 0x0 DUP4 ADD MSTORE PUSH2 0x4CA0 DUP2 PUSH2 0x4C64 JUMP JUMPDEST SWAP1 POP SWAP2 SWAP1 POP JUMP JUMPDEST PUSH32 0x4552433732313A207472616E7366657220746F206E6F6E204552433732315265 PUSH1 0x0 DUP3 ADD MSTORE PUSH32 0x63656976657220696D706C656D656E7465720000000000000000000000000000 PUSH1 0x20 DUP3 ADD MSTORE POP JUMP JUMPDEST PUSH1 0x0 PUSH2 0x4D03 PUSH1 0x32 DUP4 PUSH2 0x30A6 JUMP JUMPDEST SWAP2 POP PUSH2 0x4D0E DUP3 PUSH2 0x4CA7 JUMP JUMPDEST PUSH1 0x40 DUP3 ADD SWAP1 POP SWAP2 SWAP1 POP JUMP JUMPDEST PUSH1 0x0 PUSH1 0x20 DUP3 ADD SWAP1 POP DUP2 DUP2 SUB PUSH1 0x0 DUP4 ADD MSTORE PUSH2 0x4D32 DUP2 PUSH2 0x4CF6 JUMP JUMPDEST SWAP1 POP SWAP2 SWAP1 POP JUMP JUMPDEST PUSH1 0x0 PUSH2 0x4D44 DUP3 PUSH2 0x314D JUMP JUMPDEST SWAP2 POP PUSH32 0xFFFFFFFFFFFFFFFFFFFFFFFFFFFFFFFFFFFFFFFFFFFFFFFFFFFFFFFFFFFFFFFF DUP3 SUB PUSH2 0x4D76 JUMPI PUSH2 0x4D75 PUSH2 0x3E18 JUMP JUMPDEST JUMPDEST PUSH1 0x1 DUP3 ADD SWAP1 POP SWAP2 SWAP1 POP JUMP JUMPDEST PUSH1 0x0 PUSH2 0x4D8C DUP3 PUSH2 0x314D JUMP JUMPDEST SWAP2 POP PUSH2 0x4D97 DUP4 PUSH2 0x314D JUMP JUMPDEST SWAP3 POP DUP3 PUSH2 0x4DA7 JUMPI PUSH2 0x4DA6 PUSH2 0x3E89 JUMP JUMPDEST JUMPDEST DUP3 DUP3 MOD SWAP1 POP SWAP3 SWAP2 POP POP JUMP JUMPDEST PUSH32 0x4E487B7100000000000000000000000000000000000000000000000000000000 PUSH1 0x0 MSTORE PUSH1 0x32 PUSH1 0x4 MSTORE PUSH1 0x24 PUSH1 0x0 REVERT JUMPDEST PUSH1 0x0 DUP2 MLOAD SWAP1 POP SWAP2 SWAP1 POP JUMP JUMPDEST PUSH1 0x0 DUP3 DUP3 MSTORE PUSH1 0x20 DUP3 ADD SWAP1 POP SWAP3 SWAP2 POP POP JUMP JUMPDEST PUSH1 0x0 PUSH2 0x4E08 DUP3 PUSH2 0x4DE1 JUMP JUMPDEST PUSH2 0x4E12 DUP2 DUP6 PUSH2 0x4DEC JUMP JUMPDEST SWAP4 POP PUSH2 0x4E22 DUP2 DUP6 PUSH1 0x20 DUP7 ADD PUSH2 0x30B7 JUMP JUMPDEST PUSH2 0x4E2B DUP2 PUSH2 0x30E1 JUMP JUMPDEST DUP5 ADD SWAP2 POP POP SWAP3 SWAP2 POP POP JUMP JUMPDEST PUSH1 0x0 PUSH1 0x80 DUP3 ADD SWAP1 POP PUSH2 0x4E4B PUSH1 0x0 DUP4 ADD DUP8 PUSH2 0x31E2 JUMP JUMPDEST PUSH2 0x4E58 PUSH1 0x20 DUP4 ADD DUP7 PUSH2 0x31E2 JUMP JUMPDEST PUSH2 0x4E65 PUSH1 0x40 DUP4 ADD DUP6 PUSH2 0x3278 JUMP JUMPDEST DUP2 DUP2 SUB PUSH1 0x60 DUP4 ADD MSTORE PUSH2 0x4E77 DUP2 DUP5 PUSH2 0x4DFD JUMP JUMPDEST SWAP1 POP SWAP6 SWAP5 POP POP POP POP POP JUMP JUMPDEST PUSH1 0x0 DUP2 MLOAD SWAP1 POP PUSH2 0x4E91 DUP2 PUSH2 0x300C JUMP JUMPDEST SWAP3 SWAP2 POP POP JUMP JUMPDEST PUSH1 0x0 PUSH1 0x20 DUP3 DUP5 SUB SLT ISZERO PUSH2 0x4EAD JUMPI PUSH2 0x4EAC PUSH2 0x2FD6 JUMP JUMPDEST JUMPDEST PUSH1 0x0 PUSH2 0x4EBB DUP5 DUP3 DUP6 ADD PUSH2 0x4E82 JUMP JUMPDEST SWAP2 POP POP SWAP3 SWAP2 POP POP JUMP JUMPDEST PUSH32 0x4552433732313A206D696E7420746F20746865207A65726F2061646472657373 PUSH1 0x0 DUP3 ADD MSTORE POP JUMP JUMPDEST PUSH1 0x0 PUSH2 0x4EFA PUSH1 0x20 DUP4 PUSH2 0x30A6 JUMP JUMPDEST SWAP2 POP PUSH2 0x4F05 DUP3 PUSH2 0x4EC4 JUMP JUMPDEST PUSH1 0x20 DUP3 ADD SWAP1 POP SWAP2 SWAP1 POP JUMP JUMPDEST PUSH1 0x0 PUSH1 0x20 DUP3 ADD SWAP1 POP DUP2 DUP2 SUB PUSH1 0x0 DUP4 ADD MSTORE PUSH2 0x4F29 DUP2 PUSH2 0x4EED JUMP JUMPDEST SWAP1 POP SWAP2 SWAP1 POP JUMP JUMPDEST PUSH32 0x4552433732313A20746F6B656E20616C7265616479206D696E74656400000000 PUSH1 0x0 DUP3 ADD MSTORE POP JUMP JUMPDEST PUSH1 0x0 PUSH2 0x4F66 PUSH1 0x1C DUP4 PUSH2 0x30A6 JUMP JUMPDEST SWAP2 POP PUSH2 0x4F71 DUP3 PUSH2 0x4F30 JUMP JUMPDEST PUSH1 0x20 DUP3 ADD SWAP1 POP SWAP2 SWAP1 POP JUMP JUMPDEST PUSH1 0x0 PUSH1 0x20 DUP3 ADD SWAP1 POP DUP2 DUP2 SUB PUSH1 0x0 DUP4 ADD MSTORE PUSH2 0x4F95 DUP2 PUSH2 0x4F59 JUMP JUMPDEST SWAP1 POP SWAP2 SWAP1 POP JUMP INVALID LOG2 PUSH5 0x6970667358 0x22 SLT KECCAK256 0xAA 0xA8 0xE9 0xE6 0xD0 SUB DUP9 RETURNDATASIZE PUSH20 0x6DAEF037A966CA367798C44E8FD5BC755EC1C681 0xDE 0xCC 0xBC PUSH5 0x736F6C6343 STOP ADDMOD BYTE STOP CALLER "},"methodIdentifiers":{"PLATFORM_ADDRESS()":"bbc28489","PLATFORM_ROYALTY()":"d6b8a82e","approve(address,uint256)":"095ea7b3","balanceOf(address)":"70a08231","baseUri()":"9abc8320","collectionConfig()":"6b34d725","getApproved(uint256)":"081812fc","isApprovedForAll(address,address)":"e985e9c5","isPublicSaleActive()":"1e84c413","isValid(bytes32[],bytes32)":"b8a20ed0","isWhitelistActive()":"524513d6","name()":"06fdde03","owner()":"8da5cb5b","ownerOf(uint256)":"6352211e","publicMint(uint256)":"2db11544","renounceOwnership()":"715018a6","royaltyFee()":"b8997a97","royaltyInfo(uint256,uint256)":"2a55205a","safeTransferFrom(address,address,uint256)":"42842e0e","safeTransferFrom(address,address,uint256,bytes)":"b88d4fde","saleConfig()":"90aa0b0f","setApprovalForAll(address,bool)":"a22cb465","setBaseURI(string)":"55f804b3","setMaxMintLimits(uint256,uint256)":"7f31d96a","setPrice(uint256)":"91b7f5ed","setRoot(bytes32)":"dab5f340","setRoyalty(uint256)":"4209a2e1","setSaleTimes(uint256,uint256,uint256,uint256)":"7bc10294","setWhitelistPrice(uint256)":"717d57d3","supportsInterface(bytes4)":"01ffc9a7","symbol()":"95d89b41","togglePublicSale()":"e222c7f9","toggleWhitelistSale()":"59eda1b5","tokenURI(uint256)":"c87b56dd","totalSupply()":"18160ddd","transferFrom(address,address,uint256)":"23b872dd","transferOwnership(address)":"f2fde38b","whitelistMint(bytes32[],uint256)":"2904e6d9","withdrawAll()":"853828b6"}}}}}